{
	"data": {
		"bytecode": {
			"linkReferences": {},
			"object": "60e0604052602e60808181529061099860a03960039061001f908261012a565b50600060055534801561003157600080fd5b506040516109c63803806109c683398101604081905261005091610205565b600180546001600160a01b039384166001600160a01b0319918216179091556004805482163317905560008054929093169116179055610238565b634e487b7160e01b600052604160045260246000fd5b600181811c908216806100b557607f821691505b6020821081036100d557634e487b7160e01b600052602260045260246000fd5b50919050565b601f82111561012557600081815260208120601f850160051c810160208610156101025750805b601f850160051c820191505b818110156101215782815560010161010e565b5050505b505050565b81516001600160401b038111156101435761014361008b565b6101578161015184546100a1565b846100db565b602080601f83116001811461018c57600084156101745750858301515b600019600386901b1c1916600185901b178555610121565b600085815260208120601f198616915b828110156101bb5788860151825594840194600190910190840161019c565b50858210156101d95787850151600019600388901b60f8161c191681555b5050505050600190811b01905550565b80516001600160a01b038116811461020057600080fd5b919050565b6000806040838503121561021857600080fd5b610221836101e9565b915061022f602084016101e9565b90509250929050565b610751806102476000396000f3fe608060405234801561001057600080fd5b506004361061009e5760003560e01c8063affed0e011610066578063affed0e01461012c578063c884ef8314610143578063e70761ef14610176578063eb1f9f6e1461017f578063fd9be5221461019257600080fd5b8063130dcda1146100a35780633158952e146100b857806399ae559d146100c0578063a593d48614610106578063a7a1ed7214610119575b600080fd5b6100b66100b13660046103c3565b6101a5565b005b6100b66101e2565b6100e96100ce3660046103ed565b6006602052600090815260409020546001600160a01b031681565b6040516001600160a01b0390911681526020015b60405180910390f35b6001546100e9906001600160a01b031681565b6000546100e9906001600160a01b031681565b61013560025481565b6040519081526020016100fd565b610166610151366004610406565b60076020526000908152604090205460ff1681565b60405190151581526020016100fd565b61013560055481565b6100b661018d36600461043e565b6102f3565b6100b66101a03660046103c3565b61031a565b6004546001600160a01b031633146101bc57600080fd5b600180546001600160a01b0319166001600160a01b039390931692909217909155600555565b3360009081526007602052604090205460ff161561023d5760405162461bcd60e51b8152602060048201526014602482015273436c61696d6564205061737320416c726561647960601b604482015260640160405180910390fd5b60005460405163d0def52160e01b81526001600160a01b039091169063d0def52190610270903390600390600401610529565b600060405180830381600087803b15801561028a57600080fd5b505af115801561029e573d6000803e3d6000fd5b5050336000818152600760209081526040808320805460ff191660011790556002805484526006909252822080546001600160a01b031916909317909255815493509091506102ec836105c4565b9190505550565b6004546001600160a01b0316331461030a57600080fd5b60036103168282610639565b5050565b6004546001600160a01b0316331461033157600080fd5b60405163a9059cbb60e01b8152336004820152602481018290526001600160a01b0383169063a9059cbb906044016020604051808303816000875af115801561037e573d6000803e3d6000fd5b505050506040513d601f19601f820116820180604052508101906103a291906106f9565b505050565b80356001600160a01b03811681146103be57600080fd5b919050565b600080604083850312156103d657600080fd5b6103df836103a7565b946020939093013593505050565b6000602082840312156103ff57600080fd5b5035919050565b60006020828403121561041857600080fd5b610421826103a7565b9392505050565b634e487b7160e01b600052604160045260246000fd5b60006020828403121561045057600080fd5b813567ffffffffffffffff8082111561046857600080fd5b818401915084601f83011261047c57600080fd5b81358181111561048e5761048e610428565b604051601f8201601f19908116603f011681019083821181831017156104b6576104b6610428565b816040528281528760208487010111156104cf57600080fd5b826020860160208301376000928101602001929092525095945050505050565b600181811c9082168061050357607f821691505b60208210810361052357634e487b7160e01b600052602260045260246000fd5b50919050565b60018060a01b0383168152600060206040818401526000845461054b816104ef565b806040870152606060018084166000811461056d5760018114610587576105b5565b60ff1985168984015283151560051b8901830195506105b5565b896000528660002060005b858110156105ad5781548b8201860152908301908801610592565b8a0184019650505b50939998505050505050505050565b6000600182016105e457634e487b7160e01b600052601160045260246000fd5b5060010190565b601f8211156103a257600081815260208120601f850160051c810160208610156106125750805b601f850160051c820191505b818110156106315782815560010161061e565b505050505050565b815167ffffffffffffffff81111561065357610653610428565b6106678161066184546104ef565b846105eb565b602080601f83116001811461069c57600084156106845750858301515b600019600386901b1c1916600185901b178555610631565b600085815260208120601f198616915b828110156106cb578886015182559484019460019091019084016106ac565b50858210156106e95787850151600019600388901b60f8161c191681555b5050505050600190811b01905550565b60006020828403121561070b57600080fd5b8151801515811461042157600080fdfea2646970667358221220491e9ee0c47fc2354a15236802b70e2985b63d7f2ef901af3d57e80728ac9e9064736f6c63430008110033516d50464b6653336e59376347696b634632674b474a47314b4d695877664a6e374a686d6f584147536779425341",
			"opcodes": "PUSH1 0xE0 PUSH1 0x40 MSTORE PUSH1 0x2E PUSH1 0x80 DUP2 DUP2 MSTORE SWAP1 PUSH2 0x998 PUSH1 0xA0 CODECOPY PUSH1 0x3 SWAP1 PUSH2 0x1F SWAP1 DUP3 PUSH2 0x12A JUMP JUMPDEST POP PUSH1 0x0 PUSH1 0x5 SSTORE CALLVALUE DUP1 ISZERO PUSH2 0x31 JUMPI PUSH1 0x0 DUP1 REVERT JUMPDEST POP PUSH1 0x40 MLOAD PUSH2 0x9C6 CODESIZE SUB DUP1 PUSH2 0x9C6 DUP4 CODECOPY DUP2 ADD PUSH1 0x40 DUP2 SWAP1 MSTORE PUSH2 0x50 SWAP2 PUSH2 0x205 JUMP JUMPDEST PUSH1 0x1 DUP1 SLOAD PUSH1 0x1 PUSH1 0x1 PUSH1 0xA0 SHL SUB SWAP4 DUP5 AND PUSH1 0x1 PUSH1 0x1 PUSH1 0xA0 SHL SUB NOT SWAP2 DUP3 AND OR SWAP1 SWAP2 SSTORE PUSH1 0x4 DUP1 SLOAD DUP3 AND CALLER OR SWAP1 SSTORE PUSH1 0x0 DUP1 SLOAD SWAP3 SWAP1 SWAP4 AND SWAP2 AND OR SWAP1 SSTORE PUSH2 0x238 JUMP JUMPDEST PUSH4 0x4E487B71 PUSH1 0xE0 SHL PUSH1 0x0 MSTORE PUSH1 0x41 PUSH1 0x4 MSTORE PUSH1 0x24 PUSH1 0x0 REVERT JUMPDEST PUSH1 0x1 DUP2 DUP2 SHR SWAP1 DUP3 AND DUP1 PUSH2 0xB5 JUMPI PUSH1 0x7F DUP3 AND SWAP2 POP JUMPDEST PUSH1 0x20 DUP3 LT DUP2 SUB PUSH2 0xD5 JUMPI PUSH4 0x4E487B71 PUSH1 0xE0 SHL PUSH1 0x0 MSTORE PUSH1 0x22 PUSH1 0x4 MSTORE PUSH1 0x24 PUSH1 0x0 REVERT JUMPDEST POP SWAP2 SWAP1 POP JUMP JUMPDEST PUSH1 0x1F DUP3 GT ISZERO PUSH2 0x125 JUMPI PUSH1 0x0 DUP2 DUP2 MSTORE PUSH1 0x20 DUP2 KECCAK256 PUSH1 0x1F DUP6 ADD PUSH1 0x5 SHR DUP2 ADD PUSH1 0x20 DUP7 LT ISZERO PUSH2 0x102 JUMPI POP DUP1 JUMPDEST PUSH1 0x1F DUP6 ADD PUSH1 0x5 SHR DUP3 ADD SWAP2 POP JUMPDEST DUP2 DUP2 LT ISZERO PUSH2 0x121 JUMPI DUP3 DUP2 SSTORE PUSH1 0x1 ADD PUSH2 0x10E JUMP JUMPDEST POP POP POP JUMPDEST POP POP POP JUMP JUMPDEST DUP2 MLOAD PUSH1 0x1 PUSH1 0x1 PUSH1 0x40 SHL SUB DUP2 GT ISZERO PUSH2 0x143 JUMPI PUSH2 0x143 PUSH2 0x8B JUMP JUMPDEST PUSH2 0x157 DUP2 PUSH2 0x151 DUP5 SLOAD PUSH2 0xA1 JUMP JUMPDEST DUP5 PUSH2 0xDB JUMP JUMPDEST PUSH1 0x20 DUP1 PUSH1 0x1F DUP4 GT PUSH1 0x1 DUP2 EQ PUSH2 0x18C JUMPI PUSH1 0x0 DUP5 ISZERO PUSH2 0x174 JUMPI POP DUP6 DUP4 ADD MLOAD JUMPDEST PUSH1 0x0 NOT PUSH1 0x3 DUP7 SWAP1 SHL SHR NOT AND PUSH1 0x1 DUP6 SWAP1 SHL OR DUP6 SSTORE PUSH2 0x121 JUMP JUMPDEST PUSH1 0x0 DUP6 DUP2 MSTORE PUSH1 0x20 DUP2 KECCAK256 PUSH1 0x1F NOT DUP7 AND SWAP2 JUMPDEST DUP3 DUP2 LT ISZERO PUSH2 0x1BB JUMPI DUP9 DUP7 ADD MLOAD DUP3 SSTORE SWAP5 DUP5 ADD SWAP5 PUSH1 0x1 SWAP1 SWAP2 ADD SWAP1 DUP5 ADD PUSH2 0x19C JUMP JUMPDEST POP DUP6 DUP3 LT ISZERO PUSH2 0x1D9 JUMPI DUP8 DUP6 ADD MLOAD PUSH1 0x0 NOT PUSH1 0x3 DUP9 SWAP1 SHL PUSH1 0xF8 AND SHR NOT AND DUP2 SSTORE JUMPDEST POP POP POP POP POP PUSH1 0x1 SWAP1 DUP2 SHL ADD SWAP1 SSTORE POP JUMP JUMPDEST DUP1 MLOAD PUSH1 0x1 PUSH1 0x1 PUSH1 0xA0 SHL SUB DUP2 AND DUP2 EQ PUSH2 0x200 JUMPI PUSH1 0x0 DUP1 REVERT JUMPDEST SWAP2 SWAP1 POP JUMP JUMPDEST PUSH1 0x0 DUP1 PUSH1 0x40 DUP4 DUP6 SUB SLT ISZERO PUSH2 0x218 JUMPI PUSH1 0x0 DUP1 REVERT JUMPDEST PUSH2 0x221 DUP4 PUSH2 0x1E9 JUMP JUMPDEST SWAP2 POP PUSH2 0x22F PUSH1 0x20 DUP5 ADD PUSH2 0x1E9 JUMP JUMPDEST SWAP1 POP SWAP3 POP SWAP3 SWAP1 POP JUMP JUMPDEST PUSH2 0x751 DUP1 PUSH2 0x247 PUSH1 0x0 CODECOPY PUSH1 0x0 RETURN INVALID PUSH1 0x80 PUSH1 0x40 MSTORE CALLVALUE DUP1 ISZERO PUSH2 0x10 JUMPI PUSH1 0x0 DUP1 REVERT JUMPDEST POP PUSH1 0x4 CALLDATASIZE LT PUSH2 0x9E JUMPI PUSH1 0x0 CALLDATALOAD PUSH1 0xE0 SHR DUP1 PUSH4 0xAFFED0E0 GT PUSH2 0x66 JUMPI DUP1 PUSH4 0xAFFED0E0 EQ PUSH2 0x12C JUMPI DUP1 PUSH4 0xC884EF83 EQ PUSH2 0x143 JUMPI DUP1 PUSH4 0xE70761EF EQ PUSH2 0x176 JUMPI DUP1 PUSH4 0xEB1F9F6E EQ PUSH2 0x17F JUMPI DUP1 PUSH4 0xFD9BE522 EQ PUSH2 0x192 JUMPI PUSH1 0x0 DUP1 REVERT JUMPDEST DUP1 PUSH4 0x130DCDA1 EQ PUSH2 0xA3 JUMPI DUP1 PUSH4 0x3158952E EQ PUSH2 0xB8 JUMPI DUP1 PUSH4 0x99AE559D EQ PUSH2 0xC0 JUMPI DUP1 PUSH4 0xA593D486 EQ PUSH2 0x106 JUMPI DUP1 PUSH4 0xA7A1ED72 EQ PUSH2 0x119 JUMPI JUMPDEST PUSH1 0x0 DUP1 REVERT JUMPDEST PUSH2 0xB6 PUSH2 0xB1 CALLDATASIZE PUSH1 0x4 PUSH2 0x3C3 JUMP JUMPDEST PUSH2 0x1A5 JUMP JUMPDEST STOP JUMPDEST PUSH2 0xB6 PUSH2 0x1E2 JUMP JUMPDEST PUSH2 0xE9 PUSH2 0xCE CALLDATASIZE PUSH1 0x4 PUSH2 0x3ED JUMP JUMPDEST PUSH1 0x6 PUSH1 0x20 MSTORE PUSH1 0x0 SWAP1 DUP2 MSTORE PUSH1 0x40 SWAP1 KECCAK256 SLOAD PUSH1 0x1 PUSH1 0x1 PUSH1 0xA0 SHL SUB AND DUP2 JUMP JUMPDEST PUSH1 0x40 MLOAD PUSH1 0x1 PUSH1 0x1 PUSH1 0xA0 SHL SUB SWAP1 SWAP2 AND DUP2 MSTORE PUSH1 0x20 ADD JUMPDEST PUSH1 0x40 MLOAD DUP1 SWAP2 SUB SWAP1 RETURN JUMPDEST PUSH1 0x1 SLOAD PUSH2 0xE9 SWAP1 PUSH1 0x1 PUSH1 0x1 PUSH1 0xA0 SHL SUB AND DUP2 JUMP JUMPDEST PUSH1 0x0 SLOAD PUSH2 0xE9 SWAP1 PUSH1 0x1 PUSH1 0x1 PUSH1 0xA0 SHL SUB AND DUP2 JUMP JUMPDEST PUSH2 0x135 PUSH1 0x2 SLOAD DUP2 JUMP JUMPDEST PUSH1 0x40 MLOAD SWAP1 DUP2 MSTORE PUSH1 0x20 ADD PUSH2 0xFD JUMP JUMPDEST PUSH2 0x166 PUSH2 0x151 CALLDATASIZE PUSH1 0x4 PUSH2 0x406 JUMP JUMPDEST PUSH1 0x7 PUSH1 0x20 MSTORE PUSH1 0x0 SWAP1 DUP2 MSTORE PUSH1 0x40 SWAP1 KECCAK256 SLOAD PUSH1 0xFF AND DUP2 JUMP JUMPDEST PUSH1 0x40 MLOAD SWAP1 ISZERO ISZERO DUP2 MSTORE PUSH1 0x20 ADD PUSH2 0xFD JUMP JUMPDEST PUSH2 0x135 PUSH1 0x5 SLOAD DUP2 JUMP JUMPDEST PUSH2 0xB6 PUSH2 0x18D CALLDATASIZE PUSH1 0x4 PUSH2 0x43E JUMP JUMPDEST PUSH2 0x2F3 JUMP JUMPDEST PUSH2 0xB6 PUSH2 0x1A0 CALLDATASIZE PUSH1 0x4 PUSH2 0x3C3 JUMP JUMPDEST PUSH2 0x31A JUMP JUMPDEST PUSH1 0x4 SLOAD PUSH1 0x1 PUSH1 0x1 PUSH1 0xA0 SHL SUB AND CALLER EQ PUSH2 0x1BC JUMPI PUSH1 0x0 DUP1 REVERT JUMPDEST PUSH1 0x1 DUP1 SLOAD PUSH1 0x1 PUSH1 0x1 PUSH1 0xA0 SHL SUB NOT AND PUSH1 0x1 PUSH1 0x1 PUSH1 0xA0 SHL SUB SWAP4 SWAP1 SWAP4 AND SWAP3 SWAP1 SWAP3 OR SWAP1 SWAP2 SSTORE PUSH1 0x5 SSTORE JUMP JUMPDEST CALLER PUSH1 0x0 SWAP1 DUP2 MSTORE PUSH1 0x7 PUSH1 0x20 MSTORE PUSH1 0x40 SWAP1 KECCAK256 SLOAD PUSH1 0xFF AND ISZERO PUSH2 0x23D JUMPI PUSH1 0x40 MLOAD PUSH3 0x461BCD PUSH1 0xE5 SHL DUP2 MSTORE PUSH1 0x20 PUSH1 0x4 DUP3 ADD MSTORE PUSH1 0x14 PUSH1 0x24 DUP3 ADD MSTORE PUSH20 0x436C61696D6564205061737320416C7265616479 PUSH1 0x60 SHL PUSH1 0x44 DUP3 ADD MSTORE PUSH1 0x64 ADD PUSH1 0x40 MLOAD DUP1 SWAP2 SUB SWAP1 REVERT JUMPDEST PUSH1 0x0 SLOAD PUSH1 0x40 MLOAD PUSH4 0xD0DEF521 PUSH1 0xE0 SHL DUP2 MSTORE PUSH1 0x1 PUSH1 0x1 PUSH1 0xA0 SHL SUB SWAP1 SWAP2 AND SWAP1 PUSH4 0xD0DEF521 SWAP1 PUSH2 0x270 SWAP1 CALLER SWAP1 PUSH1 0x3 SWAP1 PUSH1 0x4 ADD PUSH2 0x529 JUMP JUMPDEST PUSH1 0x0 PUSH1 0x40 MLOAD DUP1 DUP4 SUB DUP2 PUSH1 0x0 DUP8 DUP1 EXTCODESIZE ISZERO DUP1 ISZERO PUSH2 0x28A JUMPI PUSH1 0x0 DUP1 REVERT JUMPDEST POP GAS CALL ISZERO DUP1 ISZERO PUSH2 0x29E JUMPI RETURNDATASIZE PUSH1 0x0 DUP1 RETURNDATACOPY RETURNDATASIZE PUSH1 0x0 REVERT JUMPDEST POP POP CALLER PUSH1 0x0 DUP2 DUP2 MSTORE PUSH1 0x7 PUSH1 0x20 SWAP1 DUP2 MSTORE PUSH1 0x40 DUP1 DUP4 KECCAK256 DUP1 SLOAD PUSH1 0xFF NOT AND PUSH1 0x1 OR SWAP1 SSTORE PUSH1 0x2 DUP1 SLOAD DUP5 MSTORE PUSH1 0x6 SWAP1 SWAP3 MSTORE DUP3 KECCAK256 DUP1 SLOAD PUSH1 0x1 PUSH1 0x1 PUSH1 0xA0 SHL SUB NOT AND SWAP1 SWAP4 OR SWAP1 SWAP3 SSTORE DUP2 SLOAD SWAP4 POP SWAP1 SWAP2 POP PUSH2 0x2EC DUP4 PUSH2 0x5C4 JUMP JUMPDEST SWAP2 SWAP1 POP SSTORE POP JUMP JUMPDEST PUSH1 0x4 SLOAD PUSH1 0x1 PUSH1 0x1 PUSH1 0xA0 SHL SUB AND CALLER EQ PUSH2 0x30A JUMPI PUSH1 0x0 DUP1 REVERT JUMPDEST PUSH1 0x3 PUSH2 0x316 DUP3 DUP3 PUSH2 0x639 JUMP JUMPDEST POP POP JUMP JUMPDEST PUSH1 0x4 SLOAD PUSH1 0x1 PUSH1 0x1 PUSH1 0xA0 SHL SUB AND CALLER EQ PUSH2 0x331 JUMPI PUSH1 0x0 DUP1 REVERT JUMPDEST PUSH1 0x40 MLOAD PUSH4 0xA9059CBB PUSH1 0xE0 SHL DUP2 MSTORE CALLER PUSH1 0x4 DUP3 ADD MSTORE PUSH1 0x24 DUP2 ADD DUP3 SWAP1 MSTORE PUSH1 0x1 PUSH1 0x1 PUSH1 0xA0 SHL SUB DUP4 AND SWAP1 PUSH4 0xA9059CBB SWAP1 PUSH1 0x44 ADD PUSH1 0x20 PUSH1 0x40 MLOAD DUP1 DUP4 SUB DUP2 PUSH1 0x0 DUP8 GAS CALL ISZERO DUP1 ISZERO PUSH2 0x37E JUMPI RETURNDATASIZE PUSH1 0x0 DUP1 RETURNDATACOPY RETURNDATASIZE PUSH1 0x0 REVERT JUMPDEST POP POP POP POP PUSH1 0x40 MLOAD RETURNDATASIZE PUSH1 0x1F NOT PUSH1 0x1F DUP3 ADD AND DUP3 ADD DUP1 PUSH1 0x40 MSTORE POP DUP2 ADD SWAP1 PUSH2 0x3A2 SWAP2 SWAP1 PUSH2 0x6F9 JUMP JUMPDEST POP POP POP JUMP JUMPDEST DUP1 CALLDATALOAD PUSH1 0x1 PUSH1 0x1 PUSH1 0xA0 SHL SUB DUP2 AND DUP2 EQ PUSH2 0x3BE JUMPI PUSH1 0x0 DUP1 REVERT JUMPDEST SWAP2 SWAP1 POP JUMP JUMPDEST PUSH1 0x0 DUP1 PUSH1 0x40 DUP4 DUP6 SUB SLT ISZERO PUSH2 0x3D6 JUMPI PUSH1 0x0 DUP1 REVERT JUMPDEST PUSH2 0x3DF DUP4 PUSH2 0x3A7 JUMP JUMPDEST SWAP5 PUSH1 0x20 SWAP4 SWAP1 SWAP4 ADD CALLDATALOAD SWAP4 POP POP POP JUMP JUMPDEST PUSH1 0x0 PUSH1 0x20 DUP3 DUP5 SUB SLT ISZERO PUSH2 0x3FF JUMPI PUSH1 0x0 DUP1 REVERT JUMPDEST POP CALLDATALOAD SWAP2 SWAP1 POP JUMP JUMPDEST PUSH1 0x0 PUSH1 0x20 DUP3 DUP5 SUB SLT ISZERO PUSH2 0x418 JUMPI PUSH1 0x0 DUP1 REVERT JUMPDEST PUSH2 0x421 DUP3 PUSH2 0x3A7 JUMP JUMPDEST SWAP4 SWAP3 POP POP POP JUMP JUMPDEST PUSH4 0x4E487B71 PUSH1 0xE0 SHL PUSH1 0x0 MSTORE PUSH1 0x41 PUSH1 0x4 MSTORE PUSH1 0x24 PUSH1 0x0 REVERT JUMPDEST PUSH1 0x0 PUSH1 0x20 DUP3 DUP5 SUB SLT ISZERO PUSH2 0x450 JUMPI PUSH1 0x0 DUP1 REVERT JUMPDEST DUP2 CALLDATALOAD PUSH8 0xFFFFFFFFFFFFFFFF DUP1 DUP3 GT ISZERO PUSH2 0x468 JUMPI PUSH1 0x0 DUP1 REVERT JUMPDEST DUP2 DUP5 ADD SWAP2 POP DUP5 PUSH1 0x1F DUP4 ADD SLT PUSH2 0x47C JUMPI PUSH1 0x0 DUP1 REVERT JUMPDEST DUP2 CALLDATALOAD DUP2 DUP2 GT ISZERO PUSH2 0x48E JUMPI PUSH2 0x48E PUSH2 0x428 JUMP JUMPDEST PUSH1 0x40 MLOAD PUSH1 0x1F DUP3 ADD PUSH1 0x1F NOT SWAP1 DUP2 AND PUSH1 0x3F ADD AND DUP2 ADD SWAP1 DUP4 DUP3 GT DUP2 DUP4 LT OR ISZERO PUSH2 0x4B6 JUMPI PUSH2 0x4B6 PUSH2 0x428 JUMP JUMPDEST DUP2 PUSH1 0x40 MSTORE DUP3 DUP2 MSTORE DUP8 PUSH1 0x20 DUP5 DUP8 ADD ADD GT ISZERO PUSH2 0x4CF JUMPI PUSH1 0x0 DUP1 REVERT JUMPDEST DUP3 PUSH1 0x20 DUP7 ADD PUSH1 0x20 DUP4 ADD CALLDATACOPY PUSH1 0x0 SWAP3 DUP2 ADD PUSH1 0x20 ADD SWAP3 SWAP1 SWAP3 MSTORE POP SWAP6 SWAP5 POP POP POP POP POP JUMP JUMPDEST PUSH1 0x1 DUP2 DUP2 SHR SWAP1 DUP3 AND DUP1 PUSH2 0x503 JUMPI PUSH1 0x7F DUP3 AND SWAP2 POP JUMPDEST PUSH1 0x20 DUP3 LT DUP2 SUB PUSH2 0x523 JUMPI PUSH4 0x4E487B71 PUSH1 0xE0 SHL PUSH1 0x0 MSTORE PUSH1 0x22 PUSH1 0x4 MSTORE PUSH1 0x24 PUSH1 0x0 REVERT JUMPDEST POP SWAP2 SWAP1 POP JUMP JUMPDEST PUSH1 0x1 DUP1 PUSH1 0xA0 SHL SUB DUP4 AND DUP2 MSTORE PUSH1 0x0 PUSH1 0x20 PUSH1 0x40 DUP2 DUP5 ADD MSTORE PUSH1 0x0 DUP5 SLOAD PUSH2 0x54B DUP2 PUSH2 0x4EF JUMP JUMPDEST DUP1 PUSH1 0x40 DUP8 ADD MSTORE PUSH1 0x60 PUSH1 0x1 DUP1 DUP5 AND PUSH1 0x0 DUP2 EQ PUSH2 0x56D JUMPI PUSH1 0x1 DUP2 EQ PUSH2 0x587 JUMPI PUSH2 0x5B5 JUMP JUMPDEST PUSH1 0xFF NOT DUP6 AND DUP10 DUP5 ADD MSTORE DUP4 ISZERO ISZERO PUSH1 0x5 SHL DUP10 ADD DUP4 ADD SWAP6 POP PUSH2 0x5B5 JUMP JUMPDEST DUP10 PUSH1 0x0 MSTORE DUP7 PUSH1 0x0 KECCAK256 PUSH1 0x0 JUMPDEST DUP6 DUP2 LT ISZERO PUSH2 0x5AD JUMPI DUP2 SLOAD DUP12 DUP3 ADD DUP7 ADD MSTORE SWAP1 DUP4 ADD SWAP1 DUP9 ADD PUSH2 0x592 JUMP JUMPDEST DUP11 ADD DUP5 ADD SWAP7 POP POP JUMPDEST POP SWAP4 SWAP10 SWAP9 POP POP POP POP POP POP POP POP POP JUMP JUMPDEST PUSH1 0x0 PUSH1 0x1 DUP3 ADD PUSH2 0x5E4 JUMPI PUSH4 0x4E487B71 PUSH1 0xE0 SHL PUSH1 0x0 MSTORE PUSH1 0x11 PUSH1 0x4 MSTORE PUSH1 0x24 PUSH1 0x0 REVERT JUMPDEST POP PUSH1 0x1 ADD SWAP1 JUMP JUMPDEST PUSH1 0x1F DUP3 GT ISZERO PUSH2 0x3A2 JUMPI PUSH1 0x0 DUP2 DUP2 MSTORE PUSH1 0x20 DUP2 KECCAK256 PUSH1 0x1F DUP6 ADD PUSH1 0x5 SHR DUP2 ADD PUSH1 0x20 DUP7 LT ISZERO PUSH2 0x612 JUMPI POP DUP1 JUMPDEST PUSH1 0x1F DUP6 ADD PUSH1 0x5 SHR DUP3 ADD SWAP2 POP JUMPDEST DUP2 DUP2 LT ISZERO PUSH2 0x631 JUMPI DUP3 DUP2 SSTORE PUSH1 0x1 ADD PUSH2 0x61E JUMP JUMPDEST POP POP POP POP POP POP JUMP JUMPDEST DUP2 MLOAD PUSH8 0xFFFFFFFFFFFFFFFF DUP2 GT ISZERO PUSH2 0x653 JUMPI PUSH2 0x653 PUSH2 0x428 JUMP JUMPDEST PUSH2 0x667 DUP2 PUSH2 0x661 DUP5 SLOAD PUSH2 0x4EF JUMP JUMPDEST DUP5 PUSH2 0x5EB JUMP JUMPDEST PUSH1 0x20 DUP1 PUSH1 0x1F DUP4 GT PUSH1 0x1 DUP2 EQ PUSH2 0x69C JUMPI PUSH1 0x0 DUP5 ISZERO PUSH2 0x684 JUMPI POP DUP6 DUP4 ADD MLOAD JUMPDEST PUSH1 0x0 NOT PUSH1 0x3 DUP7 SWAP1 SHL SHR NOT AND PUSH1 0x1 DUP6 SWAP1 SHL OR DUP6 SSTORE PUSH2 0x631 JUMP JUMPDEST PUSH1 0x0 DUP6 DUP2 MSTORE PUSH1 0x20 DUP2 KECCAK256 PUSH1 0x1F NOT DUP7 AND SWAP2 JUMPDEST DUP3 DUP2 LT ISZERO PUSH2 0x6CB JUMPI DUP9 DUP7 ADD MLOAD DUP3 SSTORE SWAP5 DUP5 ADD SWAP5 PUSH1 0x1 SWAP1 SWAP2 ADD SWAP1 DUP5 ADD PUSH2 0x6AC JUMP JUMPDEST POP DUP6 DUP3 LT ISZERO PUSH2 0x6E9 JUMPI DUP8 DUP6 ADD MLOAD PUSH1 0x0 NOT PUSH1 0x3 DUP9 SWAP1 SHL PUSH1 0xF8 AND SHR NOT AND DUP2 SSTORE JUMPDEST POP POP POP POP POP PUSH1 0x1 SWAP1 DUP2 SHL ADD SWAP1 SSTORE POP JUMP JUMPDEST PUSH1 0x0 PUSH1 0x20 DUP3 DUP5 SUB SLT ISZERO PUSH2 0x70B JUMPI PUSH1 0x0 DUP1 REVERT JUMPDEST DUP2 MLOAD DUP1 ISZERO ISZERO DUP2 EQ PUSH2 0x421 JUMPI PUSH1 0x0 DUP1 REVERT INVALID LOG2 PUSH5 0x6970667358 0x22 SLT KECCAK256 0x49 0x1E SWAP15 0xE0 0xC4 PUSH32 0xC2354A15236802B70E2985B63D7F2EF901AF3D57E80728AC9E9064736F6C6343 STOP ADDMOD GT STOP CALLER MLOAD PUSH14 0x50464B6653336E59376347696B63 CHAINID ORIGIN PUSH8 0x4B474A47314B4D69 PC PUSH24 0x664A6E374A686D6F58414753677942534100000000000000 "
		},
		"gasEstimates": {
			"creation": {
				"codeDepositCost": "374600",
				"executionCost": "infinite",
				"totalCost": "infinite"
			},
			"external": {
				"Claim()": "infinite",
				"changeFeeDetails(address,uint256)": "48839",
				"changeUri(string)": "infinite",
				"claimed(address)": "2553",
				"claimers(uint256)": "2511",
				"dropFeeToken()": "2393",
				"dropPrice()": "2339",
				"nonce()": "2295",
				"pass()": "2415",
				"withdrawFee(address,uint256)": "infinite"
			}
		},
		"methodIdentifiers": {
			"Claim()": "3158952e",
			"changeFeeDetails(address,uint256)": "130dcda1",
			"changeUri(string)": "eb1f9f6e",
			"claimed(address)": "c884ef83",
			"claimers(uint256)": "99ae559d",
			"dropFeeToken()": "a593d486",
			"dropPrice()": "e70761ef",
			"nonce()": "affed0e0",
			"pass()": "a7a1ed72",
			"withdrawFee(address,uint256)": "fd9be522"
		}
	},
	"abi": [
		{
			"inputs": [
				{
					"internalType": "address",
					"name": "weth",
					"type": "address"
				},
				{
					"internalType": "address",
					"name": "_pass",
					"type": "address"
				}
			],
			"stateMutability": "nonpayable",
			"type": "constructor"
		},
		{
			"inputs": [],
			"name": "Claim",
			"outputs": [],
			"stateMutability": "nonpayable",
			"type": "function"
		},
		{
			"inputs": [
				{
					"internalType": "address",
					"name": "token",
					"type": "address"
				},
				{
					"internalType": "uint256",
					"name": "amount",
					"type": "uint256"
				}
			],
			"name": "changeFeeDetails",
			"outputs": [],
			"stateMutability": "nonpayable",
			"type": "function"
		},
		{
			"inputs": [
				{
					"internalType": "string",
					"name": "uri",
					"type": "string"
				}
			],
			"name": "changeUri",
			"outputs": [],
			"stateMutability": "nonpayable",
			"type": "function"
		},
		{
			"inputs": [
				{
					"internalType": "address",
					"name": "",
					"type": "address"
				}
			],
			"name": "claimed",
			"outputs": [
				{
					"internalType": "bool",
					"name": "",
					"type": "bool"
				}
			],
			"stateMutability": "view",
			"type": "function"
		},
		{
			"inputs": [
				{
					"internalType": "uint256",
					"name": "",
					"type": "uint256"
				}
			],
			"name": "claimers",
			"outputs": [
				{
					"internalType": "address",
					"name": "",
					"type": "address"
				}
			],
			"stateMutability": "view",
			"type": "function"
		},
		{
			"inputs": [],
			"name": "dropFeeToken",
			"outputs": [
				{
					"internalType": "address",
					"name": "",
					"type": "address"
				}
			],
			"stateMutability": "view",
			"type": "function"
		},
		{
			"inputs": [],
			"name": "dropPrice",
			"outputs": [
				{
					"internalType": "uint256",
					"name": "",
					"type": "uint256"
				}
			],
			"stateMutability": "view",
			"type": "function"
		},
		{
			"inputs": [],
			"name": "nonce",
			"outputs": [
				{
					"internalType": "uint256",
					"name": "",
					"type": "uint256"
				}
			],
			"stateMutability": "view",
			"type": "function"
		},
		{
			"inputs": [],
			"name": "pass",
			"outputs": [
				{
					"internalType": "contract ZONEPASS",
					"name": "",
					"type": "address"
				}
			],
			"stateMutability": "view",
			"type": "function"
		},
		{
			"inputs": [
				{
					"internalType": "address",
					"name": "token",
					"type": "address"
				},
				{
					"internalType": "uint256",
					"name": "amount",
					"type": "uint256"
				}
			],
			"name": "withdrawFee",
			"outputs": [],
			"stateMutability": "nonpayable",
			"type": "function"
		}
	]
}