{
	"data": {
		"bytecode": {
			"linkReferences": {},
			"object": "60806040523480156200001157600080fd5b5060016101655561891580620000286000396000f3fe6080604052600436106105575760003560e01c80637533d788116102bd578063b353aaa711610180578063d9548e53116100e7578063ec49fda0116100a0578063f2fde38b1161007a578063f2fde38b146112d1578063f5ecbdbc146112f1578063fa25f9b614611311578063fd71ca471461133f57600080fd5b8063ec49fda01461127e578063f06122ae14611291578063f2353641146112b157600080fd5b8063d9548e53146111a0578063db2c6dd9146111c0578063de73c155146111e0578063df2a5b3b146111f5578063e985e9c514611215578063eb8d72b71461125e57600080fd5b8063cbed8b9c11610139578063cbed8b9c146110f9578063cc9a658414611119578063cd88af6e14611147578063d0def5211461115a578063d12473a51461116d578063d1deba1f1461118d57600080fd5b8063b353aaa714611043578063b88d4fde14611064578063baf3292d14611084578063c4461834146110a4578063c87b56dd146110ba578063ca709a25146110da57600080fd5b8063950c8a74116102245780639f38369a116101dd5780639f38369a14610f88578063a22cb46514610fa8578063a6c3d16514610fc8578063a9d36f5b14610fe8578063ab3ffb9314611008578063af3fb21c1461101b57600080fd5b8063950c8a7414610ed157806395d89b4114610ef2578063983b2d5614610f07578063999ebe5514610f275780639e402dd614610f3a5780639ea5d6b114610f6857600080fd5b8063864018b711610276578063864018b714610e065780638af6c67014610e265780638b97304014610e465780638cfd8f5c14610e595780638da5cb5b14610e925780638ffa1f2a14610eb157600080fd5b80637533d78814610d495780637907d11c14610d695780637a8042a614610d895780637bce1b3414610d9c5780638318dea314610dbc57806383a6717b14610df157600080fd5b80633d6541991161042057806353f0620e1161038757806360bd30dd1161034057806370a082311161031a57806370a0823114610ce1578063715018a614610d0157806373a3daad14610d16578063747b8a1c14610d2957600080fd5b806360bd30dd146109565780636352211e14610ca157806366ad5c8a14610cc157600080fd5b806353f0620e14610b415780635557b27914610b665780635b8c41e614610b865780635baa423e14610bd65780635e34ae7814610c7b5780635fdd03a214610c8e57600080fd5b806342d65a8d116103d957806342d65a8d14610a885780634828819014610aa85780634828eccc14610abf5780634ac3f4ff14610ae05780634f6ccce714610b0e5780635190563614610b2e57600080fd5b80633d654199146109965780633d8b38f6146109db5780633e104a95146109fb5780633f1f4fa414610a1a57806342842e0e14610a4857806342966c6814610a6857600080fd5b806315cce224116104c45780632a205e3d1161047d5780632a205e3d146108ce5780632f745c59146109035780633092afd514610923578063361c0f87146109435780633bf7e8f4146109565780633cdc1d531461097657600080fd5b806315cce224146107c757806318160ddd146107e75780631dba087c146107fc578063228d0fd91461081557806322a3ecf91461082a57806323b872dd146108ae57600080fd5b8063095ea7b311610516578063095ea7b3146106df5780630b4cad4c146106ff5780630df374831461071f5780630f9e8bc01461073f57806310ddb1371461079457806313579820146107b457600080fd5b80621d35671461055c5780629c47a01461057e57806301ffc9a71461063557806306fdde031461066557806307e0db1714610687578063081812fc146106a7575b600080fd5b34801561056857600080fd5b5061057c61057736600461720d565b61135f565b005b34801561058a57600080fd5b506105ea6105993660046172a0565b61017160205260009081526040902080546001820154600283015460038401546004850154600586015460068701546007909701546001600160a01b03968716979590961695939492939192909188565b604080516001600160a01b03998a168152989097166020890152958701949094526060860192909252608085015260a084015260c083015260e0820152610100015b60405180910390f35b34801561064157600080fd5b506106556106503660046172cf565b61157d565b604051901515815260200161062c565b34801561067157600080fd5b5061067a6115a1565b60405161062c919061733c565b34801561069357600080fd5b5061057c6106a236600461734f565b611633565b3480156106b357600080fd5b506106c76106c23660046172a0565b6116a1565b6040516001600160a01b03909116815260200161062c565b3480156106eb57600080fd5b5061057c6106fa36600461738a565b6116c8565b34801561070b57600080fd5b5061057c61071a3660046172a0565b6117dd565b34801561072b57600080fd5b5061057c61073a3660046173b6565b611842565b34801561074b57600080fd5b5061078661075a36600461738a565b6000908152610171602090815260408083206001600160a01b0394909416835260089093019052205490565b60405190815260200161062c565b3480156107a057600080fd5b5061057c6107af36600461734f565b611862565b61057c6107c23660046173d2565b61189f565b3480156107d357600080fd5b5061057c6107e2366004617411565b611a84565b3480156107f357600080fd5b50609954610786565b34801561080857600080fd5b5061016f5460ff16610655565b34801561082157600080fd5b50610786611aaf565b34801561083657600080fd5b5061087f6108453660046172a0565b6101696020526000908152604090208054600182015460029092015461ffff821692620100009092046001600160a01b0316919060ff1684565b6040805161ffff90951685526001600160a01b039093166020850152918301521515606082015260800161062c565b3480156108ba57600080fd5b5061057c6108c936600461742e565b611ac6565b3480156108da57600080fd5b506108ee6108e9366004617540565b611af8565b6040805192835260208301919091520161062c565b34801561090f57600080fd5b5061078661091e36600461738a565b611b1e565b34801561092f57600080fd5b5061057c61093e366004617411565b611bb4565b61057c6109513660046175d2565b611c47565b34801561096257600080fd5b5061057c6109713660046172a0565b611fba565b34801561098257600080fd5b5061057c6109913660046175f4565b611fc8565b3480156109a257600080fd5b506109bc61016c5461016e546001600160a01b0390911691565b604080516001600160a01b03909316835260208301919091520161062c565b3480156109e757600080fd5b506106556109f636600461763e565b6121a6565b348015610a0757600080fd5b5061016b546001600160a01b03166106c7565b348015610a2657600080fd5b50610786610a3536600461734f565b6101626020526000908152604090205481565b348015610a5457600080fd5b5061057c610a6336600461742e565b612273565b348015610a7457600080fd5b5061057c610a833660046172a0565b61228e565b348015610a9457600080fd5b5061057c610aa336600461763e565b6122bf565b348015610ab457600080fd5b506107866101665481565b348015610acb57600080fd5b5061016c546106c7906001600160a01b031681565b348015610aec57600080fd5b50610786610afb36600461734f565b6101676020526000908152604090205481565b348015610b1a57600080fd5b50610786610b293660046172a0565b61232a565b61057c610b3c366004617690565b6123bd565b348015610b4d57600080fd5b5061057c61016b80546001600160a01b03191633179055565b348015610b7257600080fd5b5061057c610b813660046175d2565b6123d4565b348015610b9257600080fd5b50610786610ba1366004617749565b610164602090815260009384526040808520845180860184018051928152908401958401959095209452929052825290205481565b348015610be257600080fd5b50610c3b610bf13660046172a0565b6000908152610171602052604090206001810154815460028301546004840154600685015460058601546007909601546001600160a01b0395861697959094169592949193909291565b604080516001600160a01b039889168152979096166020880152948601939093526060850191909152608084015260a083015260c082015260e00161062c565b61057c610c893660046177a6565b6124ac565b61057c610c9c36600461781a565b612643565b348015610cad57600080fd5b506106c7610cbc3660046172a0565b6129c6565b348015610ccd57600080fd5b5061057c610cdc36600461720d565b612a26565b348015610ced57600080fd5b50610786610cfc366004617411565b612afa565b348015610d0d57600080fd5b5061057c612b80565b61057c610d24366004617879565b612b94565b348015610d3557600080fd5b5061057c610d443660046178d4565b612ee5565b348015610d5557600080fd5b5061067a610d6436600461734f565b6130dc565b348015610d7557600080fd5b50610655610d8436600461795a565b613177565b61057c610d9736600461798f565b61321c565b348015610da857600080fd5b5061057c610db736600461738a565b6134a4565b348015610dc857600080fd5b506108ee610dd73660046172a0565b610172602052600090815260409020805460019091015482565b348015610dfd57600080fd5b5061057c6135f8565b348015610e1257600080fd5b5061057c610e213660046175d2565b613610565b348015610e3257600080fd5b5061057c610e413660046172a0565b6136cd565b61057c610e543660046175d2565b613793565b348015610e6557600080fd5b50610786610e743660046179e7565b61016160209081526000928352604080842090915290825290205481565b348015610e9e57600080fd5b5061012d546001600160a01b03166106c7565b348015610ebd57600080fd5b5061057c610ecc366004617a1a565b6138c9565b348015610edd57600080fd5b50610163546106c7906001600160a01b031681565b348015610efe57600080fd5b5061067a613b17565b348015610f1357600080fd5b5061057c610f22366004617411565b613b26565b61057c610f353660046175d2565b613b81565b348015610f4657600080fd5b50610786610f55366004617411565b6101706020526000908152604090205481565b348015610f7457600080fd5b5061057c610f833660046173b6565b613d67565b348015610f9457600080fd5b5061067a610fa336600461734f565b613e1f565b348015610fb457600080fd5b5061057c610fc3366004617a4e565b613f36565b348015610fd457600080fd5b5061057c610fe336600461763e565b613f41565b348015610ff457600080fd5b5061057c611003366004617a87565b613fcb565b61057c611016366004617b49565b6140ff565b34801561102757600080fd5b50611030600181565b60405161ffff909116815260200161062c565b34801561104f57600080fd5b5061015f546106c7906001600160a01b031681565b34801561107057600080fd5b5061057c61107f366004617bfe565b61410e565b34801561109057600080fd5b5061057c61109f366004617411565b614146565b3480156110b057600080fd5b5061078661271081565b3480156110c657600080fd5b5061067a6110d53660046172a0565b61419d565b3480156110e657600080fd5b5061016c546001600160a01b03166106c7565b34801561110557600080fd5b5061057c611114366004617c69565b6141a8565b34801561112557600080fd5b5061113961113436600461795a565b614222565b60405161062c929190617cd7565b61057c611155366004617d05565b614524565b61057c611168366004617d44565b614871565b34801561117957600080fd5b5061057c6111883660046173b6565b6149e0565b61057c61119b36600461720d565b614a91565b3480156111ac57600080fd5b506106556111bb3660046172a0565b614ca9565b3480156111cc57600080fd5b5061057c6111db366004617a87565b614cd3565b3480156111ec57600080fd5b5061057c614eb1565b34801561120157600080fd5b5061057c611210366004617d93565b614ec6565b34801561122157600080fd5b50610655611230366004617dcf565b6001600160a01b039182166000908152606a6020908152604080832093909416825291909152205460ff1690565b34801561126a57600080fd5b5061057c61127936600461763e565b614f31565b61057c61128c366004617a87565b614f8c565b34801561129d57600080fd5b506111396112ac3660046175d2565b615143565b3480156112bd57600080fd5b506108ee6112cc366004617dfd565b61537c565b3480156112dd57600080fd5b5061057c6112ec366004617411565b61542b565b3480156112fd57600080fd5b5061067a61130c366004617e7a565b6154a1565b34801561131d57600080fd5b5061078661132c36600461734f565b6101686020526000908152604090205481565b34801561134b57600080fd5b5061057c61135a3660046175d2565b615537565b61015f546001600160a01b0316336001600160a01b0316146113c85760405162461bcd60e51b815260206004820152601e60248201527f4c7a4170703a20696e76616c696420656e64706f696e742063616c6c6572000060448201526064015b60405180910390fd5b61ffff861660009081526101606020526040812080546113e790617eb7565b80601f016020809104026020016040519081016040528092919081815260200182805461141390617eb7565b80156114605780601f1061143557610100808354040283529160200191611460565b820191906000526020600020905b81548152906001019060200180831161144357829003601f168201915b5050505050905080518686905014801561147b575060008151115b80156114a35750805160208201206040516114999088908890617ef1565b6040518091039020145b6114fe5760405162461bcd60e51b815260206004820152602660248201527f4c7a4170703a20696e76616c696420736f757263652073656e64696e6720636f6044820152651b9d1c9858dd60d21b60648201526084016113bf565b6115748787878080601f01602080910402602001604051908101604052809392919081815260200183838082843760009201919091525050604080516020601f8a018190048102820181019092528881528a93509150889088908190840183828082843760009201919091525061560f92505050565b50505050505050565b600061158882615688565b8061159b57506001600160e01b03198216155b92915050565b6060606580546115b090617eb7565b80601f01602080910402602001604051908101604052809291908181526020018280546115dc90617eb7565b80156116295780601f106115fe57610100808354040283529160200191611629565b820191906000526020600020905b81548152906001019060200180831161160c57829003601f168201915b5050505050905090565b61163b6156bd565b61015f546040516307e0db1760e01b815261ffff831660048201526001600160a01b03909116906307e0db17906024015b600060405180830381600087803b15801561168657600080fd5b505af115801561169a573d6000803e3d6000fd5b5050505050565b60006116ac82615718565b506000908152606960205260409020546001600160a01b031690565b60006116d3826129c6565b9050806001600160a01b0316836001600160a01b0316036117405760405162461bcd60e51b815260206004820152602160248201527f4552433732313a20617070726f76616c20746f2063757272656e74206f776e656044820152603960f91b60648201526084016113bf565b336001600160a01b038216148061175c575061175c8133611230565b6117ce5760405162461bcd60e51b815260206004820152603d60248201527f4552433732313a20617070726f76652063616c6c6572206973206e6f7420746f60448201527f6b656e206f776e6572206f7220617070726f76656420666f7220616c6c00000060648201526084016113bf565b6117d88383615768565b505050565b6117e56156bd565b600081116118055760405162461bcd60e51b81526004016113bf90617f01565b6101668190556040518181527ffebbc4f8bb9ec2313950c718d43123124b15778efda4c1f1d529de2995b4f34d906020015b60405180910390a150565b61184a6156bd565b61ffff90911660009081526101626020526040902055565b61186a6156bd565b61015f546040516310ddb13760e01b815261ffff831660048201526001600160a01b03909116906310ddb1379060240161166c565b6000805b61016a548110156118fb57600061016a82815481106118c4576118c4617f45565b6000918252602090912001546001600160a01b03169050338190036118e857600192505b50806118f381617f71565b9150506118a3565b506001811515148061190c57503330145b80611922575061012d546001600160a01b031633145b61193e5760405162461bcd60e51b81526004016113bf90617f8a565b6000858152610171602090815260408083206001600160a01b03871684526008019091529020548211156119845760405162461bcd60e51b81526004016113bf90617fb9565b610173548510801561199857506101735484105b6119a157600080fd5b600080526101706020526000805160206188c0833981519152546119c6903490617fd9565b6000805160206188c0833981519152556000858152610171602090815260408083206001600160a01b0387168452600801909152902054611a08908390617fec565b6000868152610171602081815260408084206001600160a01b03891680865260089182018452828620969096558985529282528084209484529390910190522054611a54908390617fd9565b6000858152610171602090815260408083206001600160a01b038816845260080190915290205561169a856136cd565b611a8c6156bd565b61016c80546001600160a01b0319166001600160a01b0392909216919091179055565b600061016e546005611ac19190617fff565b905090565b611ad1335b826157d6565b611aed5760405162461bcd60e51b81526004016113bf90618016565b6117d8838383615854565b600080611b108787611b09886159c5565b878761537c565b915091509550959350505050565b6000611b2983612afa565b8210611b8b5760405162461bcd60e51b815260206004820152602b60248201527f455243373231456e756d657261626c653a206f776e657220696e646578206f7560448201526a74206f6620626f756e647360a81b60648201526084016113bf565b506001600160a01b03919091166000908152609760209081526040808320938352929052205490565b611bbc6156bd565b60005b61016a54811015611c4357600061016a8281548110611be057611be0617f45565b6000918252602090912001546001600160a01b0390811691508316819003611c305761016a8281548110611c1657611c16617f45565b600091825260209091200180546001600160a01b03191690555b5080611c3b81617f71565b915050611bbf565b5050565b60008281526101716020526040902060018101546001600160a01b0316331480611c7a575080546001600160a01b031633145b611c965760405162461bcd60e51b81526004016113bf90618063565b60008281526009820160205260409020600201546001600160a01b03163314611cf55760405162461bcd60e51b81526020600482015260116024820152701b9bc81858d8d95cdcc81d1bc81cdb1bdd607a1b60448201526064016113bf565b61016e54611d04906005617fff565b61016c546001600160a01b03166000908152600883016020526040902054101580611da9575061016e54611d39906005617fff565b61016c546040516370a0823160e01b81523360048201526001600160a01b03909116906370a0823190602401602060405180830381865afa158015611d82573d6000803e3d6000fd5b505050506040513d601f19601f82011682018060405250810190611da6919061808d565b10155b611de05760405162461bcd60e51b81526020600482015260086024820152676e6565642066656560c01b60448201526064016113bf565b60018101546001600160a01b03163303611ea15761016e54611e03906005617fff565b61016c546001600160a01b03166000908152600883016020526040902054611e2b9190617fec565b61016c546001600160a01b0316600090815260088301602052604090205561016e54611e58906005617fff565b61016c546001600160a01b031660009081526101706020526040902054611e7f9190617fd9565b61016c546001600160a01b031660009081526101706020526040902055611f97565b61016c5461016e546001600160a01b03909116906323b872dd9033903090611eca906005617fff565b6040516001600160e01b031960e086901b1681526001600160a01b03938416600482015292909116602483015260448201526064016020604051808303816000875af1158015611f1e573d6000803e3d6000fd5b505050506040513d601f19601f82011682018060405250810190611f4291906180a6565b5061016e54611f52906005617fff565b61016c546001600160a01b031660009081526101706020526040902054611f799190617fd9565b61016c546001600160a01b0316600090815261017060205260409020555b611fa0836136cd565b600091825260090160205260409020805460ff1916905550565b611fc26156bd565b61016e55565b6000805b61016a5481101561202457600061016a8281548110611fed57611fed617f45565b6000918252602090912001546001600160a01b031690503381900361201157600192505b508061201c81617f71565b915050611fcc565b506001811515148061203557503330145b8061204b575061012d546001600160a01b031633145b6120675760405162461bcd60e51b81526004016113bf90617f8a565b600085815261017160205260409020600101546001600160a01b03838116911614806120ad5750600085815261017160205260409020546001600160a01b038381169116145b6120c95760405162461bcd60e51b81526004016113bf90618063565b6000858152610171602090815260408083208784526009019091529020600201546001600160a01b038381169116148015612122575060008581526101716020908152604080832087845260090190915290205460ff16155b61213e5760405162461bcd60e51b81526004016113bf906180c3565b612147856136cd565b60008581526101726020908152604082208681556002810180546001808201835591855292842090920180546001600160a01b0319166001600160a01b0388161790558783520180549161219a83617f71565b91905055505050505050565b61ffff831660009081526101606020526040812080548291906121c890617eb7565b80601f01602080910402602001604051908101604052809291908181526020018280546121f490617eb7565b80156122415780601f1061221657610100808354040283529160200191612241565b820191906000526020600020905b81548152906001019060200180831161222457829003601f168201915b505050505090508383604051612258929190617ef1565b60405180910390208180519060200120149150509392505050565b6117d88383836040518060200160405280600081525061410e565b61229733611acb565b6122b35760405162461bcd60e51b81526004016113bf90618016565b6122bc81615a10565b50565b6122c76156bd565b61015f546040516342d65a8d60e01b81526001600160a01b03909116906342d65a8d906122fc9086908690869060040161812d565b600060405180830381600087803b15801561231657600080fd5b505af1158015611574573d6000803e3d6000fd5b600061233560995490565b82106123985760405162461bcd60e51b815260206004820152602c60248201527f455243373231456e756d657261626c653a20676c6f62616c20696e646578206f60448201526b7574206f6620626f756e647360a01b60648201526084016113bf565b609982815481106123ab576123ab617f45565b90600052602060002001549050919050565b6115748787876123cc886159c5565b878787615a3b565b6000805b61016a5481101561243057600061016a82815481106123f9576123f9617f45565b6000918252602090912001546001600160a01b031690503381900361241d57600192505b508061242881617f71565b9150506123d8565b506001811515148061244157503330145b80612457575061012d546001600160a01b031633145b6124735760405162461bcd60e51b81526004016113bf90617f8a565b60008381526101716020526040902060070154612491908390617fec565b60009384526101716020526040909320600701929092555050565b6000805b61016a5481101561250857600061016a82815481106124d1576124d1617f45565b6000918252602090912001546001600160a01b03169050338190036124f557600192505b508061250081617f71565b9150506124b0565b506001811515148061251957503330145b8061252f575061012d546001600160a01b031633145b61254b5760405162461bcd60e51b81526004016113bf90617f8a565b600084815261017160205260409020600581015460068201548111156125a15760405162461bcd60e51b815260206004820152600b60248201526a1cdb1bdd08195e18d9595960aa1b60448201526064016113bf565b6000868152610171602052604081206005018054916125bf83617f71565b91905055506125cd866136cd565b600081815260098301602052604090206001016125ea8882618191565b50600081815260098301602052604090206003016126088682618191565b50600090815260099091016020526040902060020180546001600160a01b039093166001600160a01b03199093169290921790915550505050565b6000805b61016a5481101561269f57600061016a828154811061266857612668617f45565b6000918252602090912001546001600160a01b031690503381900361268c57600192505b508061269781617f71565b915050612647565b50600181151514806126b057503330145b806126c6575061012d546001600160a01b031633145b6126e25760405162461bcd60e51b81526004016113bf90617f8a565b6101735486106127045760405162461bcd60e51b81526004016113bf90618250565b6040516370a0823160e01b815230600482015284906001600160a01b038716906370a0823190602401602060405180830381865afa15801561274a573d6000803e3d6000fd5b505050506040513d601f19601f8201168201806040525081019061276e919061808d565b101580156127a257506000868152610171602090815260408083206001600160a01b03891684526008019091529020548411155b6127be5760405162461bcd60e51b81526004016113bf90617fb9565b600086815261017160205260409020600101546001600160a01b038381169116146128175760405162461bcd60e51b81526020600482015260096024820152683737ba1037bbb732b960b91b60448201526064016113bf565b600080526101706020526000805160206188c08339815191525461283c903490617fd9565b600080526101706020526000805160206188c0833981519152556001600160a01b0385166128e85760008681526101716020908152604080832083805260080190915290205461288d908590617fec565b6000878152610171602090815260408083208380526008019091528082209290925590516001600160a01b0385169186156108fc02918791818181858888f193505050501580156128e2573d6000803e3d6000fd5b506129b5565b6000868152610171602090815260408083206001600160a01b038916845260080190915290205461291a908590617fec565b6000878152610171602090815260408083206001600160a01b038a811680865260089092019093529281902093909355915163a9059cbb60e01b81529185166004830152602482018690529063a9059cbb906044015b6020604051808303816000875af115801561298f573d6000803e3d6000fd5b505050506040513d601f19601f820116820180604052508101906129b391906180a6565b505b6129be866136cd565b505050505050565b6000818152606760205260408120546001600160a01b03168061159b5760405162461bcd60e51b8152602060048201526018602482015277115490cdcc8c4e881a5b9d985b1a59081d1bdad95b88125160421b60448201526064016113bf565b333014612a845760405162461bcd60e51b815260206004820152602660248201527f4e6f6e626c6f636b696e674c7a4170703a2063616c6c6572206d7573742062656044820152650204c7a4170760d41b60648201526084016113bf565b6129be8686868080601f01602080910402602001604051908101604052809392919081815260200183838082843760009201919091525050604080516020601f890181900481028201810190925287815289935091508790879081908401838280828437600092019190915250615c1192505050565b60006001600160a01b038216612b645760405162461bcd60e51b815260206004820152602960248201527f4552433732313a2061646472657373207a65726f206973206e6f7420612076616044820152683634b21037bbb732b960b91b60648201526084016113bf565b506001600160a01b031660009081526068602052604090205490565b612b886156bd565b612b926000615d69565b565b610173548510612bb65760405162461bcd60e51b81526004016113bf90618250565b6040516370a0823160e01b815230600482015281906001600160a01b038416906370a0823190602401602060405180830381865afa158015612bfc573d6000803e3d6000fd5b505050506040513d601f19601f82011682018060405250810190612c20919061808d565b10158015612c5457506000858152610171602090815260408083206001600160a01b03861684526008019091529020548111155b612c705760405162461bcd60e51b81526004016113bf90617fb9565b600085815261017160205260409020600101546001600160a01b03848116911614612cc95760405162461bcd60e51b81526020600482015260096024820152683737ba1037bbb732b960b91b60448201526064016113bf565b600080526101706020526000805160206188c083398151915254612cee903490617fd9565b60008080526101706020526000805160206188c08339815191529190915561016d546103e890612d1e9084617fff565b612d289190618279565b6000878152610171602090815260408083206001600160a01b0388168452600801909152902054909150612d5d908390617fec565b6000878152610171602090815260408083206001600160a01b038816808552600890910190925290912091909155612e14576001600160a01b0385166108fc612da68385617fec565b6040518115909202916000818181858888f19350505050158015612dce573d6000803e3d6000fd5b50600086815261017160205260408082205490516001600160a01b039091169183156108fc02918491818181858888f193505050501580156128e2573d6000803e3d6000fd5b6001600160a01b03831663a9059cbb86612e2e8486617fec565b6040516001600160e01b031960e085901b1681526001600160a01b03909216600483015260248201526044016020604051808303816000875af1158015612e79573d6000803e3d6000fd5b505050506040513d601f19601f82011682018060405250810190612e9d91906180a6565b50600086815261017160205260409081902054905163a9059cbb60e01b81526001600160a01b039182166004820152602481018390529084169063a9059cbb90604401612970565b600054610100900460ff1615808015612f055750600054600160ff909116105b80612f1f5750303b158015612f1f575060005460ff166001145b612f825760405162461bcd60e51b815260206004820152602e60248201527f496e697469616c697a61626c653a20636f6e747261637420697320616c72656160448201526d191e481a5b9a5d1a585b1a5e995960921b60648201526084016113bf565b6000805460ff191660011790558015612fa5576000805461ff0019166101001790555b61016b546001600160a01b03163314612fef5760405162461bcd60e51b815260206004820152600c60248201526b6e6f7420696e69742061636360a01b60448201526064016113bf565b612ff98585615dbc565b613001615dfc565b613009615dfc565b613011615dfc565b613019615e23565b6130238284615e53565b61016a80546001810182556000919091527f17da1ae71935bc1a620f4cc216c63f7b5576c3970bae66f4178d3166b9912544018054336001600160a01b03199182161790915561016c80549091166001600160a01b038816179055600261016d55655af3107a400061016e5580156129be576000805461ff0019169055604051600181527f7f26b83ff96e1f2b6a682f133852f6798a09c465da95921460cefb38474024989060200160405180910390a1505050505050565b61016060205260009081526040902080546130f690617eb7565b80601f016020809104026020016040519081016040528092919081815260200182805461312290617eb7565b801561316f5780601f106131445761010080835404028352916020019161316f565b820191906000526020600020905b81548152906001019060200180831161315257829003601f168201915b505050505081565b600080805b60008581526101726020526040902060020154811015613213576000858152610172602052604081206002018054839081106131ba576131ba617f45565b6000918252602090912001546001600160a01b0390811691508716811480156131f157506000868152610172602052604090205485145b15613200576001925050613213565b508061320b81617f71565b91505061317c565b50949350505050565b6000805b61016a5481101561327857600061016a828154811061324157613241617f45565b6000918252602090912001546001600160a01b031690503381900361326557600192505b508061327081617f71565b915050613220565b506001811515148061328957503330145b8061329f575061012d546001600160a01b031633145b6132bb5760405162461bcd60e51b81526004016113bf90617f8a565b61016c546040516370a0823160e01b81526001600160a01b038681166004830152849216906370a0823190602401602060405180830381865afa158015613306573d6000803e3d6000fd5b505050506040513d601f19601f8201168201806040525081019061332a919061808d565b10156133655760405162461bcd60e51b815260206004820152600a6024820152696e6f2062616c616e636560b01b60448201526064016113bf565b600080526101706020526000805160206188c08339815191525461338a903490617fd9565b600080526101706020526000805160206188c08339815191525561016c546040516323b872dd60e01b81526001600160a01b03868116600483015230602483015260448201859052909116906323b872dd906064016020604051808303816000875af11580156133fe573d6000803e3d6000fd5b505050506040513d601f19601f8201168201806040525081019061342291906180a6565b50600061342f6101735490565b60008181526101716020908152604080832061016c546001600160a01b03168452600801909152902054909150613467908490617fd9565b60008281526101716020908152604080832061016c546001600160a01b0316845260080190915290205561349b8585614871565b61169a816136cd565b6134ac6156bd565b6001600160a01b038216600090815261017060205260409020548111156135035760405162461bcd60e51b815260206004820152600b60248201526a4e6f2062616c616e63657360a81b60448201526064016113bf565b6001600160a01b03821660009081526101706020526040902054613528908290617fec565b6001600160a01b03831660008181526101706020526040902091909155156135bd5760405163a9059cbb60e01b8152336004820152602481018290526001600160a01b0383169063a9059cbb906044016020604051808303816000875af1158015613597573d6000803e3d6000fd5b505050506040513d601f19601f820116820180604052508101906135bb91906180a6565b505b6001600160a01b038216611c4357604051339082156108fc029083906000818181858888f193505050501580156117d8573d6000803e3d6000fd5b6136006156bd565b61016f805460ff19166001179055565b6000805b61016a5481101561366c57600061016a828154811061363557613635617f45565b6000918252602090912001546001600160a01b031690503381900361365957600192505b508061366481617f71565b915050613614565b506001811515148061367d57503330145b80613693575061012d546001600160a01b031633145b6136af5760405162461bcd60e51b81526004016113bf90617f8a565b60008381526101716020526040902060070154612491908390617fd9565b6000805b61016a5481101561372957600061016a82815481106136f2576136f2617f45565b6000918252602090912001546001600160a01b031690503381900361371657600192505b508061372181617f71565b9150506136d1565b506001811515148061373a57503330145b80613750575061012d546001600160a01b031633145b61376c5760405162461bcd60e51b81526004016113bf90617f8a565b60008281526101716020526040812060070180549161378a83617f71565b91905055505050565b6000805b61016a548110156137ef57600061016a82815481106137b8576137b8617f45565b6000918252602090912001546001600160a01b03169050338190036137dc57600192505b50806137e781617f71565b915050613797565b506001811515148061380057503330145b80613816575061012d546001600160a01b031633145b6138325760405162461bcd60e51b81526004016113bf90617f8a565b6101735483106138545760405162461bcd60e51b81526004016113bf90618250565b600080526101706020526000805160206188c083398151915254613879903490617fd9565b6000805160206188c083398151915255600083815261017160205260409020426003820155600401546138ad908390617fd9565b600084815261017160205260409020600401556117d8836136cd565b6138d1615e9b565b8051602080830191909120600081815261016990925260409091206002015460ff166139335760405162461bcd60e51b81526020600482015260116024820152701b9bc818dc99591a5d1cc81cdd1bdc9959607a1b60448201526064016113bf565b60008280602001905181019061394991906182e0565b60008481526101696020526040812080546001909101549294509092506139869161ffff8216916201000090046001600160a01b03169085615ef6565b6000848152610169602052604090206001015490915081116139fc5760405162461bcd60e51b815260206004820152602960248201527f6e6f7420656e6f7567682067617320746f2070726f6365737320637265646974604482015268103a3930b739b332b960b91b60648201526084016113bf565b81518103613a74576000838152610169602052604080822080546001600160b01b031916815560018101929092556002909101805460ff19169055517fd7be02b8dd0d27bd0517a9cb4d7469ce27df4313821ae5ec1ff69acc594ba23390613a679085815260200190565b60405180910390a1613b09565b6040805160808101825260008581526101696020818152848320805461ffff80821687526001600160a01b03620100008084048216868a019081529989018b8152600160608b01818152998f90529790965297519851169096026001600160b01b03199091169690951695909517939093178455915191830191909155516002909101805491151560ff199092169190911790555b5050506122bc600161016555565b6060606680546115b090617eb7565b613b2e6156bd565b61016a80546001810182556000919091527f17da1ae71935bc1a620f4cc216c63f7b5576c3970bae66f4178d3166b99125440180546001600160a01b0319166001600160a01b0392909216919091179055565b8161016e54613b909190617fff565b61016c546040516370a0823160e01b81523360048201526001600160a01b03909116906370a0823190602401602060405180830381865afa158015613bd9573d6000803e3d6000fd5b505050506040513d601f19601f82011682018060405250810190613bfd919061808d565b1015613c3c5760405162461bcd60e51b815260206004820152600e60248201526d149958da185c99d948199a5c9cdd60921b60448201526064016113bf565b600081815261017160205260409020600101546001600160a01b03163314613c6357600080fd5b600080526101706020526000805160206188c083398151915254613c88903490617fd9565b600080526101706020526000805160206188c08339815191525561016e54613cb1908390617fff565b60008281526101716020908152604080832061016c546001600160a01b03168452600801909152902054613ce59190617fec565b60008281526101716020818152604080842061016c546001600160a01b03168552600881018352908420949094559184905290524260039091015562093a80613d2e8184617fff565b60008381526101716020526040902060040154613d4b9190617fd9565b600083815261017160205260409020600401556117d8826136cd565b613d6f6156bd565b60008111613dca5760405162461bcd60e51b815260206004820152602260248201527f647374436861696e4964546f42617463684c696d6974206d757374206265203e604482015261020360f41b60648201526084016113bf565b61ffff821660008181526101676020908152604091829020849055815192835282018390527f7315f7654d594ead24a30160ed9ba2d23247f543016b918343591e93d7afdb6d91015b60405180910390a15050565b61ffff811660009081526101606020526040812080546060929190613e4390617eb7565b80601f0160208091040260200160405190810160405280929190818152602001828054613e6f90617eb7565b8015613ebc5780601f10613e9157610100808354040283529160200191613ebc565b820191906000526020600020905b815481529060010190602001808311613e9f57829003601f168201915b505050505090508051600003613f145760405162461bcd60e51b815260206004820152601d60248201527f4c7a4170703a206e6f20747275737465642070617468207265636f726400000060448201526064016113bf565b613f2f600060148351613f279190617fec565b839190615f43565b9392505050565b611c43338383616050565b613f496156bd565b818130604051602001613f5e9392919061839a565b60408051601f1981840301815291815261ffff851660009081526101606020522090613f8a9082618191565b507f8c0400cfe2d1199b1a725c78960bcc2a344d869b80590d0f2bd005db15a572ce838383604051613fbe9392919061812d565b60405180910390a1505050565b600083815261017160205260409020600101546001600160a01b031633148061400b5750600083815261017160205260409020546001600160a01b031633145b6140275760405162461bcd60e51b81526004016113bf90618063565b6000838152610171602090815260408083208584526009019091529020600201546001600160a01b03163314801561407d575060008381526101716020908152604080832085845260090190915290205460ff16155b6140995760405162461bcd60e51b81526004016113bf906180c3565b6140a2836136cd565b60008381526101726020908152604082208481556002810180546001808201835591855292842090920180546001600160a01b0319166001600160a01b038616179055858352018054916140f583617f71565b9190505550505050565b61157487878787878787615a3b565b61411833836157d6565b6141345760405162461bcd60e51b81526004016113bf90618016565b6141408484848461611e565b50505050565b61414e6156bd565b61016380546001600160a01b0319166001600160a01b0383169081179091556040519081527f5db758e995a17ec1ad84bdef7e8c3293a0bd6179bcce400dff5d4c3d87db726b90602001611837565b606061159b82616151565b6141b06156bd565b61015f546040516332fb62e760e21b81526001600160a01b039091169063cbed8b9c906141e990889088908890889088906004016183c0565b600060405180830381600087803b15801561420357600080fd5b505af1158015614217573d6000803e3d6000fd5b505050505050505050565b6060806000805b61016a5481101561428157600061016a828154811061424a5761424a617f45565b6000918252602090912001546001600160a01b031690503381900361426e57600192505b508061427981617f71565b915050614229565b506001811515148061429257503330145b806142a8575061012d546001600160a01b031633145b6142c45760405162461bcd60e51b81526004016113bf90617f8a565b600085815261017160205260409020600101546001600160a01b03878116911614801561431c57506000858152610171602090815260408083208784526009019091529020600201546001600160a01b038781169116145b80614333575061432d868686613177565b15156001145b61437a5760405162461bcd60e51b81526020600482015260186024820152771b9bdd081bdddb995c881bd9881a5908185b99081cdb1bdd60421b60448201526064016113bf565b60008581526101716020908152604080832087845260090190915290205460ff16156143d75760405162461bcd60e51b815260206004820152600c60248201526b11195b195d19590814db1bdd60a21b60448201526064016113bf565b6000858152610171602090815260408083208784526009019091529020600181018054909160030190829061440b90617eb7565b80601f016020809104026020016040519081016040528092919081815260200182805461443790617eb7565b80156144845780601f1061445957610100808354040283529160200191614484565b820191906000526020600020905b81548152906001019060200180831161446757829003601f168201915b5050505050915080805461449790617eb7565b80601f01602080910402602001604051908101604052809291908181526020018280546144c390617eb7565b80156145105780601f106144e557610100808354040283529160200191614510565b820191906000526020600020905b8154815290600101906020018083116144f357829003601f168201915b505050505090509250925050935093915050565b6000805b61016a5481101561458057600061016a828154811061454957614549617f45565b6000918252602090912001546001600160a01b031690503381900361456d57600192505b508061457881617f71565b915050614528565b506001811515148061459157503330145b806145a7575061012d546001600160a01b031633145b6145c35760405162461bcd60e51b81526004016113bf90617f8a565b6101735485106145e55760405162461bcd60e51b81526004016113bf90618250565b6001600160a01b0384166146ca578234116145ff57600080fd5b600061460b8434617fec565b600080526101706020526000805160206188c083398151915254909150614633908290617fd9565b60008080526101706020526000805160206188c083398151915291909155604051309186156108fc02918791818181858888f1935050505015801561467c573d6000803e3d6000fd5b506000868152610171602090815260408083208380526008019091529020546146a6908590617fd9565b60008781526101716020908152604080832083805260080190915290205550614868565b6040516370a0823160e01b81526001600160a01b0383811660048301528491908616906370a0823190602401602060405180830381865afa158015614713573d6000803e3d6000fd5b505050506040513d601f19601f82011682018060405250810190614737919061808d565b10156147555760405162461bcd60e51b81526004016113bf90617fb9565b600080526101706020526000805160206188c08339815191525461477a903490617fd9565b600080526101706020526000805160206188c0833981519152556040516323b872dd60e01b81526001600160a01b038381166004830152306024830152604482018590528516906323b872dd906064016020604051808303816000875af11580156147e9573d6000803e3d6000fd5b505050506040513d601f19601f8201168201806040525081019061480d91906180a6565b506000858152610171602090815260408083206001600160a01b0388168452600801909152902054614840908490617fd9565b6000868152610171602090815260408083206001600160a01b03891684526008019091529020555b61169a856136cd565b6000805b61016a548110156148cd57600061016a828154811061489657614896617f45565b6000918252602090912001546001600160a01b03169050338190036148ba57600192505b50806148c581617f71565b915050614875565b50600181151514806148de57503330145b806148f4575061012d546001600160a01b031633145b6149105760405162461bcd60e51b81526004016113bf90617f8a565b600061491c6101735490565b600080526101706020526000805160206188c083398151915254909150614944903490617fd9565b6000805160206188c08339815191525560008181526101716020526040902061497261017380546001019055565b61497c8583616259565b6149868285616273565b6001810180546001600160a01b0387166001600160a01b0319918216811790925582541617815542600282018190556149c3906301e13380617fd9565b60048201556149d1826136cd565b6103e860069091015550505050565b6149e86156bd565b60008111614a445760405162461bcd60e51b815260206004820152602360248201527f647374436861696e4964546f5472616e73666572476173206d7573742062652060448201526203e20360ec1b60648201526084016113bf565b61ffff821660008181526101686020908152604091829020849055815192835282018390527fc46df2983228ac2d9754e94a0d565e6671665dc8ad38602bc8e544f0685a29fb9101613e13565b61ffff8616600090815261016460205260408082209051614ab59088908890617ef1565b90815260408051602092819003830190206001600160401b03871660009081529252902054905080614b355760405162461bcd60e51b815260206004820152602360248201527f4e6f6e626c6f636b696e674c7a4170703a206e6f2073746f726564206d65737360448201526261676560e81b60648201526084016113bf565b808383604051614b46929190617ef1565b604051809103902014614ba55760405162461bcd60e51b815260206004820152602160248201527f4e6f6e626c6f636b696e674c7a4170703a20696e76616c6964207061796c6f616044820152601960fa1b60648201526084016113bf565b61ffff8716600090815261016460205260408082209051614bc99089908990617ef1565b90815260408051602092819003830181206001600160401b038916600090815290845282902093909355601f88018290048202830182019052868252614c61918991899089908190840183828082843760009201919091525050604080516020601f8a018190048102820181019092528881528a935091508890889081908401838280828437600092019190915250615c1192505050565b7fc264d91f3adc5588250e1551f547752ca0cfa8f6b530d243b9f9f4cab10ea8e58787878785604051614c989594939291906183f9565b60405180910390a150505050505050565b60008181526101716020526040812060040154421115614ccb57506001919050565b506000919050565b600083815261017160205260409020600101546001600160a01b0316331480614d135750600083815261017160205260409020546001600160a01b031633145b614d2f5760405162461bcd60e51b81526004016113bf90618063565b6000838152610171602090815260408083208584526009019091529020600201546001600160a01b031633148015614d85575060008381526101716020908152604080832085845260090190915290205460ff16155b614da15760405162461bcd60e51b81526004016113bf906180c3565b614daa836136cd565b6000838152610172602052604081208390555b60008481526101726020526040902060020154811015614e9157600084815261017260205260408120600201805483908110614dfb57614dfb617f45565b6000918252602090912001546001600160a01b03908116915083168103614e7e57600085815261017260205260409020600201805483908110614e4057614e40617f45565b6000918252602080832090910180546001600160a01b0319169055868252610172905260409020600190810154614e779190617fec565b5050614e91565b5080614e8981617f71565b915050614dbd565b506000838152610172602052604090206001908101546141409190617fec565b614eb96156bd565b61016f805460ff19169055565b614ece6156bd565b61ffff8381166000818152610161602090815260408083209487168084529482529182902085905581519283528201929092529081018290527f9d5c7c0b934da8fefa9c7760c98383778a12dfbfc0c3b3106518f43fb9508ac090606001613fbe565b614f396156bd565b61ffff8316600090815261016060205260409020614f58828483618434565b507ffa41487ad5d6728f0b19276fa1eddc16558578f5109fc39d2dc33c3230470dab838383604051613fbe9392919061812d565b6000805b61016a54811015614fe857600061016a8281548110614fb157614fb1617f45565b6000918252602090912001546001600160a01b0316905033819003614fd557600192505b5080614fe081617f71565b915050614f90565b5060018115151480614ff957503330145b8061500f575061012d546001600160a01b031633145b61502b5760405162461bcd60e51b81526004016113bf90617f8a565b6000848152610171602052604090206006810154600582015411156150805760405162461bcd60e51b815260206004820152600b60248201526a1cdb1bdd08195e18d9595960aa1b60448201526064016113bf565b60008481526009820160205260409020600201546001600160a01b0384811691161480156150bd575060018101546001600160a01b038481169116145b6151095760405162461bcd60e51b815260206004820152601760248201527f646964206e6f742073746f7265206461746120736c6f7400000000000000000060448201526064016113bf565b6001816005015461511a9190617fec565b50615124856136cd565b6000938452600901602052505060409020805460ff1916600117905550565b600082815261017160205260409020600181015460609182916001600160a01b03163314801561518e575060008481526009820160205260409020600201546001600160a01b031633145b806151a5575061519f338686613177565b15156001145b6151ec5760405162461bcd60e51b81526020600482015260186024820152771b9bdd081bdddb995c881bd9881a5908185b99081cdb1bdd60421b60448201526064016113bf565b600084815260098201602052604090205460ff161561523c5760405162461bcd60e51b815260206004820152600c60248201526b11195b195d19590814db1bdd60a21b60448201526064016113bf565b60008481526009820160205260409020600181018054909160030190829061526390617eb7565b80601f016020809104026020016040519081016040528092919081815260200182805461528f90617eb7565b80156152dc5780601f106152b1576101008083540402835291602001916152dc565b820191906000526020600020905b8154815290600101906020018083116152bf57829003601f168201915b505050505091508080546152ef90617eb7565b80601f016020809104026020016040519081016040528092919081815260200182805461531b90617eb7565b80156153685780601f1061533d57610100808354040283529160200191615368565b820191906000526020600020905b81548152906001019060200180831161534b57829003601f168201915b5050505050905092509250505b9250929050565b6000806000868660405160200161539492919061852e565b60408051601f198184030181529082905261015f5463040a7bb160e41b83529092506001600160a01b0316906340a7bb10906153dc908b90309086908b908b90600401618553565b6040805180830381865afa1580156153f8573d6000803e3d6000fd5b505050506040513d601f19601f8201168201806040525081019061541c91906185a7565b92509250509550959350505050565b6154336156bd565b6001600160a01b0381166154985760405162461bcd60e51b815260206004820152602660248201527f4f776e61626c653a206e6577206f776e657220697320746865207a65726f206160448201526564647265737360d01b60648201526084016113bf565b6122bc81615d69565b61015f54604051633d7b2f6f60e21b815261ffff808716600483015285166024820152306044820152606481018390526060916001600160a01b03169063f5ecbdbc90608401600060405180830381865afa158015615504573d6000803e3d6000fd5b505050506040513d6000823e601f3d908101601f1916820160405261552c91908101906185cb565b90505b949350505050565b6000805b61016a5481101561559357600061016a828154811061555c5761555c617f45565b6000918252602090912001546001600160a01b031690503381900361558057600192505b508061558b81617f71565b91505061553b565b50600181151514806155a457503330145b806155ba575061012d546001600160a01b031633145b6155d65760405162461bcd60e51b81526004016113bf90617f8a565b600082815261017160205260409020600601546155f4908490617fd9565b60009283526101716020526040909220600601919091555050565b6000806156725a60966366ad5c8a60e01b8989898960405160240161563794939291906185ff565b60408051601f198184030181529190526020810180516001600160e01b03166001600160e01b03199093169290921790915230929190616328565b91509150816129be576129be86868686856163b2565b60006001600160e01b031982166322bac5d960e01b148061159b57506301ffc9a760e01b6001600160e01b031983161461159b565b61012d546001600160a01b03163314612b925760405162461bcd60e51b815260206004820181905260248201527f4f776e61626c653a2063616c6c6572206973206e6f7420746865206f776e657260448201526064016113bf565b61572181616450565b6122bc5760405162461bcd60e51b8152602060048201526018602482015277115490cdcc8c4e881a5b9d985b1a59081d1bdad95b88125160421b60448201526064016113bf565b600081815260696020526040902080546001600160a01b0319166001600160a01b038416908117909155819061579d826129c6565b6001600160a01b03167f8c5be1e5ebec7d5bd14f71427d1e84f3dd0314c0f7b2291e5b200ac8c7c3b92560405160405180910390a45050565b6000806157e2836129c6565b9050806001600160a01b0316846001600160a01b0316148061582957506001600160a01b038082166000908152606a602090815260408083209388168352929052205460ff165b8061552f5750836001600160a01b0316615842846116a1565b6001600160a01b031614949350505050565b826001600160a01b0316615867826129c6565b6001600160a01b03161461588d5760405162461bcd60e51b81526004016113bf9061863d565b6001600160a01b0382166158ef5760405162461bcd60e51b8152602060048201526024808201527f4552433732313a207472616e7366657220746f20746865207a65726f206164646044820152637265737360e01b60648201526084016113bf565b6158fc838383600161646d565b826001600160a01b031661590f826129c6565b6001600160a01b0316146159355760405162461bcd60e51b81526004016113bf9061863d565b600081815260696020908152604080832080546001600160a01b03199081169091556001600160a01b0387811680865260688552838620805460001901905590871680865283862080546001019055868652606790945282852080549092168417909155905184937fddf252ad1be2c89b69c2b068fc378daa952ba7f163c4a11628f55a4df523b3ef91a4505050565b604080516001808252818301909252606091600091906020808301908036833701905050905082816000815181106159ff576159ff617f45565b602090810291909101015292915050565b615a19816164ad565b60009081526101716020526040902060010180546001600160a01b0319169055565b6000845111615a825760405162461bcd60e51b8152602060048201526013602482015272746f6b656e4964735b5d20697320656d70747960681b60448201526064016113bf565b835160011480615aa7575061ffff861660009081526101676020526040902054845111155b615afe5760405162461bcd60e51b815260206004820152602260248201527f62617463682073697a65206578636565647320647374206261746368206c696d6044820152611a5d60f21b60648201526084016113bf565b60005b8451811015615b4157615b2f888888888581518110615b2257615b22617f45565b60200260200101516164ed565b80615b3981617f71565b915050615b01565b5060008585604051602001615b5792919061852e565b6040516020818303038152906040529050615b9d87600184885161016860008d61ffff1661ffff16815260200190815260200160002054615b989190617fff565b6165d8565b615bab8782868686346166ae565b85604051615bb99190618682565b6040518091039020886001600160a01b03168861ffff167fe1b87c47fdeb4f9cbadbca9df3af7aba453bb6e501075d0440d88125b711522a88604051615bff919061869e565b60405180910390a45050505050505050565b60008082806020019051810190615c2891906182e0565b601482015191935091506000615c4088838386615ef6565b90508251811015615d155784516020808701919091206040805160808101825261ffff808d1682526001600160a01b038088168387019081528385018881526001606086018181526000898152610169909a529887902095518654935190941662010000026001600160b01b03199093169390941692909217178355519082015592516002909301805493151560ff199094169390931790925590517f10e0b70d256bccc84b7027506978bd8b68984a870788b93b479def144c839ad790615d0b90839089906186b1565b60405180910390a1505b816001600160a01b031687604051615d2d9190618682565b60405180910390208961ffff167f5b821db8a46f8ecbe1941ba2f51cfeea9643268b56631f70d45e2a745d99026586604051615bff919061869e565b61012d80546001600160a01b038381166001600160a01b0319831681179093556040519116919082907f8be0079c531659141344cd1fd0a4f28419497f9722a3daafe3b4186f6b6457e090600090a35050565b600054610100900460ff16615de35760405162461bcd60e51b81526004016113bf906186ca565b6065615def8382618191565b5060666117d88282618191565b600054610100900460ff16612b925760405162461bcd60e51b81526004016113bf906186ca565b600054610100900460ff16615e4a5760405162461bcd60e51b81526004016113bf906186ca565b612b9233615d69565b60008111615e735760405162461bcd60e51b81526004016113bf90617f01565b61015f80546001600160a01b0319166001600160a01b03939093169290921790915561016655565b60026101655403615eee5760405162461bcd60e51b815260206004820152601f60248201527f5265656e7472616e637947756172643a207265656e7472616e742063616c6c0060448201526064016113bf565b600261016555565b6000825b825181101561552c57610166545a1061552c57615f318686858481518110615f2457615f24617f45565b6020026020010151616839565b80615f3b81617f71565b915050615efa565b606081615f5181601f617fd9565b1015615f905760405162461bcd60e51b815260206004820152600e60248201526d736c6963655f6f766572666c6f7760901b60448201526064016113bf565b615f9a8284617fd9565b84511015615fde5760405162461bcd60e51b8152602060048201526011602482015270736c6963655f6f75744f66426f756e647360781b60448201526064016113bf565b606082158015615ffd5760405191506000825260208201604052613213565b6040519150601f8416801560200281840101858101878315602002848b0101015b8183101561603657805183526020928301920161601e565b5050858452601f01601f1916604052505090509392505050565b816001600160a01b0316836001600160a01b0316036160b15760405162461bcd60e51b815260206004820152601960248201527f4552433732313a20617070726f766520746f2063616c6c65720000000000000060448201526064016113bf565b6001600160a01b038381166000818152606a6020908152604080832094871680845294825291829020805460ff191686151590811790915591519182527f17307eab39ab6107e8899845ad3d59bd9653f200f220920489ca2b5937696c31910160405180910390a3505050565b616129848484615854565b61613584848484616899565b6141405760405162461bcd60e51b81526004016113bf90618715565b606061615c82615718565b600082815260c960205260408120805461617590617eb7565b80601f01602080910402602001604051908101604052809291908181526020018280546161a190617eb7565b80156161ee5780601f106161c3576101008083540402835291602001916161ee565b820191906000526020600020905b8154815290600101906020018083116161d157829003601f168201915b50505050509050600061620c60408051602081019091526000815290565b9050805160000361621e575092915050565b815115616250578082604051602001616238929190618767565b60405160208183030381529060405292505050919050565b61552f84616997565b611c43828260405180602001604052806000815250616a0a565b61627c82616450565b6162df5760405162461bcd60e51b815260206004820152602e60248201527f45524337323155524953746f726167653a2055524920736574206f66206e6f6e60448201526d32bc34b9ba32b73a103a37b5b2b760911b60648201526084016113bf565b600082815260c9602052604090206162f78282618191565b506040518281527ff8e1a15aba9398e019f0b49df1a4fde98ee17ae345cb5f6b5e2c27f5033e8ce790602001613e13565b6000606060008060008661ffff166001600160401b0381111561634d5761634d61746f565b6040519080825280601f01601f191660200182016040528015616377576020820181803683370190505b50905060008087516020890160008d8df191503d925086831115616399578692505b828152826000602083013e909890975095505050505050565b818051906020012061016460008761ffff1661ffff168152602001908152602001600020856040516163e49190618682565b9081526040805191829003602090810183206001600160401b0388166000908152915220919091557fe183f33de2837795525b4792ca4cd60535bd77c53b7e7030060bfcf5734d6b0c906164419087908790879087908790618796565b60405180910390a15050505050565b6000908152606760205260409020546001600160a01b0316151590565b61647984848484616a3d565b5060009081526101716020526040902060010180546001600160a01b0319166001600160a01b039290921691909117905550565b6164b681616b6a565b600081815260c96020526040902080546164cf90617eb7565b1590506122bc57600081815260c9602052604081206122bc91617150565b6164f633611acb565b6165595760405162461bcd60e51b815260206004820152602e60248201527f4f4e46543732313a2073656e642063616c6c6572206973206e6f74206f776e6560448201526d1c881b9bdc88185c1c1c9bdd995960921b60648201526084016113bf565b836001600160a01b031661656c826129c6565b6001600160a01b0316146165cd5760405162461bcd60e51b815260206004820152602260248201527f4f4e46543732313a2073656e642066726f6d20696e636f7272656374206f776e60448201526132b960f11b60648201526084016113bf565b614140843083615854565b60006165e383616c0d565b61ffff80871660009081526101616020908152604080832093891683529290522054909150806166555760405162461bcd60e51b815260206004820152601a60248201527f4c7a4170703a206d696e4761734c696d6974206e6f742073657400000000000060448201526064016113bf565b61665f8382617fd9565b8210156129be5760405162461bcd60e51b815260206004820152601b60248201527f4c7a4170703a20676173206c696d697420697320746f6f206c6f77000000000060448201526064016113bf565b61ffff861660009081526101606020526040812080546166cd90617eb7565b80601f01602080910402602001604051908101604052809291908181526020018280546166f990617eb7565b80156167465780601f1061671b57610100808354040283529160200191616746565b820191906000526020600020905b81548152906001019060200180831161672957829003601f168201915b5050505050905080516000036167b75760405162461bcd60e51b815260206004820152603060248201527f4c7a4170703a2064657374696e6174696f6e20636861696e206973206e6f742060448201526f61207472757374656420736f7572636560801b60648201526084016113bf565b6167c2878751616c69565b61015f5460405162c5803160e81b81526001600160a01b039091169063c58031009084906167fe908b9086908c908c908c908c906004016187e8565b6000604051808303818588803b15801561681757600080fd5b505af115801561682b573d6000803e3d6000fd5b505050505050505050505050565b61684281616450565b158061686e575061685281616450565b801561686e575030616863826129c6565b6001600160a01b0316145b61687757600080fd5b61688081616450565b61688e576117d88282616259565b6117d8308383615854565b60006001600160a01b0384163b1561698f57604051630a85bd0160e11b81526001600160a01b0385169063150b7a02906168dd90339089908890889060040161884f565b6020604051808303816000875af1925050508015616918575060408051601f3d908101601f191682019092526169159181019061888c565b60015b616975573d808015616946576040519150601f19603f3d011682016040523d82523d6000602084013e61694b565b606091505b50805160000361696d5760405162461bcd60e51b81526004016113bf90618715565b805181602001fd5b6001600160e01b031916630a85bd0160e11b14905061552f565b50600161552f565b60606169a282615718565b60006169b960408051602081019091526000815290565b905060008151116169d95760405180602001604052806000815250613f2f565b806169e384616cdb565b6040516020016169f4929190618767565b6040516020818303038152906040529392505050565b616a148383616d6d565b616a216000848484616899565b6117d85760405162461bcd60e51b81526004016113bf90618715565b6001811115616aac5760405162461bcd60e51b815260206004820152603560248201527f455243373231456e756d657261626c653a20636f6e7365637574697665207472604482015274185b9cd9995c9cc81b9bdd081cdd5c1c1bdc9d1959605a1b60648201526084016113bf565b816001600160a01b038516616b0857616b0381609980546000838152609a60205260408120829055600182018355919091527f72a152ddfb8e864297c917af52ea6c1c68aead0fee1a62673fcc7e0c94979d000155565b616b2b565b836001600160a01b0316856001600160a01b031614616b2b57616b2b8582616ee8565b6001600160a01b038416616b4757616b4281616f85565b61169a565b846001600160a01b0316846001600160a01b03161461169a5761169a8482617034565b6000616b75826129c6565b9050616b8581600084600161646d565b616b8e826129c6565b600083815260696020908152604080832080546001600160a01b03199081169091556001600160a01b0385168085526068845282852080546000190190558785526067909352818420805490911690555192935084927fddf252ad1be2c89b69c2b068fc378daa952ba7f163c4a11628f55a4df523b3ef908390a45050565b6000602282511015616c615760405162461bcd60e51b815260206004820152601c60248201527f4c7a4170703a20696e76616c69642061646170746572506172616d730000000060448201526064016113bf565b506022015190565b61ffff82166000908152610162602052604081205490819003616c8b57506127105b808211156117d85760405162461bcd60e51b815260206004820181905260248201527f4c7a4170703a207061796c6f61642073697a6520697320746f6f206c6172676560448201526064016113bf565b60606000616ce883617078565b60010190506000816001600160401b03811115616d0757616d0761746f565b6040519080825280601f01601f191660200182016040528015616d31576020820181803683370190505b5090508181016020015b600019016f181899199a1a9b1b9c1cb0b131b232b360811b600a86061a8153600a8504945084616d3b57509392505050565b6001600160a01b038216616dc35760405162461bcd60e51b815260206004820181905260248201527f4552433732313a206d696e7420746f20746865207a65726f206164647265737360448201526064016113bf565b616dcc81616450565b15616e195760405162461bcd60e51b815260206004820152601c60248201527f4552433732313a20746f6b656e20616c7265616479206d696e7465640000000060448201526064016113bf565b616e2760008383600161646d565b616e3081616450565b15616e7d5760405162461bcd60e51b815260206004820152601c60248201527f4552433732313a20746f6b656e20616c7265616479206d696e7465640000000060448201526064016113bf565b6001600160a01b038216600081815260686020908152604080832080546001019055848352606790915280822080546001600160a01b0319168417905551839291907fddf252ad1be2c89b69c2b068fc378daa952ba7f163c4a11628f55a4df523b3ef908290a45050565b60006001616ef584612afa565b616eff9190617fec565b600083815260986020526040902054909150808214616f52576001600160a01b03841660009081526097602090815260408083208584528252808320548484528184208190558352609890915290208190555b5060009182526098602090815260408084208490556001600160a01b039094168352609781528383209183525290812055565b609954600090616f9790600190617fec565b6000838152609a602052604081205460998054939450909284908110616fbf57616fbf617f45565b906000526020600020015490508060998381548110616fe057616fe0617f45565b6000918252602080832090910192909255828152609a90915260408082208490558582528120556099805480617018576170186188a9565b6001900381819060005260206000200160009055905550505050565b600061703f83612afa565b6001600160a01b039093166000908152609760209081526040808320868452825280832085905593825260989052919091209190915550565b60008072184f03e93ff9f4daa797ed6e38ed64bf6a1f0160401b83106170b75772184f03e93ff9f4daa797ed6e38ed64bf6a1f0160401b830492506040015b6d04ee2d6d415b85acef810000000083106170e3576d04ee2d6d415b85acef8100000000830492506020015b662386f26fc10000831061710157662386f26fc10000830492506010015b6305f5e1008310617119576305f5e100830492506008015b612710831061712d57612710830492506004015b6064831061713f576064830492506002015b600a831061159b5760010192915050565b50805461715c90617eb7565b6000825580601f1061716c575050565b601f0160209004906000526020600020908101906122bc91905b8082111561719a5760008155600101617186565b5090565b803561ffff811681146171b057600080fd5b919050565b60008083601f8401126171c757600080fd5b5081356001600160401b038111156171de57600080fd5b60208301915083602082850101111561537557600080fd5b80356001600160401b03811681146171b057600080fd5b6000806000806000806080878903121561722657600080fd5b61722f8761719e565b955060208701356001600160401b038082111561724b57600080fd5b6172578a838b016171b5565b909750955085915061726b60408a016171f6565b9450606089013591508082111561728157600080fd5b5061728e89828a016171b5565b979a9699509497509295939492505050565b6000602082840312156172b257600080fd5b5035919050565b6001600160e01b0319811681146122bc57600080fd5b6000602082840312156172e157600080fd5b8135613f2f816172b9565b60005b838110156173075781810151838201526020016172ef565b50506000910152565b600081518084526173288160208601602086016172ec565b601f01601f19169290920160200192915050565b602081526000613f2f6020830184617310565b60006020828403121561736157600080fd5b613f2f8261719e565b6001600160a01b03811681146122bc57600080fd5b80356171b08161736a565b6000806040838503121561739d57600080fd5b82356173a88161736a565b946020939093013593505050565b600080604083850312156173c957600080fd5b6173a88361719e565b600080600080608085870312156173e857600080fd5b843593506020850135925060408501356174018161736a565b9396929550929360600135925050565b60006020828403121561742357600080fd5b8135613f2f8161736a565b60008060006060848603121561744357600080fd5b833561744e8161736a565b9250602084013561745e8161736a565b929592945050506040919091013590565b634e487b7160e01b600052604160045260246000fd5b604051601f8201601f191681016001600160401b03811182821017156174ad576174ad61746f565b604052919050565b60006001600160401b038211156174ce576174ce61746f565b50601f01601f191660200190565b600082601f8301126174ed57600080fd5b81356175006174fb826174b5565b617485565b81815284602083860101111561751557600080fd5b816020850160208301376000918101602001919091529392505050565b80151581146122bc57600080fd5b600080600080600060a0868803121561755857600080fd5b6175618661719e565b945060208601356001600160401b038082111561757d57600080fd5b61758989838a016174dc565b955060408801359450606088013591506175a282617532565b909250608087013590808211156175b857600080fd5b506175c5888289016174dc565b9150509295509295909350565b600080604083850312156175e557600080fd5b50508035926020909101359150565b6000806000806080858703121561760a57600080fd5b843593506020850135925060408501356176238161736a565b915060608501356176338161736a565b939692955090935050565b60008060006040848603121561765357600080fd5b61765c8461719e565b925060208401356001600160401b0381111561767757600080fd5b617683868287016171b5565b9497909650939450505050565b600080600080600080600060e0888a0312156176ab57600080fd5b87356176b68161736a565b96506176c46020890161719e565b955060408801356001600160401b03808211156176e057600080fd5b6176ec8b838c016174dc565b965060608a0135955060808a013591506177058261736a565b90935060a0890135906177178261736a565b90925060c0890135908082111561772d57600080fd5b5061773a8a828b016174dc565b91505092959891949750929550565b60008060006060848603121561775e57600080fd5b6177678461719e565b925060208401356001600160401b0381111561778257600080fd5b61778e868287016174dc565b92505061779d604085016171f6565b90509250925092565b600080600080608085870312156177bc57600080fd5b84356001600160401b03808211156177d357600080fd5b6177df888389016174dc565b95506020870135945060408701359150808211156177fc57600080fd5b50617809878288016174dc565b92505060608501356176338161736a565b600080600080600060a0868803121561783257600080fd5b8535945060208601356178448161736a565b935060408601359250606086013561785b8161736a565b9150608086013561786b8161736a565b809150509295509295909350565b600080600080600060a0868803121561789157600080fd5b8535945060208601356178a38161736a565b935060408601356178b38161736a565b925060608601356178c38161736a565b949793965091946080013592915050565b600080600080600060a086880312156178ec57600080fd5b85356178f78161736a565b945060208601356001600160401b038082111561791357600080fd5b61791f89838a016174dc565b9550604088013591508082111561793557600080fd5b50617942888289016174dc565b93505060608601359150608086013561786b8161736a565b60008060006060848603121561796f57600080fd5b833561797a8161736a565b95602085013595506040909401359392505050565b6000806000606084860312156179a457600080fd5b83356179af8161736a565b925060208401356001600160401b038111156179ca57600080fd5b6179d6868287016174dc565b925050604084013590509250925092565b600080604083850312156179fa57600080fd5b617a038361719e565b9150617a116020840161719e565b90509250929050565b600060208284031215617a2c57600080fd5b81356001600160401b03811115617a4257600080fd5b61552f848285016174dc565b60008060408385031215617a6157600080fd5b8235617a6c8161736a565b91506020830135617a7c81617532565b809150509250929050565b600080600060608486031215617a9c57600080fd5b83359250602084013591506040840135617ab58161736a565b809150509250925092565b60006001600160401b03821115617ad957617ad961746f565b5060051b60200190565b600082601f830112617af457600080fd5b81356020617b046174fb83617ac0565b82815260059290921b84018101918181019086841115617b2357600080fd5b8286015b84811015617b3e5780358352918301918301617b27565b509695505050505050565b600080600080600080600060e0888a031215617b6457600080fd5b8735617b6f8161736a565b9650617b7d6020890161719e565b955060408801356001600160401b0380821115617b9957600080fd5b617ba58b838c016174dc565b965060608a0135915080821115617bbb57600080fd5b617bc78b838c01617ae3565b955060808a01359150617bd98261736a565b819450617be860a08b0161737f565b935060c08a013591508082111561772d57600080fd5b60008060008060808587031215617c1457600080fd5b8435617c1f8161736a565b93506020850135617c2f8161736a565b92506040850135915060608501356001600160401b03811115617c5157600080fd5b617c5d878288016174dc565b91505092959194509250565b600080600080600060808688031215617c8157600080fd5b617c8a8661719e565b9450617c986020870161719e565b93506040860135925060608601356001600160401b03811115617cba57600080fd5b617cc6888289016171b5565b969995985093965092949392505050565b604081526000617cea6040830185617310565b8281036020840152617cfc8185617310565b95945050505050565b60008060008060808587031215617d1b57600080fd5b843593506020850135617d2d8161736a565b92506040850135915060608501356176338161736a565b60008060408385031215617d5757600080fd5b8235617d628161736a565b915060208301356001600160401b03811115617d7d57600080fd5b617d89858286016174dc565b9150509250929050565b600080600060608486031215617da857600080fd5b617db18461719e565b9250617dbf6020850161719e565b9150604084013590509250925092565b60008060408385031215617de257600080fd5b8235617ded8161736a565b91506020830135617a7c8161736a565b600080600080600060a08688031215617e1557600080fd5b617e1e8661719e565b945060208601356001600160401b0380821115617e3a57600080fd5b617e4689838a016174dc565b95506040880135915080821115617e5c57600080fd5b617e6889838a01617ae3565b9450606088013591506175a282617532565b60008060008060808587031215617e9057600080fd5b617e998561719e565b9350617ea76020860161719e565b925060408501356174018161736a565b600181811c90821680617ecb57607f821691505b602082108103617eeb57634e487b7160e01b600052602260045260246000fd5b50919050565b8183823760009101908152919050565b60208082526024908201527f6d696e476173546f5472616e73666572416e6453746f7265206d7573742062656040820152630203e20360e41b606082015260800190565b634e487b7160e01b600052603260045260246000fd5b634e487b7160e01b600052601160045260246000fd5b600060018201617f8357617f83617f5b565b5060010190565b6020808252601590820152741858d8d95cdcc818dbdb9d1c9bdb0819195b9a5959605a1b604082015260600190565b6020808252600690820152651b9bc818985b60d21b604082015260600190565b8082018082111561159b5761159b617f5b565b8181038181111561159b5761159b617f5b565b808202811582820484141761159b5761159b617f5b565b6020808252602d908201527f4552433732313a2063616c6c6572206973206e6f7420746f6b656e206f776e6560408201526c1c881bdc88185c1c1c9bdd9959609a1b606082015260800190565b60208082526010908201526f03737ba1037bbb732b91037b31034b2160851b604082015260600190565b60006020828403121561809f57600080fd5b5051919050565b6000602082840312156180b857600080fd5b8151613f2f81617532565b60208082526021908201527f6e6f2061636365737320746f20736c6f74206f722064656c6574656420736c6f6040820152601d60fa1b606082015260800190565b81835281816020850137506000828201602090810191909152601f909101601f19169091010190565b61ffff8416815260406020820152600061552c604083018486618104565b601f8211156117d857600081815260208120601f850160051c810160208610156181725750805b601f850160051c820191505b818110156129be5782815560010161817e565b81516001600160401b038111156181aa576181aa61746f565b6181be816181b88454617eb7565b8461814b565b602080601f8311600181146181f357600084156181db5750858301515b600019600386901b1c1916600185901b1785556129be565b600085815260208120601f198616915b8281101561822257888601518255948401946001909101908401618203565b50858210156182405787850151600019600388901b60f8161c191681555b5050505050600190811b01905550565b6020808252600f908201526e1b9bdb88195e1a5cdd195b9d081a59608a1b604082015260600190565b60008261829657634e487b7160e01b600052601260045260246000fd5b500490565b600082601f8301126182ac57600080fd5b81516182ba6174fb826174b5565b8181528460208386010111156182cf57600080fd5b61552f8260208301602087016172ec565b600080604083850312156182f357600080fd5b82516001600160401b038082111561830a57600080fd5b6183168683870161829b565b935060209150818501518181111561832d57600080fd5b85019050601f8101861361834057600080fd5b805161834e6174fb82617ac0565b81815260059190911b8201830190838101908883111561836d57600080fd5b928401925b8284101561838b57835182529284019290840190618372565b80955050505050509250929050565b8284823760609190911b6bffffffffffffffffffffffff19169101908152601401919050565b600061ffff8088168352808716602084015250846040830152608060608301526183ee608083018486618104565b979650505050505050565b61ffff86168152608060208201526000618417608083018688618104565b6001600160401b0394909416604083015250606001529392505050565b6001600160401b0383111561844b5761844b61746f565b61845f836184598354617eb7565b8361814b565b6000601f841160018114618493576000851561847b5750838201355b600019600387901b1c1916600186901b17835561169a565b600083815260209020601f19861690835b828110156184c457868501358255602094850194600190920191016184a4565b50868210156184e15760001960f88860031b161c19848701351681555b505060018560011b0183555050505050565b600081518084526020808501945080840160005b8381101561852357815187529582019590820190600101618507565b509495945050505050565b6040815260006185416040830185617310565b8281036020840152617cfc81856184f3565b61ffff861681526001600160a01b038516602082015260a06040820181905260009061858190830186617310565b8415156060840152828103608084015261859b8185617310565b98975050505050505050565b600080604083850312156185ba57600080fd5b505080516020909101519092909150565b6000602082840312156185dd57600080fd5b81516001600160401b038111156185f357600080fd5b61552f8482850161829b565b61ffff8516815260806020820152600061861c6080830186617310565b6001600160401b038516604084015282810360608401526183ee8185617310565b60208082526025908201527f4552433732313a207472616e736665722066726f6d20696e636f72726563742060408201526437bbb732b960d91b606082015260800190565b600082516186948184602087016172ec565b9190910192915050565b602081526000613f2f60208301846184f3565b82815260406020820152600061552f6040830184617310565b6020808252602b908201527f496e697469616c697a61626c653a20636f6e7472616374206973206e6f74206960408201526a6e697469616c697a696e6760a81b606082015260800190565b60208082526032908201527f4552433732313a207472616e7366657220746f206e6f6e20455243373231526560408201527131b2b4bb32b91034b6b83632b6b2b73a32b960711b606082015260800190565b600083516187798184602088016172ec565b83519083019061878d8183602088016172ec565b01949350505050565b61ffff8616815260a0602082015260006187b360a0830187617310565b6001600160401b038616604084015282810360608401526187d48186617310565b9050828103608084015261859b8185617310565b61ffff8716815260c06020820152600061880560c0830188617310565b82810360408401526188178188617310565b6001600160a01b0387811660608601528616608085015283810360a085015290506188428185617310565b9998505050505050505050565b6001600160a01b038581168252841660208201526040810183905260806060820181905260009061888290830184617310565b9695505050505050565b60006020828403121561889e57600080fd5b8151613f2f816172b9565b634e487b7160e01b600052603160045260246000fdfe993fb93168149deebabc6f7b8b2dc52257eaee17f3430b6d141ea1a8a29f7491a2646970667358221220dd8c13c6df8c40a8baeef989adcf1e176a9fbed9d0f31ac86756fcf2c4b2136064736f6c63430008110033",
			"opcodes": "PUSH1 0x80 PUSH1 0x40 MSTORE CALLVALUE DUP1 ISZERO PUSH3 0x11 JUMPI PUSH1 0x0 DUP1 REVERT JUMPDEST POP PUSH1 0x1 PUSH2 0x165 SSTORE PUSH2 0x8915 DUP1 PUSH3 0x28 PUSH1 0x0 CODECOPY PUSH1 0x0 RETURN INVALID PUSH1 0x80 PUSH1 0x40 MSTORE PUSH1 0x4 CALLDATASIZE LT PUSH2 0x557 JUMPI PUSH1 0x0 CALLDATALOAD PUSH1 0xE0 SHR DUP1 PUSH4 0x7533D788 GT PUSH2 0x2BD JUMPI DUP1 PUSH4 0xB353AAA7 GT PUSH2 0x180 JUMPI DUP1 PUSH4 0xD9548E53 GT PUSH2 0xE7 JUMPI DUP1 PUSH4 0xEC49FDA0 GT PUSH2 0xA0 JUMPI DUP1 PUSH4 0xF2FDE38B GT PUSH2 0x7A JUMPI DUP1 PUSH4 0xF2FDE38B EQ PUSH2 0x12D1 JUMPI DUP1 PUSH4 0xF5ECBDBC EQ PUSH2 0x12F1 JUMPI DUP1 PUSH4 0xFA25F9B6 EQ PUSH2 0x1311 JUMPI DUP1 PUSH4 0xFD71CA47 EQ PUSH2 0x133F JUMPI PUSH1 0x0 DUP1 REVERT JUMPDEST DUP1 PUSH4 0xEC49FDA0 EQ PUSH2 0x127E JUMPI DUP1 PUSH4 0xF06122AE EQ PUSH2 0x1291 JUMPI DUP1 PUSH4 0xF2353641 EQ PUSH2 0x12B1 JUMPI PUSH1 0x0 DUP1 REVERT JUMPDEST DUP1 PUSH4 0xD9548E53 EQ PUSH2 0x11A0 JUMPI DUP1 PUSH4 0xDB2C6DD9 EQ PUSH2 0x11C0 JUMPI DUP1 PUSH4 0xDE73C155 EQ PUSH2 0x11E0 JUMPI DUP1 PUSH4 0xDF2A5B3B EQ PUSH2 0x11F5 JUMPI DUP1 PUSH4 0xE985E9C5 EQ PUSH2 0x1215 JUMPI DUP1 PUSH4 0xEB8D72B7 EQ PUSH2 0x125E JUMPI PUSH1 0x0 DUP1 REVERT JUMPDEST DUP1 PUSH4 0xCBED8B9C GT PUSH2 0x139 JUMPI DUP1 PUSH4 0xCBED8B9C EQ PUSH2 0x10F9 JUMPI DUP1 PUSH4 0xCC9A6584 EQ PUSH2 0x1119 JUMPI DUP1 PUSH4 0xCD88AF6E EQ PUSH2 0x1147 JUMPI DUP1 PUSH4 0xD0DEF521 EQ PUSH2 0x115A JUMPI DUP1 PUSH4 0xD12473A5 EQ PUSH2 0x116D JUMPI DUP1 PUSH4 0xD1DEBA1F EQ PUSH2 0x118D JUMPI PUSH1 0x0 DUP1 REVERT JUMPDEST DUP1 PUSH4 0xB353AAA7 EQ PUSH2 0x1043 JUMPI DUP1 PUSH4 0xB88D4FDE EQ PUSH2 0x1064 JUMPI DUP1 PUSH4 0xBAF3292D EQ PUSH2 0x1084 JUMPI DUP1 PUSH4 0xC4461834 EQ PUSH2 0x10A4 JUMPI DUP1 PUSH4 0xC87B56DD EQ PUSH2 0x10BA JUMPI DUP1 PUSH4 0xCA709A25 EQ PUSH2 0x10DA JUMPI PUSH1 0x0 DUP1 REVERT JUMPDEST DUP1 PUSH4 0x950C8A74 GT PUSH2 0x224 JUMPI DUP1 PUSH4 0x9F38369A GT PUSH2 0x1DD JUMPI DUP1 PUSH4 0x9F38369A EQ PUSH2 0xF88 JUMPI DUP1 PUSH4 0xA22CB465 EQ PUSH2 0xFA8 JUMPI DUP1 PUSH4 0xA6C3D165 EQ PUSH2 0xFC8 JUMPI DUP1 PUSH4 0xA9D36F5B EQ PUSH2 0xFE8 JUMPI DUP1 PUSH4 0xAB3FFB93 EQ PUSH2 0x1008 JUMPI DUP1 PUSH4 0xAF3FB21C EQ PUSH2 0x101B JUMPI PUSH1 0x0 DUP1 REVERT JUMPDEST DUP1 PUSH4 0x950C8A74 EQ PUSH2 0xED1 JUMPI DUP1 PUSH4 0x95D89B41 EQ PUSH2 0xEF2 JUMPI DUP1 PUSH4 0x983B2D56 EQ PUSH2 0xF07 JUMPI DUP1 PUSH4 0x999EBE55 EQ PUSH2 0xF27 JUMPI DUP1 PUSH4 0x9E402DD6 EQ PUSH2 0xF3A JUMPI DUP1 PUSH4 0x9EA5D6B1 EQ PUSH2 0xF68 JUMPI PUSH1 0x0 DUP1 REVERT JUMPDEST DUP1 PUSH4 0x864018B7 GT PUSH2 0x276 JUMPI DUP1 PUSH4 0x864018B7 EQ PUSH2 0xE06 JUMPI DUP1 PUSH4 0x8AF6C670 EQ PUSH2 0xE26 JUMPI DUP1 PUSH4 0x8B973040 EQ PUSH2 0xE46 JUMPI DUP1 PUSH4 0x8CFD8F5C EQ PUSH2 0xE59 JUMPI DUP1 PUSH4 0x8DA5CB5B EQ PUSH2 0xE92 JUMPI DUP1 PUSH4 0x8FFA1F2A EQ PUSH2 0xEB1 JUMPI PUSH1 0x0 DUP1 REVERT JUMPDEST DUP1 PUSH4 0x7533D788 EQ PUSH2 0xD49 JUMPI DUP1 PUSH4 0x7907D11C EQ PUSH2 0xD69 JUMPI DUP1 PUSH4 0x7A8042A6 EQ PUSH2 0xD89 JUMPI DUP1 PUSH4 0x7BCE1B34 EQ PUSH2 0xD9C JUMPI DUP1 PUSH4 0x8318DEA3 EQ PUSH2 0xDBC JUMPI DUP1 PUSH4 0x83A6717B EQ PUSH2 0xDF1 JUMPI PUSH1 0x0 DUP1 REVERT JUMPDEST DUP1 PUSH4 0x3D654199 GT PUSH2 0x420 JUMPI DUP1 PUSH4 0x53F0620E GT PUSH2 0x387 JUMPI DUP1 PUSH4 0x60BD30DD GT PUSH2 0x340 JUMPI DUP1 PUSH4 0x70A08231 GT PUSH2 0x31A JUMPI DUP1 PUSH4 0x70A08231 EQ PUSH2 0xCE1 JUMPI DUP1 PUSH4 0x715018A6 EQ PUSH2 0xD01 JUMPI DUP1 PUSH4 0x73A3DAAD EQ PUSH2 0xD16 JUMPI DUP1 PUSH4 0x747B8A1C EQ PUSH2 0xD29 JUMPI PUSH1 0x0 DUP1 REVERT JUMPDEST DUP1 PUSH4 0x60BD30DD EQ PUSH2 0x956 JUMPI DUP1 PUSH4 0x6352211E EQ PUSH2 0xCA1 JUMPI DUP1 PUSH4 0x66AD5C8A EQ PUSH2 0xCC1 JUMPI PUSH1 0x0 DUP1 REVERT JUMPDEST DUP1 PUSH4 0x53F0620E EQ PUSH2 0xB41 JUMPI DUP1 PUSH4 0x5557B279 EQ PUSH2 0xB66 JUMPI DUP1 PUSH4 0x5B8C41E6 EQ PUSH2 0xB86 JUMPI DUP1 PUSH4 0x5BAA423E EQ PUSH2 0xBD6 JUMPI DUP1 PUSH4 0x5E34AE78 EQ PUSH2 0xC7B JUMPI DUP1 PUSH4 0x5FDD03A2 EQ PUSH2 0xC8E JUMPI PUSH1 0x0 DUP1 REVERT JUMPDEST DUP1 PUSH4 0x42D65A8D GT PUSH2 0x3D9 JUMPI DUP1 PUSH4 0x42D65A8D EQ PUSH2 0xA88 JUMPI DUP1 PUSH4 0x48288190 EQ PUSH2 0xAA8 JUMPI DUP1 PUSH4 0x4828ECCC EQ PUSH2 0xABF JUMPI DUP1 PUSH4 0x4AC3F4FF EQ PUSH2 0xAE0 JUMPI DUP1 PUSH4 0x4F6CCCE7 EQ PUSH2 0xB0E JUMPI DUP1 PUSH4 0x51905636 EQ PUSH2 0xB2E JUMPI PUSH1 0x0 DUP1 REVERT JUMPDEST DUP1 PUSH4 0x3D654199 EQ PUSH2 0x996 JUMPI DUP1 PUSH4 0x3D8B38F6 EQ PUSH2 0x9DB JUMPI DUP1 PUSH4 0x3E104A95 EQ PUSH2 0x9FB JUMPI DUP1 PUSH4 0x3F1F4FA4 EQ PUSH2 0xA1A JUMPI DUP1 PUSH4 0x42842E0E EQ PUSH2 0xA48 JUMPI DUP1 PUSH4 0x42966C68 EQ PUSH2 0xA68 JUMPI PUSH1 0x0 DUP1 REVERT JUMPDEST DUP1 PUSH4 0x15CCE224 GT PUSH2 0x4C4 JUMPI DUP1 PUSH4 0x2A205E3D GT PUSH2 0x47D JUMPI DUP1 PUSH4 0x2A205E3D EQ PUSH2 0x8CE JUMPI DUP1 PUSH4 0x2F745C59 EQ PUSH2 0x903 JUMPI DUP1 PUSH4 0x3092AFD5 EQ PUSH2 0x923 JUMPI DUP1 PUSH4 0x361C0F87 EQ PUSH2 0x943 JUMPI DUP1 PUSH4 0x3BF7E8F4 EQ PUSH2 0x956 JUMPI DUP1 PUSH4 0x3CDC1D53 EQ PUSH2 0x976 JUMPI PUSH1 0x0 DUP1 REVERT JUMPDEST DUP1 PUSH4 0x15CCE224 EQ PUSH2 0x7C7 JUMPI DUP1 PUSH4 0x18160DDD EQ PUSH2 0x7E7 JUMPI DUP1 PUSH4 0x1DBA087C EQ PUSH2 0x7FC JUMPI DUP1 PUSH4 0x228D0FD9 EQ PUSH2 0x815 JUMPI DUP1 PUSH4 0x22A3ECF9 EQ PUSH2 0x82A JUMPI DUP1 PUSH4 0x23B872DD EQ PUSH2 0x8AE JUMPI PUSH1 0x0 DUP1 REVERT JUMPDEST DUP1 PUSH4 0x95EA7B3 GT PUSH2 0x516 JUMPI DUP1 PUSH4 0x95EA7B3 EQ PUSH2 0x6DF JUMPI DUP1 PUSH4 0xB4CAD4C EQ PUSH2 0x6FF JUMPI DUP1 PUSH4 0xDF37483 EQ PUSH2 0x71F JUMPI DUP1 PUSH4 0xF9E8BC0 EQ PUSH2 0x73F JUMPI DUP1 PUSH4 0x10DDB137 EQ PUSH2 0x794 JUMPI DUP1 PUSH4 0x13579820 EQ PUSH2 0x7B4 JUMPI PUSH1 0x0 DUP1 REVERT JUMPDEST DUP1 PUSH3 0x1D3567 EQ PUSH2 0x55C JUMPI DUP1 PUSH3 0x9C47A0 EQ PUSH2 0x57E JUMPI DUP1 PUSH4 0x1FFC9A7 EQ PUSH2 0x635 JUMPI DUP1 PUSH4 0x6FDDE03 EQ PUSH2 0x665 JUMPI DUP1 PUSH4 0x7E0DB17 EQ PUSH2 0x687 JUMPI DUP1 PUSH4 0x81812FC EQ PUSH2 0x6A7 JUMPI JUMPDEST PUSH1 0x0 DUP1 REVERT JUMPDEST CALLVALUE DUP1 ISZERO PUSH2 0x568 JUMPI PUSH1 0x0 DUP1 REVERT JUMPDEST POP PUSH2 0x57C PUSH2 0x577 CALLDATASIZE PUSH1 0x4 PUSH2 0x720D JUMP JUMPDEST PUSH2 0x135F JUMP JUMPDEST STOP JUMPDEST CALLVALUE DUP1 ISZERO PUSH2 0x58A JUMPI PUSH1 0x0 DUP1 REVERT JUMPDEST POP PUSH2 0x5EA PUSH2 0x599 CALLDATASIZE PUSH1 0x4 PUSH2 0x72A0 JUMP JUMPDEST PUSH2 0x171 PUSH1 0x20 MSTORE PUSH1 0x0 SWAP1 DUP2 MSTORE PUSH1 0x40 SWAP1 KECCAK256 DUP1 SLOAD PUSH1 0x1 DUP3 ADD SLOAD PUSH1 0x2 DUP4 ADD SLOAD PUSH1 0x3 DUP5 ADD SLOAD PUSH1 0x4 DUP6 ADD SLOAD PUSH1 0x5 DUP7 ADD SLOAD PUSH1 0x6 DUP8 ADD SLOAD PUSH1 0x7 SWAP1 SWAP8 ADD SLOAD PUSH1 0x1 PUSH1 0x1 PUSH1 0xA0 SHL SUB SWAP7 DUP8 AND SWAP8 SWAP6 SWAP1 SWAP7 AND SWAP6 SWAP4 SWAP5 SWAP3 SWAP4 SWAP2 SWAP3 SWAP1 SWAP2 DUP9 JUMP JUMPDEST PUSH1 0x40 DUP1 MLOAD PUSH1 0x1 PUSH1 0x1 PUSH1 0xA0 SHL SUB SWAP10 DUP11 AND DUP2 MSTORE SWAP9 SWAP1 SWAP8 AND PUSH1 0x20 DUP10 ADD MSTORE SWAP6 DUP8 ADD SWAP5 SWAP1 SWAP5 MSTORE PUSH1 0x60 DUP7 ADD SWAP3 SWAP1 SWAP3 MSTORE PUSH1 0x80 DUP6 ADD MSTORE PUSH1 0xA0 DUP5 ADD MSTORE PUSH1 0xC0 DUP4 ADD MSTORE PUSH1 0xE0 DUP3 ADD MSTORE PUSH2 0x100 ADD JUMPDEST PUSH1 0x40 MLOAD DUP1 SWAP2 SUB SWAP1 RETURN JUMPDEST CALLVALUE DUP1 ISZERO PUSH2 0x641 JUMPI PUSH1 0x0 DUP1 REVERT JUMPDEST POP PUSH2 0x655 PUSH2 0x650 CALLDATASIZE PUSH1 0x4 PUSH2 0x72CF JUMP JUMPDEST PUSH2 0x157D JUMP JUMPDEST PUSH1 0x40 MLOAD SWAP1 ISZERO ISZERO DUP2 MSTORE PUSH1 0x20 ADD PUSH2 0x62C JUMP JUMPDEST CALLVALUE DUP1 ISZERO PUSH2 0x671 JUMPI PUSH1 0x0 DUP1 REVERT JUMPDEST POP PUSH2 0x67A PUSH2 0x15A1 JUMP JUMPDEST PUSH1 0x40 MLOAD PUSH2 0x62C SWAP2 SWAP1 PUSH2 0x733C JUMP JUMPDEST CALLVALUE DUP1 ISZERO PUSH2 0x693 JUMPI PUSH1 0x0 DUP1 REVERT JUMPDEST POP PUSH2 0x57C PUSH2 0x6A2 CALLDATASIZE PUSH1 0x4 PUSH2 0x734F JUMP JUMPDEST PUSH2 0x1633 JUMP JUMPDEST CALLVALUE DUP1 ISZERO PUSH2 0x6B3 JUMPI PUSH1 0x0 DUP1 REVERT JUMPDEST POP PUSH2 0x6C7 PUSH2 0x6C2 CALLDATASIZE PUSH1 0x4 PUSH2 0x72A0 JUMP JUMPDEST PUSH2 0x16A1 JUMP JUMPDEST PUSH1 0x40 MLOAD PUSH1 0x1 PUSH1 0x1 PUSH1 0xA0 SHL SUB SWAP1 SWAP2 AND DUP2 MSTORE PUSH1 0x20 ADD PUSH2 0x62C JUMP JUMPDEST CALLVALUE DUP1 ISZERO PUSH2 0x6EB JUMPI PUSH1 0x0 DUP1 REVERT JUMPDEST POP PUSH2 0x57C PUSH2 0x6FA CALLDATASIZE PUSH1 0x4 PUSH2 0x738A JUMP JUMPDEST PUSH2 0x16C8 JUMP JUMPDEST CALLVALUE DUP1 ISZERO PUSH2 0x70B JUMPI PUSH1 0x0 DUP1 REVERT JUMPDEST POP PUSH2 0x57C PUSH2 0x71A CALLDATASIZE PUSH1 0x4 PUSH2 0x72A0 JUMP JUMPDEST PUSH2 0x17DD JUMP JUMPDEST CALLVALUE DUP1 ISZERO PUSH2 0x72B JUMPI PUSH1 0x0 DUP1 REVERT JUMPDEST POP PUSH2 0x57C PUSH2 0x73A CALLDATASIZE PUSH1 0x4 PUSH2 0x73B6 JUMP JUMPDEST PUSH2 0x1842 JUMP JUMPDEST CALLVALUE DUP1 ISZERO PUSH2 0x74B JUMPI PUSH1 0x0 DUP1 REVERT JUMPDEST POP PUSH2 0x786 PUSH2 0x75A CALLDATASIZE PUSH1 0x4 PUSH2 0x738A JUMP JUMPDEST PUSH1 0x0 SWAP1 DUP2 MSTORE PUSH2 0x171 PUSH1 0x20 SWAP1 DUP2 MSTORE PUSH1 0x40 DUP1 DUP4 KECCAK256 PUSH1 0x1 PUSH1 0x1 PUSH1 0xA0 SHL SUB SWAP5 SWAP1 SWAP5 AND DUP4 MSTORE PUSH1 0x8 SWAP1 SWAP4 ADD SWAP1 MSTORE KECCAK256 SLOAD SWAP1 JUMP JUMPDEST PUSH1 0x40 MLOAD SWAP1 DUP2 MSTORE PUSH1 0x20 ADD PUSH2 0x62C JUMP JUMPDEST CALLVALUE DUP1 ISZERO PUSH2 0x7A0 JUMPI PUSH1 0x0 DUP1 REVERT JUMPDEST POP PUSH2 0x57C PUSH2 0x7AF CALLDATASIZE PUSH1 0x4 PUSH2 0x734F JUMP JUMPDEST PUSH2 0x1862 JUMP JUMPDEST PUSH2 0x57C PUSH2 0x7C2 CALLDATASIZE PUSH1 0x4 PUSH2 0x73D2 JUMP JUMPDEST PUSH2 0x189F JUMP JUMPDEST CALLVALUE DUP1 ISZERO PUSH2 0x7D3 JUMPI PUSH1 0x0 DUP1 REVERT JUMPDEST POP PUSH2 0x57C PUSH2 0x7E2 CALLDATASIZE PUSH1 0x4 PUSH2 0x7411 JUMP JUMPDEST PUSH2 0x1A84 JUMP JUMPDEST CALLVALUE DUP1 ISZERO PUSH2 0x7F3 JUMPI PUSH1 0x0 DUP1 REVERT JUMPDEST POP PUSH1 0x99 SLOAD PUSH2 0x786 JUMP JUMPDEST CALLVALUE DUP1 ISZERO PUSH2 0x808 JUMPI PUSH1 0x0 DUP1 REVERT JUMPDEST POP PUSH2 0x16F SLOAD PUSH1 0xFF AND PUSH2 0x655 JUMP JUMPDEST CALLVALUE DUP1 ISZERO PUSH2 0x821 JUMPI PUSH1 0x0 DUP1 REVERT JUMPDEST POP PUSH2 0x786 PUSH2 0x1AAF JUMP JUMPDEST CALLVALUE DUP1 ISZERO PUSH2 0x836 JUMPI PUSH1 0x0 DUP1 REVERT JUMPDEST POP PUSH2 0x87F PUSH2 0x845 CALLDATASIZE PUSH1 0x4 PUSH2 0x72A0 JUMP JUMPDEST PUSH2 0x169 PUSH1 0x20 MSTORE PUSH1 0x0 SWAP1 DUP2 MSTORE PUSH1 0x40 SWAP1 KECCAK256 DUP1 SLOAD PUSH1 0x1 DUP3 ADD SLOAD PUSH1 0x2 SWAP1 SWAP3 ADD SLOAD PUSH2 0xFFFF DUP3 AND SWAP3 PUSH3 0x10000 SWAP1 SWAP3 DIV PUSH1 0x1 PUSH1 0x1 PUSH1 0xA0 SHL SUB AND SWAP2 SWAP1 PUSH1 0xFF AND DUP5 JUMP JUMPDEST PUSH1 0x40 DUP1 MLOAD PUSH2 0xFFFF SWAP1 SWAP6 AND DUP6 MSTORE PUSH1 0x1 PUSH1 0x1 PUSH1 0xA0 SHL SUB SWAP1 SWAP4 AND PUSH1 0x20 DUP6 ADD MSTORE SWAP2 DUP4 ADD MSTORE ISZERO ISZERO PUSH1 0x60 DUP3 ADD MSTORE PUSH1 0x80 ADD PUSH2 0x62C JUMP JUMPDEST CALLVALUE DUP1 ISZERO PUSH2 0x8BA JUMPI PUSH1 0x0 DUP1 REVERT JUMPDEST POP PUSH2 0x57C PUSH2 0x8C9 CALLDATASIZE PUSH1 0x4 PUSH2 0x742E JUMP JUMPDEST PUSH2 0x1AC6 JUMP JUMPDEST CALLVALUE DUP1 ISZERO PUSH2 0x8DA JUMPI PUSH1 0x0 DUP1 REVERT JUMPDEST POP PUSH2 0x8EE PUSH2 0x8E9 CALLDATASIZE PUSH1 0x4 PUSH2 0x7540 JUMP JUMPDEST PUSH2 0x1AF8 JUMP JUMPDEST PUSH1 0x40 DUP1 MLOAD SWAP3 DUP4 MSTORE PUSH1 0x20 DUP4 ADD SWAP2 SWAP1 SWAP2 MSTORE ADD PUSH2 0x62C JUMP JUMPDEST CALLVALUE DUP1 ISZERO PUSH2 0x90F JUMPI PUSH1 0x0 DUP1 REVERT JUMPDEST POP PUSH2 0x786 PUSH2 0x91E CALLDATASIZE PUSH1 0x4 PUSH2 0x738A JUMP JUMPDEST PUSH2 0x1B1E JUMP JUMPDEST CALLVALUE DUP1 ISZERO PUSH2 0x92F JUMPI PUSH1 0x0 DUP1 REVERT JUMPDEST POP PUSH2 0x57C PUSH2 0x93E CALLDATASIZE PUSH1 0x4 PUSH2 0x7411 JUMP JUMPDEST PUSH2 0x1BB4 JUMP JUMPDEST PUSH2 0x57C PUSH2 0x951 CALLDATASIZE PUSH1 0x4 PUSH2 0x75D2 JUMP JUMPDEST PUSH2 0x1C47 JUMP JUMPDEST CALLVALUE DUP1 ISZERO PUSH2 0x962 JUMPI PUSH1 0x0 DUP1 REVERT JUMPDEST POP PUSH2 0x57C PUSH2 0x971 CALLDATASIZE PUSH1 0x4 PUSH2 0x72A0 JUMP JUMPDEST PUSH2 0x1FBA JUMP JUMPDEST CALLVALUE DUP1 ISZERO PUSH2 0x982 JUMPI PUSH1 0x0 DUP1 REVERT JUMPDEST POP PUSH2 0x57C PUSH2 0x991 CALLDATASIZE PUSH1 0x4 PUSH2 0x75F4 JUMP JUMPDEST PUSH2 0x1FC8 JUMP JUMPDEST CALLVALUE DUP1 ISZERO PUSH2 0x9A2 JUMPI PUSH1 0x0 DUP1 REVERT JUMPDEST POP PUSH2 0x9BC PUSH2 0x16C SLOAD PUSH2 0x16E SLOAD PUSH1 0x1 PUSH1 0x1 PUSH1 0xA0 SHL SUB SWAP1 SWAP2 AND SWAP2 JUMP JUMPDEST PUSH1 0x40 DUP1 MLOAD PUSH1 0x1 PUSH1 0x1 PUSH1 0xA0 SHL SUB SWAP1 SWAP4 AND DUP4 MSTORE PUSH1 0x20 DUP4 ADD SWAP2 SWAP1 SWAP2 MSTORE ADD PUSH2 0x62C JUMP JUMPDEST CALLVALUE DUP1 ISZERO PUSH2 0x9E7 JUMPI PUSH1 0x0 DUP1 REVERT JUMPDEST POP PUSH2 0x655 PUSH2 0x9F6 CALLDATASIZE PUSH1 0x4 PUSH2 0x763E JUMP JUMPDEST PUSH2 0x21A6 JUMP JUMPDEST CALLVALUE DUP1 ISZERO PUSH2 0xA07 JUMPI PUSH1 0x0 DUP1 REVERT JUMPDEST POP PUSH2 0x16B SLOAD PUSH1 0x1 PUSH1 0x1 PUSH1 0xA0 SHL SUB AND PUSH2 0x6C7 JUMP JUMPDEST CALLVALUE DUP1 ISZERO PUSH2 0xA26 JUMPI PUSH1 0x0 DUP1 REVERT JUMPDEST POP PUSH2 0x786 PUSH2 0xA35 CALLDATASIZE PUSH1 0x4 PUSH2 0x734F JUMP JUMPDEST PUSH2 0x162 PUSH1 0x20 MSTORE PUSH1 0x0 SWAP1 DUP2 MSTORE PUSH1 0x40 SWAP1 KECCAK256 SLOAD DUP2 JUMP JUMPDEST CALLVALUE DUP1 ISZERO PUSH2 0xA54 JUMPI PUSH1 0x0 DUP1 REVERT JUMPDEST POP PUSH2 0x57C PUSH2 0xA63 CALLDATASIZE PUSH1 0x4 PUSH2 0x742E JUMP JUMPDEST PUSH2 0x2273 JUMP JUMPDEST CALLVALUE DUP1 ISZERO PUSH2 0xA74 JUMPI PUSH1 0x0 DUP1 REVERT JUMPDEST POP PUSH2 0x57C PUSH2 0xA83 CALLDATASIZE PUSH1 0x4 PUSH2 0x72A0 JUMP JUMPDEST PUSH2 0x228E JUMP JUMPDEST CALLVALUE DUP1 ISZERO PUSH2 0xA94 JUMPI PUSH1 0x0 DUP1 REVERT JUMPDEST POP PUSH2 0x57C PUSH2 0xAA3 CALLDATASIZE PUSH1 0x4 PUSH2 0x763E JUMP JUMPDEST PUSH2 0x22BF JUMP JUMPDEST CALLVALUE DUP1 ISZERO PUSH2 0xAB4 JUMPI PUSH1 0x0 DUP1 REVERT JUMPDEST POP PUSH2 0x786 PUSH2 0x166 SLOAD DUP2 JUMP JUMPDEST CALLVALUE DUP1 ISZERO PUSH2 0xACB JUMPI PUSH1 0x0 DUP1 REVERT JUMPDEST POP PUSH2 0x16C SLOAD PUSH2 0x6C7 SWAP1 PUSH1 0x1 PUSH1 0x1 PUSH1 0xA0 SHL SUB AND DUP2 JUMP JUMPDEST CALLVALUE DUP1 ISZERO PUSH2 0xAEC JUMPI PUSH1 0x0 DUP1 REVERT JUMPDEST POP PUSH2 0x786 PUSH2 0xAFB CALLDATASIZE PUSH1 0x4 PUSH2 0x734F JUMP JUMPDEST PUSH2 0x167 PUSH1 0x20 MSTORE PUSH1 0x0 SWAP1 DUP2 MSTORE PUSH1 0x40 SWAP1 KECCAK256 SLOAD DUP2 JUMP JUMPDEST CALLVALUE DUP1 ISZERO PUSH2 0xB1A JUMPI PUSH1 0x0 DUP1 REVERT JUMPDEST POP PUSH2 0x786 PUSH2 0xB29 CALLDATASIZE PUSH1 0x4 PUSH2 0x72A0 JUMP JUMPDEST PUSH2 0x232A JUMP JUMPDEST PUSH2 0x57C PUSH2 0xB3C CALLDATASIZE PUSH1 0x4 PUSH2 0x7690 JUMP JUMPDEST PUSH2 0x23BD JUMP JUMPDEST CALLVALUE DUP1 ISZERO PUSH2 0xB4D JUMPI PUSH1 0x0 DUP1 REVERT JUMPDEST POP PUSH2 0x57C PUSH2 0x16B DUP1 SLOAD PUSH1 0x1 PUSH1 0x1 PUSH1 0xA0 SHL SUB NOT AND CALLER OR SWAP1 SSTORE JUMP JUMPDEST CALLVALUE DUP1 ISZERO PUSH2 0xB72 JUMPI PUSH1 0x0 DUP1 REVERT JUMPDEST POP PUSH2 0x57C PUSH2 0xB81 CALLDATASIZE PUSH1 0x4 PUSH2 0x75D2 JUMP JUMPDEST PUSH2 0x23D4 JUMP JUMPDEST CALLVALUE DUP1 ISZERO PUSH2 0xB92 JUMPI PUSH1 0x0 DUP1 REVERT JUMPDEST POP PUSH2 0x786 PUSH2 0xBA1 CALLDATASIZE PUSH1 0x4 PUSH2 0x7749 JUMP JUMPDEST PUSH2 0x164 PUSH1 0x20 SWAP1 DUP2 MSTORE PUSH1 0x0 SWAP4 DUP5 MSTORE PUSH1 0x40 DUP1 DUP6 KECCAK256 DUP5 MLOAD DUP1 DUP7 ADD DUP5 ADD DUP1 MLOAD SWAP3 DUP2 MSTORE SWAP1 DUP5 ADD SWAP6 DUP5 ADD SWAP6 SWAP1 SWAP6 KECCAK256 SWAP5 MSTORE SWAP3 SWAP1 MSTORE DUP3 MSTORE SWAP1 KECCAK256 SLOAD DUP2 JUMP JUMPDEST CALLVALUE DUP1 ISZERO PUSH2 0xBE2 JUMPI PUSH1 0x0 DUP1 REVERT JUMPDEST POP PUSH2 0xC3B PUSH2 0xBF1 CALLDATASIZE PUSH1 0x4 PUSH2 0x72A0 JUMP JUMPDEST PUSH1 0x0 SWAP1 DUP2 MSTORE PUSH2 0x171 PUSH1 0x20 MSTORE PUSH1 0x40 SWAP1 KECCAK256 PUSH1 0x1 DUP2 ADD SLOAD DUP2 SLOAD PUSH1 0x2 DUP4 ADD SLOAD PUSH1 0x4 DUP5 ADD SLOAD PUSH1 0x6 DUP6 ADD SLOAD PUSH1 0x5 DUP7 ADD SLOAD PUSH1 0x7 SWAP1 SWAP7 ADD SLOAD PUSH1 0x1 PUSH1 0x1 PUSH1 0xA0 SHL SUB SWAP6 DUP7 AND SWAP8 SWAP6 SWAP1 SWAP5 AND SWAP6 SWAP3 SWAP5 SWAP2 SWAP4 SWAP1 SWAP3 SWAP2 JUMP JUMPDEST PUSH1 0x40 DUP1 MLOAD PUSH1 0x1 PUSH1 0x1 PUSH1 0xA0 SHL SUB SWAP9 DUP10 AND DUP2 MSTORE SWAP8 SWAP1 SWAP7 AND PUSH1 0x20 DUP9 ADD MSTORE SWAP5 DUP7 ADD SWAP4 SWAP1 SWAP4 MSTORE PUSH1 0x60 DUP6 ADD SWAP2 SWAP1 SWAP2 MSTORE PUSH1 0x80 DUP5 ADD MSTORE PUSH1 0xA0 DUP4 ADD MSTORE PUSH1 0xC0 DUP3 ADD MSTORE PUSH1 0xE0 ADD PUSH2 0x62C JUMP JUMPDEST PUSH2 0x57C PUSH2 0xC89 CALLDATASIZE PUSH1 0x4 PUSH2 0x77A6 JUMP JUMPDEST PUSH2 0x24AC JUMP JUMPDEST PUSH2 0x57C PUSH2 0xC9C CALLDATASIZE PUSH1 0x4 PUSH2 0x781A JUMP JUMPDEST PUSH2 0x2643 JUMP JUMPDEST CALLVALUE DUP1 ISZERO PUSH2 0xCAD JUMPI PUSH1 0x0 DUP1 REVERT JUMPDEST POP PUSH2 0x6C7 PUSH2 0xCBC CALLDATASIZE PUSH1 0x4 PUSH2 0x72A0 JUMP JUMPDEST PUSH2 0x29C6 JUMP JUMPDEST CALLVALUE DUP1 ISZERO PUSH2 0xCCD JUMPI PUSH1 0x0 DUP1 REVERT JUMPDEST POP PUSH2 0x57C PUSH2 0xCDC CALLDATASIZE PUSH1 0x4 PUSH2 0x720D JUMP JUMPDEST PUSH2 0x2A26 JUMP JUMPDEST CALLVALUE DUP1 ISZERO PUSH2 0xCED JUMPI PUSH1 0x0 DUP1 REVERT JUMPDEST POP PUSH2 0x786 PUSH2 0xCFC CALLDATASIZE PUSH1 0x4 PUSH2 0x7411 JUMP JUMPDEST PUSH2 0x2AFA JUMP JUMPDEST CALLVALUE DUP1 ISZERO PUSH2 0xD0D JUMPI PUSH1 0x0 DUP1 REVERT JUMPDEST POP PUSH2 0x57C PUSH2 0x2B80 JUMP JUMPDEST PUSH2 0x57C PUSH2 0xD24 CALLDATASIZE PUSH1 0x4 PUSH2 0x7879 JUMP JUMPDEST PUSH2 0x2B94 JUMP JUMPDEST CALLVALUE DUP1 ISZERO PUSH2 0xD35 JUMPI PUSH1 0x0 DUP1 REVERT JUMPDEST POP PUSH2 0x57C PUSH2 0xD44 CALLDATASIZE PUSH1 0x4 PUSH2 0x78D4 JUMP JUMPDEST PUSH2 0x2EE5 JUMP JUMPDEST CALLVALUE DUP1 ISZERO PUSH2 0xD55 JUMPI PUSH1 0x0 DUP1 REVERT JUMPDEST POP PUSH2 0x67A PUSH2 0xD64 CALLDATASIZE PUSH1 0x4 PUSH2 0x734F JUMP JUMPDEST PUSH2 0x30DC JUMP JUMPDEST CALLVALUE DUP1 ISZERO PUSH2 0xD75 JUMPI PUSH1 0x0 DUP1 REVERT JUMPDEST POP PUSH2 0x655 PUSH2 0xD84 CALLDATASIZE PUSH1 0x4 PUSH2 0x795A JUMP JUMPDEST PUSH2 0x3177 JUMP JUMPDEST PUSH2 0x57C PUSH2 0xD97 CALLDATASIZE PUSH1 0x4 PUSH2 0x798F JUMP JUMPDEST PUSH2 0x321C JUMP JUMPDEST CALLVALUE DUP1 ISZERO PUSH2 0xDA8 JUMPI PUSH1 0x0 DUP1 REVERT JUMPDEST POP PUSH2 0x57C PUSH2 0xDB7 CALLDATASIZE PUSH1 0x4 PUSH2 0x738A JUMP JUMPDEST PUSH2 0x34A4 JUMP JUMPDEST CALLVALUE DUP1 ISZERO PUSH2 0xDC8 JUMPI PUSH1 0x0 DUP1 REVERT JUMPDEST POP PUSH2 0x8EE PUSH2 0xDD7 CALLDATASIZE PUSH1 0x4 PUSH2 0x72A0 JUMP JUMPDEST PUSH2 0x172 PUSH1 0x20 MSTORE PUSH1 0x0 SWAP1 DUP2 MSTORE PUSH1 0x40 SWAP1 KECCAK256 DUP1 SLOAD PUSH1 0x1 SWAP1 SWAP2 ADD SLOAD DUP3 JUMP JUMPDEST CALLVALUE DUP1 ISZERO PUSH2 0xDFD JUMPI PUSH1 0x0 DUP1 REVERT JUMPDEST POP PUSH2 0x57C PUSH2 0x35F8 JUMP JUMPDEST CALLVALUE DUP1 ISZERO PUSH2 0xE12 JUMPI PUSH1 0x0 DUP1 REVERT JUMPDEST POP PUSH2 0x57C PUSH2 0xE21 CALLDATASIZE PUSH1 0x4 PUSH2 0x75D2 JUMP JUMPDEST PUSH2 0x3610 JUMP JUMPDEST CALLVALUE DUP1 ISZERO PUSH2 0xE32 JUMPI PUSH1 0x0 DUP1 REVERT JUMPDEST POP PUSH2 0x57C PUSH2 0xE41 CALLDATASIZE PUSH1 0x4 PUSH2 0x72A0 JUMP JUMPDEST PUSH2 0x36CD JUMP JUMPDEST PUSH2 0x57C PUSH2 0xE54 CALLDATASIZE PUSH1 0x4 PUSH2 0x75D2 JUMP JUMPDEST PUSH2 0x3793 JUMP JUMPDEST CALLVALUE DUP1 ISZERO PUSH2 0xE65 JUMPI PUSH1 0x0 DUP1 REVERT JUMPDEST POP PUSH2 0x786 PUSH2 0xE74 CALLDATASIZE PUSH1 0x4 PUSH2 0x79E7 JUMP JUMPDEST PUSH2 0x161 PUSH1 0x20 SWAP1 DUP2 MSTORE PUSH1 0x0 SWAP3 DUP4 MSTORE PUSH1 0x40 DUP1 DUP5 KECCAK256 SWAP1 SWAP2 MSTORE SWAP1 DUP3 MSTORE SWAP1 KECCAK256 SLOAD DUP2 JUMP JUMPDEST CALLVALUE DUP1 ISZERO PUSH2 0xE9E JUMPI PUSH1 0x0 DUP1 REVERT JUMPDEST POP PUSH2 0x12D SLOAD PUSH1 0x1 PUSH1 0x1 PUSH1 0xA0 SHL SUB AND PUSH2 0x6C7 JUMP JUMPDEST CALLVALUE DUP1 ISZERO PUSH2 0xEBD JUMPI PUSH1 0x0 DUP1 REVERT JUMPDEST POP PUSH2 0x57C PUSH2 0xECC CALLDATASIZE PUSH1 0x4 PUSH2 0x7A1A JUMP JUMPDEST PUSH2 0x38C9 JUMP JUMPDEST CALLVALUE DUP1 ISZERO PUSH2 0xEDD JUMPI PUSH1 0x0 DUP1 REVERT JUMPDEST POP PUSH2 0x163 SLOAD PUSH2 0x6C7 SWAP1 PUSH1 0x1 PUSH1 0x1 PUSH1 0xA0 SHL SUB AND DUP2 JUMP JUMPDEST CALLVALUE DUP1 ISZERO PUSH2 0xEFE JUMPI PUSH1 0x0 DUP1 REVERT JUMPDEST POP PUSH2 0x67A PUSH2 0x3B17 JUMP JUMPDEST CALLVALUE DUP1 ISZERO PUSH2 0xF13 JUMPI PUSH1 0x0 DUP1 REVERT JUMPDEST POP PUSH2 0x57C PUSH2 0xF22 CALLDATASIZE PUSH1 0x4 PUSH2 0x7411 JUMP JUMPDEST PUSH2 0x3B26 JUMP JUMPDEST PUSH2 0x57C PUSH2 0xF35 CALLDATASIZE PUSH1 0x4 PUSH2 0x75D2 JUMP JUMPDEST PUSH2 0x3B81 JUMP JUMPDEST CALLVALUE DUP1 ISZERO PUSH2 0xF46 JUMPI PUSH1 0x0 DUP1 REVERT JUMPDEST POP PUSH2 0x786 PUSH2 0xF55 CALLDATASIZE PUSH1 0x4 PUSH2 0x7411 JUMP JUMPDEST PUSH2 0x170 PUSH1 0x20 MSTORE PUSH1 0x0 SWAP1 DUP2 MSTORE PUSH1 0x40 SWAP1 KECCAK256 SLOAD DUP2 JUMP JUMPDEST CALLVALUE DUP1 ISZERO PUSH2 0xF74 JUMPI PUSH1 0x0 DUP1 REVERT JUMPDEST POP PUSH2 0x57C PUSH2 0xF83 CALLDATASIZE PUSH1 0x4 PUSH2 0x73B6 JUMP JUMPDEST PUSH2 0x3D67 JUMP JUMPDEST CALLVALUE DUP1 ISZERO PUSH2 0xF94 JUMPI PUSH1 0x0 DUP1 REVERT JUMPDEST POP PUSH2 0x67A PUSH2 0xFA3 CALLDATASIZE PUSH1 0x4 PUSH2 0x734F JUMP JUMPDEST PUSH2 0x3E1F JUMP JUMPDEST CALLVALUE DUP1 ISZERO PUSH2 0xFB4 JUMPI PUSH1 0x0 DUP1 REVERT JUMPDEST POP PUSH2 0x57C PUSH2 0xFC3 CALLDATASIZE PUSH1 0x4 PUSH2 0x7A4E JUMP JUMPDEST PUSH2 0x3F36 JUMP JUMPDEST CALLVALUE DUP1 ISZERO PUSH2 0xFD4 JUMPI PUSH1 0x0 DUP1 REVERT JUMPDEST POP PUSH2 0x57C PUSH2 0xFE3 CALLDATASIZE PUSH1 0x4 PUSH2 0x763E JUMP JUMPDEST PUSH2 0x3F41 JUMP JUMPDEST CALLVALUE DUP1 ISZERO PUSH2 0xFF4 JUMPI PUSH1 0x0 DUP1 REVERT JUMPDEST POP PUSH2 0x57C PUSH2 0x1003 CALLDATASIZE PUSH1 0x4 PUSH2 0x7A87 JUMP JUMPDEST PUSH2 0x3FCB JUMP JUMPDEST PUSH2 0x57C PUSH2 0x1016 CALLDATASIZE PUSH1 0x4 PUSH2 0x7B49 JUMP JUMPDEST PUSH2 0x40FF JUMP JUMPDEST CALLVALUE DUP1 ISZERO PUSH2 0x1027 JUMPI PUSH1 0x0 DUP1 REVERT JUMPDEST POP PUSH2 0x1030 PUSH1 0x1 DUP2 JUMP JUMPDEST PUSH1 0x40 MLOAD PUSH2 0xFFFF SWAP1 SWAP2 AND DUP2 MSTORE PUSH1 0x20 ADD PUSH2 0x62C JUMP JUMPDEST CALLVALUE DUP1 ISZERO PUSH2 0x104F JUMPI PUSH1 0x0 DUP1 REVERT JUMPDEST POP PUSH2 0x15F SLOAD PUSH2 0x6C7 SWAP1 PUSH1 0x1 PUSH1 0x1 PUSH1 0xA0 SHL SUB AND DUP2 JUMP JUMPDEST CALLVALUE DUP1 ISZERO PUSH2 0x1070 JUMPI PUSH1 0x0 DUP1 REVERT JUMPDEST POP PUSH2 0x57C PUSH2 0x107F CALLDATASIZE PUSH1 0x4 PUSH2 0x7BFE JUMP JUMPDEST PUSH2 0x410E JUMP JUMPDEST CALLVALUE DUP1 ISZERO PUSH2 0x1090 JUMPI PUSH1 0x0 DUP1 REVERT JUMPDEST POP PUSH2 0x57C PUSH2 0x109F CALLDATASIZE PUSH1 0x4 PUSH2 0x7411 JUMP JUMPDEST PUSH2 0x4146 JUMP JUMPDEST CALLVALUE DUP1 ISZERO PUSH2 0x10B0 JUMPI PUSH1 0x0 DUP1 REVERT JUMPDEST POP PUSH2 0x786 PUSH2 0x2710 DUP2 JUMP JUMPDEST CALLVALUE DUP1 ISZERO PUSH2 0x10C6 JUMPI PUSH1 0x0 DUP1 REVERT JUMPDEST POP PUSH2 0x67A PUSH2 0x10D5 CALLDATASIZE PUSH1 0x4 PUSH2 0x72A0 JUMP JUMPDEST PUSH2 0x419D JUMP JUMPDEST CALLVALUE DUP1 ISZERO PUSH2 0x10E6 JUMPI PUSH1 0x0 DUP1 REVERT JUMPDEST POP PUSH2 0x16C SLOAD PUSH1 0x1 PUSH1 0x1 PUSH1 0xA0 SHL SUB AND PUSH2 0x6C7 JUMP JUMPDEST CALLVALUE DUP1 ISZERO PUSH2 0x1105 JUMPI PUSH1 0x0 DUP1 REVERT JUMPDEST POP PUSH2 0x57C PUSH2 0x1114 CALLDATASIZE PUSH1 0x4 PUSH2 0x7C69 JUMP JUMPDEST PUSH2 0x41A8 JUMP JUMPDEST CALLVALUE DUP1 ISZERO PUSH2 0x1125 JUMPI PUSH1 0x0 DUP1 REVERT JUMPDEST POP PUSH2 0x1139 PUSH2 0x1134 CALLDATASIZE PUSH1 0x4 PUSH2 0x795A JUMP JUMPDEST PUSH2 0x4222 JUMP JUMPDEST PUSH1 0x40 MLOAD PUSH2 0x62C SWAP3 SWAP2 SWAP1 PUSH2 0x7CD7 JUMP JUMPDEST PUSH2 0x57C PUSH2 0x1155 CALLDATASIZE PUSH1 0x4 PUSH2 0x7D05 JUMP JUMPDEST PUSH2 0x4524 JUMP JUMPDEST PUSH2 0x57C PUSH2 0x1168 CALLDATASIZE PUSH1 0x4 PUSH2 0x7D44 JUMP JUMPDEST PUSH2 0x4871 JUMP JUMPDEST CALLVALUE DUP1 ISZERO PUSH2 0x1179 JUMPI PUSH1 0x0 DUP1 REVERT JUMPDEST POP PUSH2 0x57C PUSH2 0x1188 CALLDATASIZE PUSH1 0x4 PUSH2 0x73B6 JUMP JUMPDEST PUSH2 0x49E0 JUMP JUMPDEST PUSH2 0x57C PUSH2 0x119B CALLDATASIZE PUSH1 0x4 PUSH2 0x720D JUMP JUMPDEST PUSH2 0x4A91 JUMP JUMPDEST CALLVALUE DUP1 ISZERO PUSH2 0x11AC JUMPI PUSH1 0x0 DUP1 REVERT JUMPDEST POP PUSH2 0x655 PUSH2 0x11BB CALLDATASIZE PUSH1 0x4 PUSH2 0x72A0 JUMP JUMPDEST PUSH2 0x4CA9 JUMP JUMPDEST CALLVALUE DUP1 ISZERO PUSH2 0x11CC JUMPI PUSH1 0x0 DUP1 REVERT JUMPDEST POP PUSH2 0x57C PUSH2 0x11DB CALLDATASIZE PUSH1 0x4 PUSH2 0x7A87 JUMP JUMPDEST PUSH2 0x4CD3 JUMP JUMPDEST CALLVALUE DUP1 ISZERO PUSH2 0x11EC JUMPI PUSH1 0x0 DUP1 REVERT JUMPDEST POP PUSH2 0x57C PUSH2 0x4EB1 JUMP JUMPDEST CALLVALUE DUP1 ISZERO PUSH2 0x1201 JUMPI PUSH1 0x0 DUP1 REVERT JUMPDEST POP PUSH2 0x57C PUSH2 0x1210 CALLDATASIZE PUSH1 0x4 PUSH2 0x7D93 JUMP JUMPDEST PUSH2 0x4EC6 JUMP JUMPDEST CALLVALUE DUP1 ISZERO PUSH2 0x1221 JUMPI PUSH1 0x0 DUP1 REVERT JUMPDEST POP PUSH2 0x655 PUSH2 0x1230 CALLDATASIZE PUSH1 0x4 PUSH2 0x7DCF JUMP JUMPDEST PUSH1 0x1 PUSH1 0x1 PUSH1 0xA0 SHL SUB SWAP2 DUP3 AND PUSH1 0x0 SWAP1 DUP2 MSTORE PUSH1 0x6A PUSH1 0x20 SWAP1 DUP2 MSTORE PUSH1 0x40 DUP1 DUP4 KECCAK256 SWAP4 SWAP1 SWAP5 AND DUP3 MSTORE SWAP2 SWAP1 SWAP2 MSTORE KECCAK256 SLOAD PUSH1 0xFF AND SWAP1 JUMP JUMPDEST CALLVALUE DUP1 ISZERO PUSH2 0x126A JUMPI PUSH1 0x0 DUP1 REVERT JUMPDEST POP PUSH2 0x57C PUSH2 0x1279 CALLDATASIZE PUSH1 0x4 PUSH2 0x763E JUMP JUMPDEST PUSH2 0x4F31 JUMP JUMPDEST PUSH2 0x57C PUSH2 0x128C CALLDATASIZE PUSH1 0x4 PUSH2 0x7A87 JUMP JUMPDEST PUSH2 0x4F8C JUMP JUMPDEST CALLVALUE DUP1 ISZERO PUSH2 0x129D JUMPI PUSH1 0x0 DUP1 REVERT JUMPDEST POP PUSH2 0x1139 PUSH2 0x12AC CALLDATASIZE PUSH1 0x4 PUSH2 0x75D2 JUMP JUMPDEST PUSH2 0x5143 JUMP JUMPDEST CALLVALUE DUP1 ISZERO PUSH2 0x12BD JUMPI PUSH1 0x0 DUP1 REVERT JUMPDEST POP PUSH2 0x8EE PUSH2 0x12CC CALLDATASIZE PUSH1 0x4 PUSH2 0x7DFD JUMP JUMPDEST PUSH2 0x537C JUMP JUMPDEST CALLVALUE DUP1 ISZERO PUSH2 0x12DD JUMPI PUSH1 0x0 DUP1 REVERT JUMPDEST POP PUSH2 0x57C PUSH2 0x12EC CALLDATASIZE PUSH1 0x4 PUSH2 0x7411 JUMP JUMPDEST PUSH2 0x542B JUMP JUMPDEST CALLVALUE DUP1 ISZERO PUSH2 0x12FD JUMPI PUSH1 0x0 DUP1 REVERT JUMPDEST POP PUSH2 0x67A PUSH2 0x130C CALLDATASIZE PUSH1 0x4 PUSH2 0x7E7A JUMP JUMPDEST PUSH2 0x54A1 JUMP JUMPDEST CALLVALUE DUP1 ISZERO PUSH2 0x131D JUMPI PUSH1 0x0 DUP1 REVERT JUMPDEST POP PUSH2 0x786 PUSH2 0x132C CALLDATASIZE PUSH1 0x4 PUSH2 0x734F JUMP JUMPDEST PUSH2 0x168 PUSH1 0x20 MSTORE PUSH1 0x0 SWAP1 DUP2 MSTORE PUSH1 0x40 SWAP1 KECCAK256 SLOAD DUP2 JUMP JUMPDEST CALLVALUE DUP1 ISZERO PUSH2 0x134B JUMPI PUSH1 0x0 DUP1 REVERT JUMPDEST POP PUSH2 0x57C PUSH2 0x135A CALLDATASIZE PUSH1 0x4 PUSH2 0x75D2 JUMP JUMPDEST PUSH2 0x5537 JUMP JUMPDEST PUSH2 0x15F SLOAD PUSH1 0x1 PUSH1 0x1 PUSH1 0xA0 SHL SUB AND CALLER PUSH1 0x1 PUSH1 0x1 PUSH1 0xA0 SHL SUB AND EQ PUSH2 0x13C8 JUMPI PUSH1 0x40 MLOAD PUSH3 0x461BCD PUSH1 0xE5 SHL DUP2 MSTORE PUSH1 0x20 PUSH1 0x4 DUP3 ADD MSTORE PUSH1 0x1E PUSH1 0x24 DUP3 ADD MSTORE PUSH32 0x4C7A4170703A20696E76616C696420656E64706F696E742063616C6C65720000 PUSH1 0x44 DUP3 ADD MSTORE PUSH1 0x64 ADD JUMPDEST PUSH1 0x40 MLOAD DUP1 SWAP2 SUB SWAP1 REVERT JUMPDEST PUSH2 0xFFFF DUP7 AND PUSH1 0x0 SWAP1 DUP2 MSTORE PUSH2 0x160 PUSH1 0x20 MSTORE PUSH1 0x40 DUP2 KECCAK256 DUP1 SLOAD PUSH2 0x13E7 SWAP1 PUSH2 0x7EB7 JUMP JUMPDEST DUP1 PUSH1 0x1F ADD PUSH1 0x20 DUP1 SWAP2 DIV MUL PUSH1 0x20 ADD PUSH1 0x40 MLOAD SWAP1 DUP2 ADD PUSH1 0x40 MSTORE DUP1 SWAP3 SWAP2 SWAP1 DUP2 DUP2 MSTORE PUSH1 0x20 ADD DUP3 DUP1 SLOAD PUSH2 0x1413 SWAP1 PUSH2 0x7EB7 JUMP JUMPDEST DUP1 ISZERO PUSH2 0x1460 JUMPI DUP1 PUSH1 0x1F LT PUSH2 0x1435 JUMPI PUSH2 0x100 DUP1 DUP4 SLOAD DIV MUL DUP4 MSTORE SWAP2 PUSH1 0x20 ADD SWAP2 PUSH2 0x1460 JUMP JUMPDEST DUP3 ADD SWAP2 SWAP1 PUSH1 0x0 MSTORE PUSH1 0x20 PUSH1 0x0 KECCAK256 SWAP1 JUMPDEST DUP2 SLOAD DUP2 MSTORE SWAP1 PUSH1 0x1 ADD SWAP1 PUSH1 0x20 ADD DUP1 DUP4 GT PUSH2 0x1443 JUMPI DUP3 SWAP1 SUB PUSH1 0x1F AND DUP3 ADD SWAP2 JUMPDEST POP POP POP POP POP SWAP1 POP DUP1 MLOAD DUP7 DUP7 SWAP1 POP EQ DUP1 ISZERO PUSH2 0x147B JUMPI POP PUSH1 0x0 DUP2 MLOAD GT JUMPDEST DUP1 ISZERO PUSH2 0x14A3 JUMPI POP DUP1 MLOAD PUSH1 0x20 DUP3 ADD KECCAK256 PUSH1 0x40 MLOAD PUSH2 0x1499 SWAP1 DUP9 SWAP1 DUP9 SWAP1 PUSH2 0x7EF1 JUMP JUMPDEST PUSH1 0x40 MLOAD DUP1 SWAP2 SUB SWAP1 KECCAK256 EQ JUMPDEST PUSH2 0x14FE JUMPI PUSH1 0x40 MLOAD PUSH3 0x461BCD PUSH1 0xE5 SHL DUP2 MSTORE PUSH1 0x20 PUSH1 0x4 DUP3 ADD MSTORE PUSH1 0x26 PUSH1 0x24 DUP3 ADD MSTORE PUSH32 0x4C7A4170703A20696E76616C696420736F757263652073656E64696E6720636F PUSH1 0x44 DUP3 ADD MSTORE PUSH6 0x1B9D1C9858DD PUSH1 0xD2 SHL PUSH1 0x64 DUP3 ADD MSTORE PUSH1 0x84 ADD PUSH2 0x13BF JUMP JUMPDEST PUSH2 0x1574 DUP8 DUP8 DUP8 DUP1 DUP1 PUSH1 0x1F ADD PUSH1 0x20 DUP1 SWAP2 DIV MUL PUSH1 0x20 ADD PUSH1 0x40 MLOAD SWAP1 DUP2 ADD PUSH1 0x40 MSTORE DUP1 SWAP4 SWAP3 SWAP2 SWAP1 DUP2 DUP2 MSTORE PUSH1 0x20 ADD DUP4 DUP4 DUP1 DUP3 DUP5 CALLDATACOPY PUSH1 0x0 SWAP3 ADD SWAP2 SWAP1 SWAP2 MSTORE POP POP PUSH1 0x40 DUP1 MLOAD PUSH1 0x20 PUSH1 0x1F DUP11 ADD DUP2 SWAP1 DIV DUP2 MUL DUP3 ADD DUP2 ADD SWAP1 SWAP3 MSTORE DUP9 DUP2 MSTORE DUP11 SWAP4 POP SWAP2 POP DUP9 SWAP1 DUP9 SWAP1 DUP2 SWAP1 DUP5 ADD DUP4 DUP3 DUP1 DUP3 DUP5 CALLDATACOPY PUSH1 0x0 SWAP3 ADD SWAP2 SWAP1 SWAP2 MSTORE POP PUSH2 0x560F SWAP3 POP POP POP JUMP JUMPDEST POP POP POP POP POP POP POP JUMP JUMPDEST PUSH1 0x0 PUSH2 0x1588 DUP3 PUSH2 0x5688 JUMP JUMPDEST DUP1 PUSH2 0x159B JUMPI POP PUSH1 0x1 PUSH1 0x1 PUSH1 0xE0 SHL SUB NOT DUP3 AND ISZERO JUMPDEST SWAP3 SWAP2 POP POP JUMP JUMPDEST PUSH1 0x60 PUSH1 0x65 DUP1 SLOAD PUSH2 0x15B0 SWAP1 PUSH2 0x7EB7 JUMP JUMPDEST DUP1 PUSH1 0x1F ADD PUSH1 0x20 DUP1 SWAP2 DIV MUL PUSH1 0x20 ADD PUSH1 0x40 MLOAD SWAP1 DUP2 ADD PUSH1 0x40 MSTORE DUP1 SWAP3 SWAP2 SWAP1 DUP2 DUP2 MSTORE PUSH1 0x20 ADD DUP3 DUP1 SLOAD PUSH2 0x15DC SWAP1 PUSH2 0x7EB7 JUMP JUMPDEST DUP1 ISZERO PUSH2 0x1629 JUMPI DUP1 PUSH1 0x1F LT PUSH2 0x15FE JUMPI PUSH2 0x100 DUP1 DUP4 SLOAD DIV MUL DUP4 MSTORE SWAP2 PUSH1 0x20 ADD SWAP2 PUSH2 0x1629 JUMP JUMPDEST DUP3 ADD SWAP2 SWAP1 PUSH1 0x0 MSTORE PUSH1 0x20 PUSH1 0x0 KECCAK256 SWAP1 JUMPDEST DUP2 SLOAD DUP2 MSTORE SWAP1 PUSH1 0x1 ADD SWAP1 PUSH1 0x20 ADD DUP1 DUP4 GT PUSH2 0x160C JUMPI DUP3 SWAP1 SUB PUSH1 0x1F AND DUP3 ADD SWAP2 JUMPDEST POP POP POP POP POP SWAP1 POP SWAP1 JUMP JUMPDEST PUSH2 0x163B PUSH2 0x56BD JUMP JUMPDEST PUSH2 0x15F SLOAD PUSH1 0x40 MLOAD PUSH4 0x7E0DB17 PUSH1 0xE0 SHL DUP2 MSTORE PUSH2 0xFFFF DUP4 AND PUSH1 0x4 DUP3 ADD MSTORE PUSH1 0x1 PUSH1 0x1 PUSH1 0xA0 SHL SUB SWAP1 SWAP2 AND SWAP1 PUSH4 0x7E0DB17 SWAP1 PUSH1 0x24 ADD JUMPDEST PUSH1 0x0 PUSH1 0x40 MLOAD DUP1 DUP4 SUB DUP2 PUSH1 0x0 DUP8 DUP1 EXTCODESIZE ISZERO DUP1 ISZERO PUSH2 0x1686 JUMPI PUSH1 0x0 DUP1 REVERT JUMPDEST POP GAS CALL ISZERO DUP1 ISZERO PUSH2 0x169A JUMPI RETURNDATASIZE PUSH1 0x0 DUP1 RETURNDATACOPY RETURNDATASIZE PUSH1 0x0 REVERT JUMPDEST POP POP POP POP POP JUMP JUMPDEST PUSH1 0x0 PUSH2 0x16AC DUP3 PUSH2 0x5718 JUMP JUMPDEST POP PUSH1 0x0 SWAP1 DUP2 MSTORE PUSH1 0x69 PUSH1 0x20 MSTORE PUSH1 0x40 SWAP1 KECCAK256 SLOAD PUSH1 0x1 PUSH1 0x1 PUSH1 0xA0 SHL SUB AND SWAP1 JUMP JUMPDEST PUSH1 0x0 PUSH2 0x16D3 DUP3 PUSH2 0x29C6 JUMP JUMPDEST SWAP1 POP DUP1 PUSH1 0x1 PUSH1 0x1 PUSH1 0xA0 SHL SUB AND DUP4 PUSH1 0x1 PUSH1 0x1 PUSH1 0xA0 SHL SUB AND SUB PUSH2 0x1740 JUMPI PUSH1 0x40 MLOAD PUSH3 0x461BCD PUSH1 0xE5 SHL DUP2 MSTORE PUSH1 0x20 PUSH1 0x4 DUP3 ADD MSTORE PUSH1 0x21 PUSH1 0x24 DUP3 ADD MSTORE PUSH32 0x4552433732313A20617070726F76616C20746F2063757272656E74206F776E65 PUSH1 0x44 DUP3 ADD MSTORE PUSH1 0x39 PUSH1 0xF9 SHL PUSH1 0x64 DUP3 ADD MSTORE PUSH1 0x84 ADD PUSH2 0x13BF JUMP JUMPDEST CALLER PUSH1 0x1 PUSH1 0x1 PUSH1 0xA0 SHL SUB DUP3 AND EQ DUP1 PUSH2 0x175C JUMPI POP PUSH2 0x175C DUP2 CALLER PUSH2 0x1230 JUMP JUMPDEST PUSH2 0x17CE JUMPI PUSH1 0x40 MLOAD PUSH3 0x461BCD PUSH1 0xE5 SHL DUP2 MSTORE PUSH1 0x20 PUSH1 0x4 DUP3 ADD MSTORE PUSH1 0x3D PUSH1 0x24 DUP3 ADD MSTORE PUSH32 0x4552433732313A20617070726F76652063616C6C6572206973206E6F7420746F PUSH1 0x44 DUP3 ADD MSTORE PUSH32 0x6B656E206F776E6572206F7220617070726F76656420666F7220616C6C000000 PUSH1 0x64 DUP3 ADD MSTORE PUSH1 0x84 ADD PUSH2 0x13BF JUMP JUMPDEST PUSH2 0x17D8 DUP4 DUP4 PUSH2 0x5768 JUMP JUMPDEST POP POP POP JUMP JUMPDEST PUSH2 0x17E5 PUSH2 0x56BD JUMP JUMPDEST PUSH1 0x0 DUP2 GT PUSH2 0x1805 JUMPI PUSH1 0x40 MLOAD PUSH3 0x461BCD PUSH1 0xE5 SHL DUP2 MSTORE PUSH1 0x4 ADD PUSH2 0x13BF SWAP1 PUSH2 0x7F01 JUMP JUMPDEST PUSH2 0x166 DUP2 SWAP1 SSTORE PUSH1 0x40 MLOAD DUP2 DUP2 MSTORE PUSH32 0xFEBBC4F8BB9EC2313950C718D43123124B15778EFDA4C1F1D529DE2995B4F34D SWAP1 PUSH1 0x20 ADD JUMPDEST PUSH1 0x40 MLOAD DUP1 SWAP2 SUB SWAP1 LOG1 POP JUMP JUMPDEST PUSH2 0x184A PUSH2 0x56BD JUMP JUMPDEST PUSH2 0xFFFF SWAP1 SWAP2 AND PUSH1 0x0 SWAP1 DUP2 MSTORE PUSH2 0x162 PUSH1 0x20 MSTORE PUSH1 0x40 SWAP1 KECCAK256 SSTORE JUMP JUMPDEST PUSH2 0x186A PUSH2 0x56BD JUMP JUMPDEST PUSH2 0x15F SLOAD PUSH1 0x40 MLOAD PUSH4 0x10DDB137 PUSH1 0xE0 SHL DUP2 MSTORE PUSH2 0xFFFF DUP4 AND PUSH1 0x4 DUP3 ADD MSTORE PUSH1 0x1 PUSH1 0x1 PUSH1 0xA0 SHL SUB SWAP1 SWAP2 AND SWAP1 PUSH4 0x10DDB137 SWAP1 PUSH1 0x24 ADD PUSH2 0x166C JUMP JUMPDEST PUSH1 0x0 DUP1 JUMPDEST PUSH2 0x16A SLOAD DUP2 LT ISZERO PUSH2 0x18FB JUMPI PUSH1 0x0 PUSH2 0x16A DUP3 DUP2 SLOAD DUP2 LT PUSH2 0x18C4 JUMPI PUSH2 0x18C4 PUSH2 0x7F45 JUMP JUMPDEST PUSH1 0x0 SWAP2 DUP3 MSTORE PUSH1 0x20 SWAP1 SWAP2 KECCAK256 ADD SLOAD PUSH1 0x1 PUSH1 0x1 PUSH1 0xA0 SHL SUB AND SWAP1 POP CALLER DUP2 SWAP1 SUB PUSH2 0x18E8 JUMPI PUSH1 0x1 SWAP3 POP JUMPDEST POP DUP1 PUSH2 0x18F3 DUP2 PUSH2 0x7F71 JUMP JUMPDEST SWAP2 POP POP PUSH2 0x18A3 JUMP JUMPDEST POP PUSH1 0x1 DUP2 ISZERO ISZERO EQ DUP1 PUSH2 0x190C JUMPI POP CALLER ADDRESS EQ JUMPDEST DUP1 PUSH2 0x1922 JUMPI POP PUSH2 0x12D SLOAD PUSH1 0x1 PUSH1 0x1 PUSH1 0xA0 SHL SUB AND CALLER EQ JUMPDEST PUSH2 0x193E JUMPI PUSH1 0x40 MLOAD PUSH3 0x461BCD PUSH1 0xE5 SHL DUP2 MSTORE PUSH1 0x4 ADD PUSH2 0x13BF SWAP1 PUSH2 0x7F8A JUMP JUMPDEST PUSH1 0x0 DUP6 DUP2 MSTORE PUSH2 0x171 PUSH1 0x20 SWAP1 DUP2 MSTORE PUSH1 0x40 DUP1 DUP4 KECCAK256 PUSH1 0x1 PUSH1 0x1 PUSH1 0xA0 SHL SUB DUP8 AND DUP5 MSTORE PUSH1 0x8 ADD SWAP1 SWAP2 MSTORE SWAP1 KECCAK256 SLOAD DUP3 GT ISZERO PUSH2 0x1984 JUMPI PUSH1 0x40 MLOAD PUSH3 0x461BCD PUSH1 0xE5 SHL DUP2 MSTORE PUSH1 0x4 ADD PUSH2 0x13BF SWAP1 PUSH2 0x7FB9 JUMP JUMPDEST PUSH2 0x173 SLOAD DUP6 LT DUP1 ISZERO PUSH2 0x1998 JUMPI POP PUSH2 0x173 SLOAD DUP5 LT JUMPDEST PUSH2 0x19A1 JUMPI PUSH1 0x0 DUP1 REVERT JUMPDEST PUSH1 0x0 DUP1 MSTORE PUSH2 0x170 PUSH1 0x20 MSTORE PUSH1 0x0 DUP1 MLOAD PUSH1 0x20 PUSH2 0x88C0 DUP4 CODECOPY DUP2 MLOAD SWAP2 MSTORE SLOAD PUSH2 0x19C6 SWAP1 CALLVALUE SWAP1 PUSH2 0x7FD9 JUMP JUMPDEST PUSH1 0x0 DUP1 MLOAD PUSH1 0x20 PUSH2 0x88C0 DUP4 CODECOPY DUP2 MLOAD SWAP2 MSTORE SSTORE PUSH1 0x0 DUP6 DUP2 MSTORE PUSH2 0x171 PUSH1 0x20 SWAP1 DUP2 MSTORE PUSH1 0x40 DUP1 DUP4 KECCAK256 PUSH1 0x1 PUSH1 0x1 PUSH1 0xA0 SHL SUB DUP8 AND DUP5 MSTORE PUSH1 0x8 ADD SWAP1 SWAP2 MSTORE SWAP1 KECCAK256 SLOAD PUSH2 0x1A08 SWAP1 DUP4 SWAP1 PUSH2 0x7FEC JUMP JUMPDEST PUSH1 0x0 DUP7 DUP2 MSTORE PUSH2 0x171 PUSH1 0x20 DUP2 DUP2 MSTORE PUSH1 0x40 DUP1 DUP5 KECCAK256 PUSH1 0x1 PUSH1 0x1 PUSH1 0xA0 SHL SUB DUP10 AND DUP1 DUP7 MSTORE PUSH1 0x8 SWAP2 DUP3 ADD DUP5 MSTORE DUP3 DUP7 KECCAK256 SWAP7 SWAP1 SWAP7 SSTORE DUP10 DUP6 MSTORE SWAP3 DUP3 MSTORE DUP1 DUP5 KECCAK256 SWAP5 DUP5 MSTORE SWAP4 SWAP1 SWAP2 ADD SWAP1 MSTORE KECCAK256 SLOAD PUSH2 0x1A54 SWAP1 DUP4 SWAP1 PUSH2 0x7FD9 JUMP JUMPDEST PUSH1 0x0 DUP6 DUP2 MSTORE PUSH2 0x171 PUSH1 0x20 SWAP1 DUP2 MSTORE PUSH1 0x40 DUP1 DUP4 KECCAK256 PUSH1 0x1 PUSH1 0x1 PUSH1 0xA0 SHL SUB DUP9 AND DUP5 MSTORE PUSH1 0x8 ADD SWAP1 SWAP2 MSTORE SWAP1 KECCAK256 SSTORE PUSH2 0x169A DUP6 PUSH2 0x36CD JUMP JUMPDEST PUSH2 0x1A8C PUSH2 0x56BD JUMP JUMPDEST PUSH2 0x16C DUP1 SLOAD PUSH1 0x1 PUSH1 0x1 PUSH1 0xA0 SHL SUB NOT AND PUSH1 0x1 PUSH1 0x1 PUSH1 0xA0 SHL SUB SWAP3 SWAP1 SWAP3 AND SWAP2 SWAP1 SWAP2 OR SWAP1 SSTORE JUMP JUMPDEST PUSH1 0x0 PUSH2 0x16E SLOAD PUSH1 0x5 PUSH2 0x1AC1 SWAP2 SWAP1 PUSH2 0x7FFF JUMP JUMPDEST SWAP1 POP SWAP1 JUMP JUMPDEST PUSH2 0x1AD1 CALLER JUMPDEST DUP3 PUSH2 0x57D6 JUMP JUMPDEST PUSH2 0x1AED JUMPI PUSH1 0x40 MLOAD PUSH3 0x461BCD PUSH1 0xE5 SHL DUP2 MSTORE PUSH1 0x4 ADD PUSH2 0x13BF SWAP1 PUSH2 0x8016 JUMP JUMPDEST PUSH2 0x17D8 DUP4 DUP4 DUP4 PUSH2 0x5854 JUMP JUMPDEST PUSH1 0x0 DUP1 PUSH2 0x1B10 DUP8 DUP8 PUSH2 0x1B09 DUP9 PUSH2 0x59C5 JUMP JUMPDEST DUP8 DUP8 PUSH2 0x537C JUMP JUMPDEST SWAP2 POP SWAP2 POP SWAP6 POP SWAP6 SWAP4 POP POP POP POP JUMP JUMPDEST PUSH1 0x0 PUSH2 0x1B29 DUP4 PUSH2 0x2AFA JUMP JUMPDEST DUP3 LT PUSH2 0x1B8B JUMPI PUSH1 0x40 MLOAD PUSH3 0x461BCD PUSH1 0xE5 SHL DUP2 MSTORE PUSH1 0x20 PUSH1 0x4 DUP3 ADD MSTORE PUSH1 0x2B PUSH1 0x24 DUP3 ADD MSTORE PUSH32 0x455243373231456E756D657261626C653A206F776E657220696E646578206F75 PUSH1 0x44 DUP3 ADD MSTORE PUSH11 0x74206F6620626F756E6473 PUSH1 0xA8 SHL PUSH1 0x64 DUP3 ADD MSTORE PUSH1 0x84 ADD PUSH2 0x13BF JUMP JUMPDEST POP PUSH1 0x1 PUSH1 0x1 PUSH1 0xA0 SHL SUB SWAP2 SWAP1 SWAP2 AND PUSH1 0x0 SWAP1 DUP2 MSTORE PUSH1 0x97 PUSH1 0x20 SWAP1 DUP2 MSTORE PUSH1 0x40 DUP1 DUP4 KECCAK256 SWAP4 DUP4 MSTORE SWAP3 SWAP1 MSTORE KECCAK256 SLOAD SWAP1 JUMP JUMPDEST PUSH2 0x1BBC PUSH2 0x56BD JUMP JUMPDEST PUSH1 0x0 JUMPDEST PUSH2 0x16A SLOAD DUP2 LT ISZERO PUSH2 0x1C43 JUMPI PUSH1 0x0 PUSH2 0x16A DUP3 DUP2 SLOAD DUP2 LT PUSH2 0x1BE0 JUMPI PUSH2 0x1BE0 PUSH2 0x7F45 JUMP JUMPDEST PUSH1 0x0 SWAP2 DUP3 MSTORE PUSH1 0x20 SWAP1 SWAP2 KECCAK256 ADD SLOAD PUSH1 0x1 PUSH1 0x1 PUSH1 0xA0 SHL SUB SWAP1 DUP2 AND SWAP2 POP DUP4 AND DUP2 SWAP1 SUB PUSH2 0x1C30 JUMPI PUSH2 0x16A DUP3 DUP2 SLOAD DUP2 LT PUSH2 0x1C16 JUMPI PUSH2 0x1C16 PUSH2 0x7F45 JUMP JUMPDEST PUSH1 0x0 SWAP2 DUP3 MSTORE PUSH1 0x20 SWAP1 SWAP2 KECCAK256 ADD DUP1 SLOAD PUSH1 0x1 PUSH1 0x1 PUSH1 0xA0 SHL SUB NOT AND SWAP1 SSTORE JUMPDEST POP DUP1 PUSH2 0x1C3B DUP2 PUSH2 0x7F71 JUMP JUMPDEST SWAP2 POP POP PUSH2 0x1BBF JUMP JUMPDEST POP POP JUMP JUMPDEST PUSH1 0x0 DUP3 DUP2 MSTORE PUSH2 0x171 PUSH1 0x20 MSTORE PUSH1 0x40 SWAP1 KECCAK256 PUSH1 0x1 DUP2 ADD SLOAD PUSH1 0x1 PUSH1 0x1 PUSH1 0xA0 SHL SUB AND CALLER EQ DUP1 PUSH2 0x1C7A JUMPI POP DUP1 SLOAD PUSH1 0x1 PUSH1 0x1 PUSH1 0xA0 SHL SUB AND CALLER EQ JUMPDEST PUSH2 0x1C96 JUMPI PUSH1 0x40 MLOAD PUSH3 0x461BCD PUSH1 0xE5 SHL DUP2 MSTORE PUSH1 0x4 ADD PUSH2 0x13BF SWAP1 PUSH2 0x8063 JUMP JUMPDEST PUSH1 0x0 DUP3 DUP2 MSTORE PUSH1 0x9 DUP3 ADD PUSH1 0x20 MSTORE PUSH1 0x40 SWAP1 KECCAK256 PUSH1 0x2 ADD SLOAD PUSH1 0x1 PUSH1 0x1 PUSH1 0xA0 SHL SUB AND CALLER EQ PUSH2 0x1CF5 JUMPI PUSH1 0x40 MLOAD PUSH3 0x461BCD PUSH1 0xE5 SHL DUP2 MSTORE PUSH1 0x20 PUSH1 0x4 DUP3 ADD MSTORE PUSH1 0x11 PUSH1 0x24 DUP3 ADD MSTORE PUSH17 0x1B9BC81858D8D95CDCC81D1BC81CDB1BDD PUSH1 0x7A SHL PUSH1 0x44 DUP3 ADD MSTORE PUSH1 0x64 ADD PUSH2 0x13BF JUMP JUMPDEST PUSH2 0x16E SLOAD PUSH2 0x1D04 SWAP1 PUSH1 0x5 PUSH2 0x7FFF JUMP JUMPDEST PUSH2 0x16C SLOAD PUSH1 0x1 PUSH1 0x1 PUSH1 0xA0 SHL SUB AND PUSH1 0x0 SWAP1 DUP2 MSTORE PUSH1 0x8 DUP4 ADD PUSH1 0x20 MSTORE PUSH1 0x40 SWAP1 KECCAK256 SLOAD LT ISZERO DUP1 PUSH2 0x1DA9 JUMPI POP PUSH2 0x16E SLOAD PUSH2 0x1D39 SWAP1 PUSH1 0x5 PUSH2 0x7FFF JUMP JUMPDEST PUSH2 0x16C SLOAD PUSH1 0x40 MLOAD PUSH4 0x70A08231 PUSH1 0xE0 SHL DUP2 MSTORE CALLER PUSH1 0x4 DUP3 ADD MSTORE PUSH1 0x1 PUSH1 0x1 PUSH1 0xA0 SHL SUB SWAP1 SWAP2 AND SWAP1 PUSH4 0x70A08231 SWAP1 PUSH1 0x24 ADD PUSH1 0x20 PUSH1 0x40 MLOAD DUP1 DUP4 SUB DUP2 DUP7 GAS STATICCALL ISZERO DUP1 ISZERO PUSH2 0x1D82 JUMPI RETURNDATASIZE PUSH1 0x0 DUP1 RETURNDATACOPY RETURNDATASIZE PUSH1 0x0 REVERT JUMPDEST POP POP POP POP PUSH1 0x40 MLOAD RETURNDATASIZE PUSH1 0x1F NOT PUSH1 0x1F DUP3 ADD AND DUP3 ADD DUP1 PUSH1 0x40 MSTORE POP DUP2 ADD SWAP1 PUSH2 0x1DA6 SWAP2 SWAP1 PUSH2 0x808D JUMP JUMPDEST LT ISZERO JUMPDEST PUSH2 0x1DE0 JUMPI PUSH1 0x40 MLOAD PUSH3 0x461BCD PUSH1 0xE5 SHL DUP2 MSTORE PUSH1 0x20 PUSH1 0x4 DUP3 ADD MSTORE PUSH1 0x8 PUSH1 0x24 DUP3 ADD MSTORE PUSH8 0x6E65656420666565 PUSH1 0xC0 SHL PUSH1 0x44 DUP3 ADD MSTORE PUSH1 0x64 ADD PUSH2 0x13BF JUMP JUMPDEST PUSH1 0x1 DUP2 ADD SLOAD PUSH1 0x1 PUSH1 0x1 PUSH1 0xA0 SHL SUB AND CALLER SUB PUSH2 0x1EA1 JUMPI PUSH2 0x16E SLOAD PUSH2 0x1E03 SWAP1 PUSH1 0x5 PUSH2 0x7FFF JUMP JUMPDEST PUSH2 0x16C SLOAD PUSH1 0x1 PUSH1 0x1 PUSH1 0xA0 SHL SUB AND PUSH1 0x0 SWAP1 DUP2 MSTORE PUSH1 0x8 DUP4 ADD PUSH1 0x20 MSTORE PUSH1 0x40 SWAP1 KECCAK256 SLOAD PUSH2 0x1E2B SWAP2 SWAP1 PUSH2 0x7FEC JUMP JUMPDEST PUSH2 0x16C SLOAD PUSH1 0x1 PUSH1 0x1 PUSH1 0xA0 SHL SUB AND PUSH1 0x0 SWAP1 DUP2 MSTORE PUSH1 0x8 DUP4 ADD PUSH1 0x20 MSTORE PUSH1 0x40 SWAP1 KECCAK256 SSTORE PUSH2 0x16E SLOAD PUSH2 0x1E58 SWAP1 PUSH1 0x5 PUSH2 0x7FFF JUMP JUMPDEST PUSH2 0x16C SLOAD PUSH1 0x1 PUSH1 0x1 PUSH1 0xA0 SHL SUB AND PUSH1 0x0 SWAP1 DUP2 MSTORE PUSH2 0x170 PUSH1 0x20 MSTORE PUSH1 0x40 SWAP1 KECCAK256 SLOAD PUSH2 0x1E7F SWAP2 SWAP1 PUSH2 0x7FD9 JUMP JUMPDEST PUSH2 0x16C SLOAD PUSH1 0x1 PUSH1 0x1 PUSH1 0xA0 SHL SUB AND PUSH1 0x0 SWAP1 DUP2 MSTORE PUSH2 0x170 PUSH1 0x20 MSTORE PUSH1 0x40 SWAP1 KECCAK256 SSTORE PUSH2 0x1F97 JUMP JUMPDEST PUSH2 0x16C SLOAD PUSH2 0x16E SLOAD PUSH1 0x1 PUSH1 0x1 PUSH1 0xA0 SHL SUB SWAP1 SWAP2 AND SWAP1 PUSH4 0x23B872DD SWAP1 CALLER SWAP1 ADDRESS SWAP1 PUSH2 0x1ECA SWAP1 PUSH1 0x5 PUSH2 0x7FFF JUMP JUMPDEST PUSH1 0x40 MLOAD PUSH1 0x1 PUSH1 0x1 PUSH1 0xE0 SHL SUB NOT PUSH1 0xE0 DUP7 SWAP1 SHL AND DUP2 MSTORE PUSH1 0x1 PUSH1 0x1 PUSH1 0xA0 SHL SUB SWAP4 DUP5 AND PUSH1 0x4 DUP3 ADD MSTORE SWAP3 SWAP1 SWAP2 AND PUSH1 0x24 DUP4 ADD MSTORE PUSH1 0x44 DUP3 ADD MSTORE PUSH1 0x64 ADD PUSH1 0x20 PUSH1 0x40 MLOAD DUP1 DUP4 SUB DUP2 PUSH1 0x0 DUP8 GAS CALL ISZERO DUP1 ISZERO PUSH2 0x1F1E JUMPI RETURNDATASIZE PUSH1 0x0 DUP1 RETURNDATACOPY RETURNDATASIZE PUSH1 0x0 REVERT JUMPDEST POP POP POP POP PUSH1 0x40 MLOAD RETURNDATASIZE PUSH1 0x1F NOT PUSH1 0x1F DUP3 ADD AND DUP3 ADD DUP1 PUSH1 0x40 MSTORE POP DUP2 ADD SWAP1 PUSH2 0x1F42 SWAP2 SWAP1 PUSH2 0x80A6 JUMP JUMPDEST POP PUSH2 0x16E SLOAD PUSH2 0x1F52 SWAP1 PUSH1 0x5 PUSH2 0x7FFF JUMP JUMPDEST PUSH2 0x16C SLOAD PUSH1 0x1 PUSH1 0x1 PUSH1 0xA0 SHL SUB AND PUSH1 0x0 SWAP1 DUP2 MSTORE PUSH2 0x170 PUSH1 0x20 MSTORE PUSH1 0x40 SWAP1 KECCAK256 SLOAD PUSH2 0x1F79 SWAP2 SWAP1 PUSH2 0x7FD9 JUMP JUMPDEST PUSH2 0x16C SLOAD PUSH1 0x1 PUSH1 0x1 PUSH1 0xA0 SHL SUB AND PUSH1 0x0 SWAP1 DUP2 MSTORE PUSH2 0x170 PUSH1 0x20 MSTORE PUSH1 0x40 SWAP1 KECCAK256 SSTORE JUMPDEST PUSH2 0x1FA0 DUP4 PUSH2 0x36CD JUMP JUMPDEST PUSH1 0x0 SWAP2 DUP3 MSTORE PUSH1 0x9 ADD PUSH1 0x20 MSTORE PUSH1 0x40 SWAP1 KECCAK256 DUP1 SLOAD PUSH1 0xFF NOT AND SWAP1 SSTORE POP JUMP JUMPDEST PUSH2 0x1FC2 PUSH2 0x56BD JUMP JUMPDEST PUSH2 0x16E SSTORE JUMP JUMPDEST PUSH1 0x0 DUP1 JUMPDEST PUSH2 0x16A SLOAD DUP2 LT ISZERO PUSH2 0x2024 JUMPI PUSH1 0x0 PUSH2 0x16A DUP3 DUP2 SLOAD DUP2 LT PUSH2 0x1FED JUMPI PUSH2 0x1FED PUSH2 0x7F45 JUMP JUMPDEST PUSH1 0x0 SWAP2 DUP3 MSTORE PUSH1 0x20 SWAP1 SWAP2 KECCAK256 ADD SLOAD PUSH1 0x1 PUSH1 0x1 PUSH1 0xA0 SHL SUB AND SWAP1 POP CALLER DUP2 SWAP1 SUB PUSH2 0x2011 JUMPI PUSH1 0x1 SWAP3 POP JUMPDEST POP DUP1 PUSH2 0x201C DUP2 PUSH2 0x7F71 JUMP JUMPDEST SWAP2 POP POP PUSH2 0x1FCC JUMP JUMPDEST POP PUSH1 0x1 DUP2 ISZERO ISZERO EQ DUP1 PUSH2 0x2035 JUMPI POP CALLER ADDRESS EQ JUMPDEST DUP1 PUSH2 0x204B JUMPI POP PUSH2 0x12D SLOAD PUSH1 0x1 PUSH1 0x1 PUSH1 0xA0 SHL SUB AND CALLER EQ JUMPDEST PUSH2 0x2067 JUMPI PUSH1 0x40 MLOAD PUSH3 0x461BCD PUSH1 0xE5 SHL DUP2 MSTORE PUSH1 0x4 ADD PUSH2 0x13BF SWAP1 PUSH2 0x7F8A JUMP JUMPDEST PUSH1 0x0 DUP6 DUP2 MSTORE PUSH2 0x171 PUSH1 0x20 MSTORE PUSH1 0x40 SWAP1 KECCAK256 PUSH1 0x1 ADD SLOAD PUSH1 0x1 PUSH1 0x1 PUSH1 0xA0 SHL SUB DUP4 DUP2 AND SWAP2 AND EQ DUP1 PUSH2 0x20AD JUMPI POP PUSH1 0x0 DUP6 DUP2 MSTORE PUSH2 0x171 PUSH1 0x20 MSTORE PUSH1 0x40 SWAP1 KECCAK256 SLOAD PUSH1 0x1 PUSH1 0x1 PUSH1 0xA0 SHL SUB DUP4 DUP2 AND SWAP2 AND EQ JUMPDEST PUSH2 0x20C9 JUMPI PUSH1 0x40 MLOAD PUSH3 0x461BCD PUSH1 0xE5 SHL DUP2 MSTORE PUSH1 0x4 ADD PUSH2 0x13BF SWAP1 PUSH2 0x8063 JUMP JUMPDEST PUSH1 0x0 DUP6 DUP2 MSTORE PUSH2 0x171 PUSH1 0x20 SWAP1 DUP2 MSTORE PUSH1 0x40 DUP1 DUP4 KECCAK256 DUP8 DUP5 MSTORE PUSH1 0x9 ADD SWAP1 SWAP2 MSTORE SWAP1 KECCAK256 PUSH1 0x2 ADD SLOAD PUSH1 0x1 PUSH1 0x1 PUSH1 0xA0 SHL SUB DUP4 DUP2 AND SWAP2 AND EQ DUP1 ISZERO PUSH2 0x2122 JUMPI POP PUSH1 0x0 DUP6 DUP2 MSTORE PUSH2 0x171 PUSH1 0x20 SWAP1 DUP2 MSTORE PUSH1 0x40 DUP1 DUP4 KECCAK256 DUP8 DUP5 MSTORE PUSH1 0x9 ADD SWAP1 SWAP2 MSTORE SWAP1 KECCAK256 SLOAD PUSH1 0xFF AND ISZERO JUMPDEST PUSH2 0x213E JUMPI PUSH1 0x40 MLOAD PUSH3 0x461BCD PUSH1 0xE5 SHL DUP2 MSTORE PUSH1 0x4 ADD PUSH2 0x13BF SWAP1 PUSH2 0x80C3 JUMP JUMPDEST PUSH2 0x2147 DUP6 PUSH2 0x36CD JUMP JUMPDEST PUSH1 0x0 DUP6 DUP2 MSTORE PUSH2 0x172 PUSH1 0x20 SWAP1 DUP2 MSTORE PUSH1 0x40 DUP3 KECCAK256 DUP7 DUP2 SSTORE PUSH1 0x2 DUP2 ADD DUP1 SLOAD PUSH1 0x1 DUP1 DUP3 ADD DUP4 SSTORE SWAP2 DUP6 MSTORE SWAP3 DUP5 KECCAK256 SWAP1 SWAP3 ADD DUP1 SLOAD PUSH1 0x1 PUSH1 0x1 PUSH1 0xA0 SHL SUB NOT AND PUSH1 0x1 PUSH1 0x1 PUSH1 0xA0 SHL SUB DUP9 AND OR SWAP1 SSTORE DUP8 DUP4 MSTORE ADD DUP1 SLOAD SWAP2 PUSH2 0x219A DUP4 PUSH2 0x7F71 JUMP JUMPDEST SWAP2 SWAP1 POP SSTORE POP POP POP POP POP POP JUMP JUMPDEST PUSH2 0xFFFF DUP4 AND PUSH1 0x0 SWAP1 DUP2 MSTORE PUSH2 0x160 PUSH1 0x20 MSTORE PUSH1 0x40 DUP2 KECCAK256 DUP1 SLOAD DUP3 SWAP2 SWAP1 PUSH2 0x21C8 SWAP1 PUSH2 0x7EB7 JUMP JUMPDEST DUP1 PUSH1 0x1F ADD PUSH1 0x20 DUP1 SWAP2 DIV MUL PUSH1 0x20 ADD PUSH1 0x40 MLOAD SWAP1 DUP2 ADD PUSH1 0x40 MSTORE DUP1 SWAP3 SWAP2 SWAP1 DUP2 DUP2 MSTORE PUSH1 0x20 ADD DUP3 DUP1 SLOAD PUSH2 0x21F4 SWAP1 PUSH2 0x7EB7 JUMP JUMPDEST DUP1 ISZERO PUSH2 0x2241 JUMPI DUP1 PUSH1 0x1F LT PUSH2 0x2216 JUMPI PUSH2 0x100 DUP1 DUP4 SLOAD DIV MUL DUP4 MSTORE SWAP2 PUSH1 0x20 ADD SWAP2 PUSH2 0x2241 JUMP JUMPDEST DUP3 ADD SWAP2 SWAP1 PUSH1 0x0 MSTORE PUSH1 0x20 PUSH1 0x0 KECCAK256 SWAP1 JUMPDEST DUP2 SLOAD DUP2 MSTORE SWAP1 PUSH1 0x1 ADD SWAP1 PUSH1 0x20 ADD DUP1 DUP4 GT PUSH2 0x2224 JUMPI DUP3 SWAP1 SUB PUSH1 0x1F AND DUP3 ADD SWAP2 JUMPDEST POP POP POP POP POP SWAP1 POP DUP4 DUP4 PUSH1 0x40 MLOAD PUSH2 0x2258 SWAP3 SWAP2 SWAP1 PUSH2 0x7EF1 JUMP JUMPDEST PUSH1 0x40 MLOAD DUP1 SWAP2 SUB SWAP1 KECCAK256 DUP2 DUP1 MLOAD SWAP1 PUSH1 0x20 ADD KECCAK256 EQ SWAP2 POP POP SWAP4 SWAP3 POP POP POP JUMP JUMPDEST PUSH2 0x17D8 DUP4 DUP4 DUP4 PUSH1 0x40 MLOAD DUP1 PUSH1 0x20 ADD PUSH1 0x40 MSTORE DUP1 PUSH1 0x0 DUP2 MSTORE POP PUSH2 0x410E JUMP JUMPDEST PUSH2 0x2297 CALLER PUSH2 0x1ACB JUMP JUMPDEST PUSH2 0x22B3 JUMPI PUSH1 0x40 MLOAD PUSH3 0x461BCD PUSH1 0xE5 SHL DUP2 MSTORE PUSH1 0x4 ADD PUSH2 0x13BF SWAP1 PUSH2 0x8016 JUMP JUMPDEST PUSH2 0x22BC DUP2 PUSH2 0x5A10 JUMP JUMPDEST POP JUMP JUMPDEST PUSH2 0x22C7 PUSH2 0x56BD JUMP JUMPDEST PUSH2 0x15F SLOAD PUSH1 0x40 MLOAD PUSH4 0x42D65A8D PUSH1 0xE0 SHL DUP2 MSTORE PUSH1 0x1 PUSH1 0x1 PUSH1 0xA0 SHL SUB SWAP1 SWAP2 AND SWAP1 PUSH4 0x42D65A8D SWAP1 PUSH2 0x22FC SWAP1 DUP7 SWAP1 DUP7 SWAP1 DUP7 SWAP1 PUSH1 0x4 ADD PUSH2 0x812D JUMP JUMPDEST PUSH1 0x0 PUSH1 0x40 MLOAD DUP1 DUP4 SUB DUP2 PUSH1 0x0 DUP8 DUP1 EXTCODESIZE ISZERO DUP1 ISZERO PUSH2 0x2316 JUMPI PUSH1 0x0 DUP1 REVERT JUMPDEST POP GAS CALL ISZERO DUP1 ISZERO PUSH2 0x1574 JUMPI RETURNDATASIZE PUSH1 0x0 DUP1 RETURNDATACOPY RETURNDATASIZE PUSH1 0x0 REVERT JUMPDEST PUSH1 0x0 PUSH2 0x2335 PUSH1 0x99 SLOAD SWAP1 JUMP JUMPDEST DUP3 LT PUSH2 0x2398 JUMPI PUSH1 0x40 MLOAD PUSH3 0x461BCD PUSH1 0xE5 SHL DUP2 MSTORE PUSH1 0x20 PUSH1 0x4 DUP3 ADD MSTORE PUSH1 0x2C PUSH1 0x24 DUP3 ADD MSTORE PUSH32 0x455243373231456E756D657261626C653A20676C6F62616C20696E646578206F PUSH1 0x44 DUP3 ADD MSTORE PUSH12 0x7574206F6620626F756E6473 PUSH1 0xA0 SHL PUSH1 0x64 DUP3 ADD MSTORE PUSH1 0x84 ADD PUSH2 0x13BF JUMP JUMPDEST PUSH1 0x99 DUP3 DUP2 SLOAD DUP2 LT PUSH2 0x23AB JUMPI PUSH2 0x23AB PUSH2 0x7F45 JUMP JUMPDEST SWAP1 PUSH1 0x0 MSTORE PUSH1 0x20 PUSH1 0x0 KECCAK256 ADD SLOAD SWAP1 POP SWAP2 SWAP1 POP JUMP JUMPDEST PUSH2 0x1574 DUP8 DUP8 DUP8 PUSH2 0x23CC DUP9 PUSH2 0x59C5 JUMP JUMPDEST DUP8 DUP8 DUP8 PUSH2 0x5A3B JUMP JUMPDEST PUSH1 0x0 DUP1 JUMPDEST PUSH2 0x16A SLOAD DUP2 LT ISZERO PUSH2 0x2430 JUMPI PUSH1 0x0 PUSH2 0x16A DUP3 DUP2 SLOAD DUP2 LT PUSH2 0x23F9 JUMPI PUSH2 0x23F9 PUSH2 0x7F45 JUMP JUMPDEST PUSH1 0x0 SWAP2 DUP3 MSTORE PUSH1 0x20 SWAP1 SWAP2 KECCAK256 ADD SLOAD PUSH1 0x1 PUSH1 0x1 PUSH1 0xA0 SHL SUB AND SWAP1 POP CALLER DUP2 SWAP1 SUB PUSH2 0x241D JUMPI PUSH1 0x1 SWAP3 POP JUMPDEST POP DUP1 PUSH2 0x2428 DUP2 PUSH2 0x7F71 JUMP JUMPDEST SWAP2 POP POP PUSH2 0x23D8 JUMP JUMPDEST POP PUSH1 0x1 DUP2 ISZERO ISZERO EQ DUP1 PUSH2 0x2441 JUMPI POP CALLER ADDRESS EQ JUMPDEST DUP1 PUSH2 0x2457 JUMPI POP PUSH2 0x12D SLOAD PUSH1 0x1 PUSH1 0x1 PUSH1 0xA0 SHL SUB AND CALLER EQ JUMPDEST PUSH2 0x2473 JUMPI PUSH1 0x40 MLOAD PUSH3 0x461BCD PUSH1 0xE5 SHL DUP2 MSTORE PUSH1 0x4 ADD PUSH2 0x13BF SWAP1 PUSH2 0x7F8A JUMP JUMPDEST PUSH1 0x0 DUP4 DUP2 MSTORE PUSH2 0x171 PUSH1 0x20 MSTORE PUSH1 0x40 SWAP1 KECCAK256 PUSH1 0x7 ADD SLOAD PUSH2 0x2491 SWAP1 DUP4 SWAP1 PUSH2 0x7FEC JUMP JUMPDEST PUSH1 0x0 SWAP4 DUP5 MSTORE PUSH2 0x171 PUSH1 0x20 MSTORE PUSH1 0x40 SWAP1 SWAP4 KECCAK256 PUSH1 0x7 ADD SWAP3 SWAP1 SWAP3 SSTORE POP POP JUMP JUMPDEST PUSH1 0x0 DUP1 JUMPDEST PUSH2 0x16A SLOAD DUP2 LT ISZERO PUSH2 0x2508 JUMPI PUSH1 0x0 PUSH2 0x16A DUP3 DUP2 SLOAD DUP2 LT PUSH2 0x24D1 JUMPI PUSH2 0x24D1 PUSH2 0x7F45 JUMP JUMPDEST PUSH1 0x0 SWAP2 DUP3 MSTORE PUSH1 0x20 SWAP1 SWAP2 KECCAK256 ADD SLOAD PUSH1 0x1 PUSH1 0x1 PUSH1 0xA0 SHL SUB AND SWAP1 POP CALLER DUP2 SWAP1 SUB PUSH2 0x24F5 JUMPI PUSH1 0x1 SWAP3 POP JUMPDEST POP DUP1 PUSH2 0x2500 DUP2 PUSH2 0x7F71 JUMP JUMPDEST SWAP2 POP POP PUSH2 0x24B0 JUMP JUMPDEST POP PUSH1 0x1 DUP2 ISZERO ISZERO EQ DUP1 PUSH2 0x2519 JUMPI POP CALLER ADDRESS EQ JUMPDEST DUP1 PUSH2 0x252F JUMPI POP PUSH2 0x12D SLOAD PUSH1 0x1 PUSH1 0x1 PUSH1 0xA0 SHL SUB AND CALLER EQ JUMPDEST PUSH2 0x254B JUMPI PUSH1 0x40 MLOAD PUSH3 0x461BCD PUSH1 0xE5 SHL DUP2 MSTORE PUSH1 0x4 ADD PUSH2 0x13BF SWAP1 PUSH2 0x7F8A JUMP JUMPDEST PUSH1 0x0 DUP5 DUP2 MSTORE PUSH2 0x171 PUSH1 0x20 MSTORE PUSH1 0x40 SWAP1 KECCAK256 PUSH1 0x5 DUP2 ADD SLOAD PUSH1 0x6 DUP3 ADD SLOAD DUP2 GT ISZERO PUSH2 0x25A1 JUMPI PUSH1 0x40 MLOAD PUSH3 0x461BCD PUSH1 0xE5 SHL DUP2 MSTORE PUSH1 0x20 PUSH1 0x4 DUP3 ADD MSTORE PUSH1 0xB PUSH1 0x24 DUP3 ADD MSTORE PUSH11 0x1CDB1BDD08195E18D95959 PUSH1 0xAA SHL PUSH1 0x44 DUP3 ADD MSTORE PUSH1 0x64 ADD PUSH2 0x13BF JUMP JUMPDEST PUSH1 0x0 DUP7 DUP2 MSTORE PUSH2 0x171 PUSH1 0x20 MSTORE PUSH1 0x40 DUP2 KECCAK256 PUSH1 0x5 ADD DUP1 SLOAD SWAP2 PUSH2 0x25BF DUP4 PUSH2 0x7F71 JUMP JUMPDEST SWAP2 SWAP1 POP SSTORE POP PUSH2 0x25CD DUP7 PUSH2 0x36CD JUMP JUMPDEST PUSH1 0x0 DUP2 DUP2 MSTORE PUSH1 0x9 DUP4 ADD PUSH1 0x20 MSTORE PUSH1 0x40 SWAP1 KECCAK256 PUSH1 0x1 ADD PUSH2 0x25EA DUP9 DUP3 PUSH2 0x8191 JUMP JUMPDEST POP PUSH1 0x0 DUP2 DUP2 MSTORE PUSH1 0x9 DUP4 ADD PUSH1 0x20 MSTORE PUSH1 0x40 SWAP1 KECCAK256 PUSH1 0x3 ADD PUSH2 0x2608 DUP7 DUP3 PUSH2 0x8191 JUMP JUMPDEST POP PUSH1 0x0 SWAP1 DUP2 MSTORE PUSH1 0x9 SWAP1 SWAP2 ADD PUSH1 0x20 MSTORE PUSH1 0x40 SWAP1 KECCAK256 PUSH1 0x2 ADD DUP1 SLOAD PUSH1 0x1 PUSH1 0x1 PUSH1 0xA0 SHL SUB SWAP1 SWAP4 AND PUSH1 0x1 PUSH1 0x1 PUSH1 0xA0 SHL SUB NOT SWAP1 SWAP4 AND SWAP3 SWAP1 SWAP3 OR SWAP1 SWAP2 SSTORE POP POP POP POP JUMP JUMPDEST PUSH1 0x0 DUP1 JUMPDEST PUSH2 0x16A SLOAD DUP2 LT ISZERO PUSH2 0x269F JUMPI PUSH1 0x0 PUSH2 0x16A DUP3 DUP2 SLOAD DUP2 LT PUSH2 0x2668 JUMPI PUSH2 0x2668 PUSH2 0x7F45 JUMP JUMPDEST PUSH1 0x0 SWAP2 DUP3 MSTORE PUSH1 0x20 SWAP1 SWAP2 KECCAK256 ADD SLOAD PUSH1 0x1 PUSH1 0x1 PUSH1 0xA0 SHL SUB AND SWAP1 POP CALLER DUP2 SWAP1 SUB PUSH2 0x268C JUMPI PUSH1 0x1 SWAP3 POP JUMPDEST POP DUP1 PUSH2 0x2697 DUP2 PUSH2 0x7F71 JUMP JUMPDEST SWAP2 POP POP PUSH2 0x2647 JUMP JUMPDEST POP PUSH1 0x1 DUP2 ISZERO ISZERO EQ DUP1 PUSH2 0x26B0 JUMPI POP CALLER ADDRESS EQ JUMPDEST DUP1 PUSH2 0x26C6 JUMPI POP PUSH2 0x12D SLOAD PUSH1 0x1 PUSH1 0x1 PUSH1 0xA0 SHL SUB AND CALLER EQ JUMPDEST PUSH2 0x26E2 JUMPI PUSH1 0x40 MLOAD PUSH3 0x461BCD PUSH1 0xE5 SHL DUP2 MSTORE PUSH1 0x4 ADD PUSH2 0x13BF SWAP1 PUSH2 0x7F8A JUMP JUMPDEST PUSH2 0x173 SLOAD DUP7 LT PUSH2 0x2704 JUMPI PUSH1 0x40 MLOAD PUSH3 0x461BCD PUSH1 0xE5 SHL DUP2 MSTORE PUSH1 0x4 ADD PUSH2 0x13BF SWAP1 PUSH2 0x8250 JUMP JUMPDEST PUSH1 0x40 MLOAD PUSH4 0x70A08231 PUSH1 0xE0 SHL DUP2 MSTORE ADDRESS PUSH1 0x4 DUP3 ADD MSTORE DUP5 SWAP1 PUSH1 0x1 PUSH1 0x1 PUSH1 0xA0 SHL SUB DUP8 AND SWAP1 PUSH4 0x70A08231 SWAP1 PUSH1 0x24 ADD PUSH1 0x20 PUSH1 0x40 MLOAD DUP1 DUP4 SUB DUP2 DUP7 GAS STATICCALL ISZERO DUP1 ISZERO PUSH2 0x274A JUMPI RETURNDATASIZE PUSH1 0x0 DUP1 RETURNDATACOPY RETURNDATASIZE PUSH1 0x0 REVERT JUMPDEST POP POP POP POP PUSH1 0x40 MLOAD RETURNDATASIZE PUSH1 0x1F NOT PUSH1 0x1F DUP3 ADD AND DUP3 ADD DUP1 PUSH1 0x40 MSTORE POP DUP2 ADD SWAP1 PUSH2 0x276E SWAP2 SWAP1 PUSH2 0x808D JUMP JUMPDEST LT ISZERO DUP1 ISZERO PUSH2 0x27A2 JUMPI POP PUSH1 0x0 DUP7 DUP2 MSTORE PUSH2 0x171 PUSH1 0x20 SWAP1 DUP2 MSTORE PUSH1 0x40 DUP1 DUP4 KECCAK256 PUSH1 0x1 PUSH1 0x1 PUSH1 0xA0 SHL SUB DUP10 AND DUP5 MSTORE PUSH1 0x8 ADD SWAP1 SWAP2 MSTORE SWAP1 KECCAK256 SLOAD DUP5 GT ISZERO JUMPDEST PUSH2 0x27BE JUMPI PUSH1 0x40 MLOAD PUSH3 0x461BCD PUSH1 0xE5 SHL DUP2 MSTORE PUSH1 0x4 ADD PUSH2 0x13BF SWAP1 PUSH2 0x7FB9 JUMP JUMPDEST PUSH1 0x0 DUP7 DUP2 MSTORE PUSH2 0x171 PUSH1 0x20 MSTORE PUSH1 0x40 SWAP1 KECCAK256 PUSH1 0x1 ADD SLOAD PUSH1 0x1 PUSH1 0x1 PUSH1 0xA0 SHL SUB DUP4 DUP2 AND SWAP2 AND EQ PUSH2 0x2817 JUMPI PUSH1 0x40 MLOAD PUSH3 0x461BCD PUSH1 0xE5 SHL DUP2 MSTORE PUSH1 0x20 PUSH1 0x4 DUP3 ADD MSTORE PUSH1 0x9 PUSH1 0x24 DUP3 ADD MSTORE PUSH9 0x3737BA1037BBB732B9 PUSH1 0xB9 SHL PUSH1 0x44 DUP3 ADD MSTORE PUSH1 0x64 ADD PUSH2 0x13BF JUMP JUMPDEST PUSH1 0x0 DUP1 MSTORE PUSH2 0x170 PUSH1 0x20 MSTORE PUSH1 0x0 DUP1 MLOAD PUSH1 0x20 PUSH2 0x88C0 DUP4 CODECOPY DUP2 MLOAD SWAP2 MSTORE SLOAD PUSH2 0x283C SWAP1 CALLVALUE SWAP1 PUSH2 0x7FD9 JUMP JUMPDEST PUSH1 0x0 DUP1 MSTORE PUSH2 0x170 PUSH1 0x20 MSTORE PUSH1 0x0 DUP1 MLOAD PUSH1 0x20 PUSH2 0x88C0 DUP4 CODECOPY DUP2 MLOAD SWAP2 MSTORE SSTORE PUSH1 0x1 PUSH1 0x1 PUSH1 0xA0 SHL SUB DUP6 AND PUSH2 0x28E8 JUMPI PUSH1 0x0 DUP7 DUP2 MSTORE PUSH2 0x171 PUSH1 0x20 SWAP1 DUP2 MSTORE PUSH1 0x40 DUP1 DUP4 KECCAK256 DUP4 DUP1 MSTORE PUSH1 0x8 ADD SWAP1 SWAP2 MSTORE SWAP1 KECCAK256 SLOAD PUSH2 0x288D SWAP1 DUP6 SWAP1 PUSH2 0x7FEC JUMP JUMPDEST PUSH1 0x0 DUP8 DUP2 MSTORE PUSH2 0x171 PUSH1 0x20 SWAP1 DUP2 MSTORE PUSH1 0x40 DUP1 DUP4 KECCAK256 DUP4 DUP1 MSTORE PUSH1 0x8 ADD SWAP1 SWAP2 MSTORE DUP1 DUP3 KECCAK256 SWAP3 SWAP1 SWAP3 SSTORE SWAP1 MLOAD PUSH1 0x1 PUSH1 0x1 PUSH1 0xA0 SHL SUB DUP6 AND SWAP2 DUP7 ISZERO PUSH2 0x8FC MUL SWAP2 DUP8 SWAP2 DUP2 DUP2 DUP2 DUP6 DUP9 DUP9 CALL SWAP4 POP POP POP POP ISZERO DUP1 ISZERO PUSH2 0x28E2 JUMPI RETURNDATASIZE PUSH1 0x0 DUP1 RETURNDATACOPY RETURNDATASIZE PUSH1 0x0 REVERT JUMPDEST POP PUSH2 0x29B5 JUMP JUMPDEST PUSH1 0x0 DUP7 DUP2 MSTORE PUSH2 0x171 PUSH1 0x20 SWAP1 DUP2 MSTORE PUSH1 0x40 DUP1 DUP4 KECCAK256 PUSH1 0x1 PUSH1 0x1 PUSH1 0xA0 SHL SUB DUP10 AND DUP5 MSTORE PUSH1 0x8 ADD SWAP1 SWAP2 MSTORE SWAP1 KECCAK256 SLOAD PUSH2 0x291A SWAP1 DUP6 SWAP1 PUSH2 0x7FEC JUMP JUMPDEST PUSH1 0x0 DUP8 DUP2 MSTORE PUSH2 0x171 PUSH1 0x20 SWAP1 DUP2 MSTORE PUSH1 0x40 DUP1 DUP4 KECCAK256 PUSH1 0x1 PUSH1 0x1 PUSH1 0xA0 SHL SUB DUP11 DUP2 AND DUP1 DUP7 MSTORE PUSH1 0x8 SWAP1 SWAP3 ADD SWAP1 SWAP4 MSTORE SWAP3 DUP2 SWAP1 KECCAK256 SWAP4 SWAP1 SWAP4 SSTORE SWAP2 MLOAD PUSH4 0xA9059CBB PUSH1 0xE0 SHL DUP2 MSTORE SWAP2 DUP6 AND PUSH1 0x4 DUP4 ADD MSTORE PUSH1 0x24 DUP3 ADD DUP7 SWAP1 MSTORE SWAP1 PUSH4 0xA9059CBB SWAP1 PUSH1 0x44 ADD JUMPDEST PUSH1 0x20 PUSH1 0x40 MLOAD DUP1 DUP4 SUB DUP2 PUSH1 0x0 DUP8 GAS CALL ISZERO DUP1 ISZERO PUSH2 0x298F JUMPI RETURNDATASIZE PUSH1 0x0 DUP1 RETURNDATACOPY RETURNDATASIZE PUSH1 0x0 REVERT JUMPDEST POP POP POP POP PUSH1 0x40 MLOAD RETURNDATASIZE PUSH1 0x1F NOT PUSH1 0x1F DUP3 ADD AND DUP3 ADD DUP1 PUSH1 0x40 MSTORE POP DUP2 ADD SWAP1 PUSH2 0x29B3 SWAP2 SWAP1 PUSH2 0x80A6 JUMP JUMPDEST POP JUMPDEST PUSH2 0x29BE DUP7 PUSH2 0x36CD JUMP JUMPDEST POP POP POP POP POP POP JUMP JUMPDEST PUSH1 0x0 DUP2 DUP2 MSTORE PUSH1 0x67 PUSH1 0x20 MSTORE PUSH1 0x40 DUP2 KECCAK256 SLOAD PUSH1 0x1 PUSH1 0x1 PUSH1 0xA0 SHL SUB AND DUP1 PUSH2 0x159B JUMPI PUSH1 0x40 MLOAD PUSH3 0x461BCD PUSH1 0xE5 SHL DUP2 MSTORE PUSH1 0x20 PUSH1 0x4 DUP3 ADD MSTORE PUSH1 0x18 PUSH1 0x24 DUP3 ADD MSTORE PUSH24 0x115490CDCC8C4E881A5B9D985B1A59081D1BDAD95B881251 PUSH1 0x42 SHL PUSH1 0x44 DUP3 ADD MSTORE PUSH1 0x64 ADD PUSH2 0x13BF JUMP JUMPDEST CALLER ADDRESS EQ PUSH2 0x2A84 JUMPI PUSH1 0x40 MLOAD PUSH3 0x461BCD PUSH1 0xE5 SHL DUP2 MSTORE PUSH1 0x20 PUSH1 0x4 DUP3 ADD MSTORE PUSH1 0x26 PUSH1 0x24 DUP3 ADD MSTORE PUSH32 0x4E6F6E626C6F636B696E674C7A4170703A2063616C6C6572206D757374206265 PUSH1 0x44 DUP3 ADD MSTORE PUSH6 0x204C7A41707 PUSH1 0xD4 SHL PUSH1 0x64 DUP3 ADD MSTORE PUSH1 0x84 ADD PUSH2 0x13BF JUMP JUMPDEST PUSH2 0x29BE DUP7 DUP7 DUP7 DUP1 DUP1 PUSH1 0x1F ADD PUSH1 0x20 DUP1 SWAP2 DIV MUL PUSH1 0x20 ADD PUSH1 0x40 MLOAD SWAP1 DUP2 ADD PUSH1 0x40 MSTORE DUP1 SWAP4 SWAP3 SWAP2 SWAP1 DUP2 DUP2 MSTORE PUSH1 0x20 ADD DUP4 DUP4 DUP1 DUP3 DUP5 CALLDATACOPY PUSH1 0x0 SWAP3 ADD SWAP2 SWAP1 SWAP2 MSTORE POP POP PUSH1 0x40 DUP1 MLOAD PUSH1 0x20 PUSH1 0x1F DUP10 ADD DUP2 SWAP1 DIV DUP2 MUL DUP3 ADD DUP2 ADD SWAP1 SWAP3 MSTORE DUP8 DUP2 MSTORE DUP10 SWAP4 POP SWAP2 POP DUP8 SWAP1 DUP8 SWAP1 DUP2 SWAP1 DUP5 ADD DUP4 DUP3 DUP1 DUP3 DUP5 CALLDATACOPY PUSH1 0x0 SWAP3 ADD SWAP2 SWAP1 SWAP2 MSTORE POP PUSH2 0x5C11 SWAP3 POP POP POP JUMP JUMPDEST PUSH1 0x0 PUSH1 0x1 PUSH1 0x1 PUSH1 0xA0 SHL SUB DUP3 AND PUSH2 0x2B64 JUMPI PUSH1 0x40 MLOAD PUSH3 0x461BCD PUSH1 0xE5 SHL DUP2 MSTORE PUSH1 0x20 PUSH1 0x4 DUP3 ADD MSTORE PUSH1 0x29 PUSH1 0x24 DUP3 ADD MSTORE PUSH32 0x4552433732313A2061646472657373207A65726F206973206E6F742061207661 PUSH1 0x44 DUP3 ADD MSTORE PUSH9 0x3634B21037BBB732B9 PUSH1 0xB9 SHL PUSH1 0x64 DUP3 ADD MSTORE PUSH1 0x84 ADD PUSH2 0x13BF JUMP JUMPDEST POP PUSH1 0x1 PUSH1 0x1 PUSH1 0xA0 SHL SUB AND PUSH1 0x0 SWAP1 DUP2 MSTORE PUSH1 0x68 PUSH1 0x20 MSTORE PUSH1 0x40 SWAP1 KECCAK256 SLOAD SWAP1 JUMP JUMPDEST PUSH2 0x2B88 PUSH2 0x56BD JUMP JUMPDEST PUSH2 0x2B92 PUSH1 0x0 PUSH2 0x5D69 JUMP JUMPDEST JUMP JUMPDEST PUSH2 0x173 SLOAD DUP6 LT PUSH2 0x2BB6 JUMPI PUSH1 0x40 MLOAD PUSH3 0x461BCD PUSH1 0xE5 SHL DUP2 MSTORE PUSH1 0x4 ADD PUSH2 0x13BF SWAP1 PUSH2 0x8250 JUMP JUMPDEST PUSH1 0x40 MLOAD PUSH4 0x70A08231 PUSH1 0xE0 SHL DUP2 MSTORE ADDRESS PUSH1 0x4 DUP3 ADD MSTORE DUP2 SWAP1 PUSH1 0x1 PUSH1 0x1 PUSH1 0xA0 SHL SUB DUP5 AND SWAP1 PUSH4 0x70A08231 SWAP1 PUSH1 0x24 ADD PUSH1 0x20 PUSH1 0x40 MLOAD DUP1 DUP4 SUB DUP2 DUP7 GAS STATICCALL ISZERO DUP1 ISZERO PUSH2 0x2BFC JUMPI RETURNDATASIZE PUSH1 0x0 DUP1 RETURNDATACOPY RETURNDATASIZE PUSH1 0x0 REVERT JUMPDEST POP POP POP POP PUSH1 0x40 MLOAD RETURNDATASIZE PUSH1 0x1F NOT PUSH1 0x1F DUP3 ADD AND DUP3 ADD DUP1 PUSH1 0x40 MSTORE POP DUP2 ADD SWAP1 PUSH2 0x2C20 SWAP2 SWAP1 PUSH2 0x808D JUMP JUMPDEST LT ISZERO DUP1 ISZERO PUSH2 0x2C54 JUMPI POP PUSH1 0x0 DUP6 DUP2 MSTORE PUSH2 0x171 PUSH1 0x20 SWAP1 DUP2 MSTORE PUSH1 0x40 DUP1 DUP4 KECCAK256 PUSH1 0x1 PUSH1 0x1 PUSH1 0xA0 SHL SUB DUP7 AND DUP5 MSTORE PUSH1 0x8 ADD SWAP1 SWAP2 MSTORE SWAP1 KECCAK256 SLOAD DUP2 GT ISZERO JUMPDEST PUSH2 0x2C70 JUMPI PUSH1 0x40 MLOAD PUSH3 0x461BCD PUSH1 0xE5 SHL DUP2 MSTORE PUSH1 0x4 ADD PUSH2 0x13BF SWAP1 PUSH2 0x7FB9 JUMP JUMPDEST PUSH1 0x0 DUP6 DUP2 MSTORE PUSH2 0x171 PUSH1 0x20 MSTORE PUSH1 0x40 SWAP1 KECCAK256 PUSH1 0x1 ADD SLOAD PUSH1 0x1 PUSH1 0x1 PUSH1 0xA0 SHL SUB DUP5 DUP2 AND SWAP2 AND EQ PUSH2 0x2CC9 JUMPI PUSH1 0x40 MLOAD PUSH3 0x461BCD PUSH1 0xE5 SHL DUP2 MSTORE PUSH1 0x20 PUSH1 0x4 DUP3 ADD MSTORE PUSH1 0x9 PUSH1 0x24 DUP3 ADD MSTORE PUSH9 0x3737BA1037BBB732B9 PUSH1 0xB9 SHL PUSH1 0x44 DUP3 ADD MSTORE PUSH1 0x64 ADD PUSH2 0x13BF JUMP JUMPDEST PUSH1 0x0 DUP1 MSTORE PUSH2 0x170 PUSH1 0x20 MSTORE PUSH1 0x0 DUP1 MLOAD PUSH1 0x20 PUSH2 0x88C0 DUP4 CODECOPY DUP2 MLOAD SWAP2 MSTORE SLOAD PUSH2 0x2CEE SWAP1 CALLVALUE SWAP1 PUSH2 0x7FD9 JUMP JUMPDEST PUSH1 0x0 DUP1 DUP1 MSTORE PUSH2 0x170 PUSH1 0x20 MSTORE PUSH1 0x0 DUP1 MLOAD PUSH1 0x20 PUSH2 0x88C0 DUP4 CODECOPY DUP2 MLOAD SWAP2 MSTORE SWAP2 SWAP1 SWAP2 SSTORE PUSH2 0x16D SLOAD PUSH2 0x3E8 SWAP1 PUSH2 0x2D1E SWAP1 DUP5 PUSH2 0x7FFF JUMP JUMPDEST PUSH2 0x2D28 SWAP2 SWAP1 PUSH2 0x8279 JUMP JUMPDEST PUSH1 0x0 DUP8 DUP2 MSTORE PUSH2 0x171 PUSH1 0x20 SWAP1 DUP2 MSTORE PUSH1 0x40 DUP1 DUP4 KECCAK256 PUSH1 0x1 PUSH1 0x1 PUSH1 0xA0 SHL SUB DUP9 AND DUP5 MSTORE PUSH1 0x8 ADD SWAP1 SWAP2 MSTORE SWAP1 KECCAK256 SLOAD SWAP1 SWAP2 POP PUSH2 0x2D5D SWAP1 DUP4 SWAP1 PUSH2 0x7FEC JUMP JUMPDEST PUSH1 0x0 DUP8 DUP2 MSTORE PUSH2 0x171 PUSH1 0x20 SWAP1 DUP2 MSTORE PUSH1 0x40 DUP1 DUP4 KECCAK256 PUSH1 0x1 PUSH1 0x1 PUSH1 0xA0 SHL SUB DUP9 AND DUP1 DUP6 MSTORE PUSH1 0x8 SWAP1 SWAP2 ADD SWAP1 SWAP3 MSTORE SWAP1 SWAP2 KECCAK256 SWAP2 SWAP1 SWAP2 SSTORE PUSH2 0x2E14 JUMPI PUSH1 0x1 PUSH1 0x1 PUSH1 0xA0 SHL SUB DUP6 AND PUSH2 0x8FC PUSH2 0x2DA6 DUP4 DUP6 PUSH2 0x7FEC JUMP JUMPDEST PUSH1 0x40 MLOAD DUP2 ISZERO SWAP1 SWAP3 MUL SWAP2 PUSH1 0x0 DUP2 DUP2 DUP2 DUP6 DUP9 DUP9 CALL SWAP4 POP POP POP POP ISZERO DUP1 ISZERO PUSH2 0x2DCE JUMPI RETURNDATASIZE PUSH1 0x0 DUP1 RETURNDATACOPY RETURNDATASIZE PUSH1 0x0 REVERT JUMPDEST POP PUSH1 0x0 DUP7 DUP2 MSTORE PUSH2 0x171 PUSH1 0x20 MSTORE PUSH1 0x40 DUP1 DUP3 KECCAK256 SLOAD SWAP1 MLOAD PUSH1 0x1 PUSH1 0x1 PUSH1 0xA0 SHL SUB SWAP1 SWAP2 AND SWAP2 DUP4 ISZERO PUSH2 0x8FC MUL SWAP2 DUP5 SWAP2 DUP2 DUP2 DUP2 DUP6 DUP9 DUP9 CALL SWAP4 POP POP POP POP ISZERO DUP1 ISZERO PUSH2 0x28E2 JUMPI RETURNDATASIZE PUSH1 0x0 DUP1 RETURNDATACOPY RETURNDATASIZE PUSH1 0x0 REVERT JUMPDEST PUSH1 0x1 PUSH1 0x1 PUSH1 0xA0 SHL SUB DUP4 AND PUSH4 0xA9059CBB DUP7 PUSH2 0x2E2E DUP5 DUP7 PUSH2 0x7FEC JUMP JUMPDEST PUSH1 0x40 MLOAD PUSH1 0x1 PUSH1 0x1 PUSH1 0xE0 SHL SUB NOT PUSH1 0xE0 DUP6 SWAP1 SHL AND DUP2 MSTORE PUSH1 0x1 PUSH1 0x1 PUSH1 0xA0 SHL SUB SWAP1 SWAP3 AND PUSH1 0x4 DUP4 ADD MSTORE PUSH1 0x24 DUP3 ADD MSTORE PUSH1 0x44 ADD PUSH1 0x20 PUSH1 0x40 MLOAD DUP1 DUP4 SUB DUP2 PUSH1 0x0 DUP8 GAS CALL ISZERO DUP1 ISZERO PUSH2 0x2E79 JUMPI RETURNDATASIZE PUSH1 0x0 DUP1 RETURNDATACOPY RETURNDATASIZE PUSH1 0x0 REVERT JUMPDEST POP POP POP POP PUSH1 0x40 MLOAD RETURNDATASIZE PUSH1 0x1F NOT PUSH1 0x1F DUP3 ADD AND DUP3 ADD DUP1 PUSH1 0x40 MSTORE POP DUP2 ADD SWAP1 PUSH2 0x2E9D SWAP2 SWAP1 PUSH2 0x80A6 JUMP JUMPDEST POP PUSH1 0x0 DUP7 DUP2 MSTORE PUSH2 0x171 PUSH1 0x20 MSTORE PUSH1 0x40 SWAP1 DUP2 SWAP1 KECCAK256 SLOAD SWAP1 MLOAD PUSH4 0xA9059CBB PUSH1 0xE0 SHL DUP2 MSTORE PUSH1 0x1 PUSH1 0x1 PUSH1 0xA0 SHL SUB SWAP2 DUP3 AND PUSH1 0x4 DUP3 ADD MSTORE PUSH1 0x24 DUP2 ADD DUP4 SWAP1 MSTORE SWAP1 DUP5 AND SWAP1 PUSH4 0xA9059CBB SWAP1 PUSH1 0x44 ADD PUSH2 0x2970 JUMP JUMPDEST PUSH1 0x0 SLOAD PUSH2 0x100 SWAP1 DIV PUSH1 0xFF AND ISZERO DUP1 DUP1 ISZERO PUSH2 0x2F05 JUMPI POP PUSH1 0x0 SLOAD PUSH1 0x1 PUSH1 0xFF SWAP1 SWAP2 AND LT JUMPDEST DUP1 PUSH2 0x2F1F JUMPI POP ADDRESS EXTCODESIZE ISZERO DUP1 ISZERO PUSH2 0x2F1F JUMPI POP PUSH1 0x0 SLOAD PUSH1 0xFF AND PUSH1 0x1 EQ JUMPDEST PUSH2 0x2F82 JUMPI PUSH1 0x40 MLOAD PUSH3 0x461BCD PUSH1 0xE5 SHL DUP2 MSTORE PUSH1 0x20 PUSH1 0x4 DUP3 ADD MSTORE PUSH1 0x2E PUSH1 0x24 DUP3 ADD MSTORE PUSH32 0x496E697469616C697A61626C653A20636F6E747261637420697320616C726561 PUSH1 0x44 DUP3 ADD MSTORE PUSH14 0x191E481A5B9A5D1A585B1A5E9959 PUSH1 0x92 SHL PUSH1 0x64 DUP3 ADD MSTORE PUSH1 0x84 ADD PUSH2 0x13BF JUMP JUMPDEST PUSH1 0x0 DUP1 SLOAD PUSH1 0xFF NOT AND PUSH1 0x1 OR SWAP1 SSTORE DUP1 ISZERO PUSH2 0x2FA5 JUMPI PUSH1 0x0 DUP1 SLOAD PUSH2 0xFF00 NOT AND PUSH2 0x100 OR SWAP1 SSTORE JUMPDEST PUSH2 0x16B SLOAD PUSH1 0x1 PUSH1 0x1 PUSH1 0xA0 SHL SUB AND CALLER EQ PUSH2 0x2FEF JUMPI PUSH1 0x40 MLOAD PUSH3 0x461BCD PUSH1 0xE5 SHL DUP2 MSTORE PUSH1 0x20 PUSH1 0x4 DUP3 ADD MSTORE PUSH1 0xC PUSH1 0x24 DUP3 ADD MSTORE PUSH12 0x6E6F7420696E697420616363 PUSH1 0xA0 SHL PUSH1 0x44 DUP3 ADD MSTORE PUSH1 0x64 ADD PUSH2 0x13BF JUMP JUMPDEST PUSH2 0x2FF9 DUP6 DUP6 PUSH2 0x5DBC JUMP JUMPDEST PUSH2 0x3001 PUSH2 0x5DFC JUMP JUMPDEST PUSH2 0x3009 PUSH2 0x5DFC JUMP JUMPDEST PUSH2 0x3011 PUSH2 0x5DFC JUMP JUMPDEST PUSH2 0x3019 PUSH2 0x5E23 JUMP JUMPDEST PUSH2 0x3023 DUP3 DUP5 PUSH2 0x5E53 JUMP JUMPDEST PUSH2 0x16A DUP1 SLOAD PUSH1 0x1 DUP2 ADD DUP3 SSTORE PUSH1 0x0 SWAP2 SWAP1 SWAP2 MSTORE PUSH32 0x17DA1AE71935BC1A620F4CC216C63F7B5576C3970BAE66F4178D3166B9912544 ADD DUP1 SLOAD CALLER PUSH1 0x1 PUSH1 0x1 PUSH1 0xA0 SHL SUB NOT SWAP2 DUP3 AND OR SWAP1 SWAP2 SSTORE PUSH2 0x16C DUP1 SLOAD SWAP1 SWAP2 AND PUSH1 0x1 PUSH1 0x1 PUSH1 0xA0 SHL SUB DUP9 AND OR SWAP1 SSTORE PUSH1 0x2 PUSH2 0x16D SSTORE PUSH6 0x5AF3107A4000 PUSH2 0x16E SSTORE DUP1 ISZERO PUSH2 0x29BE JUMPI PUSH1 0x0 DUP1 SLOAD PUSH2 0xFF00 NOT AND SWAP1 SSTORE PUSH1 0x40 MLOAD PUSH1 0x1 DUP2 MSTORE PUSH32 0x7F26B83FF96E1F2B6A682F133852F6798A09C465DA95921460CEFB3847402498 SWAP1 PUSH1 0x20 ADD PUSH1 0x40 MLOAD DUP1 SWAP2 SUB SWAP1 LOG1 POP POP POP POP POP POP JUMP JUMPDEST PUSH2 0x160 PUSH1 0x20 MSTORE PUSH1 0x0 SWAP1 DUP2 MSTORE PUSH1 0x40 SWAP1 KECCAK256 DUP1 SLOAD PUSH2 0x30F6 SWAP1 PUSH2 0x7EB7 JUMP JUMPDEST DUP1 PUSH1 0x1F ADD PUSH1 0x20 DUP1 SWAP2 DIV MUL PUSH1 0x20 ADD PUSH1 0x40 MLOAD SWAP1 DUP2 ADD PUSH1 0x40 MSTORE DUP1 SWAP3 SWAP2 SWAP1 DUP2 DUP2 MSTORE PUSH1 0x20 ADD DUP3 DUP1 SLOAD PUSH2 0x3122 SWAP1 PUSH2 0x7EB7 JUMP JUMPDEST DUP1 ISZERO PUSH2 0x316F JUMPI DUP1 PUSH1 0x1F LT PUSH2 0x3144 JUMPI PUSH2 0x100 DUP1 DUP4 SLOAD DIV MUL DUP4 MSTORE SWAP2 PUSH1 0x20 ADD SWAP2 PUSH2 0x316F JUMP JUMPDEST DUP3 ADD SWAP2 SWAP1 PUSH1 0x0 MSTORE PUSH1 0x20 PUSH1 0x0 KECCAK256 SWAP1 JUMPDEST DUP2 SLOAD DUP2 MSTORE SWAP1 PUSH1 0x1 ADD SWAP1 PUSH1 0x20 ADD DUP1 DUP4 GT PUSH2 0x3152 JUMPI DUP3 SWAP1 SUB PUSH1 0x1F AND DUP3 ADD SWAP2 JUMPDEST POP POP POP POP POP DUP2 JUMP JUMPDEST PUSH1 0x0 DUP1 DUP1 JUMPDEST PUSH1 0x0 DUP6 DUP2 MSTORE PUSH2 0x172 PUSH1 0x20 MSTORE PUSH1 0x40 SWAP1 KECCAK256 PUSH1 0x2 ADD SLOAD DUP2 LT ISZERO PUSH2 0x3213 JUMPI PUSH1 0x0 DUP6 DUP2 MSTORE PUSH2 0x172 PUSH1 0x20 MSTORE PUSH1 0x40 DUP2 KECCAK256 PUSH1 0x2 ADD DUP1 SLOAD DUP4 SWAP1 DUP2 LT PUSH2 0x31BA JUMPI PUSH2 0x31BA PUSH2 0x7F45 JUMP JUMPDEST PUSH1 0x0 SWAP2 DUP3 MSTORE PUSH1 0x20 SWAP1 SWAP2 KECCAK256 ADD SLOAD PUSH1 0x1 PUSH1 0x1 PUSH1 0xA0 SHL SUB SWAP1 DUP2 AND SWAP2 POP DUP8 AND DUP2 EQ DUP1 ISZERO PUSH2 0x31F1 JUMPI POP PUSH1 0x0 DUP7 DUP2 MSTORE PUSH2 0x172 PUSH1 0x20 MSTORE PUSH1 0x40 SWAP1 KECCAK256 SLOAD DUP6 EQ JUMPDEST ISZERO PUSH2 0x3200 JUMPI PUSH1 0x1 SWAP3 POP POP PUSH2 0x3213 JUMP JUMPDEST POP DUP1 PUSH2 0x320B DUP2 PUSH2 0x7F71 JUMP JUMPDEST SWAP2 POP POP PUSH2 0x317C JUMP JUMPDEST POP SWAP5 SWAP4 POP POP POP POP JUMP JUMPDEST PUSH1 0x0 DUP1 JUMPDEST PUSH2 0x16A SLOAD DUP2 LT ISZERO PUSH2 0x3278 JUMPI PUSH1 0x0 PUSH2 0x16A DUP3 DUP2 SLOAD DUP2 LT PUSH2 0x3241 JUMPI PUSH2 0x3241 PUSH2 0x7F45 JUMP JUMPDEST PUSH1 0x0 SWAP2 DUP3 MSTORE PUSH1 0x20 SWAP1 SWAP2 KECCAK256 ADD SLOAD PUSH1 0x1 PUSH1 0x1 PUSH1 0xA0 SHL SUB AND SWAP1 POP CALLER DUP2 SWAP1 SUB PUSH2 0x3265 JUMPI PUSH1 0x1 SWAP3 POP JUMPDEST POP DUP1 PUSH2 0x3270 DUP2 PUSH2 0x7F71 JUMP JUMPDEST SWAP2 POP POP PUSH2 0x3220 JUMP JUMPDEST POP PUSH1 0x1 DUP2 ISZERO ISZERO EQ DUP1 PUSH2 0x3289 JUMPI POP CALLER ADDRESS EQ JUMPDEST DUP1 PUSH2 0x329F JUMPI POP PUSH2 0x12D SLOAD PUSH1 0x1 PUSH1 0x1 PUSH1 0xA0 SHL SUB AND CALLER EQ JUMPDEST PUSH2 0x32BB JUMPI PUSH1 0x40 MLOAD PUSH3 0x461BCD PUSH1 0xE5 SHL DUP2 MSTORE PUSH1 0x4 ADD PUSH2 0x13BF SWAP1 PUSH2 0x7F8A JUMP JUMPDEST PUSH2 0x16C SLOAD PUSH1 0x40 MLOAD PUSH4 0x70A08231 PUSH1 0xE0 SHL DUP2 MSTORE PUSH1 0x1 PUSH1 0x1 PUSH1 0xA0 SHL SUB DUP7 DUP2 AND PUSH1 0x4 DUP4 ADD MSTORE DUP5 SWAP3 AND SWAP1 PUSH4 0x70A08231 SWAP1 PUSH1 0x24 ADD PUSH1 0x20 PUSH1 0x40 MLOAD DUP1 DUP4 SUB DUP2 DUP7 GAS STATICCALL ISZERO DUP1 ISZERO PUSH2 0x3306 JUMPI RETURNDATASIZE PUSH1 0x0 DUP1 RETURNDATACOPY RETURNDATASIZE PUSH1 0x0 REVERT JUMPDEST POP POP POP POP PUSH1 0x40 MLOAD RETURNDATASIZE PUSH1 0x1F NOT PUSH1 0x1F DUP3 ADD AND DUP3 ADD DUP1 PUSH1 0x40 MSTORE POP DUP2 ADD SWAP1 PUSH2 0x332A SWAP2 SWAP1 PUSH2 0x808D JUMP JUMPDEST LT ISZERO PUSH2 0x3365 JUMPI PUSH1 0x40 MLOAD PUSH3 0x461BCD PUSH1 0xE5 SHL DUP2 MSTORE PUSH1 0x20 PUSH1 0x4 DUP3 ADD MSTORE PUSH1 0xA PUSH1 0x24 DUP3 ADD MSTORE PUSH10 0x6E6F2062616C616E6365 PUSH1 0xB0 SHL PUSH1 0x44 DUP3 ADD MSTORE PUSH1 0x64 ADD PUSH2 0x13BF JUMP JUMPDEST PUSH1 0x0 DUP1 MSTORE PUSH2 0x170 PUSH1 0x20 MSTORE PUSH1 0x0 DUP1 MLOAD PUSH1 0x20 PUSH2 0x88C0 DUP4 CODECOPY DUP2 MLOAD SWAP2 MSTORE SLOAD PUSH2 0x338A SWAP1 CALLVALUE SWAP1 PUSH2 0x7FD9 JUMP JUMPDEST PUSH1 0x0 DUP1 MSTORE PUSH2 0x170 PUSH1 0x20 MSTORE PUSH1 0x0 DUP1 MLOAD PUSH1 0x20 PUSH2 0x88C0 DUP4 CODECOPY DUP2 MLOAD SWAP2 MSTORE SSTORE PUSH2 0x16C SLOAD PUSH1 0x40 MLOAD PUSH4 0x23B872DD PUSH1 0xE0 SHL DUP2 MSTORE PUSH1 0x1 PUSH1 0x1 PUSH1 0xA0 SHL SUB DUP7 DUP2 AND PUSH1 0x4 DUP4 ADD MSTORE ADDRESS PUSH1 0x24 DUP4 ADD MSTORE PUSH1 0x44 DUP3 ADD DUP6 SWAP1 MSTORE SWAP1 SWAP2 AND SWAP1 PUSH4 0x23B872DD SWAP1 PUSH1 0x64 ADD PUSH1 0x20 PUSH1 0x40 MLOAD DUP1 DUP4 SUB DUP2 PUSH1 0x0 DUP8 GAS CALL ISZERO DUP1 ISZERO PUSH2 0x33FE JUMPI RETURNDATASIZE PUSH1 0x0 DUP1 RETURNDATACOPY RETURNDATASIZE PUSH1 0x0 REVERT JUMPDEST POP POP POP POP PUSH1 0x40 MLOAD RETURNDATASIZE PUSH1 0x1F NOT PUSH1 0x1F DUP3 ADD AND DUP3 ADD DUP1 PUSH1 0x40 MSTORE POP DUP2 ADD SWAP1 PUSH2 0x3422 SWAP2 SWAP1 PUSH2 0x80A6 JUMP JUMPDEST POP PUSH1 0x0 PUSH2 0x342F PUSH2 0x173 SLOAD SWAP1 JUMP JUMPDEST PUSH1 0x0 DUP2 DUP2 MSTORE PUSH2 0x171 PUSH1 0x20 SWAP1 DUP2 MSTORE PUSH1 0x40 DUP1 DUP4 KECCAK256 PUSH2 0x16C SLOAD PUSH1 0x1 PUSH1 0x1 PUSH1 0xA0 SHL SUB AND DUP5 MSTORE PUSH1 0x8 ADD SWAP1 SWAP2 MSTORE SWAP1 KECCAK256 SLOAD SWAP1 SWAP2 POP PUSH2 0x3467 SWAP1 DUP5 SWAP1 PUSH2 0x7FD9 JUMP JUMPDEST PUSH1 0x0 DUP3 DUP2 MSTORE PUSH2 0x171 PUSH1 0x20 SWAP1 DUP2 MSTORE PUSH1 0x40 DUP1 DUP4 KECCAK256 PUSH2 0x16C SLOAD PUSH1 0x1 PUSH1 0x1 PUSH1 0xA0 SHL SUB AND DUP5 MSTORE PUSH1 0x8 ADD SWAP1 SWAP2 MSTORE SWAP1 KECCAK256 SSTORE PUSH2 0x349B DUP6 DUP6 PUSH2 0x4871 JUMP JUMPDEST PUSH2 0x169A DUP2 PUSH2 0x36CD JUMP JUMPDEST PUSH2 0x34AC PUSH2 0x56BD JUMP JUMPDEST PUSH1 0x1 PUSH1 0x1 PUSH1 0xA0 SHL SUB DUP3 AND PUSH1 0x0 SWAP1 DUP2 MSTORE PUSH2 0x170 PUSH1 0x20 MSTORE PUSH1 0x40 SWAP1 KECCAK256 SLOAD DUP2 GT ISZERO PUSH2 0x3503 JUMPI PUSH1 0x40 MLOAD PUSH3 0x461BCD PUSH1 0xE5 SHL DUP2 MSTORE PUSH1 0x20 PUSH1 0x4 DUP3 ADD MSTORE PUSH1 0xB PUSH1 0x24 DUP3 ADD MSTORE PUSH11 0x4E6F2062616C616E636573 PUSH1 0xA8 SHL PUSH1 0x44 DUP3 ADD MSTORE PUSH1 0x64 ADD PUSH2 0x13BF JUMP JUMPDEST PUSH1 0x1 PUSH1 0x1 PUSH1 0xA0 SHL SUB DUP3 AND PUSH1 0x0 SWAP1 DUP2 MSTORE PUSH2 0x170 PUSH1 0x20 MSTORE PUSH1 0x40 SWAP1 KECCAK256 SLOAD PUSH2 0x3528 SWAP1 DUP3 SWAP1 PUSH2 0x7FEC JUMP JUMPDEST PUSH1 0x1 PUSH1 0x1 PUSH1 0xA0 SHL SUB DUP4 AND PUSH1 0x0 DUP2 DUP2 MSTORE PUSH2 0x170 PUSH1 0x20 MSTORE PUSH1 0x40 SWAP1 KECCAK256 SWAP2 SWAP1 SWAP2 SSTORE ISZERO PUSH2 0x35BD JUMPI PUSH1 0x40 MLOAD PUSH4 0xA9059CBB PUSH1 0xE0 SHL DUP2 MSTORE CALLER PUSH1 0x4 DUP3 ADD MSTORE PUSH1 0x24 DUP2 ADD DUP3 SWAP1 MSTORE PUSH1 0x1 PUSH1 0x1 PUSH1 0xA0 SHL SUB DUP4 AND SWAP1 PUSH4 0xA9059CBB SWAP1 PUSH1 0x44 ADD PUSH1 0x20 PUSH1 0x40 MLOAD DUP1 DUP4 SUB DUP2 PUSH1 0x0 DUP8 GAS CALL ISZERO DUP1 ISZERO PUSH2 0x3597 JUMPI RETURNDATASIZE PUSH1 0x0 DUP1 RETURNDATACOPY RETURNDATASIZE PUSH1 0x0 REVERT JUMPDEST POP POP POP POP PUSH1 0x40 MLOAD RETURNDATASIZE PUSH1 0x1F NOT PUSH1 0x1F DUP3 ADD AND DUP3 ADD DUP1 PUSH1 0x40 MSTORE POP DUP2 ADD SWAP1 PUSH2 0x35BB SWAP2 SWAP1 PUSH2 0x80A6 JUMP JUMPDEST POP JUMPDEST PUSH1 0x1 PUSH1 0x1 PUSH1 0xA0 SHL SUB DUP3 AND PUSH2 0x1C43 JUMPI PUSH1 0x40 MLOAD CALLER SWAP1 DUP3 ISZERO PUSH2 0x8FC MUL SWAP1 DUP4 SWAP1 PUSH1 0x0 DUP2 DUP2 DUP2 DUP6 DUP9 DUP9 CALL SWAP4 POP POP POP POP ISZERO DUP1 ISZERO PUSH2 0x17D8 JUMPI RETURNDATASIZE PUSH1 0x0 DUP1 RETURNDATACOPY RETURNDATASIZE PUSH1 0x0 REVERT JUMPDEST PUSH2 0x3600 PUSH2 0x56BD JUMP JUMPDEST PUSH2 0x16F DUP1 SLOAD PUSH1 0xFF NOT AND PUSH1 0x1 OR SWAP1 SSTORE JUMP JUMPDEST PUSH1 0x0 DUP1 JUMPDEST PUSH2 0x16A SLOAD DUP2 LT ISZERO PUSH2 0x366C JUMPI PUSH1 0x0 PUSH2 0x16A DUP3 DUP2 SLOAD DUP2 LT PUSH2 0x3635 JUMPI PUSH2 0x3635 PUSH2 0x7F45 JUMP JUMPDEST PUSH1 0x0 SWAP2 DUP3 MSTORE PUSH1 0x20 SWAP1 SWAP2 KECCAK256 ADD SLOAD PUSH1 0x1 PUSH1 0x1 PUSH1 0xA0 SHL SUB AND SWAP1 POP CALLER DUP2 SWAP1 SUB PUSH2 0x3659 JUMPI PUSH1 0x1 SWAP3 POP JUMPDEST POP DUP1 PUSH2 0x3664 DUP2 PUSH2 0x7F71 JUMP JUMPDEST SWAP2 POP POP PUSH2 0x3614 JUMP JUMPDEST POP PUSH1 0x1 DUP2 ISZERO ISZERO EQ DUP1 PUSH2 0x367D JUMPI POP CALLER ADDRESS EQ JUMPDEST DUP1 PUSH2 0x3693 JUMPI POP PUSH2 0x12D SLOAD PUSH1 0x1 PUSH1 0x1 PUSH1 0xA0 SHL SUB AND CALLER EQ JUMPDEST PUSH2 0x36AF JUMPI PUSH1 0x40 MLOAD PUSH3 0x461BCD PUSH1 0xE5 SHL DUP2 MSTORE PUSH1 0x4 ADD PUSH2 0x13BF SWAP1 PUSH2 0x7F8A JUMP JUMPDEST PUSH1 0x0 DUP4 DUP2 MSTORE PUSH2 0x171 PUSH1 0x20 MSTORE PUSH1 0x40 SWAP1 KECCAK256 PUSH1 0x7 ADD SLOAD PUSH2 0x2491 SWAP1 DUP4 SWAP1 PUSH2 0x7FD9 JUMP JUMPDEST PUSH1 0x0 DUP1 JUMPDEST PUSH2 0x16A SLOAD DUP2 LT ISZERO PUSH2 0x3729 JUMPI PUSH1 0x0 PUSH2 0x16A DUP3 DUP2 SLOAD DUP2 LT PUSH2 0x36F2 JUMPI PUSH2 0x36F2 PUSH2 0x7F45 JUMP JUMPDEST PUSH1 0x0 SWAP2 DUP3 MSTORE PUSH1 0x20 SWAP1 SWAP2 KECCAK256 ADD SLOAD PUSH1 0x1 PUSH1 0x1 PUSH1 0xA0 SHL SUB AND SWAP1 POP CALLER DUP2 SWAP1 SUB PUSH2 0x3716 JUMPI PUSH1 0x1 SWAP3 POP JUMPDEST POP DUP1 PUSH2 0x3721 DUP2 PUSH2 0x7F71 JUMP JUMPDEST SWAP2 POP POP PUSH2 0x36D1 JUMP JUMPDEST POP PUSH1 0x1 DUP2 ISZERO ISZERO EQ DUP1 PUSH2 0x373A JUMPI POP CALLER ADDRESS EQ JUMPDEST DUP1 PUSH2 0x3750 JUMPI POP PUSH2 0x12D SLOAD PUSH1 0x1 PUSH1 0x1 PUSH1 0xA0 SHL SUB AND CALLER EQ JUMPDEST PUSH2 0x376C JUMPI PUSH1 0x40 MLOAD PUSH3 0x461BCD PUSH1 0xE5 SHL DUP2 MSTORE PUSH1 0x4 ADD PUSH2 0x13BF SWAP1 PUSH2 0x7F8A JUMP JUMPDEST PUSH1 0x0 DUP3 DUP2 MSTORE PUSH2 0x171 PUSH1 0x20 MSTORE PUSH1 0x40 DUP2 KECCAK256 PUSH1 0x7 ADD DUP1 SLOAD SWAP2 PUSH2 0x378A DUP4 PUSH2 0x7F71 JUMP JUMPDEST SWAP2 SWAP1 POP SSTORE POP POP POP JUMP JUMPDEST PUSH1 0x0 DUP1 JUMPDEST PUSH2 0x16A SLOAD DUP2 LT ISZERO PUSH2 0x37EF JUMPI PUSH1 0x0 PUSH2 0x16A DUP3 DUP2 SLOAD DUP2 LT PUSH2 0x37B8 JUMPI PUSH2 0x37B8 PUSH2 0x7F45 JUMP JUMPDEST PUSH1 0x0 SWAP2 DUP3 MSTORE PUSH1 0x20 SWAP1 SWAP2 KECCAK256 ADD SLOAD PUSH1 0x1 PUSH1 0x1 PUSH1 0xA0 SHL SUB AND SWAP1 POP CALLER DUP2 SWAP1 SUB PUSH2 0x37DC JUMPI PUSH1 0x1 SWAP3 POP JUMPDEST POP DUP1 PUSH2 0x37E7 DUP2 PUSH2 0x7F71 JUMP JUMPDEST SWAP2 POP POP PUSH2 0x3797 JUMP JUMPDEST POP PUSH1 0x1 DUP2 ISZERO ISZERO EQ DUP1 PUSH2 0x3800 JUMPI POP CALLER ADDRESS EQ JUMPDEST DUP1 PUSH2 0x3816 JUMPI POP PUSH2 0x12D SLOAD PUSH1 0x1 PUSH1 0x1 PUSH1 0xA0 SHL SUB AND CALLER EQ JUMPDEST PUSH2 0x3832 JUMPI PUSH1 0x40 MLOAD PUSH3 0x461BCD PUSH1 0xE5 SHL DUP2 MSTORE PUSH1 0x4 ADD PUSH2 0x13BF SWAP1 PUSH2 0x7F8A JUMP JUMPDEST PUSH2 0x173 SLOAD DUP4 LT PUSH2 0x3854 JUMPI PUSH1 0x40 MLOAD PUSH3 0x461BCD PUSH1 0xE5 SHL DUP2 MSTORE PUSH1 0x4 ADD PUSH2 0x13BF SWAP1 PUSH2 0x8250 JUMP JUMPDEST PUSH1 0x0 DUP1 MSTORE PUSH2 0x170 PUSH1 0x20 MSTORE PUSH1 0x0 DUP1 MLOAD PUSH1 0x20 PUSH2 0x88C0 DUP4 CODECOPY DUP2 MLOAD SWAP2 MSTORE SLOAD PUSH2 0x3879 SWAP1 CALLVALUE SWAP1 PUSH2 0x7FD9 JUMP JUMPDEST PUSH1 0x0 DUP1 MLOAD PUSH1 0x20 PUSH2 0x88C0 DUP4 CODECOPY DUP2 MLOAD SWAP2 MSTORE SSTORE PUSH1 0x0 DUP4 DUP2 MSTORE PUSH2 0x171 PUSH1 0x20 MSTORE PUSH1 0x40 SWAP1 KECCAK256 TIMESTAMP PUSH1 0x3 DUP3 ADD SSTORE PUSH1 0x4 ADD SLOAD PUSH2 0x38AD SWAP1 DUP4 SWAP1 PUSH2 0x7FD9 JUMP JUMPDEST PUSH1 0x0 DUP5 DUP2 MSTORE PUSH2 0x171 PUSH1 0x20 MSTORE PUSH1 0x40 SWAP1 KECCAK256 PUSH1 0x4 ADD SSTORE PUSH2 0x17D8 DUP4 PUSH2 0x36CD JUMP JUMPDEST PUSH2 0x38D1 PUSH2 0x5E9B JUMP JUMPDEST DUP1 MLOAD PUSH1 0x20 DUP1 DUP4 ADD SWAP2 SWAP1 SWAP2 KECCAK256 PUSH1 0x0 DUP2 DUP2 MSTORE PUSH2 0x169 SWAP1 SWAP3 MSTORE PUSH1 0x40 SWAP1 SWAP2 KECCAK256 PUSH1 0x2 ADD SLOAD PUSH1 0xFF AND PUSH2 0x3933 JUMPI PUSH1 0x40 MLOAD PUSH3 0x461BCD PUSH1 0xE5 SHL DUP2 MSTORE PUSH1 0x20 PUSH1 0x4 DUP3 ADD MSTORE PUSH1 0x11 PUSH1 0x24 DUP3 ADD MSTORE PUSH17 0x1B9BC818DC99591A5D1CC81CDD1BDC9959 PUSH1 0x7A SHL PUSH1 0x44 DUP3 ADD MSTORE PUSH1 0x64 ADD PUSH2 0x13BF JUMP JUMPDEST PUSH1 0x0 DUP3 DUP1 PUSH1 0x20 ADD SWAP1 MLOAD DUP2 ADD SWAP1 PUSH2 0x3949 SWAP2 SWAP1 PUSH2 0x82E0 JUMP JUMPDEST PUSH1 0x0 DUP5 DUP2 MSTORE PUSH2 0x169 PUSH1 0x20 MSTORE PUSH1 0x40 DUP2 KECCAK256 DUP1 SLOAD PUSH1 0x1 SWAP1 SWAP2 ADD SLOAD SWAP3 SWAP5 POP SWAP1 SWAP3 POP PUSH2 0x3986 SWAP2 PUSH2 0xFFFF DUP3 AND SWAP2 PUSH3 0x10000 SWAP1 DIV PUSH1 0x1 PUSH1 0x1 PUSH1 0xA0 SHL SUB AND SWAP1 DUP6 PUSH2 0x5EF6 JUMP JUMPDEST PUSH1 0x0 DUP5 DUP2 MSTORE PUSH2 0x169 PUSH1 0x20 MSTORE PUSH1 0x40 SWAP1 KECCAK256 PUSH1 0x1 ADD SLOAD SWAP1 SWAP2 POP DUP2 GT PUSH2 0x39FC JUMPI PUSH1 0x40 MLOAD PUSH3 0x461BCD PUSH1 0xE5 SHL DUP2 MSTORE PUSH1 0x20 PUSH1 0x4 DUP3 ADD MSTORE PUSH1 0x29 PUSH1 0x24 DUP3 ADD MSTORE PUSH32 0x6E6F7420656E6F7567682067617320746F2070726F6365737320637265646974 PUSH1 0x44 DUP3 ADD MSTORE PUSH9 0x103A3930B739B332B9 PUSH1 0xB9 SHL PUSH1 0x64 DUP3 ADD MSTORE PUSH1 0x84 ADD PUSH2 0x13BF JUMP JUMPDEST DUP2 MLOAD DUP2 SUB PUSH2 0x3A74 JUMPI PUSH1 0x0 DUP4 DUP2 MSTORE PUSH2 0x169 PUSH1 0x20 MSTORE PUSH1 0x40 DUP1 DUP3 KECCAK256 DUP1 SLOAD PUSH1 0x1 PUSH1 0x1 PUSH1 0xB0 SHL SUB NOT AND DUP2 SSTORE PUSH1 0x1 DUP2 ADD SWAP3 SWAP1 SWAP3 SSTORE PUSH1 0x2 SWAP1 SWAP2 ADD DUP1 SLOAD PUSH1 0xFF NOT AND SWAP1 SSTORE MLOAD PUSH32 0xD7BE02B8DD0D27BD0517A9CB4D7469CE27DF4313821AE5EC1FF69ACC594BA233 SWAP1 PUSH2 0x3A67 SWAP1 DUP6 DUP2 MSTORE PUSH1 0x20 ADD SWAP1 JUMP JUMPDEST PUSH1 0x40 MLOAD DUP1 SWAP2 SUB SWAP1 LOG1 PUSH2 0x3B09 JUMP JUMPDEST PUSH1 0x40 DUP1 MLOAD PUSH1 0x80 DUP2 ADD DUP3 MSTORE PUSH1 0x0 DUP6 DUP2 MSTORE PUSH2 0x169 PUSH1 0x20 DUP2 DUP2 MSTORE DUP5 DUP4 KECCAK256 DUP1 SLOAD PUSH2 0xFFFF DUP1 DUP3 AND DUP8 MSTORE PUSH1 0x1 PUSH1 0x1 PUSH1 0xA0 SHL SUB PUSH3 0x10000 DUP1 DUP5 DIV DUP3 AND DUP7 DUP11 ADD SWAP1 DUP2 MSTORE SWAP10 DUP10 ADD DUP12 DUP2 MSTORE PUSH1 0x1 PUSH1 0x60 DUP12 ADD DUP2 DUP2 MSTORE SWAP10 DUP16 SWAP1 MSTORE SWAP8 SWAP1 SWAP7 MSTORE SWAP8 MLOAD SWAP9 MLOAD AND SWAP1 SWAP7 MUL PUSH1 0x1 PUSH1 0x1 PUSH1 0xB0 SHL SUB NOT SWAP1 SWAP2 AND SWAP7 SWAP1 SWAP6 AND SWAP6 SWAP1 SWAP6 OR SWAP4 SWAP1 SWAP4 OR DUP5 SSTORE SWAP2 MLOAD SWAP2 DUP4 ADD SWAP2 SWAP1 SWAP2 SSTORE MLOAD PUSH1 0x2 SWAP1 SWAP2 ADD DUP1 SLOAD SWAP2 ISZERO ISZERO PUSH1 0xFF NOT SWAP1 SWAP3 AND SWAP2 SWAP1 SWAP2 OR SWAP1 SSTORE JUMPDEST POP POP POP PUSH2 0x22BC PUSH1 0x1 PUSH2 0x165 SSTORE JUMP JUMPDEST PUSH1 0x60 PUSH1 0x66 DUP1 SLOAD PUSH2 0x15B0 SWAP1 PUSH2 0x7EB7 JUMP JUMPDEST PUSH2 0x3B2E PUSH2 0x56BD JUMP JUMPDEST PUSH2 0x16A DUP1 SLOAD PUSH1 0x1 DUP2 ADD DUP3 SSTORE PUSH1 0x0 SWAP2 SWAP1 SWAP2 MSTORE PUSH32 0x17DA1AE71935BC1A620F4CC216C63F7B5576C3970BAE66F4178D3166B9912544 ADD DUP1 SLOAD PUSH1 0x1 PUSH1 0x1 PUSH1 0xA0 SHL SUB NOT AND PUSH1 0x1 PUSH1 0x1 PUSH1 0xA0 SHL SUB SWAP3 SWAP1 SWAP3 AND SWAP2 SWAP1 SWAP2 OR SWAP1 SSTORE JUMP JUMPDEST DUP2 PUSH2 0x16E SLOAD PUSH2 0x3B90 SWAP2 SWAP1 PUSH2 0x7FFF JUMP JUMPDEST PUSH2 0x16C SLOAD PUSH1 0x40 MLOAD PUSH4 0x70A08231 PUSH1 0xE0 SHL DUP2 MSTORE CALLER PUSH1 0x4 DUP3 ADD MSTORE PUSH1 0x1 PUSH1 0x1 PUSH1 0xA0 SHL SUB SWAP1 SWAP2 AND SWAP1 PUSH4 0x70A08231 SWAP1 PUSH1 0x24 ADD PUSH1 0x20 PUSH1 0x40 MLOAD DUP1 DUP4 SUB DUP2 DUP7 GAS STATICCALL ISZERO DUP1 ISZERO PUSH2 0x3BD9 JUMPI RETURNDATASIZE PUSH1 0x0 DUP1 RETURNDATACOPY RETURNDATASIZE PUSH1 0x0 REVERT JUMPDEST POP POP POP POP PUSH1 0x40 MLOAD RETURNDATASIZE PUSH1 0x1F NOT PUSH1 0x1F DUP3 ADD AND DUP3 ADD DUP1 PUSH1 0x40 MSTORE POP DUP2 ADD SWAP1 PUSH2 0x3BFD SWAP2 SWAP1 PUSH2 0x808D JUMP JUMPDEST LT ISZERO PUSH2 0x3C3C JUMPI PUSH1 0x40 MLOAD PUSH3 0x461BCD PUSH1 0xE5 SHL DUP2 MSTORE PUSH1 0x20 PUSH1 0x4 DUP3 ADD MSTORE PUSH1 0xE PUSH1 0x24 DUP3 ADD MSTORE PUSH14 0x149958DA185C99D948199A5C9CDD PUSH1 0x92 SHL PUSH1 0x44 DUP3 ADD MSTORE PUSH1 0x64 ADD PUSH2 0x13BF JUMP JUMPDEST PUSH1 0x0 DUP2 DUP2 MSTORE PUSH2 0x171 PUSH1 0x20 MSTORE PUSH1 0x40 SWAP1 KECCAK256 PUSH1 0x1 ADD SLOAD PUSH1 0x1 PUSH1 0x1 PUSH1 0xA0 SHL SUB AND CALLER EQ PUSH2 0x3C63 JUMPI PUSH1 0x0 DUP1 REVERT JUMPDEST PUSH1 0x0 DUP1 MSTORE PUSH2 0x170 PUSH1 0x20 MSTORE PUSH1 0x0 DUP1 MLOAD PUSH1 0x20 PUSH2 0x88C0 DUP4 CODECOPY DUP2 MLOAD SWAP2 MSTORE SLOAD PUSH2 0x3C88 SWAP1 CALLVALUE SWAP1 PUSH2 0x7FD9 JUMP JUMPDEST PUSH1 0x0 DUP1 MSTORE PUSH2 0x170 PUSH1 0x20 MSTORE PUSH1 0x0 DUP1 MLOAD PUSH1 0x20 PUSH2 0x88C0 DUP4 CODECOPY DUP2 MLOAD SWAP2 MSTORE SSTORE PUSH2 0x16E SLOAD PUSH2 0x3CB1 SWAP1 DUP4 SWAP1 PUSH2 0x7FFF JUMP JUMPDEST PUSH1 0x0 DUP3 DUP2 MSTORE PUSH2 0x171 PUSH1 0x20 SWAP1 DUP2 MSTORE PUSH1 0x40 DUP1 DUP4 KECCAK256 PUSH2 0x16C SLOAD PUSH1 0x1 PUSH1 0x1 PUSH1 0xA0 SHL SUB AND DUP5 MSTORE PUSH1 0x8 ADD SWAP1 SWAP2 MSTORE SWAP1 KECCAK256 SLOAD PUSH2 0x3CE5 SWAP2 SWAP1 PUSH2 0x7FEC JUMP JUMPDEST PUSH1 0x0 DUP3 DUP2 MSTORE PUSH2 0x171 PUSH1 0x20 DUP2 DUP2 MSTORE PUSH1 0x40 DUP1 DUP5 KECCAK256 PUSH2 0x16C SLOAD PUSH1 0x1 PUSH1 0x1 PUSH1 0xA0 SHL SUB AND DUP6 MSTORE PUSH1 0x8 DUP2 ADD DUP4 MSTORE SWAP1 DUP5 KECCAK256 SWAP5 SWAP1 SWAP5 SSTORE SWAP2 DUP5 SWAP1 MSTORE SWAP1 MSTORE TIMESTAMP PUSH1 0x3 SWAP1 SWAP2 ADD SSTORE PUSH3 0x93A80 PUSH2 0x3D2E DUP2 DUP5 PUSH2 0x7FFF JUMP JUMPDEST PUSH1 0x0 DUP4 DUP2 MSTORE PUSH2 0x171 PUSH1 0x20 MSTORE PUSH1 0x40 SWAP1 KECCAK256 PUSH1 0x4 ADD SLOAD PUSH2 0x3D4B SWAP2 SWAP1 PUSH2 0x7FD9 JUMP JUMPDEST PUSH1 0x0 DUP4 DUP2 MSTORE PUSH2 0x171 PUSH1 0x20 MSTORE PUSH1 0x40 SWAP1 KECCAK256 PUSH1 0x4 ADD SSTORE PUSH2 0x17D8 DUP3 PUSH2 0x36CD JUMP JUMPDEST PUSH2 0x3D6F PUSH2 0x56BD JUMP JUMPDEST PUSH1 0x0 DUP2 GT PUSH2 0x3DCA JUMPI PUSH1 0x40 MLOAD PUSH3 0x461BCD PUSH1 0xE5 SHL DUP2 MSTORE PUSH1 0x20 PUSH1 0x4 DUP3 ADD MSTORE PUSH1 0x22 PUSH1 0x24 DUP3 ADD MSTORE PUSH32 0x647374436861696E4964546F42617463684C696D6974206D757374206265203E PUSH1 0x44 DUP3 ADD MSTORE PUSH2 0x203 PUSH1 0xF4 SHL PUSH1 0x64 DUP3 ADD MSTORE PUSH1 0x84 ADD PUSH2 0x13BF JUMP JUMPDEST PUSH2 0xFFFF DUP3 AND PUSH1 0x0 DUP2 DUP2 MSTORE PUSH2 0x167 PUSH1 0x20 SWAP1 DUP2 MSTORE PUSH1 0x40 SWAP2 DUP3 SWAP1 KECCAK256 DUP5 SWAP1 SSTORE DUP2 MLOAD SWAP3 DUP4 MSTORE DUP3 ADD DUP4 SWAP1 MSTORE PUSH32 0x7315F7654D594EAD24A30160ED9BA2D23247F543016B918343591E93D7AFDB6D SWAP2 ADD JUMPDEST PUSH1 0x40 MLOAD DUP1 SWAP2 SUB SWAP1 LOG1 POP POP JUMP JUMPDEST PUSH2 0xFFFF DUP2 AND PUSH1 0x0 SWAP1 DUP2 MSTORE PUSH2 0x160 PUSH1 0x20 MSTORE PUSH1 0x40 DUP2 KECCAK256 DUP1 SLOAD PUSH1 0x60 SWAP3 SWAP2 SWAP1 PUSH2 0x3E43 SWAP1 PUSH2 0x7EB7 JUMP JUMPDEST DUP1 PUSH1 0x1F ADD PUSH1 0x20 DUP1 SWAP2 DIV MUL PUSH1 0x20 ADD PUSH1 0x40 MLOAD SWAP1 DUP2 ADD PUSH1 0x40 MSTORE DUP1 SWAP3 SWAP2 SWAP1 DUP2 DUP2 MSTORE PUSH1 0x20 ADD DUP3 DUP1 SLOAD PUSH2 0x3E6F SWAP1 PUSH2 0x7EB7 JUMP JUMPDEST DUP1 ISZERO PUSH2 0x3EBC JUMPI DUP1 PUSH1 0x1F LT PUSH2 0x3E91 JUMPI PUSH2 0x100 DUP1 DUP4 SLOAD DIV MUL DUP4 MSTORE SWAP2 PUSH1 0x20 ADD SWAP2 PUSH2 0x3EBC JUMP JUMPDEST DUP3 ADD SWAP2 SWAP1 PUSH1 0x0 MSTORE PUSH1 0x20 PUSH1 0x0 KECCAK256 SWAP1 JUMPDEST DUP2 SLOAD DUP2 MSTORE SWAP1 PUSH1 0x1 ADD SWAP1 PUSH1 0x20 ADD DUP1 DUP4 GT PUSH2 0x3E9F JUMPI DUP3 SWAP1 SUB PUSH1 0x1F AND DUP3 ADD SWAP2 JUMPDEST POP POP POP POP POP SWAP1 POP DUP1 MLOAD PUSH1 0x0 SUB PUSH2 0x3F14 JUMPI PUSH1 0x40 MLOAD PUSH3 0x461BCD PUSH1 0xE5 SHL DUP2 MSTORE PUSH1 0x20 PUSH1 0x4 DUP3 ADD MSTORE PUSH1 0x1D PUSH1 0x24 DUP3 ADD MSTORE PUSH32 0x4C7A4170703A206E6F20747275737465642070617468207265636F7264000000 PUSH1 0x44 DUP3 ADD MSTORE PUSH1 0x64 ADD PUSH2 0x13BF JUMP JUMPDEST PUSH2 0x3F2F PUSH1 0x0 PUSH1 0x14 DUP4 MLOAD PUSH2 0x3F27 SWAP2 SWAP1 PUSH2 0x7FEC JUMP JUMPDEST DUP4 SWAP2 SWAP1 PUSH2 0x5F43 JUMP JUMPDEST SWAP4 SWAP3 POP POP POP JUMP JUMPDEST PUSH2 0x1C43 CALLER DUP4 DUP4 PUSH2 0x6050 JUMP JUMPDEST PUSH2 0x3F49 PUSH2 0x56BD JUMP JUMPDEST DUP2 DUP2 ADDRESS PUSH1 0x40 MLOAD PUSH1 0x20 ADD PUSH2 0x3F5E SWAP4 SWAP3 SWAP2 SWAP1 PUSH2 0x839A JUMP JUMPDEST PUSH1 0x40 DUP1 MLOAD PUSH1 0x1F NOT DUP2 DUP5 SUB ADD DUP2 MSTORE SWAP2 DUP2 MSTORE PUSH2 0xFFFF DUP6 AND PUSH1 0x0 SWAP1 DUP2 MSTORE PUSH2 0x160 PUSH1 0x20 MSTORE KECCAK256 SWAP1 PUSH2 0x3F8A SWAP1 DUP3 PUSH2 0x8191 JUMP JUMPDEST POP PUSH32 0x8C0400CFE2D1199B1A725C78960BCC2A344D869B80590D0F2BD005DB15A572CE DUP4 DUP4 DUP4 PUSH1 0x40 MLOAD PUSH2 0x3FBE SWAP4 SWAP3 SWAP2 SWAP1 PUSH2 0x812D JUMP JUMPDEST PUSH1 0x40 MLOAD DUP1 SWAP2 SUB SWAP1 LOG1 POP POP POP JUMP JUMPDEST PUSH1 0x0 DUP4 DUP2 MSTORE PUSH2 0x171 PUSH1 0x20 MSTORE PUSH1 0x40 SWAP1 KECCAK256 PUSH1 0x1 ADD SLOAD PUSH1 0x1 PUSH1 0x1 PUSH1 0xA0 SHL SUB AND CALLER EQ DUP1 PUSH2 0x400B JUMPI POP PUSH1 0x0 DUP4 DUP2 MSTORE PUSH2 0x171 PUSH1 0x20 MSTORE PUSH1 0x40 SWAP1 KECCAK256 SLOAD PUSH1 0x1 PUSH1 0x1 PUSH1 0xA0 SHL SUB AND CALLER EQ JUMPDEST PUSH2 0x4027 JUMPI PUSH1 0x40 MLOAD PUSH3 0x461BCD PUSH1 0xE5 SHL DUP2 MSTORE PUSH1 0x4 ADD PUSH2 0x13BF SWAP1 PUSH2 0x8063 JUMP JUMPDEST PUSH1 0x0 DUP4 DUP2 MSTORE PUSH2 0x171 PUSH1 0x20 SWAP1 DUP2 MSTORE PUSH1 0x40 DUP1 DUP4 KECCAK256 DUP6 DUP5 MSTORE PUSH1 0x9 ADD SWAP1 SWAP2 MSTORE SWAP1 KECCAK256 PUSH1 0x2 ADD SLOAD PUSH1 0x1 PUSH1 0x1 PUSH1 0xA0 SHL SUB AND CALLER EQ DUP1 ISZERO PUSH2 0x407D JUMPI POP PUSH1 0x0 DUP4 DUP2 MSTORE PUSH2 0x171 PUSH1 0x20 SWAP1 DUP2 MSTORE PUSH1 0x40 DUP1 DUP4 KECCAK256 DUP6 DUP5 MSTORE PUSH1 0x9 ADD SWAP1 SWAP2 MSTORE SWAP1 KECCAK256 SLOAD PUSH1 0xFF AND ISZERO JUMPDEST PUSH2 0x4099 JUMPI PUSH1 0x40 MLOAD PUSH3 0x461BCD PUSH1 0xE5 SHL DUP2 MSTORE PUSH1 0x4 ADD PUSH2 0x13BF SWAP1 PUSH2 0x80C3 JUMP JUMPDEST PUSH2 0x40A2 DUP4 PUSH2 0x36CD JUMP JUMPDEST PUSH1 0x0 DUP4 DUP2 MSTORE PUSH2 0x172 PUSH1 0x20 SWAP1 DUP2 MSTORE PUSH1 0x40 DUP3 KECCAK256 DUP5 DUP2 SSTORE PUSH1 0x2 DUP2 ADD DUP1 SLOAD PUSH1 0x1 DUP1 DUP3 ADD DUP4 SSTORE SWAP2 DUP6 MSTORE SWAP3 DUP5 KECCAK256 SWAP1 SWAP3 ADD DUP1 SLOAD PUSH1 0x1 PUSH1 0x1 PUSH1 0xA0 SHL SUB NOT AND PUSH1 0x1 PUSH1 0x1 PUSH1 0xA0 SHL SUB DUP7 AND OR SWAP1 SSTORE DUP6 DUP4 MSTORE ADD DUP1 SLOAD SWAP2 PUSH2 0x40F5 DUP4 PUSH2 0x7F71 JUMP JUMPDEST SWAP2 SWAP1 POP SSTORE POP POP POP POP JUMP JUMPDEST PUSH2 0x1574 DUP8 DUP8 DUP8 DUP8 DUP8 DUP8 DUP8 PUSH2 0x5A3B JUMP JUMPDEST PUSH2 0x4118 CALLER DUP4 PUSH2 0x57D6 JUMP JUMPDEST PUSH2 0x4134 JUMPI PUSH1 0x40 MLOAD PUSH3 0x461BCD PUSH1 0xE5 SHL DUP2 MSTORE PUSH1 0x4 ADD PUSH2 0x13BF SWAP1 PUSH2 0x8016 JUMP JUMPDEST PUSH2 0x4140 DUP5 DUP5 DUP5 DUP5 PUSH2 0x611E JUMP JUMPDEST POP POP POP POP JUMP JUMPDEST PUSH2 0x414E PUSH2 0x56BD JUMP JUMPDEST PUSH2 0x163 DUP1 SLOAD PUSH1 0x1 PUSH1 0x1 PUSH1 0xA0 SHL SUB NOT AND PUSH1 0x1 PUSH1 0x1 PUSH1 0xA0 SHL SUB DUP4 AND SWAP1 DUP2 OR SWAP1 SWAP2 SSTORE PUSH1 0x40 MLOAD SWAP1 DUP2 MSTORE PUSH32 0x5DB758E995A17EC1AD84BDEF7E8C3293A0BD6179BCCE400DFF5D4C3D87DB726B SWAP1 PUSH1 0x20 ADD PUSH2 0x1837 JUMP JUMPDEST PUSH1 0x60 PUSH2 0x159B DUP3 PUSH2 0x6151 JUMP JUMPDEST PUSH2 0x41B0 PUSH2 0x56BD JUMP JUMPDEST PUSH2 0x15F SLOAD PUSH1 0x40 MLOAD PUSH4 0x32FB62E7 PUSH1 0xE2 SHL DUP2 MSTORE PUSH1 0x1 PUSH1 0x1 PUSH1 0xA0 SHL SUB SWAP1 SWAP2 AND SWAP1 PUSH4 0xCBED8B9C SWAP1 PUSH2 0x41E9 SWAP1 DUP9 SWAP1 DUP9 SWAP1 DUP9 SWAP1 DUP9 SWAP1 DUP9 SWAP1 PUSH1 0x4 ADD PUSH2 0x83C0 JUMP JUMPDEST PUSH1 0x0 PUSH1 0x40 MLOAD DUP1 DUP4 SUB DUP2 PUSH1 0x0 DUP8 DUP1 EXTCODESIZE ISZERO DUP1 ISZERO PUSH2 0x4203 JUMPI PUSH1 0x0 DUP1 REVERT JUMPDEST POP GAS CALL ISZERO DUP1 ISZERO PUSH2 0x4217 JUMPI RETURNDATASIZE PUSH1 0x0 DUP1 RETURNDATACOPY RETURNDATASIZE PUSH1 0x0 REVERT JUMPDEST POP POP POP POP POP POP POP POP POP JUMP JUMPDEST PUSH1 0x60 DUP1 PUSH1 0x0 DUP1 JUMPDEST PUSH2 0x16A SLOAD DUP2 LT ISZERO PUSH2 0x4281 JUMPI PUSH1 0x0 PUSH2 0x16A DUP3 DUP2 SLOAD DUP2 LT PUSH2 0x424A JUMPI PUSH2 0x424A PUSH2 0x7F45 JUMP JUMPDEST PUSH1 0x0 SWAP2 DUP3 MSTORE PUSH1 0x20 SWAP1 SWAP2 KECCAK256 ADD SLOAD PUSH1 0x1 PUSH1 0x1 PUSH1 0xA0 SHL SUB AND SWAP1 POP CALLER DUP2 SWAP1 SUB PUSH2 0x426E JUMPI PUSH1 0x1 SWAP3 POP JUMPDEST POP DUP1 PUSH2 0x4279 DUP2 PUSH2 0x7F71 JUMP JUMPDEST SWAP2 POP POP PUSH2 0x4229 JUMP JUMPDEST POP PUSH1 0x1 DUP2 ISZERO ISZERO EQ DUP1 PUSH2 0x4292 JUMPI POP CALLER ADDRESS EQ JUMPDEST DUP1 PUSH2 0x42A8 JUMPI POP PUSH2 0x12D SLOAD PUSH1 0x1 PUSH1 0x1 PUSH1 0xA0 SHL SUB AND CALLER EQ JUMPDEST PUSH2 0x42C4 JUMPI PUSH1 0x40 MLOAD PUSH3 0x461BCD PUSH1 0xE5 SHL DUP2 MSTORE PUSH1 0x4 ADD PUSH2 0x13BF SWAP1 PUSH2 0x7F8A JUMP JUMPDEST PUSH1 0x0 DUP6 DUP2 MSTORE PUSH2 0x171 PUSH1 0x20 MSTORE PUSH1 0x40 SWAP1 KECCAK256 PUSH1 0x1 ADD SLOAD PUSH1 0x1 PUSH1 0x1 PUSH1 0xA0 SHL SUB DUP8 DUP2 AND SWAP2 AND EQ DUP1 ISZERO PUSH2 0x431C JUMPI POP PUSH1 0x0 DUP6 DUP2 MSTORE PUSH2 0x171 PUSH1 0x20 SWAP1 DUP2 MSTORE PUSH1 0x40 DUP1 DUP4 KECCAK256 DUP8 DUP5 MSTORE PUSH1 0x9 ADD SWAP1 SWAP2 MSTORE SWAP1 KECCAK256 PUSH1 0x2 ADD SLOAD PUSH1 0x1 PUSH1 0x1 PUSH1 0xA0 SHL SUB DUP8 DUP2 AND SWAP2 AND EQ JUMPDEST DUP1 PUSH2 0x4333 JUMPI POP PUSH2 0x432D DUP7 DUP7 DUP7 PUSH2 0x3177 JUMP JUMPDEST ISZERO ISZERO PUSH1 0x1 EQ JUMPDEST PUSH2 0x437A JUMPI PUSH1 0x40 MLOAD PUSH3 0x461BCD PUSH1 0xE5 SHL DUP2 MSTORE PUSH1 0x20 PUSH1 0x4 DUP3 ADD MSTORE PUSH1 0x18 PUSH1 0x24 DUP3 ADD MSTORE PUSH24 0x1B9BDD081BDDDB995C881BD9881A5908185B99081CDB1BDD PUSH1 0x42 SHL PUSH1 0x44 DUP3 ADD MSTORE PUSH1 0x64 ADD PUSH2 0x13BF JUMP JUMPDEST PUSH1 0x0 DUP6 DUP2 MSTORE PUSH2 0x171 PUSH1 0x20 SWAP1 DUP2 MSTORE PUSH1 0x40 DUP1 DUP4 KECCAK256 DUP8 DUP5 MSTORE PUSH1 0x9 ADD SWAP1 SWAP2 MSTORE SWAP1 KECCAK256 SLOAD PUSH1 0xFF AND ISZERO PUSH2 0x43D7 JUMPI PUSH1 0x40 MLOAD PUSH3 0x461BCD PUSH1 0xE5 SHL DUP2 MSTORE PUSH1 0x20 PUSH1 0x4 DUP3 ADD MSTORE PUSH1 0xC PUSH1 0x24 DUP3 ADD MSTORE PUSH12 0x11195B195D19590814DB1BDD PUSH1 0xA2 SHL PUSH1 0x44 DUP3 ADD MSTORE PUSH1 0x64 ADD PUSH2 0x13BF JUMP JUMPDEST PUSH1 0x0 DUP6 DUP2 MSTORE PUSH2 0x171 PUSH1 0x20 SWAP1 DUP2 MSTORE PUSH1 0x40 DUP1 DUP4 KECCAK256 DUP8 DUP5 MSTORE PUSH1 0x9 ADD SWAP1 SWAP2 MSTORE SWAP1 KECCAK256 PUSH1 0x1 DUP2 ADD DUP1 SLOAD SWAP1 SWAP2 PUSH1 0x3 ADD SWAP1 DUP3 SWAP1 PUSH2 0x440B SWAP1 PUSH2 0x7EB7 JUMP JUMPDEST DUP1 PUSH1 0x1F ADD PUSH1 0x20 DUP1 SWAP2 DIV MUL PUSH1 0x20 ADD PUSH1 0x40 MLOAD SWAP1 DUP2 ADD PUSH1 0x40 MSTORE DUP1 SWAP3 SWAP2 SWAP1 DUP2 DUP2 MSTORE PUSH1 0x20 ADD DUP3 DUP1 SLOAD PUSH2 0x4437 SWAP1 PUSH2 0x7EB7 JUMP JUMPDEST DUP1 ISZERO PUSH2 0x4484 JUMPI DUP1 PUSH1 0x1F LT PUSH2 0x4459 JUMPI PUSH2 0x100 DUP1 DUP4 SLOAD DIV MUL DUP4 MSTORE SWAP2 PUSH1 0x20 ADD SWAP2 PUSH2 0x4484 JUMP JUMPDEST DUP3 ADD SWAP2 SWAP1 PUSH1 0x0 MSTORE PUSH1 0x20 PUSH1 0x0 KECCAK256 SWAP1 JUMPDEST DUP2 SLOAD DUP2 MSTORE SWAP1 PUSH1 0x1 ADD SWAP1 PUSH1 0x20 ADD DUP1 DUP4 GT PUSH2 0x4467 JUMPI DUP3 SWAP1 SUB PUSH1 0x1F AND DUP3 ADD SWAP2 JUMPDEST POP POP POP POP POP SWAP2 POP DUP1 DUP1 SLOAD PUSH2 0x4497 SWAP1 PUSH2 0x7EB7 JUMP JUMPDEST DUP1 PUSH1 0x1F ADD PUSH1 0x20 DUP1 SWAP2 DIV MUL PUSH1 0x20 ADD PUSH1 0x40 MLOAD SWAP1 DUP2 ADD PUSH1 0x40 MSTORE DUP1 SWAP3 SWAP2 SWAP1 DUP2 DUP2 MSTORE PUSH1 0x20 ADD DUP3 DUP1 SLOAD PUSH2 0x44C3 SWAP1 PUSH2 0x7EB7 JUMP JUMPDEST DUP1 ISZERO PUSH2 0x4510 JUMPI DUP1 PUSH1 0x1F LT PUSH2 0x44E5 JUMPI PUSH2 0x100 DUP1 DUP4 SLOAD DIV MUL DUP4 MSTORE SWAP2 PUSH1 0x20 ADD SWAP2 PUSH2 0x4510 JUMP JUMPDEST DUP3 ADD SWAP2 SWAP1 PUSH1 0x0 MSTORE PUSH1 0x20 PUSH1 0x0 KECCAK256 SWAP1 JUMPDEST DUP2 SLOAD DUP2 MSTORE SWAP1 PUSH1 0x1 ADD SWAP1 PUSH1 0x20 ADD DUP1 DUP4 GT PUSH2 0x44F3 JUMPI DUP3 SWAP1 SUB PUSH1 0x1F AND DUP3 ADD SWAP2 JUMPDEST POP POP POP POP POP SWAP1 POP SWAP3 POP SWAP3 POP POP SWAP4 POP SWAP4 SWAP2 POP POP JUMP JUMPDEST PUSH1 0x0 DUP1 JUMPDEST PUSH2 0x16A SLOAD DUP2 LT ISZERO PUSH2 0x4580 JUMPI PUSH1 0x0 PUSH2 0x16A DUP3 DUP2 SLOAD DUP2 LT PUSH2 0x4549 JUMPI PUSH2 0x4549 PUSH2 0x7F45 JUMP JUMPDEST PUSH1 0x0 SWAP2 DUP3 MSTORE PUSH1 0x20 SWAP1 SWAP2 KECCAK256 ADD SLOAD PUSH1 0x1 PUSH1 0x1 PUSH1 0xA0 SHL SUB AND SWAP1 POP CALLER DUP2 SWAP1 SUB PUSH2 0x456D JUMPI PUSH1 0x1 SWAP3 POP JUMPDEST POP DUP1 PUSH2 0x4578 DUP2 PUSH2 0x7F71 JUMP JUMPDEST SWAP2 POP POP PUSH2 0x4528 JUMP JUMPDEST POP PUSH1 0x1 DUP2 ISZERO ISZERO EQ DUP1 PUSH2 0x4591 JUMPI POP CALLER ADDRESS EQ JUMPDEST DUP1 PUSH2 0x45A7 JUMPI POP PUSH2 0x12D SLOAD PUSH1 0x1 PUSH1 0x1 PUSH1 0xA0 SHL SUB AND CALLER EQ JUMPDEST PUSH2 0x45C3 JUMPI PUSH1 0x40 MLOAD PUSH3 0x461BCD PUSH1 0xE5 SHL DUP2 MSTORE PUSH1 0x4 ADD PUSH2 0x13BF SWAP1 PUSH2 0x7F8A JUMP JUMPDEST PUSH2 0x173 SLOAD DUP6 LT PUSH2 0x45E5 JUMPI PUSH1 0x40 MLOAD PUSH3 0x461BCD PUSH1 0xE5 SHL DUP2 MSTORE PUSH1 0x4 ADD PUSH2 0x13BF SWAP1 PUSH2 0x8250 JUMP JUMPDEST PUSH1 0x1 PUSH1 0x1 PUSH1 0xA0 SHL SUB DUP5 AND PUSH2 0x46CA JUMPI DUP3 CALLVALUE GT PUSH2 0x45FF JUMPI PUSH1 0x0 DUP1 REVERT JUMPDEST PUSH1 0x0 PUSH2 0x460B DUP5 CALLVALUE PUSH2 0x7FEC JUMP JUMPDEST PUSH1 0x0 DUP1 MSTORE PUSH2 0x170 PUSH1 0x20 MSTORE PUSH1 0x0 DUP1 MLOAD PUSH1 0x20 PUSH2 0x88C0 DUP4 CODECOPY DUP2 MLOAD SWAP2 MSTORE SLOAD SWAP1 SWAP2 POP PUSH2 0x4633 SWAP1 DUP3 SWAP1 PUSH2 0x7FD9 JUMP JUMPDEST PUSH1 0x0 DUP1 DUP1 MSTORE PUSH2 0x170 PUSH1 0x20 MSTORE PUSH1 0x0 DUP1 MLOAD PUSH1 0x20 PUSH2 0x88C0 DUP4 CODECOPY DUP2 MLOAD SWAP2 MSTORE SWAP2 SWAP1 SWAP2 SSTORE PUSH1 0x40 MLOAD ADDRESS SWAP2 DUP7 ISZERO PUSH2 0x8FC MUL SWAP2 DUP8 SWAP2 DUP2 DUP2 DUP2 DUP6 DUP9 DUP9 CALL SWAP4 POP POP POP POP ISZERO DUP1 ISZERO PUSH2 0x467C JUMPI RETURNDATASIZE PUSH1 0x0 DUP1 RETURNDATACOPY RETURNDATASIZE PUSH1 0x0 REVERT JUMPDEST POP PUSH1 0x0 DUP7 DUP2 MSTORE PUSH2 0x171 PUSH1 0x20 SWAP1 DUP2 MSTORE PUSH1 0x40 DUP1 DUP4 KECCAK256 DUP4 DUP1 MSTORE PUSH1 0x8 ADD SWAP1 SWAP2 MSTORE SWAP1 KECCAK256 SLOAD PUSH2 0x46A6 SWAP1 DUP6 SWAP1 PUSH2 0x7FD9 JUMP JUMPDEST PUSH1 0x0 DUP8 DUP2 MSTORE PUSH2 0x171 PUSH1 0x20 SWAP1 DUP2 MSTORE PUSH1 0x40 DUP1 DUP4 KECCAK256 DUP4 DUP1 MSTORE PUSH1 0x8 ADD SWAP1 SWAP2 MSTORE SWAP1 KECCAK256 SSTORE POP PUSH2 0x4868 JUMP JUMPDEST PUSH1 0x40 MLOAD PUSH4 0x70A08231 PUSH1 0xE0 SHL DUP2 MSTORE PUSH1 0x1 PUSH1 0x1 PUSH1 0xA0 SHL SUB DUP4 DUP2 AND PUSH1 0x4 DUP4 ADD MSTORE DUP5 SWAP2 SWAP1 DUP7 AND SWAP1 PUSH4 0x70A08231 SWAP1 PUSH1 0x24 ADD PUSH1 0x20 PUSH1 0x40 MLOAD DUP1 DUP4 SUB DUP2 DUP7 GAS STATICCALL ISZERO DUP1 ISZERO PUSH2 0x4713 JUMPI RETURNDATASIZE PUSH1 0x0 DUP1 RETURNDATACOPY RETURNDATASIZE PUSH1 0x0 REVERT JUMPDEST POP POP POP POP PUSH1 0x40 MLOAD RETURNDATASIZE PUSH1 0x1F NOT PUSH1 0x1F DUP3 ADD AND DUP3 ADD DUP1 PUSH1 0x40 MSTORE POP DUP2 ADD SWAP1 PUSH2 0x4737 SWAP2 SWAP1 PUSH2 0x808D JUMP JUMPDEST LT ISZERO PUSH2 0x4755 JUMPI PUSH1 0x40 MLOAD PUSH3 0x461BCD PUSH1 0xE5 SHL DUP2 MSTORE PUSH1 0x4 ADD PUSH2 0x13BF SWAP1 PUSH2 0x7FB9 JUMP JUMPDEST PUSH1 0x0 DUP1 MSTORE PUSH2 0x170 PUSH1 0x20 MSTORE PUSH1 0x0 DUP1 MLOAD PUSH1 0x20 PUSH2 0x88C0 DUP4 CODECOPY DUP2 MLOAD SWAP2 MSTORE SLOAD PUSH2 0x477A SWAP1 CALLVALUE SWAP1 PUSH2 0x7FD9 JUMP JUMPDEST PUSH1 0x0 DUP1 MSTORE PUSH2 0x170 PUSH1 0x20 MSTORE PUSH1 0x0 DUP1 MLOAD PUSH1 0x20 PUSH2 0x88C0 DUP4 CODECOPY DUP2 MLOAD SWAP2 MSTORE SSTORE PUSH1 0x40 MLOAD PUSH4 0x23B872DD PUSH1 0xE0 SHL DUP2 MSTORE PUSH1 0x1 PUSH1 0x1 PUSH1 0xA0 SHL SUB DUP4 DUP2 AND PUSH1 0x4 DUP4 ADD MSTORE ADDRESS PUSH1 0x24 DUP4 ADD MSTORE PUSH1 0x44 DUP3 ADD DUP6 SWAP1 MSTORE DUP6 AND SWAP1 PUSH4 0x23B872DD SWAP1 PUSH1 0x64 ADD PUSH1 0x20 PUSH1 0x40 MLOAD DUP1 DUP4 SUB DUP2 PUSH1 0x0 DUP8 GAS CALL ISZERO DUP1 ISZERO PUSH2 0x47E9 JUMPI RETURNDATASIZE PUSH1 0x0 DUP1 RETURNDATACOPY RETURNDATASIZE PUSH1 0x0 REVERT JUMPDEST POP POP POP POP PUSH1 0x40 MLOAD RETURNDATASIZE PUSH1 0x1F NOT PUSH1 0x1F DUP3 ADD AND DUP3 ADD DUP1 PUSH1 0x40 MSTORE POP DUP2 ADD SWAP1 PUSH2 0x480D SWAP2 SWAP1 PUSH2 0x80A6 JUMP JUMPDEST POP PUSH1 0x0 DUP6 DUP2 MSTORE PUSH2 0x171 PUSH1 0x20 SWAP1 DUP2 MSTORE PUSH1 0x40 DUP1 DUP4 KECCAK256 PUSH1 0x1 PUSH1 0x1 PUSH1 0xA0 SHL SUB DUP9 AND DUP5 MSTORE PUSH1 0x8 ADD SWAP1 SWAP2 MSTORE SWAP1 KECCAK256 SLOAD PUSH2 0x4840 SWAP1 DUP5 SWAP1 PUSH2 0x7FD9 JUMP JUMPDEST PUSH1 0x0 DUP7 DUP2 MSTORE PUSH2 0x171 PUSH1 0x20 SWAP1 DUP2 MSTORE PUSH1 0x40 DUP1 DUP4 KECCAK256 PUSH1 0x1 PUSH1 0x1 PUSH1 0xA0 SHL SUB DUP10 AND DUP5 MSTORE PUSH1 0x8 ADD SWAP1 SWAP2 MSTORE SWAP1 KECCAK256 SSTORE JUMPDEST PUSH2 0x169A DUP6 PUSH2 0x36CD JUMP JUMPDEST PUSH1 0x0 DUP1 JUMPDEST PUSH2 0x16A SLOAD DUP2 LT ISZERO PUSH2 0x48CD JUMPI PUSH1 0x0 PUSH2 0x16A DUP3 DUP2 SLOAD DUP2 LT PUSH2 0x4896 JUMPI PUSH2 0x4896 PUSH2 0x7F45 JUMP JUMPDEST PUSH1 0x0 SWAP2 DUP3 MSTORE PUSH1 0x20 SWAP1 SWAP2 KECCAK256 ADD SLOAD PUSH1 0x1 PUSH1 0x1 PUSH1 0xA0 SHL SUB AND SWAP1 POP CALLER DUP2 SWAP1 SUB PUSH2 0x48BA JUMPI PUSH1 0x1 SWAP3 POP JUMPDEST POP DUP1 PUSH2 0x48C5 DUP2 PUSH2 0x7F71 JUMP JUMPDEST SWAP2 POP POP PUSH2 0x4875 JUMP JUMPDEST POP PUSH1 0x1 DUP2 ISZERO ISZERO EQ DUP1 PUSH2 0x48DE JUMPI POP CALLER ADDRESS EQ JUMPDEST DUP1 PUSH2 0x48F4 JUMPI POP PUSH2 0x12D SLOAD PUSH1 0x1 PUSH1 0x1 PUSH1 0xA0 SHL SUB AND CALLER EQ JUMPDEST PUSH2 0x4910 JUMPI PUSH1 0x40 MLOAD PUSH3 0x461BCD PUSH1 0xE5 SHL DUP2 MSTORE PUSH1 0x4 ADD PUSH2 0x13BF SWAP1 PUSH2 0x7F8A JUMP JUMPDEST PUSH1 0x0 PUSH2 0x491C PUSH2 0x173 SLOAD SWAP1 JUMP JUMPDEST PUSH1 0x0 DUP1 MSTORE PUSH2 0x170 PUSH1 0x20 MSTORE PUSH1 0x0 DUP1 MLOAD PUSH1 0x20 PUSH2 0x88C0 DUP4 CODECOPY DUP2 MLOAD SWAP2 MSTORE SLOAD SWAP1 SWAP2 POP PUSH2 0x4944 SWAP1 CALLVALUE SWAP1 PUSH2 0x7FD9 JUMP JUMPDEST PUSH1 0x0 DUP1 MLOAD PUSH1 0x20 PUSH2 0x88C0 DUP4 CODECOPY DUP2 MLOAD SWAP2 MSTORE SSTORE PUSH1 0x0 DUP2 DUP2 MSTORE PUSH2 0x171 PUSH1 0x20 MSTORE PUSH1 0x40 SWAP1 KECCAK256 PUSH2 0x4972 PUSH2 0x173 DUP1 SLOAD PUSH1 0x1 ADD SWAP1 SSTORE JUMP JUMPDEST PUSH2 0x497C DUP6 DUP4 PUSH2 0x6259 JUMP JUMPDEST PUSH2 0x4986 DUP3 DUP6 PUSH2 0x6273 JUMP JUMPDEST PUSH1 0x1 DUP2 ADD DUP1 SLOAD PUSH1 0x1 PUSH1 0x1 PUSH1 0xA0 SHL SUB DUP8 AND PUSH1 0x1 PUSH1 0x1 PUSH1 0xA0 SHL SUB NOT SWAP2 DUP3 AND DUP2 OR SWAP1 SWAP3 SSTORE DUP3 SLOAD AND OR DUP2 SSTORE TIMESTAMP PUSH1 0x2 DUP3 ADD DUP2 SWAP1 SSTORE PUSH2 0x49C3 SWAP1 PUSH4 0x1E13380 PUSH2 0x7FD9 JUMP JUMPDEST PUSH1 0x4 DUP3 ADD SSTORE PUSH2 0x49D1 DUP3 PUSH2 0x36CD JUMP JUMPDEST PUSH2 0x3E8 PUSH1 0x6 SWAP1 SWAP2 ADD SSTORE POP POP POP POP JUMP JUMPDEST PUSH2 0x49E8 PUSH2 0x56BD JUMP JUMPDEST PUSH1 0x0 DUP2 GT PUSH2 0x4A44 JUMPI PUSH1 0x40 MLOAD PUSH3 0x461BCD PUSH1 0xE5 SHL DUP2 MSTORE PUSH1 0x20 PUSH1 0x4 DUP3 ADD MSTORE PUSH1 0x23 PUSH1 0x24 DUP3 ADD MSTORE PUSH32 0x647374436861696E4964546F5472616E73666572476173206D75737420626520 PUSH1 0x44 DUP3 ADD MSTORE PUSH3 0x3E203 PUSH1 0xEC SHL PUSH1 0x64 DUP3 ADD MSTORE PUSH1 0x84 ADD PUSH2 0x13BF JUMP JUMPDEST PUSH2 0xFFFF DUP3 AND PUSH1 0x0 DUP2 DUP2 MSTORE PUSH2 0x168 PUSH1 0x20 SWAP1 DUP2 MSTORE PUSH1 0x40 SWAP2 DUP3 SWAP1 KECCAK256 DUP5 SWAP1 SSTORE DUP2 MLOAD SWAP3 DUP4 MSTORE DUP3 ADD DUP4 SWAP1 MSTORE PUSH32 0xC46DF2983228AC2D9754E94A0D565E6671665DC8AD38602BC8E544F0685A29FB SWAP2 ADD PUSH2 0x3E13 JUMP JUMPDEST PUSH2 0xFFFF DUP7 AND PUSH1 0x0 SWAP1 DUP2 MSTORE PUSH2 0x164 PUSH1 0x20 MSTORE PUSH1 0x40 DUP1 DUP3 KECCAK256 SWAP1 MLOAD PUSH2 0x4AB5 SWAP1 DUP9 SWAP1 DUP9 SWAP1 PUSH2 0x7EF1 JUMP JUMPDEST SWAP1 DUP2 MSTORE PUSH1 0x40 DUP1 MLOAD PUSH1 0x20 SWAP3 DUP2 SWAP1 SUB DUP4 ADD SWAP1 KECCAK256 PUSH1 0x1 PUSH1 0x1 PUSH1 0x40 SHL SUB DUP8 AND PUSH1 0x0 SWAP1 DUP2 MSTORE SWAP3 MSTORE SWAP1 KECCAK256 SLOAD SWAP1 POP DUP1 PUSH2 0x4B35 JUMPI PUSH1 0x40 MLOAD PUSH3 0x461BCD PUSH1 0xE5 SHL DUP2 MSTORE PUSH1 0x20 PUSH1 0x4 DUP3 ADD MSTORE PUSH1 0x23 PUSH1 0x24 DUP3 ADD MSTORE PUSH32 0x4E6F6E626C6F636B696E674C7A4170703A206E6F2073746F726564206D657373 PUSH1 0x44 DUP3 ADD MSTORE PUSH3 0x616765 PUSH1 0xE8 SHL PUSH1 0x64 DUP3 ADD MSTORE PUSH1 0x84 ADD PUSH2 0x13BF JUMP JUMPDEST DUP1 DUP4 DUP4 PUSH1 0x40 MLOAD PUSH2 0x4B46 SWAP3 SWAP2 SWAP1 PUSH2 0x7EF1 JUMP JUMPDEST PUSH1 0x40 MLOAD DUP1 SWAP2 SUB SWAP1 KECCAK256 EQ PUSH2 0x4BA5 JUMPI PUSH1 0x40 MLOAD PUSH3 0x461BCD PUSH1 0xE5 SHL DUP2 MSTORE PUSH1 0x20 PUSH1 0x4 DUP3 ADD MSTORE PUSH1 0x21 PUSH1 0x24 DUP3 ADD MSTORE PUSH32 0x4E6F6E626C6F636B696E674C7A4170703A20696E76616C6964207061796C6F61 PUSH1 0x44 DUP3 ADD MSTORE PUSH1 0x19 PUSH1 0xFA SHL PUSH1 0x64 DUP3 ADD MSTORE PUSH1 0x84 ADD PUSH2 0x13BF JUMP JUMPDEST PUSH2 0xFFFF DUP8 AND PUSH1 0x0 SWAP1 DUP2 MSTORE PUSH2 0x164 PUSH1 0x20 MSTORE PUSH1 0x40 DUP1 DUP3 KECCAK256 SWAP1 MLOAD PUSH2 0x4BC9 SWAP1 DUP10 SWAP1 DUP10 SWAP1 PUSH2 0x7EF1 JUMP JUMPDEST SWAP1 DUP2 MSTORE PUSH1 0x40 DUP1 MLOAD PUSH1 0x20 SWAP3 DUP2 SWAP1 SUB DUP4 ADD DUP2 KECCAK256 PUSH1 0x1 PUSH1 0x1 PUSH1 0x40 SHL SUB DUP10 AND PUSH1 0x0 SWAP1 DUP2 MSTORE SWAP1 DUP5 MSTORE DUP3 SWAP1 KECCAK256 SWAP4 SWAP1 SWAP4 SSTORE PUSH1 0x1F DUP9 ADD DUP3 SWAP1 DIV DUP3 MUL DUP4 ADD DUP3 ADD SWAP1 MSTORE DUP7 DUP3 MSTORE PUSH2 0x4C61 SWAP2 DUP10 SWAP2 DUP10 SWAP1 DUP10 SWAP1 DUP2 SWAP1 DUP5 ADD DUP4 DUP3 DUP1 DUP3 DUP5 CALLDATACOPY PUSH1 0x0 SWAP3 ADD SWAP2 SWAP1 SWAP2 MSTORE POP POP PUSH1 0x40 DUP1 MLOAD PUSH1 0x20 PUSH1 0x1F DUP11 ADD DUP2 SWAP1 DIV DUP2 MUL DUP3 ADD DUP2 ADD SWAP1 SWAP3 MSTORE DUP9 DUP2 MSTORE DUP11 SWAP4 POP SWAP2 POP DUP9 SWAP1 DUP9 SWAP1 DUP2 SWAP1 DUP5 ADD DUP4 DUP3 DUP1 DUP3 DUP5 CALLDATACOPY PUSH1 0x0 SWAP3 ADD SWAP2 SWAP1 SWAP2 MSTORE POP PUSH2 0x5C11 SWAP3 POP POP POP JUMP JUMPDEST PUSH32 0xC264D91F3ADC5588250E1551F547752CA0CFA8F6B530D243B9F9F4CAB10EA8E5 DUP8 DUP8 DUP8 DUP8 DUP6 PUSH1 0x40 MLOAD PUSH2 0x4C98 SWAP6 SWAP5 SWAP4 SWAP3 SWAP2 SWAP1 PUSH2 0x83F9 JUMP JUMPDEST PUSH1 0x40 MLOAD DUP1 SWAP2 SUB SWAP1 LOG1 POP POP POP POP POP POP POP JUMP JUMPDEST PUSH1 0x0 DUP2 DUP2 MSTORE PUSH2 0x171 PUSH1 0x20 MSTORE PUSH1 0x40 DUP2 KECCAK256 PUSH1 0x4 ADD SLOAD TIMESTAMP GT ISZERO PUSH2 0x4CCB JUMPI POP PUSH1 0x1 SWAP2 SWAP1 POP JUMP JUMPDEST POP PUSH1 0x0 SWAP2 SWAP1 POP JUMP JUMPDEST PUSH1 0x0 DUP4 DUP2 MSTORE PUSH2 0x171 PUSH1 0x20 MSTORE PUSH1 0x40 SWAP1 KECCAK256 PUSH1 0x1 ADD SLOAD PUSH1 0x1 PUSH1 0x1 PUSH1 0xA0 SHL SUB AND CALLER EQ DUP1 PUSH2 0x4D13 JUMPI POP PUSH1 0x0 DUP4 DUP2 MSTORE PUSH2 0x171 PUSH1 0x20 MSTORE PUSH1 0x40 SWAP1 KECCAK256 SLOAD PUSH1 0x1 PUSH1 0x1 PUSH1 0xA0 SHL SUB AND CALLER EQ JUMPDEST PUSH2 0x4D2F JUMPI PUSH1 0x40 MLOAD PUSH3 0x461BCD PUSH1 0xE5 SHL DUP2 MSTORE PUSH1 0x4 ADD PUSH2 0x13BF SWAP1 PUSH2 0x8063 JUMP JUMPDEST PUSH1 0x0 DUP4 DUP2 MSTORE PUSH2 0x171 PUSH1 0x20 SWAP1 DUP2 MSTORE PUSH1 0x40 DUP1 DUP4 KECCAK256 DUP6 DUP5 MSTORE PUSH1 0x9 ADD SWAP1 SWAP2 MSTORE SWAP1 KECCAK256 PUSH1 0x2 ADD SLOAD PUSH1 0x1 PUSH1 0x1 PUSH1 0xA0 SHL SUB AND CALLER EQ DUP1 ISZERO PUSH2 0x4D85 JUMPI POP PUSH1 0x0 DUP4 DUP2 MSTORE PUSH2 0x171 PUSH1 0x20 SWAP1 DUP2 MSTORE PUSH1 0x40 DUP1 DUP4 KECCAK256 DUP6 DUP5 MSTORE PUSH1 0x9 ADD SWAP1 SWAP2 MSTORE SWAP1 KECCAK256 SLOAD PUSH1 0xFF AND ISZERO JUMPDEST PUSH2 0x4DA1 JUMPI PUSH1 0x40 MLOAD PUSH3 0x461BCD PUSH1 0xE5 SHL DUP2 MSTORE PUSH1 0x4 ADD PUSH2 0x13BF SWAP1 PUSH2 0x80C3 JUMP JUMPDEST PUSH2 0x4DAA DUP4 PUSH2 0x36CD JUMP JUMPDEST PUSH1 0x0 DUP4 DUP2 MSTORE PUSH2 0x172 PUSH1 0x20 MSTORE PUSH1 0x40 DUP2 KECCAK256 DUP4 SWAP1 SSTORE JUMPDEST PUSH1 0x0 DUP5 DUP2 MSTORE PUSH2 0x172 PUSH1 0x20 MSTORE PUSH1 0x40 SWAP1 KECCAK256 PUSH1 0x2 ADD SLOAD DUP2 LT ISZERO PUSH2 0x4E91 JUMPI PUSH1 0x0 DUP5 DUP2 MSTORE PUSH2 0x172 PUSH1 0x20 MSTORE PUSH1 0x40 DUP2 KECCAK256 PUSH1 0x2 ADD DUP1 SLOAD DUP4 SWAP1 DUP2 LT PUSH2 0x4DFB JUMPI PUSH2 0x4DFB PUSH2 0x7F45 JUMP JUMPDEST PUSH1 0x0 SWAP2 DUP3 MSTORE PUSH1 0x20 SWAP1 SWAP2 KECCAK256 ADD SLOAD PUSH1 0x1 PUSH1 0x1 PUSH1 0xA0 SHL SUB SWAP1 DUP2 AND SWAP2 POP DUP4 AND DUP2 SUB PUSH2 0x4E7E JUMPI PUSH1 0x0 DUP6 DUP2 MSTORE PUSH2 0x172 PUSH1 0x20 MSTORE PUSH1 0x40 SWAP1 KECCAK256 PUSH1 0x2 ADD DUP1 SLOAD DUP4 SWAP1 DUP2 LT PUSH2 0x4E40 JUMPI PUSH2 0x4E40 PUSH2 0x7F45 JUMP JUMPDEST PUSH1 0x0 SWAP2 DUP3 MSTORE PUSH1 0x20 DUP1 DUP4 KECCAK256 SWAP1 SWAP2 ADD DUP1 SLOAD PUSH1 0x1 PUSH1 0x1 PUSH1 0xA0 SHL SUB NOT AND SWAP1 SSTORE DUP7 DUP3 MSTORE PUSH2 0x172 SWAP1 MSTORE PUSH1 0x40 SWAP1 KECCAK256 PUSH1 0x1 SWAP1 DUP2 ADD SLOAD PUSH2 0x4E77 SWAP2 SWAP1 PUSH2 0x7FEC JUMP JUMPDEST POP POP PUSH2 0x4E91 JUMP JUMPDEST POP DUP1 PUSH2 0x4E89 DUP2 PUSH2 0x7F71 JUMP JUMPDEST SWAP2 POP POP PUSH2 0x4DBD JUMP JUMPDEST POP PUSH1 0x0 DUP4 DUP2 MSTORE PUSH2 0x172 PUSH1 0x20 MSTORE PUSH1 0x40 SWAP1 KECCAK256 PUSH1 0x1 SWAP1 DUP2 ADD SLOAD PUSH2 0x4140 SWAP2 SWAP1 PUSH2 0x7FEC JUMP JUMPDEST PUSH2 0x4EB9 PUSH2 0x56BD JUMP JUMPDEST PUSH2 0x16F DUP1 SLOAD PUSH1 0xFF NOT AND SWAP1 SSTORE JUMP JUMPDEST PUSH2 0x4ECE PUSH2 0x56BD JUMP JUMPDEST PUSH2 0xFFFF DUP4 DUP2 AND PUSH1 0x0 DUP2 DUP2 MSTORE PUSH2 0x161 PUSH1 0x20 SWAP1 DUP2 MSTORE PUSH1 0x40 DUP1 DUP4 KECCAK256 SWAP5 DUP8 AND DUP1 DUP5 MSTORE SWAP5 DUP3 MSTORE SWAP2 DUP3 SWAP1 KECCAK256 DUP6 SWAP1 SSTORE DUP2 MLOAD SWAP3 DUP4 MSTORE DUP3 ADD SWAP3 SWAP1 SWAP3 MSTORE SWAP1 DUP2 ADD DUP3 SWAP1 MSTORE PUSH32 0x9D5C7C0B934DA8FEFA9C7760C98383778A12DFBFC0C3B3106518F43FB9508AC0 SWAP1 PUSH1 0x60 ADD PUSH2 0x3FBE JUMP JUMPDEST PUSH2 0x4F39 PUSH2 0x56BD JUMP JUMPDEST PUSH2 0xFFFF DUP4 AND PUSH1 0x0 SWAP1 DUP2 MSTORE PUSH2 0x160 PUSH1 0x20 MSTORE PUSH1 0x40 SWAP1 KECCAK256 PUSH2 0x4F58 DUP3 DUP5 DUP4 PUSH2 0x8434 JUMP JUMPDEST POP PUSH32 0xFA41487AD5D6728F0B19276FA1EDDC16558578F5109FC39D2DC33C3230470DAB DUP4 DUP4 DUP4 PUSH1 0x40 MLOAD PUSH2 0x3FBE SWAP4 SWAP3 SWAP2 SWAP1 PUSH2 0x812D JUMP JUMPDEST PUSH1 0x0 DUP1 JUMPDEST PUSH2 0x16A SLOAD DUP2 LT ISZERO PUSH2 0x4FE8 JUMPI PUSH1 0x0 PUSH2 0x16A DUP3 DUP2 SLOAD DUP2 LT PUSH2 0x4FB1 JUMPI PUSH2 0x4FB1 PUSH2 0x7F45 JUMP JUMPDEST PUSH1 0x0 SWAP2 DUP3 MSTORE PUSH1 0x20 SWAP1 SWAP2 KECCAK256 ADD SLOAD PUSH1 0x1 PUSH1 0x1 PUSH1 0xA0 SHL SUB AND SWAP1 POP CALLER DUP2 SWAP1 SUB PUSH2 0x4FD5 JUMPI PUSH1 0x1 SWAP3 POP JUMPDEST POP DUP1 PUSH2 0x4FE0 DUP2 PUSH2 0x7F71 JUMP JUMPDEST SWAP2 POP POP PUSH2 0x4F90 JUMP JUMPDEST POP PUSH1 0x1 DUP2 ISZERO ISZERO EQ DUP1 PUSH2 0x4FF9 JUMPI POP CALLER ADDRESS EQ JUMPDEST DUP1 PUSH2 0x500F JUMPI POP PUSH2 0x12D SLOAD PUSH1 0x1 PUSH1 0x1 PUSH1 0xA0 SHL SUB AND CALLER EQ JUMPDEST PUSH2 0x502B JUMPI PUSH1 0x40 MLOAD PUSH3 0x461BCD PUSH1 0xE5 SHL DUP2 MSTORE PUSH1 0x4 ADD PUSH2 0x13BF SWAP1 PUSH2 0x7F8A JUMP JUMPDEST PUSH1 0x0 DUP5 DUP2 MSTORE PUSH2 0x171 PUSH1 0x20 MSTORE PUSH1 0x40 SWAP1 KECCAK256 PUSH1 0x6 DUP2 ADD SLOAD PUSH1 0x5 DUP3 ADD SLOAD GT ISZERO PUSH2 0x5080 JUMPI PUSH1 0x40 MLOAD PUSH3 0x461BCD PUSH1 0xE5 SHL DUP2 MSTORE PUSH1 0x20 PUSH1 0x4 DUP3 ADD MSTORE PUSH1 0xB PUSH1 0x24 DUP3 ADD MSTORE PUSH11 0x1CDB1BDD08195E18D95959 PUSH1 0xAA SHL PUSH1 0x44 DUP3 ADD MSTORE PUSH1 0x64 ADD PUSH2 0x13BF JUMP JUMPDEST PUSH1 0x0 DUP5 DUP2 MSTORE PUSH1 0x9 DUP3 ADD PUSH1 0x20 MSTORE PUSH1 0x40 SWAP1 KECCAK256 PUSH1 0x2 ADD SLOAD PUSH1 0x1 PUSH1 0x1 PUSH1 0xA0 SHL SUB DUP5 DUP2 AND SWAP2 AND EQ DUP1 ISZERO PUSH2 0x50BD JUMPI POP PUSH1 0x1 DUP2 ADD SLOAD PUSH1 0x1 PUSH1 0x1 PUSH1 0xA0 SHL SUB DUP5 DUP2 AND SWAP2 AND EQ JUMPDEST PUSH2 0x5109 JUMPI PUSH1 0x40 MLOAD PUSH3 0x461BCD PUSH1 0xE5 SHL DUP2 MSTORE PUSH1 0x20 PUSH1 0x4 DUP3 ADD MSTORE PUSH1 0x17 PUSH1 0x24 DUP3 ADD MSTORE PUSH32 0x646964206E6F742073746F7265206461746120736C6F74000000000000000000 PUSH1 0x44 DUP3 ADD MSTORE PUSH1 0x64 ADD PUSH2 0x13BF JUMP JUMPDEST PUSH1 0x1 DUP2 PUSH1 0x5 ADD SLOAD PUSH2 0x511A SWAP2 SWAP1 PUSH2 0x7FEC JUMP JUMPDEST POP PUSH2 0x5124 DUP6 PUSH2 0x36CD JUMP JUMPDEST PUSH1 0x0 SWAP4 DUP5 MSTORE PUSH1 0x9 ADD PUSH1 0x20 MSTORE POP POP PUSH1 0x40 SWAP1 KECCAK256 DUP1 SLOAD PUSH1 0xFF NOT AND PUSH1 0x1 OR SWAP1 SSTORE POP JUMP JUMPDEST PUSH1 0x0 DUP3 DUP2 MSTORE PUSH2 0x171 PUSH1 0x20 MSTORE PUSH1 0x40 SWAP1 KECCAK256 PUSH1 0x1 DUP2 ADD SLOAD PUSH1 0x60 SWAP2 DUP3 SWAP2 PUSH1 0x1 PUSH1 0x1 PUSH1 0xA0 SHL SUB AND CALLER EQ DUP1 ISZERO PUSH2 0x518E JUMPI POP PUSH1 0x0 DUP5 DUP2 MSTORE PUSH1 0x9 DUP3 ADD PUSH1 0x20 MSTORE PUSH1 0x40 SWAP1 KECCAK256 PUSH1 0x2 ADD SLOAD PUSH1 0x1 PUSH1 0x1 PUSH1 0xA0 SHL SUB AND CALLER EQ JUMPDEST DUP1 PUSH2 0x51A5 JUMPI POP PUSH2 0x519F CALLER DUP7 DUP7 PUSH2 0x3177 JUMP JUMPDEST ISZERO ISZERO PUSH1 0x1 EQ JUMPDEST PUSH2 0x51EC JUMPI PUSH1 0x40 MLOAD PUSH3 0x461BCD PUSH1 0xE5 SHL DUP2 MSTORE PUSH1 0x20 PUSH1 0x4 DUP3 ADD MSTORE PUSH1 0x18 PUSH1 0x24 DUP3 ADD MSTORE PUSH24 0x1B9BDD081BDDDB995C881BD9881A5908185B99081CDB1BDD PUSH1 0x42 SHL PUSH1 0x44 DUP3 ADD MSTORE PUSH1 0x64 ADD PUSH2 0x13BF JUMP JUMPDEST PUSH1 0x0 DUP5 DUP2 MSTORE PUSH1 0x9 DUP3 ADD PUSH1 0x20 MSTORE PUSH1 0x40 SWAP1 KECCAK256 SLOAD PUSH1 0xFF AND ISZERO PUSH2 0x523C JUMPI PUSH1 0x40 MLOAD PUSH3 0x461BCD PUSH1 0xE5 SHL DUP2 MSTORE PUSH1 0x20 PUSH1 0x4 DUP3 ADD MSTORE PUSH1 0xC PUSH1 0x24 DUP3 ADD MSTORE PUSH12 0x11195B195D19590814DB1BDD PUSH1 0xA2 SHL PUSH1 0x44 DUP3 ADD MSTORE PUSH1 0x64 ADD PUSH2 0x13BF JUMP JUMPDEST PUSH1 0x0 DUP5 DUP2 MSTORE PUSH1 0x9 DUP3 ADD PUSH1 0x20 MSTORE PUSH1 0x40 SWAP1 KECCAK256 PUSH1 0x1 DUP2 ADD DUP1 SLOAD SWAP1 SWAP2 PUSH1 0x3 ADD SWAP1 DUP3 SWAP1 PUSH2 0x5263 SWAP1 PUSH2 0x7EB7 JUMP JUMPDEST DUP1 PUSH1 0x1F ADD PUSH1 0x20 DUP1 SWAP2 DIV MUL PUSH1 0x20 ADD PUSH1 0x40 MLOAD SWAP1 DUP2 ADD PUSH1 0x40 MSTORE DUP1 SWAP3 SWAP2 SWAP1 DUP2 DUP2 MSTORE PUSH1 0x20 ADD DUP3 DUP1 SLOAD PUSH2 0x528F SWAP1 PUSH2 0x7EB7 JUMP JUMPDEST DUP1 ISZERO PUSH2 0x52DC JUMPI DUP1 PUSH1 0x1F LT PUSH2 0x52B1 JUMPI PUSH2 0x100 DUP1 DUP4 SLOAD DIV MUL DUP4 MSTORE SWAP2 PUSH1 0x20 ADD SWAP2 PUSH2 0x52DC JUMP JUMPDEST DUP3 ADD SWAP2 SWAP1 PUSH1 0x0 MSTORE PUSH1 0x20 PUSH1 0x0 KECCAK256 SWAP1 JUMPDEST DUP2 SLOAD DUP2 MSTORE SWAP1 PUSH1 0x1 ADD SWAP1 PUSH1 0x20 ADD DUP1 DUP4 GT PUSH2 0x52BF JUMPI DUP3 SWAP1 SUB PUSH1 0x1F AND DUP3 ADD SWAP2 JUMPDEST POP POP POP POP POP SWAP2 POP DUP1 DUP1 SLOAD PUSH2 0x52EF SWAP1 PUSH2 0x7EB7 JUMP JUMPDEST DUP1 PUSH1 0x1F ADD PUSH1 0x20 DUP1 SWAP2 DIV MUL PUSH1 0x20 ADD PUSH1 0x40 MLOAD SWAP1 DUP2 ADD PUSH1 0x40 MSTORE DUP1 SWAP3 SWAP2 SWAP1 DUP2 DUP2 MSTORE PUSH1 0x20 ADD DUP3 DUP1 SLOAD PUSH2 0x531B SWAP1 PUSH2 0x7EB7 JUMP JUMPDEST DUP1 ISZERO PUSH2 0x5368 JUMPI DUP1 PUSH1 0x1F LT PUSH2 0x533D JUMPI PUSH2 0x100 DUP1 DUP4 SLOAD DIV MUL DUP4 MSTORE SWAP2 PUSH1 0x20 ADD SWAP2 PUSH2 0x5368 JUMP JUMPDEST DUP3 ADD SWAP2 SWAP1 PUSH1 0x0 MSTORE PUSH1 0x20 PUSH1 0x0 KECCAK256 SWAP1 JUMPDEST DUP2 SLOAD DUP2 MSTORE SWAP1 PUSH1 0x1 ADD SWAP1 PUSH1 0x20 ADD DUP1 DUP4 GT PUSH2 0x534B JUMPI DUP3 SWAP1 SUB PUSH1 0x1F AND DUP3 ADD SWAP2 JUMPDEST POP POP POP POP POP SWAP1 POP SWAP3 POP SWAP3 POP POP JUMPDEST SWAP3 POP SWAP3 SWAP1 POP JUMP JUMPDEST PUSH1 0x0 DUP1 PUSH1 0x0 DUP7 DUP7 PUSH1 0x40 MLOAD PUSH1 0x20 ADD PUSH2 0x5394 SWAP3 SWAP2 SWAP1 PUSH2 0x852E JUMP JUMPDEST PUSH1 0x40 DUP1 MLOAD PUSH1 0x1F NOT DUP2 DUP5 SUB ADD DUP2 MSTORE SWAP1 DUP3 SWAP1 MSTORE PUSH2 0x15F SLOAD PUSH4 0x40A7BB1 PUSH1 0xE4 SHL DUP4 MSTORE SWAP1 SWAP3 POP PUSH1 0x1 PUSH1 0x1 PUSH1 0xA0 SHL SUB AND SWAP1 PUSH4 0x40A7BB10 SWAP1 PUSH2 0x53DC SWAP1 DUP12 SWAP1 ADDRESS SWAP1 DUP7 SWAP1 DUP12 SWAP1 DUP12 SWAP1 PUSH1 0x4 ADD PUSH2 0x8553 JUMP JUMPDEST PUSH1 0x40 DUP1 MLOAD DUP1 DUP4 SUB DUP2 DUP7 GAS STATICCALL ISZERO DUP1 ISZERO PUSH2 0x53F8 JUMPI RETURNDATASIZE PUSH1 0x0 DUP1 RETURNDATACOPY RETURNDATASIZE PUSH1 0x0 REVERT JUMPDEST POP POP POP POP PUSH1 0x40 MLOAD RETURNDATASIZE PUSH1 0x1F NOT PUSH1 0x1F DUP3 ADD AND DUP3 ADD DUP1 PUSH1 0x40 MSTORE POP DUP2 ADD SWAP1 PUSH2 0x541C SWAP2 SWAP1 PUSH2 0x85A7 JUMP JUMPDEST SWAP3 POP SWAP3 POP POP SWAP6 POP SWAP6 SWAP4 POP POP POP POP JUMP JUMPDEST PUSH2 0x5433 PUSH2 0x56BD JUMP JUMPDEST PUSH1 0x1 PUSH1 0x1 PUSH1 0xA0 SHL SUB DUP2 AND PUSH2 0x5498 JUMPI PUSH1 0x40 MLOAD PUSH3 0x461BCD PUSH1 0xE5 SHL DUP2 MSTORE PUSH1 0x20 PUSH1 0x4 DUP3 ADD MSTORE PUSH1 0x26 PUSH1 0x24 DUP3 ADD MSTORE PUSH32 0x4F776E61626C653A206E6577206F776E657220697320746865207A65726F2061 PUSH1 0x44 DUP3 ADD MSTORE PUSH6 0x646472657373 PUSH1 0xD0 SHL PUSH1 0x64 DUP3 ADD MSTORE PUSH1 0x84 ADD PUSH2 0x13BF JUMP JUMPDEST PUSH2 0x22BC DUP2 PUSH2 0x5D69 JUMP JUMPDEST PUSH2 0x15F SLOAD PUSH1 0x40 MLOAD PUSH4 0x3D7B2F6F PUSH1 0xE2 SHL DUP2 MSTORE PUSH2 0xFFFF DUP1 DUP8 AND PUSH1 0x4 DUP4 ADD MSTORE DUP6 AND PUSH1 0x24 DUP3 ADD MSTORE ADDRESS PUSH1 0x44 DUP3 ADD MSTORE PUSH1 0x64 DUP2 ADD DUP4 SWAP1 MSTORE PUSH1 0x60 SWAP2 PUSH1 0x1 PUSH1 0x1 PUSH1 0xA0 SHL SUB AND SWAP1 PUSH4 0xF5ECBDBC SWAP1 PUSH1 0x84 ADD PUSH1 0x0 PUSH1 0x40 MLOAD DUP1 DUP4 SUB DUP2 DUP7 GAS STATICCALL ISZERO DUP1 ISZERO PUSH2 0x5504 JUMPI RETURNDATASIZE PUSH1 0x0 DUP1 RETURNDATACOPY RETURNDATASIZE PUSH1 0x0 REVERT JUMPDEST POP POP POP POP PUSH1 0x40 MLOAD RETURNDATASIZE PUSH1 0x0 DUP3 RETURNDATACOPY PUSH1 0x1F RETURNDATASIZE SWAP1 DUP2 ADD PUSH1 0x1F NOT AND DUP3 ADD PUSH1 0x40 MSTORE PUSH2 0x552C SWAP2 SWAP1 DUP2 ADD SWAP1 PUSH2 0x85CB JUMP JUMPDEST SWAP1 POP JUMPDEST SWAP5 SWAP4 POP POP POP POP JUMP JUMPDEST PUSH1 0x0 DUP1 JUMPDEST PUSH2 0x16A SLOAD DUP2 LT ISZERO PUSH2 0x5593 JUMPI PUSH1 0x0 PUSH2 0x16A DUP3 DUP2 SLOAD DUP2 LT PUSH2 0x555C JUMPI PUSH2 0x555C PUSH2 0x7F45 JUMP JUMPDEST PUSH1 0x0 SWAP2 DUP3 MSTORE PUSH1 0x20 SWAP1 SWAP2 KECCAK256 ADD SLOAD PUSH1 0x1 PUSH1 0x1 PUSH1 0xA0 SHL SUB AND SWAP1 POP CALLER DUP2 SWAP1 SUB PUSH2 0x5580 JUMPI PUSH1 0x1 SWAP3 POP JUMPDEST POP DUP1 PUSH2 0x558B DUP2 PUSH2 0x7F71 JUMP JUMPDEST SWAP2 POP POP PUSH2 0x553B JUMP JUMPDEST POP PUSH1 0x1 DUP2 ISZERO ISZERO EQ DUP1 PUSH2 0x55A4 JUMPI POP CALLER ADDRESS EQ JUMPDEST DUP1 PUSH2 0x55BA JUMPI POP PUSH2 0x12D SLOAD PUSH1 0x1 PUSH1 0x1 PUSH1 0xA0 SHL SUB AND CALLER EQ JUMPDEST PUSH2 0x55D6 JUMPI PUSH1 0x40 MLOAD PUSH3 0x461BCD PUSH1 0xE5 SHL DUP2 MSTORE PUSH1 0x4 ADD PUSH2 0x13BF SWAP1 PUSH2 0x7F8A JUMP JUMPDEST PUSH1 0x0 DUP3 DUP2 MSTORE PUSH2 0x171 PUSH1 0x20 MSTORE PUSH1 0x40 SWAP1 KECCAK256 PUSH1 0x6 ADD SLOAD PUSH2 0x55F4 SWAP1 DUP5 SWAP1 PUSH2 0x7FD9 JUMP JUMPDEST PUSH1 0x0 SWAP3 DUP4 MSTORE PUSH2 0x171 PUSH1 0x20 MSTORE PUSH1 0x40 SWAP1 SWAP3 KECCAK256 PUSH1 0x6 ADD SWAP2 SWAP1 SWAP2 SSTORE POP POP JUMP JUMPDEST PUSH1 0x0 DUP1 PUSH2 0x5672 GAS PUSH1 0x96 PUSH4 0x66AD5C8A PUSH1 0xE0 SHL DUP10 DUP10 DUP10 DUP10 PUSH1 0x40 MLOAD PUSH1 0x24 ADD PUSH2 0x5637 SWAP5 SWAP4 SWAP3 SWAP2 SWAP1 PUSH2 0x85FF JUMP JUMPDEST PUSH1 0x40 DUP1 MLOAD PUSH1 0x1F NOT DUP2 DUP5 SUB ADD DUP2 MSTORE SWAP2 SWAP1 MSTORE PUSH1 0x20 DUP2 ADD DUP1 MLOAD PUSH1 0x1 PUSH1 0x1 PUSH1 0xE0 SHL SUB AND PUSH1 0x1 PUSH1 0x1 PUSH1 0xE0 SHL SUB NOT SWAP1 SWAP4 AND SWAP3 SWAP1 SWAP3 OR SWAP1 SWAP2 MSTORE ADDRESS SWAP3 SWAP2 SWAP1 PUSH2 0x6328 JUMP JUMPDEST SWAP2 POP SWAP2 POP DUP2 PUSH2 0x29BE JUMPI PUSH2 0x29BE DUP7 DUP7 DUP7 DUP7 DUP6 PUSH2 0x63B2 JUMP JUMPDEST PUSH1 0x0 PUSH1 0x1 PUSH1 0x1 PUSH1 0xE0 SHL SUB NOT DUP3 AND PUSH4 0x22BAC5D9 PUSH1 0xE0 SHL EQ DUP1 PUSH2 0x159B JUMPI POP PUSH4 0x1FFC9A7 PUSH1 0xE0 SHL PUSH1 0x1 PUSH1 0x1 PUSH1 0xE0 SHL SUB NOT DUP4 AND EQ PUSH2 0x159B JUMP JUMPDEST PUSH2 0x12D SLOAD PUSH1 0x1 PUSH1 0x1 PUSH1 0xA0 SHL SUB AND CALLER EQ PUSH2 0x2B92 JUMPI PUSH1 0x40 MLOAD PUSH3 0x461BCD PUSH1 0xE5 SHL DUP2 MSTORE PUSH1 0x20 PUSH1 0x4 DUP3 ADD DUP2 SWAP1 MSTORE PUSH1 0x24 DUP3 ADD MSTORE PUSH32 0x4F776E61626C653A2063616C6C6572206973206E6F7420746865206F776E6572 PUSH1 0x44 DUP3 ADD MSTORE PUSH1 0x64 ADD PUSH2 0x13BF JUMP JUMPDEST PUSH2 0x5721 DUP2 PUSH2 0x6450 JUMP JUMPDEST PUSH2 0x22BC JUMPI PUSH1 0x40 MLOAD PUSH3 0x461BCD PUSH1 0xE5 SHL DUP2 MSTORE PUSH1 0x20 PUSH1 0x4 DUP3 ADD MSTORE PUSH1 0x18 PUSH1 0x24 DUP3 ADD MSTORE PUSH24 0x115490CDCC8C4E881A5B9D985B1A59081D1BDAD95B881251 PUSH1 0x42 SHL PUSH1 0x44 DUP3 ADD MSTORE PUSH1 0x64 ADD PUSH2 0x13BF JUMP JUMPDEST PUSH1 0x0 DUP2 DUP2 MSTORE PUSH1 0x69 PUSH1 0x20 MSTORE PUSH1 0x40 SWAP1 KECCAK256 DUP1 SLOAD PUSH1 0x1 PUSH1 0x1 PUSH1 0xA0 SHL SUB NOT AND PUSH1 0x1 PUSH1 0x1 PUSH1 0xA0 SHL SUB DUP5 AND SWAP1 DUP2 OR SWAP1 SWAP2 SSTORE DUP2 SWAP1 PUSH2 0x579D DUP3 PUSH2 0x29C6 JUMP JUMPDEST PUSH1 0x1 PUSH1 0x1 PUSH1 0xA0 SHL SUB AND PUSH32 0x8C5BE1E5EBEC7D5BD14F71427D1E84F3DD0314C0F7B2291E5B200AC8C7C3B925 PUSH1 0x40 MLOAD PUSH1 0x40 MLOAD DUP1 SWAP2 SUB SWAP1 LOG4 POP POP JUMP JUMPDEST PUSH1 0x0 DUP1 PUSH2 0x57E2 DUP4 PUSH2 0x29C6 JUMP JUMPDEST SWAP1 POP DUP1 PUSH1 0x1 PUSH1 0x1 PUSH1 0xA0 SHL SUB AND DUP5 PUSH1 0x1 PUSH1 0x1 PUSH1 0xA0 SHL SUB AND EQ DUP1 PUSH2 0x5829 JUMPI POP PUSH1 0x1 PUSH1 0x1 PUSH1 0xA0 SHL SUB DUP1 DUP3 AND PUSH1 0x0 SWAP1 DUP2 MSTORE PUSH1 0x6A PUSH1 0x20 SWAP1 DUP2 MSTORE PUSH1 0x40 DUP1 DUP4 KECCAK256 SWAP4 DUP9 AND DUP4 MSTORE SWAP3 SWAP1 MSTORE KECCAK256 SLOAD PUSH1 0xFF AND JUMPDEST DUP1 PUSH2 0x552F JUMPI POP DUP4 PUSH1 0x1 PUSH1 0x1 PUSH1 0xA0 SHL SUB AND PUSH2 0x5842 DUP5 PUSH2 0x16A1 JUMP JUMPDEST PUSH1 0x1 PUSH1 0x1 PUSH1 0xA0 SHL SUB AND EQ SWAP5 SWAP4 POP POP POP POP JUMP JUMPDEST DUP3 PUSH1 0x1 PUSH1 0x1 PUSH1 0xA0 SHL SUB AND PUSH2 0x5867 DUP3 PUSH2 0x29C6 JUMP JUMPDEST PUSH1 0x1 PUSH1 0x1 PUSH1 0xA0 SHL SUB AND EQ PUSH2 0x588D JUMPI PUSH1 0x40 MLOAD PUSH3 0x461BCD PUSH1 0xE5 SHL DUP2 MSTORE PUSH1 0x4 ADD PUSH2 0x13BF SWAP1 PUSH2 0x863D JUMP JUMPDEST PUSH1 0x1 PUSH1 0x1 PUSH1 0xA0 SHL SUB DUP3 AND PUSH2 0x58EF JUMPI PUSH1 0x40 MLOAD PUSH3 0x461BCD PUSH1 0xE5 SHL DUP2 MSTORE PUSH1 0x20 PUSH1 0x4 DUP3 ADD MSTORE PUSH1 0x24 DUP1 DUP3 ADD MSTORE PUSH32 0x4552433732313A207472616E7366657220746F20746865207A65726F20616464 PUSH1 0x44 DUP3 ADD MSTORE PUSH4 0x72657373 PUSH1 0xE0 SHL PUSH1 0x64 DUP3 ADD MSTORE PUSH1 0x84 ADD PUSH2 0x13BF JUMP JUMPDEST PUSH2 0x58FC DUP4 DUP4 DUP4 PUSH1 0x1 PUSH2 0x646D JUMP JUMPDEST DUP3 PUSH1 0x1 PUSH1 0x1 PUSH1 0xA0 SHL SUB AND PUSH2 0x590F DUP3 PUSH2 0x29C6 JUMP JUMPDEST PUSH1 0x1 PUSH1 0x1 PUSH1 0xA0 SHL SUB AND EQ PUSH2 0x5935 JUMPI PUSH1 0x40 MLOAD PUSH3 0x461BCD PUSH1 0xE5 SHL DUP2 MSTORE PUSH1 0x4 ADD PUSH2 0x13BF SWAP1 PUSH2 0x863D JUMP JUMPDEST PUSH1 0x0 DUP2 DUP2 MSTORE PUSH1 0x69 PUSH1 0x20 SWAP1 DUP2 MSTORE PUSH1 0x40 DUP1 DUP4 KECCAK256 DUP1 SLOAD PUSH1 0x1 PUSH1 0x1 PUSH1 0xA0 SHL SUB NOT SWAP1 DUP2 AND SWAP1 SWAP2 SSTORE PUSH1 0x1 PUSH1 0x1 PUSH1 0xA0 SHL SUB DUP8 DUP2 AND DUP1 DUP7 MSTORE PUSH1 0x68 DUP6 MSTORE DUP4 DUP7 KECCAK256 DUP1 SLOAD PUSH1 0x0 NOT ADD SWAP1 SSTORE SWAP1 DUP8 AND DUP1 DUP7 MSTORE DUP4 DUP7 KECCAK256 DUP1 SLOAD PUSH1 0x1 ADD SWAP1 SSTORE DUP7 DUP7 MSTORE PUSH1 0x67 SWAP1 SWAP5 MSTORE DUP3 DUP6 KECCAK256 DUP1 SLOAD SWAP1 SWAP3 AND DUP5 OR SWAP1 SWAP2 SSTORE SWAP1 MLOAD DUP5 SWAP4 PUSH32 0xDDF252AD1BE2C89B69C2B068FC378DAA952BA7F163C4A11628F55A4DF523B3EF SWAP2 LOG4 POP POP POP JUMP JUMPDEST PUSH1 0x40 DUP1 MLOAD PUSH1 0x1 DUP1 DUP3 MSTORE DUP2 DUP4 ADD SWAP1 SWAP3 MSTORE PUSH1 0x60 SWAP2 PUSH1 0x0 SWAP2 SWAP1 PUSH1 0x20 DUP1 DUP4 ADD SWAP1 DUP1 CALLDATASIZE DUP4 CALLDATACOPY ADD SWAP1 POP POP SWAP1 POP DUP3 DUP2 PUSH1 0x0 DUP2 MLOAD DUP2 LT PUSH2 0x59FF JUMPI PUSH2 0x59FF PUSH2 0x7F45 JUMP JUMPDEST PUSH1 0x20 SWAP1 DUP2 MUL SWAP2 SWAP1 SWAP2 ADD ADD MSTORE SWAP3 SWAP2 POP POP JUMP JUMPDEST PUSH2 0x5A19 DUP2 PUSH2 0x64AD JUMP JUMPDEST PUSH1 0x0 SWAP1 DUP2 MSTORE PUSH2 0x171 PUSH1 0x20 MSTORE PUSH1 0x40 SWAP1 KECCAK256 PUSH1 0x1 ADD DUP1 SLOAD PUSH1 0x1 PUSH1 0x1 PUSH1 0xA0 SHL SUB NOT AND SWAP1 SSTORE JUMP JUMPDEST PUSH1 0x0 DUP5 MLOAD GT PUSH2 0x5A82 JUMPI PUSH1 0x40 MLOAD PUSH3 0x461BCD PUSH1 0xE5 SHL DUP2 MSTORE PUSH1 0x20 PUSH1 0x4 DUP3 ADD MSTORE PUSH1 0x13 PUSH1 0x24 DUP3 ADD MSTORE PUSH19 0x746F6B656E4964735B5D20697320656D707479 PUSH1 0x68 SHL PUSH1 0x44 DUP3 ADD MSTORE PUSH1 0x64 ADD PUSH2 0x13BF JUMP JUMPDEST DUP4 MLOAD PUSH1 0x1 EQ DUP1 PUSH2 0x5AA7 JUMPI POP PUSH2 0xFFFF DUP7 AND PUSH1 0x0 SWAP1 DUP2 MSTORE PUSH2 0x167 PUSH1 0x20 MSTORE PUSH1 0x40 SWAP1 KECCAK256 SLOAD DUP5 MLOAD GT ISZERO JUMPDEST PUSH2 0x5AFE JUMPI PUSH1 0x40 MLOAD PUSH3 0x461BCD PUSH1 0xE5 SHL DUP2 MSTORE PUSH1 0x20 PUSH1 0x4 DUP3 ADD MSTORE PUSH1 0x22 PUSH1 0x24 DUP3 ADD MSTORE PUSH32 0x62617463682073697A65206578636565647320647374206261746368206C696D PUSH1 0x44 DUP3 ADD MSTORE PUSH2 0x1A5D PUSH1 0xF2 SHL PUSH1 0x64 DUP3 ADD MSTORE PUSH1 0x84 ADD PUSH2 0x13BF JUMP JUMPDEST PUSH1 0x0 JUMPDEST DUP5 MLOAD DUP2 LT ISZERO PUSH2 0x5B41 JUMPI PUSH2 0x5B2F DUP9 DUP9 DUP9 DUP9 DUP6 DUP2 MLOAD DUP2 LT PUSH2 0x5B22 JUMPI PUSH2 0x5B22 PUSH2 0x7F45 JUMP JUMPDEST PUSH1 0x20 MUL PUSH1 0x20 ADD ADD MLOAD PUSH2 0x64ED JUMP JUMPDEST DUP1 PUSH2 0x5B39 DUP2 PUSH2 0x7F71 JUMP JUMPDEST SWAP2 POP POP PUSH2 0x5B01 JUMP JUMPDEST POP PUSH1 0x0 DUP6 DUP6 PUSH1 0x40 MLOAD PUSH1 0x20 ADD PUSH2 0x5B57 SWAP3 SWAP2 SWAP1 PUSH2 0x852E JUMP JUMPDEST PUSH1 0x40 MLOAD PUSH1 0x20 DUP2 DUP4 SUB SUB DUP2 MSTORE SWAP1 PUSH1 0x40 MSTORE SWAP1 POP PUSH2 0x5B9D DUP8 PUSH1 0x1 DUP5 DUP9 MLOAD PUSH2 0x168 PUSH1 0x0 DUP14 PUSH2 0xFFFF AND PUSH2 0xFFFF AND DUP2 MSTORE PUSH1 0x20 ADD SWAP1 DUP2 MSTORE PUSH1 0x20 ADD PUSH1 0x0 KECCAK256 SLOAD PUSH2 0x5B98 SWAP2 SWAP1 PUSH2 0x7FFF JUMP JUMPDEST PUSH2 0x65D8 JUMP JUMPDEST PUSH2 0x5BAB DUP8 DUP3 DUP7 DUP7 DUP7 CALLVALUE PUSH2 0x66AE JUMP JUMPDEST DUP6 PUSH1 0x40 MLOAD PUSH2 0x5BB9 SWAP2 SWAP1 PUSH2 0x8682 JUMP JUMPDEST PUSH1 0x40 MLOAD DUP1 SWAP2 SUB SWAP1 KECCAK256 DUP9 PUSH1 0x1 PUSH1 0x1 PUSH1 0xA0 SHL SUB AND DUP9 PUSH2 0xFFFF AND PUSH32 0xE1B87C47FDEB4F9CBADBCA9DF3AF7ABA453BB6E501075D0440D88125B711522A DUP9 PUSH1 0x40 MLOAD PUSH2 0x5BFF SWAP2 SWAP1 PUSH2 0x869E JUMP JUMPDEST PUSH1 0x40 MLOAD DUP1 SWAP2 SUB SWAP1 LOG4 POP POP POP POP POP POP POP POP JUMP JUMPDEST PUSH1 0x0 DUP1 DUP3 DUP1 PUSH1 0x20 ADD SWAP1 MLOAD DUP2 ADD SWAP1 PUSH2 0x5C28 SWAP2 SWAP1 PUSH2 0x82E0 JUMP JUMPDEST PUSH1 0x14 DUP3 ADD MLOAD SWAP2 SWAP4 POP SWAP2 POP PUSH1 0x0 PUSH2 0x5C40 DUP9 DUP4 DUP4 DUP7 PUSH2 0x5EF6 JUMP JUMPDEST SWAP1 POP DUP3 MLOAD DUP2 LT ISZERO PUSH2 0x5D15 JUMPI DUP5 MLOAD PUSH1 0x20 DUP1 DUP8 ADD SWAP2 SWAP1 SWAP2 KECCAK256 PUSH1 0x40 DUP1 MLOAD PUSH1 0x80 DUP2 ADD DUP3 MSTORE PUSH2 0xFFFF DUP1 DUP14 AND DUP3 MSTORE PUSH1 0x1 PUSH1 0x1 PUSH1 0xA0 SHL SUB DUP1 DUP9 AND DUP4 DUP8 ADD SWAP1 DUP2 MSTORE DUP4 DUP6 ADD DUP9 DUP2 MSTORE PUSH1 0x1 PUSH1 0x60 DUP7 ADD DUP2 DUP2 MSTORE PUSH1 0x0 DUP10 DUP2 MSTORE PUSH2 0x169 SWAP1 SWAP11 MSTORE SWAP9 DUP8 SWAP1 KECCAK256 SWAP6 MLOAD DUP7 SLOAD SWAP4 MLOAD SWAP1 SWAP5 AND PUSH3 0x10000 MUL PUSH1 0x1 PUSH1 0x1 PUSH1 0xB0 SHL SUB NOT SWAP1 SWAP4 AND SWAP4 SWAP1 SWAP5 AND SWAP3 SWAP1 SWAP3 OR OR DUP4 SSTORE MLOAD SWAP1 DUP3 ADD SSTORE SWAP3 MLOAD PUSH1 0x2 SWAP1 SWAP4 ADD DUP1 SLOAD SWAP4 ISZERO ISZERO PUSH1 0xFF NOT SWAP1 SWAP5 AND SWAP4 SWAP1 SWAP4 OR SWAP1 SWAP3 SSTORE SWAP1 MLOAD PUSH32 0x10E0B70D256BCCC84B7027506978BD8B68984A870788B93B479DEF144C839AD7 SWAP1 PUSH2 0x5D0B SWAP1 DUP4 SWAP1 DUP10 SWAP1 PUSH2 0x86B1 JUMP JUMPDEST PUSH1 0x40 MLOAD DUP1 SWAP2 SUB SWAP1 LOG1 POP JUMPDEST DUP2 PUSH1 0x1 PUSH1 0x1 PUSH1 0xA0 SHL SUB AND DUP8 PUSH1 0x40 MLOAD PUSH2 0x5D2D SWAP2 SWAP1 PUSH2 0x8682 JUMP JUMPDEST PUSH1 0x40 MLOAD DUP1 SWAP2 SUB SWAP1 KECCAK256 DUP10 PUSH2 0xFFFF AND PUSH32 0x5B821DB8A46F8ECBE1941BA2F51CFEEA9643268B56631F70D45E2A745D990265 DUP7 PUSH1 0x40 MLOAD PUSH2 0x5BFF SWAP2 SWAP1 PUSH2 0x869E JUMP JUMPDEST PUSH2 0x12D DUP1 SLOAD PUSH1 0x1 PUSH1 0x1 PUSH1 0xA0 SHL SUB DUP4 DUP2 AND PUSH1 0x1 PUSH1 0x1 PUSH1 0xA0 SHL SUB NOT DUP4 AND DUP2 OR SWAP1 SWAP4 SSTORE PUSH1 0x40 MLOAD SWAP2 AND SWAP2 SWAP1 DUP3 SWAP1 PUSH32 0x8BE0079C531659141344CD1FD0A4F28419497F9722A3DAAFE3B4186F6B6457E0 SWAP1 PUSH1 0x0 SWAP1 LOG3 POP POP JUMP JUMPDEST PUSH1 0x0 SLOAD PUSH2 0x100 SWAP1 DIV PUSH1 0xFF AND PUSH2 0x5DE3 JUMPI PUSH1 0x40 MLOAD PUSH3 0x461BCD PUSH1 0xE5 SHL DUP2 MSTORE PUSH1 0x4 ADD PUSH2 0x13BF SWAP1 PUSH2 0x86CA JUMP JUMPDEST PUSH1 0x65 PUSH2 0x5DEF DUP4 DUP3 PUSH2 0x8191 JUMP JUMPDEST POP PUSH1 0x66 PUSH2 0x17D8 DUP3 DUP3 PUSH2 0x8191 JUMP JUMPDEST PUSH1 0x0 SLOAD PUSH2 0x100 SWAP1 DIV PUSH1 0xFF AND PUSH2 0x2B92 JUMPI PUSH1 0x40 MLOAD PUSH3 0x461BCD PUSH1 0xE5 SHL DUP2 MSTORE PUSH1 0x4 ADD PUSH2 0x13BF SWAP1 PUSH2 0x86CA JUMP JUMPDEST PUSH1 0x0 SLOAD PUSH2 0x100 SWAP1 DIV PUSH1 0xFF AND PUSH2 0x5E4A JUMPI PUSH1 0x40 MLOAD PUSH3 0x461BCD PUSH1 0xE5 SHL DUP2 MSTORE PUSH1 0x4 ADD PUSH2 0x13BF SWAP1 PUSH2 0x86CA JUMP JUMPDEST PUSH2 0x2B92 CALLER PUSH2 0x5D69 JUMP JUMPDEST PUSH1 0x0 DUP2 GT PUSH2 0x5E73 JUMPI PUSH1 0x40 MLOAD PUSH3 0x461BCD PUSH1 0xE5 SHL DUP2 MSTORE PUSH1 0x4 ADD PUSH2 0x13BF SWAP1 PUSH2 0x7F01 JUMP JUMPDEST PUSH2 0x15F DUP1 SLOAD PUSH1 0x1 PUSH1 0x1 PUSH1 0xA0 SHL SUB NOT AND PUSH1 0x1 PUSH1 0x1 PUSH1 0xA0 SHL SUB SWAP4 SWAP1 SWAP4 AND SWAP3 SWAP1 SWAP3 OR SWAP1 SWAP2 SSTORE PUSH2 0x166 SSTORE JUMP JUMPDEST PUSH1 0x2 PUSH2 0x165 SLOAD SUB PUSH2 0x5EEE JUMPI PUSH1 0x40 MLOAD PUSH3 0x461BCD PUSH1 0xE5 SHL DUP2 MSTORE PUSH1 0x20 PUSH1 0x4 DUP3 ADD MSTORE PUSH1 0x1F PUSH1 0x24 DUP3 ADD MSTORE PUSH32 0x5265656E7472616E637947756172643A207265656E7472616E742063616C6C00 PUSH1 0x44 DUP3 ADD MSTORE PUSH1 0x64 ADD PUSH2 0x13BF JUMP JUMPDEST PUSH1 0x2 PUSH2 0x165 SSTORE JUMP JUMPDEST PUSH1 0x0 DUP3 JUMPDEST DUP3 MLOAD DUP2 LT ISZERO PUSH2 0x552C JUMPI PUSH2 0x166 SLOAD GAS LT PUSH2 0x552C JUMPI PUSH2 0x5F31 DUP7 DUP7 DUP6 DUP5 DUP2 MLOAD DUP2 LT PUSH2 0x5F24 JUMPI PUSH2 0x5F24 PUSH2 0x7F45 JUMP JUMPDEST PUSH1 0x20 MUL PUSH1 0x20 ADD ADD MLOAD PUSH2 0x6839 JUMP JUMPDEST DUP1 PUSH2 0x5F3B DUP2 PUSH2 0x7F71 JUMP JUMPDEST SWAP2 POP POP PUSH2 0x5EFA JUMP JUMPDEST PUSH1 0x60 DUP2 PUSH2 0x5F51 DUP2 PUSH1 0x1F PUSH2 0x7FD9 JUMP JUMPDEST LT ISZERO PUSH2 0x5F90 JUMPI PUSH1 0x40 MLOAD PUSH3 0x461BCD PUSH1 0xE5 SHL DUP2 MSTORE PUSH1 0x20 PUSH1 0x4 DUP3 ADD MSTORE PUSH1 0xE PUSH1 0x24 DUP3 ADD MSTORE PUSH14 0x736C6963655F6F766572666C6F77 PUSH1 0x90 SHL PUSH1 0x44 DUP3 ADD MSTORE PUSH1 0x64 ADD PUSH2 0x13BF JUMP JUMPDEST PUSH2 0x5F9A DUP3 DUP5 PUSH2 0x7FD9 JUMP JUMPDEST DUP5 MLOAD LT ISZERO PUSH2 0x5FDE JUMPI PUSH1 0x40 MLOAD PUSH3 0x461BCD PUSH1 0xE5 SHL DUP2 MSTORE PUSH1 0x20 PUSH1 0x4 DUP3 ADD MSTORE PUSH1 0x11 PUSH1 0x24 DUP3 ADD MSTORE PUSH17 0x736C6963655F6F75744F66426F756E6473 PUSH1 0x78 SHL PUSH1 0x44 DUP3 ADD MSTORE PUSH1 0x64 ADD PUSH2 0x13BF JUMP JUMPDEST PUSH1 0x60 DUP3 ISZERO DUP1 ISZERO PUSH2 0x5FFD JUMPI PUSH1 0x40 MLOAD SWAP2 POP PUSH1 0x0 DUP3 MSTORE PUSH1 0x20 DUP3 ADD PUSH1 0x40 MSTORE PUSH2 0x3213 JUMP JUMPDEST PUSH1 0x40 MLOAD SWAP2 POP PUSH1 0x1F DUP5 AND DUP1 ISZERO PUSH1 0x20 MUL DUP2 DUP5 ADD ADD DUP6 DUP2 ADD DUP8 DUP4 ISZERO PUSH1 0x20 MUL DUP5 DUP12 ADD ADD ADD JUMPDEST DUP2 DUP4 LT ISZERO PUSH2 0x6036 JUMPI DUP1 MLOAD DUP4 MSTORE PUSH1 0x20 SWAP3 DUP4 ADD SWAP3 ADD PUSH2 0x601E JUMP JUMPDEST POP POP DUP6 DUP5 MSTORE PUSH1 0x1F ADD PUSH1 0x1F NOT AND PUSH1 0x40 MSTORE POP POP SWAP1 POP SWAP4 SWAP3 POP POP POP JUMP JUMPDEST DUP2 PUSH1 0x1 PUSH1 0x1 PUSH1 0xA0 SHL SUB AND DUP4 PUSH1 0x1 PUSH1 0x1 PUSH1 0xA0 SHL SUB AND SUB PUSH2 0x60B1 JUMPI PUSH1 0x40 MLOAD PUSH3 0x461BCD PUSH1 0xE5 SHL DUP2 MSTORE PUSH1 0x20 PUSH1 0x4 DUP3 ADD MSTORE PUSH1 0x19 PUSH1 0x24 DUP3 ADD MSTORE PUSH32 0x4552433732313A20617070726F766520746F2063616C6C657200000000000000 PUSH1 0x44 DUP3 ADD MSTORE PUSH1 0x64 ADD PUSH2 0x13BF JUMP JUMPDEST PUSH1 0x1 PUSH1 0x1 PUSH1 0xA0 SHL SUB DUP4 DUP2 AND PUSH1 0x0 DUP2 DUP2 MSTORE PUSH1 0x6A PUSH1 0x20 SWAP1 DUP2 MSTORE PUSH1 0x40 DUP1 DUP4 KECCAK256 SWAP5 DUP8 AND DUP1 DUP5 MSTORE SWAP5 DUP3 MSTORE SWAP2 DUP3 SWAP1 KECCAK256 DUP1 SLOAD PUSH1 0xFF NOT AND DUP7 ISZERO ISZERO SWAP1 DUP2 OR SWAP1 SWAP2 SSTORE SWAP2 MLOAD SWAP2 DUP3 MSTORE PUSH32 0x17307EAB39AB6107E8899845AD3D59BD9653F200F220920489CA2B5937696C31 SWAP2 ADD PUSH1 0x40 MLOAD DUP1 SWAP2 SUB SWAP1 LOG3 POP POP POP JUMP JUMPDEST PUSH2 0x6129 DUP5 DUP5 DUP5 PUSH2 0x5854 JUMP JUMPDEST PUSH2 0x6135 DUP5 DUP5 DUP5 DUP5 PUSH2 0x6899 JUMP JUMPDEST PUSH2 0x4140 JUMPI PUSH1 0x40 MLOAD PUSH3 0x461BCD PUSH1 0xE5 SHL DUP2 MSTORE PUSH1 0x4 ADD PUSH2 0x13BF SWAP1 PUSH2 0x8715 JUMP JUMPDEST PUSH1 0x60 PUSH2 0x615C DUP3 PUSH2 0x5718 JUMP JUMPDEST PUSH1 0x0 DUP3 DUP2 MSTORE PUSH1 0xC9 PUSH1 0x20 MSTORE PUSH1 0x40 DUP2 KECCAK256 DUP1 SLOAD PUSH2 0x6175 SWAP1 PUSH2 0x7EB7 JUMP JUMPDEST DUP1 PUSH1 0x1F ADD PUSH1 0x20 DUP1 SWAP2 DIV MUL PUSH1 0x20 ADD PUSH1 0x40 MLOAD SWAP1 DUP2 ADD PUSH1 0x40 MSTORE DUP1 SWAP3 SWAP2 SWAP1 DUP2 DUP2 MSTORE PUSH1 0x20 ADD DUP3 DUP1 SLOAD PUSH2 0x61A1 SWAP1 PUSH2 0x7EB7 JUMP JUMPDEST DUP1 ISZERO PUSH2 0x61EE JUMPI DUP1 PUSH1 0x1F LT PUSH2 0x61C3 JUMPI PUSH2 0x100 DUP1 DUP4 SLOAD DIV MUL DUP4 MSTORE SWAP2 PUSH1 0x20 ADD SWAP2 PUSH2 0x61EE JUMP JUMPDEST DUP3 ADD SWAP2 SWAP1 PUSH1 0x0 MSTORE PUSH1 0x20 PUSH1 0x0 KECCAK256 SWAP1 JUMPDEST DUP2 SLOAD DUP2 MSTORE SWAP1 PUSH1 0x1 ADD SWAP1 PUSH1 0x20 ADD DUP1 DUP4 GT PUSH2 0x61D1 JUMPI DUP3 SWAP1 SUB PUSH1 0x1F AND DUP3 ADD SWAP2 JUMPDEST POP POP POP POP POP SWAP1 POP PUSH1 0x0 PUSH2 0x620C PUSH1 0x40 DUP1 MLOAD PUSH1 0x20 DUP2 ADD SWAP1 SWAP2 MSTORE PUSH1 0x0 DUP2 MSTORE SWAP1 JUMP JUMPDEST SWAP1 POP DUP1 MLOAD PUSH1 0x0 SUB PUSH2 0x621E JUMPI POP SWAP3 SWAP2 POP POP JUMP JUMPDEST DUP2 MLOAD ISZERO PUSH2 0x6250 JUMPI DUP1 DUP3 PUSH1 0x40 MLOAD PUSH1 0x20 ADD PUSH2 0x6238 SWAP3 SWAP2 SWAP1 PUSH2 0x8767 JUMP JUMPDEST PUSH1 0x40 MLOAD PUSH1 0x20 DUP2 DUP4 SUB SUB DUP2 MSTORE SWAP1 PUSH1 0x40 MSTORE SWAP3 POP POP POP SWAP2 SWAP1 POP JUMP JUMPDEST PUSH2 0x552F DUP5 PUSH2 0x6997 JUMP JUMPDEST PUSH2 0x1C43 DUP3 DUP3 PUSH1 0x40 MLOAD DUP1 PUSH1 0x20 ADD PUSH1 0x40 MSTORE DUP1 PUSH1 0x0 DUP2 MSTORE POP PUSH2 0x6A0A JUMP JUMPDEST PUSH2 0x627C DUP3 PUSH2 0x6450 JUMP JUMPDEST PUSH2 0x62DF JUMPI PUSH1 0x40 MLOAD PUSH3 0x461BCD PUSH1 0xE5 SHL DUP2 MSTORE PUSH1 0x20 PUSH1 0x4 DUP3 ADD MSTORE PUSH1 0x2E PUSH1 0x24 DUP3 ADD MSTORE PUSH32 0x45524337323155524953746F726167653A2055524920736574206F66206E6F6E PUSH1 0x44 DUP3 ADD MSTORE PUSH14 0x32BC34B9BA32B73A103A37B5B2B7 PUSH1 0x91 SHL PUSH1 0x64 DUP3 ADD MSTORE PUSH1 0x84 ADD PUSH2 0x13BF JUMP JUMPDEST PUSH1 0x0 DUP3 DUP2 MSTORE PUSH1 0xC9 PUSH1 0x20 MSTORE PUSH1 0x40 SWAP1 KECCAK256 PUSH2 0x62F7 DUP3 DUP3 PUSH2 0x8191 JUMP JUMPDEST POP PUSH1 0x40 MLOAD DUP3 DUP2 MSTORE PUSH32 0xF8E1A15ABA9398E019F0B49DF1A4FDE98EE17AE345CB5F6B5E2C27F5033E8CE7 SWAP1 PUSH1 0x20 ADD PUSH2 0x3E13 JUMP JUMPDEST PUSH1 0x0 PUSH1 0x60 PUSH1 0x0 DUP1 PUSH1 0x0 DUP7 PUSH2 0xFFFF AND PUSH1 0x1 PUSH1 0x1 PUSH1 0x40 SHL SUB DUP2 GT ISZERO PUSH2 0x634D JUMPI PUSH2 0x634D PUSH2 0x746F JUMP JUMPDEST PUSH1 0x40 MLOAD SWAP1 DUP1 DUP3 MSTORE DUP1 PUSH1 0x1F ADD PUSH1 0x1F NOT AND PUSH1 0x20 ADD DUP3 ADD PUSH1 0x40 MSTORE DUP1 ISZERO PUSH2 0x6377 JUMPI PUSH1 0x20 DUP3 ADD DUP2 DUP1 CALLDATASIZE DUP4 CALLDATACOPY ADD SWAP1 POP JUMPDEST POP SWAP1 POP PUSH1 0x0 DUP1 DUP8 MLOAD PUSH1 0x20 DUP10 ADD PUSH1 0x0 DUP14 DUP14 CALL SWAP2 POP RETURNDATASIZE SWAP3 POP DUP7 DUP4 GT ISZERO PUSH2 0x6399 JUMPI DUP7 SWAP3 POP JUMPDEST DUP3 DUP2 MSTORE DUP3 PUSH1 0x0 PUSH1 0x20 DUP4 ADD RETURNDATACOPY SWAP1 SWAP9 SWAP1 SWAP8 POP SWAP6 POP POP POP POP POP POP JUMP JUMPDEST DUP2 DUP1 MLOAD SWAP1 PUSH1 0x20 ADD KECCAK256 PUSH2 0x164 PUSH1 0x0 DUP8 PUSH2 0xFFFF AND PUSH2 0xFFFF AND DUP2 MSTORE PUSH1 0x20 ADD SWAP1 DUP2 MSTORE PUSH1 0x20 ADD PUSH1 0x0 KECCAK256 DUP6 PUSH1 0x40 MLOAD PUSH2 0x63E4 SWAP2 SWAP1 PUSH2 0x8682 JUMP JUMPDEST SWAP1 DUP2 MSTORE PUSH1 0x40 DUP1 MLOAD SWAP2 DUP3 SWAP1 SUB PUSH1 0x20 SWAP1 DUP2 ADD DUP4 KECCAK256 PUSH1 0x1 PUSH1 0x1 PUSH1 0x40 SHL SUB DUP9 AND PUSH1 0x0 SWAP1 DUP2 MSTORE SWAP2 MSTORE KECCAK256 SWAP2 SWAP1 SWAP2 SSTORE PUSH32 0xE183F33DE2837795525B4792CA4CD60535BD77C53B7E7030060BFCF5734D6B0C SWAP1 PUSH2 0x6441 SWAP1 DUP8 SWAP1 DUP8 SWAP1 DUP8 SWAP1 DUP8 SWAP1 DUP8 SWAP1 PUSH2 0x8796 JUMP JUMPDEST PUSH1 0x40 MLOAD DUP1 SWAP2 SUB SWAP1 LOG1 POP POP POP POP POP JUMP JUMPDEST PUSH1 0x0 SWAP1 DUP2 MSTORE PUSH1 0x67 PUSH1 0x20 MSTORE PUSH1 0x40 SWAP1 KECCAK256 SLOAD PUSH1 0x1 PUSH1 0x1 PUSH1 0xA0 SHL SUB AND ISZERO ISZERO SWAP1 JUMP JUMPDEST PUSH2 0x6479 DUP5 DUP5 DUP5 DUP5 PUSH2 0x6A3D JUMP JUMPDEST POP PUSH1 0x0 SWAP1 DUP2 MSTORE PUSH2 0x171 PUSH1 0x20 MSTORE PUSH1 0x40 SWAP1 KECCAK256 PUSH1 0x1 ADD DUP1 SLOAD PUSH1 0x1 PUSH1 0x1 PUSH1 0xA0 SHL SUB NOT AND PUSH1 0x1 PUSH1 0x1 PUSH1 0xA0 SHL SUB SWAP3 SWAP1 SWAP3 AND SWAP2 SWAP1 SWAP2 OR SWAP1 SSTORE POP JUMP JUMPDEST PUSH2 0x64B6 DUP2 PUSH2 0x6B6A JUMP JUMPDEST PUSH1 0x0 DUP2 DUP2 MSTORE PUSH1 0xC9 PUSH1 0x20 MSTORE PUSH1 0x40 SWAP1 KECCAK256 DUP1 SLOAD PUSH2 0x64CF SWAP1 PUSH2 0x7EB7 JUMP JUMPDEST ISZERO SWAP1 POP PUSH2 0x22BC JUMPI PUSH1 0x0 DUP2 DUP2 MSTORE PUSH1 0xC9 PUSH1 0x20 MSTORE PUSH1 0x40 DUP2 KECCAK256 PUSH2 0x22BC SWAP2 PUSH2 0x7150 JUMP JUMPDEST PUSH2 0x64F6 CALLER PUSH2 0x1ACB JUMP JUMPDEST PUSH2 0x6559 JUMPI PUSH1 0x40 MLOAD PUSH3 0x461BCD PUSH1 0xE5 SHL DUP2 MSTORE PUSH1 0x20 PUSH1 0x4 DUP3 ADD MSTORE PUSH1 0x2E PUSH1 0x24 DUP3 ADD MSTORE PUSH32 0x4F4E46543732313A2073656E642063616C6C6572206973206E6F74206F776E65 PUSH1 0x44 DUP3 ADD MSTORE PUSH14 0x1C881B9BDC88185C1C1C9BDD9959 PUSH1 0x92 SHL PUSH1 0x64 DUP3 ADD MSTORE PUSH1 0x84 ADD PUSH2 0x13BF JUMP JUMPDEST DUP4 PUSH1 0x1 PUSH1 0x1 PUSH1 0xA0 SHL SUB AND PUSH2 0x656C DUP3 PUSH2 0x29C6 JUMP JUMPDEST PUSH1 0x1 PUSH1 0x1 PUSH1 0xA0 SHL SUB AND EQ PUSH2 0x65CD JUMPI PUSH1 0x40 MLOAD PUSH3 0x461BCD PUSH1 0xE5 SHL DUP2 MSTORE PUSH1 0x20 PUSH1 0x4 DUP3 ADD MSTORE PUSH1 0x22 PUSH1 0x24 DUP3 ADD MSTORE PUSH32 0x4F4E46543732313A2073656E642066726F6D20696E636F7272656374206F776E PUSH1 0x44 DUP3 ADD MSTORE PUSH2 0x32B9 PUSH1 0xF1 SHL PUSH1 0x64 DUP3 ADD MSTORE PUSH1 0x84 ADD PUSH2 0x13BF JUMP JUMPDEST PUSH2 0x4140 DUP5 ADDRESS DUP4 PUSH2 0x5854 JUMP JUMPDEST PUSH1 0x0 PUSH2 0x65E3 DUP4 PUSH2 0x6C0D JUMP JUMPDEST PUSH2 0xFFFF DUP1 DUP8 AND PUSH1 0x0 SWAP1 DUP2 MSTORE PUSH2 0x161 PUSH1 0x20 SWAP1 DUP2 MSTORE PUSH1 0x40 DUP1 DUP4 KECCAK256 SWAP4 DUP10 AND DUP4 MSTORE SWAP3 SWAP1 MSTORE KECCAK256 SLOAD SWAP1 SWAP2 POP DUP1 PUSH2 0x6655 JUMPI PUSH1 0x40 MLOAD PUSH3 0x461BCD PUSH1 0xE5 SHL DUP2 MSTORE PUSH1 0x20 PUSH1 0x4 DUP3 ADD MSTORE PUSH1 0x1A PUSH1 0x24 DUP3 ADD MSTORE PUSH32 0x4C7A4170703A206D696E4761734C696D6974206E6F7420736574000000000000 PUSH1 0x44 DUP3 ADD MSTORE PUSH1 0x64 ADD PUSH2 0x13BF JUMP JUMPDEST PUSH2 0x665F DUP4 DUP3 PUSH2 0x7FD9 JUMP JUMPDEST DUP3 LT ISZERO PUSH2 0x29BE JUMPI PUSH1 0x40 MLOAD PUSH3 0x461BCD PUSH1 0xE5 SHL DUP2 MSTORE PUSH1 0x20 PUSH1 0x4 DUP3 ADD MSTORE PUSH1 0x1B PUSH1 0x24 DUP3 ADD MSTORE PUSH32 0x4C7A4170703A20676173206C696D697420697320746F6F206C6F770000000000 PUSH1 0x44 DUP3 ADD MSTORE PUSH1 0x64 ADD PUSH2 0x13BF JUMP JUMPDEST PUSH2 0xFFFF DUP7 AND PUSH1 0x0 SWAP1 DUP2 MSTORE PUSH2 0x160 PUSH1 0x20 MSTORE PUSH1 0x40 DUP2 KECCAK256 DUP1 SLOAD PUSH2 0x66CD SWAP1 PUSH2 0x7EB7 JUMP JUMPDEST DUP1 PUSH1 0x1F ADD PUSH1 0x20 DUP1 SWAP2 DIV MUL PUSH1 0x20 ADD PUSH1 0x40 MLOAD SWAP1 DUP2 ADD PUSH1 0x40 MSTORE DUP1 SWAP3 SWAP2 SWAP1 DUP2 DUP2 MSTORE PUSH1 0x20 ADD DUP3 DUP1 SLOAD PUSH2 0x66F9 SWAP1 PUSH2 0x7EB7 JUMP JUMPDEST DUP1 ISZERO PUSH2 0x6746 JUMPI DUP1 PUSH1 0x1F LT PUSH2 0x671B JUMPI PUSH2 0x100 DUP1 DUP4 SLOAD DIV MUL DUP4 MSTORE SWAP2 PUSH1 0x20 ADD SWAP2 PUSH2 0x6746 JUMP JUMPDEST DUP3 ADD SWAP2 SWAP1 PUSH1 0x0 MSTORE PUSH1 0x20 PUSH1 0x0 KECCAK256 SWAP1 JUMPDEST DUP2 SLOAD DUP2 MSTORE SWAP1 PUSH1 0x1 ADD SWAP1 PUSH1 0x20 ADD DUP1 DUP4 GT PUSH2 0x6729 JUMPI DUP3 SWAP1 SUB PUSH1 0x1F AND DUP3 ADD SWAP2 JUMPDEST POP POP POP POP POP SWAP1 POP DUP1 MLOAD PUSH1 0x0 SUB PUSH2 0x67B7 JUMPI PUSH1 0x40 MLOAD PUSH3 0x461BCD PUSH1 0xE5 SHL DUP2 MSTORE PUSH1 0x20 PUSH1 0x4 DUP3 ADD MSTORE PUSH1 0x30 PUSH1 0x24 DUP3 ADD MSTORE PUSH32 0x4C7A4170703A2064657374696E6174696F6E20636861696E206973206E6F7420 PUSH1 0x44 DUP3 ADD MSTORE PUSH16 0x61207472757374656420736F75726365 PUSH1 0x80 SHL PUSH1 0x64 DUP3 ADD MSTORE PUSH1 0x84 ADD PUSH2 0x13BF JUMP JUMPDEST PUSH2 0x67C2 DUP8 DUP8 MLOAD PUSH2 0x6C69 JUMP JUMPDEST PUSH2 0x15F SLOAD PUSH1 0x40 MLOAD PUSH3 0xC58031 PUSH1 0xE8 SHL DUP2 MSTORE PUSH1 0x1 PUSH1 0x1 PUSH1 0xA0 SHL SUB SWAP1 SWAP2 AND SWAP1 PUSH4 0xC5803100 SWAP1 DUP5 SWAP1 PUSH2 0x67FE SWAP1 DUP12 SWAP1 DUP7 SWAP1 DUP13 SWAP1 DUP13 SWAP1 DUP13 SWAP1 DUP13 SWAP1 PUSH1 0x4 ADD PUSH2 0x87E8 JUMP JUMPDEST PUSH1 0x0 PUSH1 0x40 MLOAD DUP1 DUP4 SUB DUP2 DUP6 DUP9 DUP1 EXTCODESIZE ISZERO DUP1 ISZERO PUSH2 0x6817 JUMPI PUSH1 0x0 DUP1 REVERT JUMPDEST POP GAS CALL ISZERO DUP1 ISZERO PUSH2 0x682B JUMPI RETURNDATASIZE PUSH1 0x0 DUP1 RETURNDATACOPY RETURNDATASIZE PUSH1 0x0 REVERT JUMPDEST POP POP POP POP POP POP POP POP POP POP POP POP JUMP JUMPDEST PUSH2 0x6842 DUP2 PUSH2 0x6450 JUMP JUMPDEST ISZERO DUP1 PUSH2 0x686E JUMPI POP PUSH2 0x6852 DUP2 PUSH2 0x6450 JUMP JUMPDEST DUP1 ISZERO PUSH2 0x686E JUMPI POP ADDRESS PUSH2 0x6863 DUP3 PUSH2 0x29C6 JUMP JUMPDEST PUSH1 0x1 PUSH1 0x1 PUSH1 0xA0 SHL SUB AND EQ JUMPDEST PUSH2 0x6877 JUMPI PUSH1 0x0 DUP1 REVERT JUMPDEST PUSH2 0x6880 DUP2 PUSH2 0x6450 JUMP JUMPDEST PUSH2 0x688E JUMPI PUSH2 0x17D8 DUP3 DUP3 PUSH2 0x6259 JUMP JUMPDEST PUSH2 0x17D8 ADDRESS DUP4 DUP4 PUSH2 0x5854 JUMP JUMPDEST PUSH1 0x0 PUSH1 0x1 PUSH1 0x1 PUSH1 0xA0 SHL SUB DUP5 AND EXTCODESIZE ISZERO PUSH2 0x698F JUMPI PUSH1 0x40 MLOAD PUSH4 0xA85BD01 PUSH1 0xE1 SHL DUP2 MSTORE PUSH1 0x1 PUSH1 0x1 PUSH1 0xA0 SHL SUB DUP6 AND SWAP1 PUSH4 0x150B7A02 SWAP1 PUSH2 0x68DD SWAP1 CALLER SWAP1 DUP10 SWAP1 DUP9 SWAP1 DUP9 SWAP1 PUSH1 0x4 ADD PUSH2 0x884F JUMP JUMPDEST PUSH1 0x20 PUSH1 0x40 MLOAD DUP1 DUP4 SUB DUP2 PUSH1 0x0 DUP8 GAS CALL SWAP3 POP POP POP DUP1 ISZERO PUSH2 0x6918 JUMPI POP PUSH1 0x40 DUP1 MLOAD PUSH1 0x1F RETURNDATASIZE SWAP1 DUP2 ADD PUSH1 0x1F NOT AND DUP3 ADD SWAP1 SWAP3 MSTORE PUSH2 0x6915 SWAP2 DUP2 ADD SWAP1 PUSH2 0x888C JUMP JUMPDEST PUSH1 0x1 JUMPDEST PUSH2 0x6975 JUMPI RETURNDATASIZE DUP1 DUP1 ISZERO PUSH2 0x6946 JUMPI PUSH1 0x40 MLOAD SWAP2 POP PUSH1 0x1F NOT PUSH1 0x3F RETURNDATASIZE ADD AND DUP3 ADD PUSH1 0x40 MSTORE RETURNDATASIZE DUP3 MSTORE RETURNDATASIZE PUSH1 0x0 PUSH1 0x20 DUP5 ADD RETURNDATACOPY PUSH2 0x694B JUMP JUMPDEST PUSH1 0x60 SWAP2 POP JUMPDEST POP DUP1 MLOAD PUSH1 0x0 SUB PUSH2 0x696D JUMPI PUSH1 0x40 MLOAD PUSH3 0x461BCD PUSH1 0xE5 SHL DUP2 MSTORE PUSH1 0x4 ADD PUSH2 0x13BF SWAP1 PUSH2 0x8715 JUMP JUMPDEST DUP1 MLOAD DUP2 PUSH1 0x20 ADD REVERT JUMPDEST PUSH1 0x1 PUSH1 0x1 PUSH1 0xE0 SHL SUB NOT AND PUSH4 0xA85BD01 PUSH1 0xE1 SHL EQ SWAP1 POP PUSH2 0x552F JUMP JUMPDEST POP PUSH1 0x1 PUSH2 0x552F JUMP JUMPDEST PUSH1 0x60 PUSH2 0x69A2 DUP3 PUSH2 0x5718 JUMP JUMPDEST PUSH1 0x0 PUSH2 0x69B9 PUSH1 0x40 DUP1 MLOAD PUSH1 0x20 DUP2 ADD SWAP1 SWAP2 MSTORE PUSH1 0x0 DUP2 MSTORE SWAP1 JUMP JUMPDEST SWAP1 POP PUSH1 0x0 DUP2 MLOAD GT PUSH2 0x69D9 JUMPI PUSH1 0x40 MLOAD DUP1 PUSH1 0x20 ADD PUSH1 0x40 MSTORE DUP1 PUSH1 0x0 DUP2 MSTORE POP PUSH2 0x3F2F JUMP JUMPDEST DUP1 PUSH2 0x69E3 DUP5 PUSH2 0x6CDB JUMP JUMPDEST PUSH1 0x40 MLOAD PUSH1 0x20 ADD PUSH2 0x69F4 SWAP3 SWAP2 SWAP1 PUSH2 0x8767 JUMP JUMPDEST PUSH1 0x40 MLOAD PUSH1 0x20 DUP2 DUP4 SUB SUB DUP2 MSTORE SWAP1 PUSH1 0x40 MSTORE SWAP4 SWAP3 POP POP POP JUMP JUMPDEST PUSH2 0x6A14 DUP4 DUP4 PUSH2 0x6D6D JUMP JUMPDEST PUSH2 0x6A21 PUSH1 0x0 DUP5 DUP5 DUP5 PUSH2 0x6899 JUMP JUMPDEST PUSH2 0x17D8 JUMPI PUSH1 0x40 MLOAD PUSH3 0x461BCD PUSH1 0xE5 SHL DUP2 MSTORE PUSH1 0x4 ADD PUSH2 0x13BF SWAP1 PUSH2 0x8715 JUMP JUMPDEST PUSH1 0x1 DUP2 GT ISZERO PUSH2 0x6AAC JUMPI PUSH1 0x40 MLOAD PUSH3 0x461BCD PUSH1 0xE5 SHL DUP2 MSTORE PUSH1 0x20 PUSH1 0x4 DUP3 ADD MSTORE PUSH1 0x35 PUSH1 0x24 DUP3 ADD MSTORE PUSH32 0x455243373231456E756D657261626C653A20636F6E7365637574697665207472 PUSH1 0x44 DUP3 ADD MSTORE PUSH21 0x185B9CD9995C9CC81B9BDD081CDD5C1C1BDC9D1959 PUSH1 0x5A SHL PUSH1 0x64 DUP3 ADD MSTORE PUSH1 0x84 ADD PUSH2 0x13BF JUMP JUMPDEST DUP2 PUSH1 0x1 PUSH1 0x1 PUSH1 0xA0 SHL SUB DUP6 AND PUSH2 0x6B08 JUMPI PUSH2 0x6B03 DUP2 PUSH1 0x99 DUP1 SLOAD PUSH1 0x0 DUP4 DUP2 MSTORE PUSH1 0x9A PUSH1 0x20 MSTORE PUSH1 0x40 DUP2 KECCAK256 DUP3 SWAP1 SSTORE PUSH1 0x1 DUP3 ADD DUP4 SSTORE SWAP2 SWAP1 SWAP2 MSTORE PUSH32 0x72A152DDFB8E864297C917AF52EA6C1C68AEAD0FEE1A62673FCC7E0C94979D00 ADD SSTORE JUMP JUMPDEST PUSH2 0x6B2B JUMP JUMPDEST DUP4 PUSH1 0x1 PUSH1 0x1 PUSH1 0xA0 SHL SUB AND DUP6 PUSH1 0x1 PUSH1 0x1 PUSH1 0xA0 SHL SUB AND EQ PUSH2 0x6B2B JUMPI PUSH2 0x6B2B DUP6 DUP3 PUSH2 0x6EE8 JUMP JUMPDEST PUSH1 0x1 PUSH1 0x1 PUSH1 0xA0 SHL SUB DUP5 AND PUSH2 0x6B47 JUMPI PUSH2 0x6B42 DUP2 PUSH2 0x6F85 JUMP JUMPDEST PUSH2 0x169A JUMP JUMPDEST DUP5 PUSH1 0x1 PUSH1 0x1 PUSH1 0xA0 SHL SUB AND DUP5 PUSH1 0x1 PUSH1 0x1 PUSH1 0xA0 SHL SUB AND EQ PUSH2 0x169A JUMPI PUSH2 0x169A DUP5 DUP3 PUSH2 0x7034 JUMP JUMPDEST PUSH1 0x0 PUSH2 0x6B75 DUP3 PUSH2 0x29C6 JUMP JUMPDEST SWAP1 POP PUSH2 0x6B85 DUP2 PUSH1 0x0 DUP5 PUSH1 0x1 PUSH2 0x646D JUMP JUMPDEST PUSH2 0x6B8E DUP3 PUSH2 0x29C6 JUMP JUMPDEST PUSH1 0x0 DUP4 DUP2 MSTORE PUSH1 0x69 PUSH1 0x20 SWAP1 DUP2 MSTORE PUSH1 0x40 DUP1 DUP4 KECCAK256 DUP1 SLOAD PUSH1 0x1 PUSH1 0x1 PUSH1 0xA0 SHL SUB NOT SWAP1 DUP2 AND SWAP1 SWAP2 SSTORE PUSH1 0x1 PUSH1 0x1 PUSH1 0xA0 SHL SUB DUP6 AND DUP1 DUP6 MSTORE PUSH1 0x68 DUP5 MSTORE DUP3 DUP6 KECCAK256 DUP1 SLOAD PUSH1 0x0 NOT ADD SWAP1 SSTORE DUP8 DUP6 MSTORE PUSH1 0x67 SWAP1 SWAP4 MSTORE DUP2 DUP5 KECCAK256 DUP1 SLOAD SWAP1 SWAP2 AND SWAP1 SSTORE MLOAD SWAP3 SWAP4 POP DUP5 SWAP3 PUSH32 0xDDF252AD1BE2C89B69C2B068FC378DAA952BA7F163C4A11628F55A4DF523B3EF SWAP1 DUP4 SWAP1 LOG4 POP POP JUMP JUMPDEST PUSH1 0x0 PUSH1 0x22 DUP3 MLOAD LT ISZERO PUSH2 0x6C61 JUMPI PUSH1 0x40 MLOAD PUSH3 0x461BCD PUSH1 0xE5 SHL DUP2 MSTORE PUSH1 0x20 PUSH1 0x4 DUP3 ADD MSTORE PUSH1 0x1C PUSH1 0x24 DUP3 ADD MSTORE PUSH32 0x4C7A4170703A20696E76616C69642061646170746572506172616D7300000000 PUSH1 0x44 DUP3 ADD MSTORE PUSH1 0x64 ADD PUSH2 0x13BF JUMP JUMPDEST POP PUSH1 0x22 ADD MLOAD SWAP1 JUMP JUMPDEST PUSH2 0xFFFF DUP3 AND PUSH1 0x0 SWAP1 DUP2 MSTORE PUSH2 0x162 PUSH1 0x20 MSTORE PUSH1 0x40 DUP2 KECCAK256 SLOAD SWAP1 DUP2 SWAP1 SUB PUSH2 0x6C8B JUMPI POP PUSH2 0x2710 JUMPDEST DUP1 DUP3 GT ISZERO PUSH2 0x17D8 JUMPI PUSH1 0x40 MLOAD PUSH3 0x461BCD PUSH1 0xE5 SHL DUP2 MSTORE PUSH1 0x20 PUSH1 0x4 DUP3 ADD DUP2 SWAP1 MSTORE PUSH1 0x24 DUP3 ADD MSTORE PUSH32 0x4C7A4170703A207061796C6F61642073697A6520697320746F6F206C61726765 PUSH1 0x44 DUP3 ADD MSTORE PUSH1 0x64 ADD PUSH2 0x13BF JUMP JUMPDEST PUSH1 0x60 PUSH1 0x0 PUSH2 0x6CE8 DUP4 PUSH2 0x7078 JUMP JUMPDEST PUSH1 0x1 ADD SWAP1 POP PUSH1 0x0 DUP2 PUSH1 0x1 PUSH1 0x1 PUSH1 0x40 SHL SUB DUP2 GT ISZERO PUSH2 0x6D07 JUMPI PUSH2 0x6D07 PUSH2 0x746F JUMP JUMPDEST PUSH1 0x40 MLOAD SWAP1 DUP1 DUP3 MSTORE DUP1 PUSH1 0x1F ADD PUSH1 0x1F NOT AND PUSH1 0x20 ADD DUP3 ADD PUSH1 0x40 MSTORE DUP1 ISZERO PUSH2 0x6D31 JUMPI PUSH1 0x20 DUP3 ADD DUP2 DUP1 CALLDATASIZE DUP4 CALLDATACOPY ADD SWAP1 POP JUMPDEST POP SWAP1 POP DUP2 DUP2 ADD PUSH1 0x20 ADD JUMPDEST PUSH1 0x0 NOT ADD PUSH16 0x181899199A1A9B1B9C1CB0B131B232B3 PUSH1 0x81 SHL PUSH1 0xA DUP7 MOD BYTE DUP2 MSTORE8 PUSH1 0xA DUP6 DIV SWAP5 POP DUP5 PUSH2 0x6D3B JUMPI POP SWAP4 SWAP3 POP POP POP JUMP JUMPDEST PUSH1 0x1 PUSH1 0x1 PUSH1 0xA0 SHL SUB DUP3 AND PUSH2 0x6DC3 JUMPI PUSH1 0x40 MLOAD PUSH3 0x461BCD PUSH1 0xE5 SHL DUP2 MSTORE PUSH1 0x20 PUSH1 0x4 DUP3 ADD DUP2 SWAP1 MSTORE PUSH1 0x24 DUP3 ADD MSTORE PUSH32 0x4552433732313A206D696E7420746F20746865207A65726F2061646472657373 PUSH1 0x44 DUP3 ADD MSTORE PUSH1 0x64 ADD PUSH2 0x13BF JUMP JUMPDEST PUSH2 0x6DCC DUP2 PUSH2 0x6450 JUMP JUMPDEST ISZERO PUSH2 0x6E19 JUMPI PUSH1 0x40 MLOAD PUSH3 0x461BCD PUSH1 0xE5 SHL DUP2 MSTORE PUSH1 0x20 PUSH1 0x4 DUP3 ADD MSTORE PUSH1 0x1C PUSH1 0x24 DUP3 ADD MSTORE PUSH32 0x4552433732313A20746F6B656E20616C7265616479206D696E74656400000000 PUSH1 0x44 DUP3 ADD MSTORE PUSH1 0x64 ADD PUSH2 0x13BF JUMP JUMPDEST PUSH2 0x6E27 PUSH1 0x0 DUP4 DUP4 PUSH1 0x1 PUSH2 0x646D JUMP JUMPDEST PUSH2 0x6E30 DUP2 PUSH2 0x6450 JUMP JUMPDEST ISZERO PUSH2 0x6E7D JUMPI PUSH1 0x40 MLOAD PUSH3 0x461BCD PUSH1 0xE5 SHL DUP2 MSTORE PUSH1 0x20 PUSH1 0x4 DUP3 ADD MSTORE PUSH1 0x1C PUSH1 0x24 DUP3 ADD MSTORE PUSH32 0x4552433732313A20746F6B656E20616C7265616479206D696E74656400000000 PUSH1 0x44 DUP3 ADD MSTORE PUSH1 0x64 ADD PUSH2 0x13BF JUMP JUMPDEST PUSH1 0x1 PUSH1 0x1 PUSH1 0xA0 SHL SUB DUP3 AND PUSH1 0x0 DUP2 DUP2 MSTORE PUSH1 0x68 PUSH1 0x20 SWAP1 DUP2 MSTORE PUSH1 0x40 DUP1 DUP4 KECCAK256 DUP1 SLOAD PUSH1 0x1 ADD SWAP1 SSTORE DUP5 DUP4 MSTORE PUSH1 0x67 SWAP1 SWAP2 MSTORE DUP1 DUP3 KECCAK256 DUP1 SLOAD PUSH1 0x1 PUSH1 0x1 PUSH1 0xA0 SHL SUB NOT AND DUP5 OR SWAP1 SSTORE MLOAD DUP4 SWAP3 SWAP2 SWAP1 PUSH32 0xDDF252AD1BE2C89B69C2B068FC378DAA952BA7F163C4A11628F55A4DF523B3EF SWAP1 DUP3 SWAP1 LOG4 POP POP JUMP JUMPDEST PUSH1 0x0 PUSH1 0x1 PUSH2 0x6EF5 DUP5 PUSH2 0x2AFA JUMP JUMPDEST PUSH2 0x6EFF SWAP2 SWAP1 PUSH2 0x7FEC JUMP JUMPDEST PUSH1 0x0 DUP4 DUP2 MSTORE PUSH1 0x98 PUSH1 0x20 MSTORE PUSH1 0x40 SWAP1 KECCAK256 SLOAD SWAP1 SWAP2 POP DUP1 DUP3 EQ PUSH2 0x6F52 JUMPI PUSH1 0x1 PUSH1 0x1 PUSH1 0xA0 SHL SUB DUP5 AND PUSH1 0x0 SWAP1 DUP2 MSTORE PUSH1 0x97 PUSH1 0x20 SWAP1 DUP2 MSTORE PUSH1 0x40 DUP1 DUP4 KECCAK256 DUP6 DUP5 MSTORE DUP3 MSTORE DUP1 DUP4 KECCAK256 SLOAD DUP5 DUP5 MSTORE DUP2 DUP5 KECCAK256 DUP2 SWAP1 SSTORE DUP4 MSTORE PUSH1 0x98 SWAP1 SWAP2 MSTORE SWAP1 KECCAK256 DUP2 SWAP1 SSTORE JUMPDEST POP PUSH1 0x0 SWAP2 DUP3 MSTORE PUSH1 0x98 PUSH1 0x20 SWAP1 DUP2 MSTORE PUSH1 0x40 DUP1 DUP5 KECCAK256 DUP5 SWAP1 SSTORE PUSH1 0x1 PUSH1 0x1 PUSH1 0xA0 SHL SUB SWAP1 SWAP5 AND DUP4 MSTORE PUSH1 0x97 DUP2 MSTORE DUP4 DUP4 KECCAK256 SWAP2 DUP4 MSTORE MSTORE SWAP1 DUP2 KECCAK256 SSTORE JUMP JUMPDEST PUSH1 0x99 SLOAD PUSH1 0x0 SWAP1 PUSH2 0x6F97 SWAP1 PUSH1 0x1 SWAP1 PUSH2 0x7FEC JUMP JUMPDEST PUSH1 0x0 DUP4 DUP2 MSTORE PUSH1 0x9A PUSH1 0x20 MSTORE PUSH1 0x40 DUP2 KECCAK256 SLOAD PUSH1 0x99 DUP1 SLOAD SWAP4 SWAP5 POP SWAP1 SWAP3 DUP5 SWAP1 DUP2 LT PUSH2 0x6FBF JUMPI PUSH2 0x6FBF PUSH2 0x7F45 JUMP JUMPDEST SWAP1 PUSH1 0x0 MSTORE PUSH1 0x20 PUSH1 0x0 KECCAK256 ADD SLOAD SWAP1 POP DUP1 PUSH1 0x99 DUP4 DUP2 SLOAD DUP2 LT PUSH2 0x6FE0 JUMPI PUSH2 0x6FE0 PUSH2 0x7F45 JUMP JUMPDEST PUSH1 0x0 SWAP2 DUP3 MSTORE PUSH1 0x20 DUP1 DUP4 KECCAK256 SWAP1 SWAP2 ADD SWAP3 SWAP1 SWAP3 SSTORE DUP3 DUP2 MSTORE PUSH1 0x9A SWAP1 SWAP2 MSTORE PUSH1 0x40 DUP1 DUP3 KECCAK256 DUP5 SWAP1 SSTORE DUP6 DUP3 MSTORE DUP2 KECCAK256 SSTORE PUSH1 0x99 DUP1 SLOAD DUP1 PUSH2 0x7018 JUMPI PUSH2 0x7018 PUSH2 0x88A9 JUMP JUMPDEST PUSH1 0x1 SWAP1 SUB DUP2 DUP2 SWAP1 PUSH1 0x0 MSTORE PUSH1 0x20 PUSH1 0x0 KECCAK256 ADD PUSH1 0x0 SWAP1 SSTORE SWAP1 SSTORE POP POP POP POP JUMP JUMPDEST PUSH1 0x0 PUSH2 0x703F DUP4 PUSH2 0x2AFA JUMP JUMPDEST PUSH1 0x1 PUSH1 0x1 PUSH1 0xA0 SHL SUB SWAP1 SWAP4 AND PUSH1 0x0 SWAP1 DUP2 MSTORE PUSH1 0x97 PUSH1 0x20 SWAP1 DUP2 MSTORE PUSH1 0x40 DUP1 DUP4 KECCAK256 DUP7 DUP5 MSTORE DUP3 MSTORE DUP1 DUP4 KECCAK256 DUP6 SWAP1 SSTORE SWAP4 DUP3 MSTORE PUSH1 0x98 SWAP1 MSTORE SWAP2 SWAP1 SWAP2 KECCAK256 SWAP2 SWAP1 SWAP2 SSTORE POP JUMP JUMPDEST PUSH1 0x0 DUP1 PUSH19 0x184F03E93FF9F4DAA797ED6E38ED64BF6A1F01 PUSH1 0x40 SHL DUP4 LT PUSH2 0x70B7 JUMPI PUSH19 0x184F03E93FF9F4DAA797ED6E38ED64BF6A1F01 PUSH1 0x40 SHL DUP4 DIV SWAP3 POP PUSH1 0x40 ADD JUMPDEST PUSH14 0x4EE2D6D415B85ACEF8100000000 DUP4 LT PUSH2 0x70E3 JUMPI PUSH14 0x4EE2D6D415B85ACEF8100000000 DUP4 DIV SWAP3 POP PUSH1 0x20 ADD JUMPDEST PUSH7 0x2386F26FC10000 DUP4 LT PUSH2 0x7101 JUMPI PUSH7 0x2386F26FC10000 DUP4 DIV SWAP3 POP PUSH1 0x10 ADD JUMPDEST PUSH4 0x5F5E100 DUP4 LT PUSH2 0x7119 JUMPI PUSH4 0x5F5E100 DUP4 DIV SWAP3 POP PUSH1 0x8 ADD JUMPDEST PUSH2 0x2710 DUP4 LT PUSH2 0x712D JUMPI PUSH2 0x2710 DUP4 DIV SWAP3 POP PUSH1 0x4 ADD JUMPDEST PUSH1 0x64 DUP4 LT PUSH2 0x713F JUMPI PUSH1 0x64 DUP4 DIV SWAP3 POP PUSH1 0x2 ADD JUMPDEST PUSH1 0xA DUP4 LT PUSH2 0x159B JUMPI PUSH1 0x1 ADD SWAP3 SWAP2 POP POP JUMP JUMPDEST POP DUP1 SLOAD PUSH2 0x715C SWAP1 PUSH2 0x7EB7 JUMP JUMPDEST PUSH1 0x0 DUP3 SSTORE DUP1 PUSH1 0x1F LT PUSH2 0x716C JUMPI POP POP JUMP JUMPDEST PUSH1 0x1F ADD PUSH1 0x20 SWAP1 DIV SWAP1 PUSH1 0x0 MSTORE PUSH1 0x20 PUSH1 0x0 KECCAK256 SWAP1 DUP2 ADD SWAP1 PUSH2 0x22BC SWAP2 SWAP1 JUMPDEST DUP1 DUP3 GT ISZERO PUSH2 0x719A JUMPI PUSH1 0x0 DUP2 SSTORE PUSH1 0x1 ADD PUSH2 0x7186 JUMP JUMPDEST POP SWAP1 JUMP JUMPDEST DUP1 CALLDATALOAD PUSH2 0xFFFF DUP2 AND DUP2 EQ PUSH2 0x71B0 JUMPI PUSH1 0x0 DUP1 REVERT JUMPDEST SWAP2 SWAP1 POP JUMP JUMPDEST PUSH1 0x0 DUP1 DUP4 PUSH1 0x1F DUP5 ADD SLT PUSH2 0x71C7 JUMPI PUSH1 0x0 DUP1 REVERT JUMPDEST POP DUP2 CALLDATALOAD PUSH1 0x1 PUSH1 0x1 PUSH1 0x40 SHL SUB DUP2 GT ISZERO PUSH2 0x71DE JUMPI PUSH1 0x0 DUP1 REVERT JUMPDEST PUSH1 0x20 DUP4 ADD SWAP2 POP DUP4 PUSH1 0x20 DUP3 DUP6 ADD ADD GT ISZERO PUSH2 0x5375 JUMPI PUSH1 0x0 DUP1 REVERT JUMPDEST DUP1 CALLDATALOAD PUSH1 0x1 PUSH1 0x1 PUSH1 0x40 SHL SUB DUP2 AND DUP2 EQ PUSH2 0x71B0 JUMPI PUSH1 0x0 DUP1 REVERT JUMPDEST PUSH1 0x0 DUP1 PUSH1 0x0 DUP1 PUSH1 0x0 DUP1 PUSH1 0x80 DUP8 DUP10 SUB SLT ISZERO PUSH2 0x7226 JUMPI PUSH1 0x0 DUP1 REVERT JUMPDEST PUSH2 0x722F DUP8 PUSH2 0x719E JUMP JUMPDEST SWAP6 POP PUSH1 0x20 DUP8 ADD CALLDATALOAD PUSH1 0x1 PUSH1 0x1 PUSH1 0x40 SHL SUB DUP1 DUP3 GT ISZERO PUSH2 0x724B JUMPI PUSH1 0x0 DUP1 REVERT JUMPDEST PUSH2 0x7257 DUP11 DUP4 DUP12 ADD PUSH2 0x71B5 JUMP JUMPDEST SWAP1 SWAP8 POP SWAP6 POP DUP6 SWAP2 POP PUSH2 0x726B PUSH1 0x40 DUP11 ADD PUSH2 0x71F6 JUMP JUMPDEST SWAP5 POP PUSH1 0x60 DUP10 ADD CALLDATALOAD SWAP2 POP DUP1 DUP3 GT ISZERO PUSH2 0x7281 JUMPI PUSH1 0x0 DUP1 REVERT JUMPDEST POP PUSH2 0x728E DUP10 DUP3 DUP11 ADD PUSH2 0x71B5 JUMP JUMPDEST SWAP8 SWAP11 SWAP7 SWAP10 POP SWAP5 SWAP8 POP SWAP3 SWAP6 SWAP4 SWAP5 SWAP3 POP POP POP JUMP JUMPDEST PUSH1 0x0 PUSH1 0x20 DUP3 DUP5 SUB SLT ISZERO PUSH2 0x72B2 JUMPI PUSH1 0x0 DUP1 REVERT JUMPDEST POP CALLDATALOAD SWAP2 SWAP1 POP JUMP JUMPDEST PUSH1 0x1 PUSH1 0x1 PUSH1 0xE0 SHL SUB NOT DUP2 AND DUP2 EQ PUSH2 0x22BC JUMPI PUSH1 0x0 DUP1 REVERT JUMPDEST PUSH1 0x0 PUSH1 0x20 DUP3 DUP5 SUB SLT ISZERO PUSH2 0x72E1 JUMPI PUSH1 0x0 DUP1 REVERT JUMPDEST DUP2 CALLDATALOAD PUSH2 0x3F2F DUP2 PUSH2 0x72B9 JUMP JUMPDEST PUSH1 0x0 JUMPDEST DUP4 DUP2 LT ISZERO PUSH2 0x7307 JUMPI DUP2 DUP2 ADD MLOAD DUP4 DUP3 ADD MSTORE PUSH1 0x20 ADD PUSH2 0x72EF JUMP JUMPDEST POP POP PUSH1 0x0 SWAP2 ADD MSTORE JUMP JUMPDEST PUSH1 0x0 DUP2 MLOAD DUP1 DUP5 MSTORE PUSH2 0x7328 DUP2 PUSH1 0x20 DUP7 ADD PUSH1 0x20 DUP7 ADD PUSH2 0x72EC JUMP JUMPDEST PUSH1 0x1F ADD PUSH1 0x1F NOT AND SWAP3 SWAP1 SWAP3 ADD PUSH1 0x20 ADD SWAP3 SWAP2 POP POP JUMP JUMPDEST PUSH1 0x20 DUP2 MSTORE PUSH1 0x0 PUSH2 0x3F2F PUSH1 0x20 DUP4 ADD DUP5 PUSH2 0x7310 JUMP JUMPDEST PUSH1 0x0 PUSH1 0x20 DUP3 DUP5 SUB SLT ISZERO PUSH2 0x7361 JUMPI PUSH1 0x0 DUP1 REVERT JUMPDEST PUSH2 0x3F2F DUP3 PUSH2 0x719E JUMP JUMPDEST PUSH1 0x1 PUSH1 0x1 PUSH1 0xA0 SHL SUB DUP2 AND DUP2 EQ PUSH2 0x22BC JUMPI PUSH1 0x0 DUP1 REVERT JUMPDEST DUP1 CALLDATALOAD PUSH2 0x71B0 DUP2 PUSH2 0x736A JUMP JUMPDEST PUSH1 0x0 DUP1 PUSH1 0x40 DUP4 DUP6 SUB SLT ISZERO PUSH2 0x739D JUMPI PUSH1 0x0 DUP1 REVERT JUMPDEST DUP3 CALLDATALOAD PUSH2 0x73A8 DUP2 PUSH2 0x736A JUMP JUMPDEST SWAP5 PUSH1 0x20 SWAP4 SWAP1 SWAP4 ADD CALLDATALOAD SWAP4 POP POP POP JUMP JUMPDEST PUSH1 0x0 DUP1 PUSH1 0x40 DUP4 DUP6 SUB SLT ISZERO PUSH2 0x73C9 JUMPI PUSH1 0x0 DUP1 REVERT JUMPDEST PUSH2 0x73A8 DUP4 PUSH2 0x719E JUMP JUMPDEST PUSH1 0x0 DUP1 PUSH1 0x0 DUP1 PUSH1 0x80 DUP6 DUP8 SUB SLT ISZERO PUSH2 0x73E8 JUMPI PUSH1 0x0 DUP1 REVERT JUMPDEST DUP5 CALLDATALOAD SWAP4 POP PUSH1 0x20 DUP6 ADD CALLDATALOAD SWAP3 POP PUSH1 0x40 DUP6 ADD CALLDATALOAD PUSH2 0x7401 DUP2 PUSH2 0x736A JUMP JUMPDEST SWAP4 SWAP7 SWAP3 SWAP6 POP SWAP3 SWAP4 PUSH1 0x60 ADD CALLDATALOAD SWAP3 POP POP JUMP JUMPDEST PUSH1 0x0 PUSH1 0x20 DUP3 DUP5 SUB SLT ISZERO PUSH2 0x7423 JUMPI PUSH1 0x0 DUP1 REVERT JUMPDEST DUP2 CALLDATALOAD PUSH2 0x3F2F DUP2 PUSH2 0x736A JUMP JUMPDEST PUSH1 0x0 DUP1 PUSH1 0x0 PUSH1 0x60 DUP5 DUP7 SUB SLT ISZERO PUSH2 0x7443 JUMPI PUSH1 0x0 DUP1 REVERT JUMPDEST DUP4 CALLDATALOAD PUSH2 0x744E DUP2 PUSH2 0x736A JUMP JUMPDEST SWAP3 POP PUSH1 0x20 DUP5 ADD CALLDATALOAD PUSH2 0x745E DUP2 PUSH2 0x736A JUMP JUMPDEST SWAP3 SWAP6 SWAP3 SWAP5 POP POP POP PUSH1 0x40 SWAP2 SWAP1 SWAP2 ADD CALLDATALOAD SWAP1 JUMP JUMPDEST PUSH4 0x4E487B71 PUSH1 0xE0 SHL PUSH1 0x0 MSTORE PUSH1 0x41 PUSH1 0x4 MSTORE PUSH1 0x24 PUSH1 0x0 REVERT JUMPDEST PUSH1 0x40 MLOAD PUSH1 0x1F DUP3 ADD PUSH1 0x1F NOT AND DUP2 ADD PUSH1 0x1 PUSH1 0x1 PUSH1 0x40 SHL SUB DUP2 GT DUP3 DUP3 LT OR ISZERO PUSH2 0x74AD JUMPI PUSH2 0x74AD PUSH2 0x746F JUMP JUMPDEST PUSH1 0x40 MSTORE SWAP2 SWAP1 POP JUMP JUMPDEST PUSH1 0x0 PUSH1 0x1 PUSH1 0x1 PUSH1 0x40 SHL SUB DUP3 GT ISZERO PUSH2 0x74CE JUMPI PUSH2 0x74CE PUSH2 0x746F JUMP JUMPDEST POP PUSH1 0x1F ADD PUSH1 0x1F NOT AND PUSH1 0x20 ADD SWAP1 JUMP JUMPDEST PUSH1 0x0 DUP3 PUSH1 0x1F DUP4 ADD SLT PUSH2 0x74ED JUMPI PUSH1 0x0 DUP1 REVERT JUMPDEST DUP2 CALLDATALOAD PUSH2 0x7500 PUSH2 0x74FB DUP3 PUSH2 0x74B5 JUMP JUMPDEST PUSH2 0x7485 JUMP JUMPDEST DUP2 DUP2 MSTORE DUP5 PUSH1 0x20 DUP4 DUP7 ADD ADD GT ISZERO PUSH2 0x7515 JUMPI PUSH1 0x0 DUP1 REVERT JUMPDEST DUP2 PUSH1 0x20 DUP6 ADD PUSH1 0x20 DUP4 ADD CALLDATACOPY PUSH1 0x0 SWAP2 DUP2 ADD PUSH1 0x20 ADD SWAP2 SWAP1 SWAP2 MSTORE SWAP4 SWAP3 POP POP POP JUMP JUMPDEST DUP1 ISZERO ISZERO DUP2 EQ PUSH2 0x22BC JUMPI PUSH1 0x0 DUP1 REVERT JUMPDEST PUSH1 0x0 DUP1 PUSH1 0x0 DUP1 PUSH1 0x0 PUSH1 0xA0 DUP7 DUP9 SUB SLT ISZERO PUSH2 0x7558 JUMPI PUSH1 0x0 DUP1 REVERT JUMPDEST PUSH2 0x7561 DUP7 PUSH2 0x719E JUMP JUMPDEST SWAP5 POP PUSH1 0x20 DUP7 ADD CALLDATALOAD PUSH1 0x1 PUSH1 0x1 PUSH1 0x40 SHL SUB DUP1 DUP3 GT ISZERO PUSH2 0x757D JUMPI PUSH1 0x0 DUP1 REVERT JUMPDEST PUSH2 0x7589 DUP10 DUP4 DUP11 ADD PUSH2 0x74DC JUMP JUMPDEST SWAP6 POP PUSH1 0x40 DUP9 ADD CALLDATALOAD SWAP5 POP PUSH1 0x60 DUP9 ADD CALLDATALOAD SWAP2 POP PUSH2 0x75A2 DUP3 PUSH2 0x7532 JUMP JUMPDEST SWAP1 SWAP3 POP PUSH1 0x80 DUP8 ADD CALLDATALOAD SWAP1 DUP1 DUP3 GT ISZERO PUSH2 0x75B8 JUMPI PUSH1 0x0 DUP1 REVERT JUMPDEST POP PUSH2 0x75C5 DUP9 DUP3 DUP10 ADD PUSH2 0x74DC JUMP JUMPDEST SWAP2 POP POP SWAP3 SWAP6 POP SWAP3 SWAP6 SWAP1 SWAP4 POP JUMP JUMPDEST PUSH1 0x0 DUP1 PUSH1 0x40 DUP4 DUP6 SUB SLT ISZERO PUSH2 0x75E5 JUMPI PUSH1 0x0 DUP1 REVERT JUMPDEST POP POP DUP1 CALLDATALOAD SWAP3 PUSH1 0x20 SWAP1 SWAP2 ADD CALLDATALOAD SWAP2 POP JUMP JUMPDEST PUSH1 0x0 DUP1 PUSH1 0x0 DUP1 PUSH1 0x80 DUP6 DUP8 SUB SLT ISZERO PUSH2 0x760A JUMPI PUSH1 0x0 DUP1 REVERT JUMPDEST DUP5 CALLDATALOAD SWAP4 POP PUSH1 0x20 DUP6 ADD CALLDATALOAD SWAP3 POP PUSH1 0x40 DUP6 ADD CALLDATALOAD PUSH2 0x7623 DUP2 PUSH2 0x736A JUMP JUMPDEST SWAP2 POP PUSH1 0x60 DUP6 ADD CALLDATALOAD PUSH2 0x7633 DUP2 PUSH2 0x736A JUMP JUMPDEST SWAP4 SWAP7 SWAP3 SWAP6 POP SWAP1 SWAP4 POP POP JUMP JUMPDEST PUSH1 0x0 DUP1 PUSH1 0x0 PUSH1 0x40 DUP5 DUP7 SUB SLT ISZERO PUSH2 0x7653 JUMPI PUSH1 0x0 DUP1 REVERT JUMPDEST PUSH2 0x765C DUP5 PUSH2 0x719E JUMP JUMPDEST SWAP3 POP PUSH1 0x20 DUP5 ADD CALLDATALOAD PUSH1 0x1 PUSH1 0x1 PUSH1 0x40 SHL SUB DUP2 GT ISZERO PUSH2 0x7677 JUMPI PUSH1 0x0 DUP1 REVERT JUMPDEST PUSH2 0x7683 DUP7 DUP3 DUP8 ADD PUSH2 0x71B5 JUMP JUMPDEST SWAP5 SWAP8 SWAP1 SWAP7 POP SWAP4 SWAP5 POP POP POP POP JUMP JUMPDEST PUSH1 0x0 DUP1 PUSH1 0x0 DUP1 PUSH1 0x0 DUP1 PUSH1 0x0 PUSH1 0xE0 DUP9 DUP11 SUB SLT ISZERO PUSH2 0x76AB JUMPI PUSH1 0x0 DUP1 REVERT JUMPDEST DUP8 CALLDATALOAD PUSH2 0x76B6 DUP2 PUSH2 0x736A JUMP JUMPDEST SWAP7 POP PUSH2 0x76C4 PUSH1 0x20 DUP10 ADD PUSH2 0x719E JUMP JUMPDEST SWAP6 POP PUSH1 0x40 DUP9 ADD CALLDATALOAD PUSH1 0x1 PUSH1 0x1 PUSH1 0x40 SHL SUB DUP1 DUP3 GT ISZERO PUSH2 0x76E0 JUMPI PUSH1 0x0 DUP1 REVERT JUMPDEST PUSH2 0x76EC DUP12 DUP4 DUP13 ADD PUSH2 0x74DC JUMP JUMPDEST SWAP7 POP PUSH1 0x60 DUP11 ADD CALLDATALOAD SWAP6 POP PUSH1 0x80 DUP11 ADD CALLDATALOAD SWAP2 POP PUSH2 0x7705 DUP3 PUSH2 0x736A JUMP JUMPDEST SWAP1 SWAP4 POP PUSH1 0xA0 DUP10 ADD CALLDATALOAD SWAP1 PUSH2 0x7717 DUP3 PUSH2 0x736A JUMP JUMPDEST SWAP1 SWAP3 POP PUSH1 0xC0 DUP10 ADD CALLDATALOAD SWAP1 DUP1 DUP3 GT ISZERO PUSH2 0x772D JUMPI PUSH1 0x0 DUP1 REVERT JUMPDEST POP PUSH2 0x773A DUP11 DUP3 DUP12 ADD PUSH2 0x74DC JUMP JUMPDEST SWAP2 POP POP SWAP3 SWAP6 SWAP9 SWAP2 SWAP5 SWAP8 POP SWAP3 SWAP6 POP JUMP JUMPDEST PUSH1 0x0 DUP1 PUSH1 0x0 PUSH1 0x60 DUP5 DUP7 SUB SLT ISZERO PUSH2 0x775E JUMPI PUSH1 0x0 DUP1 REVERT JUMPDEST PUSH2 0x7767 DUP5 PUSH2 0x719E JUMP JUMPDEST SWAP3 POP PUSH1 0x20 DUP5 ADD CALLDATALOAD PUSH1 0x1 PUSH1 0x1 PUSH1 0x40 SHL SUB DUP2 GT ISZERO PUSH2 0x7782 JUMPI PUSH1 0x0 DUP1 REVERT JUMPDEST PUSH2 0x778E DUP7 DUP3 DUP8 ADD PUSH2 0x74DC JUMP JUMPDEST SWAP3 POP POP PUSH2 0x779D PUSH1 0x40 DUP6 ADD PUSH2 0x71F6 JUMP JUMPDEST SWAP1 POP SWAP3 POP SWAP3 POP SWAP3 JUMP JUMPDEST PUSH1 0x0 DUP1 PUSH1 0x0 DUP1 PUSH1 0x80 DUP6 DUP8 SUB SLT ISZERO PUSH2 0x77BC JUMPI PUSH1 0x0 DUP1 REVERT JUMPDEST DUP5 CALLDATALOAD PUSH1 0x1 PUSH1 0x1 PUSH1 0x40 SHL SUB DUP1 DUP3 GT ISZERO PUSH2 0x77D3 JUMPI PUSH1 0x0 DUP1 REVERT JUMPDEST PUSH2 0x77DF DUP9 DUP4 DUP10 ADD PUSH2 0x74DC JUMP JUMPDEST SWAP6 POP PUSH1 0x20 DUP8 ADD CALLDATALOAD SWAP5 POP PUSH1 0x40 DUP8 ADD CALLDATALOAD SWAP2 POP DUP1 DUP3 GT ISZERO PUSH2 0x77FC JUMPI PUSH1 0x0 DUP1 REVERT JUMPDEST POP PUSH2 0x7809 DUP8 DUP3 DUP9 ADD PUSH2 0x74DC JUMP JUMPDEST SWAP3 POP POP PUSH1 0x60 DUP6 ADD CALLDATALOAD PUSH2 0x7633 DUP2 PUSH2 0x736A JUMP JUMPDEST PUSH1 0x0 DUP1 PUSH1 0x0 DUP1 PUSH1 0x0 PUSH1 0xA0 DUP7 DUP9 SUB SLT ISZERO PUSH2 0x7832 JUMPI PUSH1 0x0 DUP1 REVERT JUMPDEST DUP6 CALLDATALOAD SWAP5 POP PUSH1 0x20 DUP7 ADD CALLDATALOAD PUSH2 0x7844 DUP2 PUSH2 0x736A JUMP JUMPDEST SWAP4 POP PUSH1 0x40 DUP7 ADD CALLDATALOAD SWAP3 POP PUSH1 0x60 DUP7 ADD CALLDATALOAD PUSH2 0x785B DUP2 PUSH2 0x736A JUMP JUMPDEST SWAP2 POP PUSH1 0x80 DUP7 ADD CALLDATALOAD PUSH2 0x786B DUP2 PUSH2 0x736A JUMP JUMPDEST DUP1 SWAP2 POP POP SWAP3 SWAP6 POP SWAP3 SWAP6 SWAP1 SWAP4 POP JUMP JUMPDEST PUSH1 0x0 DUP1 PUSH1 0x0 DUP1 PUSH1 0x0 PUSH1 0xA0 DUP7 DUP9 SUB SLT ISZERO PUSH2 0x7891 JUMPI PUSH1 0x0 DUP1 REVERT JUMPDEST DUP6 CALLDATALOAD SWAP5 POP PUSH1 0x20 DUP7 ADD CALLDATALOAD PUSH2 0x78A3 DUP2 PUSH2 0x736A JUMP JUMPDEST SWAP4 POP PUSH1 0x40 DUP7 ADD CALLDATALOAD PUSH2 0x78B3 DUP2 PUSH2 0x736A JUMP JUMPDEST SWAP3 POP PUSH1 0x60 DUP7 ADD CALLDATALOAD PUSH2 0x78C3 DUP2 PUSH2 0x736A JUMP JUMPDEST SWAP5 SWAP8 SWAP4 SWAP7 POP SWAP2 SWAP5 PUSH1 0x80 ADD CALLDATALOAD SWAP3 SWAP2 POP POP JUMP JUMPDEST PUSH1 0x0 DUP1 PUSH1 0x0 DUP1 PUSH1 0x0 PUSH1 0xA0 DUP7 DUP9 SUB SLT ISZERO PUSH2 0x78EC JUMPI PUSH1 0x0 DUP1 REVERT JUMPDEST DUP6 CALLDATALOAD PUSH2 0x78F7 DUP2 PUSH2 0x736A JUMP JUMPDEST SWAP5 POP PUSH1 0x20 DUP7 ADD CALLDATALOAD PUSH1 0x1 PUSH1 0x1 PUSH1 0x40 SHL SUB DUP1 DUP3 GT ISZERO PUSH2 0x7913 JUMPI PUSH1 0x0 DUP1 REVERT JUMPDEST PUSH2 0x791F DUP10 DUP4 DUP11 ADD PUSH2 0x74DC JUMP JUMPDEST SWAP6 POP PUSH1 0x40 DUP9 ADD CALLDATALOAD SWAP2 POP DUP1 DUP3 GT ISZERO PUSH2 0x7935 JUMPI PUSH1 0x0 DUP1 REVERT JUMPDEST POP PUSH2 0x7942 DUP9 DUP3 DUP10 ADD PUSH2 0x74DC JUMP JUMPDEST SWAP4 POP POP PUSH1 0x60 DUP7 ADD CALLDATALOAD SWAP2 POP PUSH1 0x80 DUP7 ADD CALLDATALOAD PUSH2 0x786B DUP2 PUSH2 0x736A JUMP JUMPDEST PUSH1 0x0 DUP1 PUSH1 0x0 PUSH1 0x60 DUP5 DUP7 SUB SLT ISZERO PUSH2 0x796F JUMPI PUSH1 0x0 DUP1 REVERT JUMPDEST DUP4 CALLDATALOAD PUSH2 0x797A DUP2 PUSH2 0x736A JUMP JUMPDEST SWAP6 PUSH1 0x20 DUP6 ADD CALLDATALOAD SWAP6 POP PUSH1 0x40 SWAP1 SWAP5 ADD CALLDATALOAD SWAP4 SWAP3 POP POP POP JUMP JUMPDEST PUSH1 0x0 DUP1 PUSH1 0x0 PUSH1 0x60 DUP5 DUP7 SUB SLT ISZERO PUSH2 0x79A4 JUMPI PUSH1 0x0 DUP1 REVERT JUMPDEST DUP4 CALLDATALOAD PUSH2 0x79AF DUP2 PUSH2 0x736A JUMP JUMPDEST SWAP3 POP PUSH1 0x20 DUP5 ADD CALLDATALOAD PUSH1 0x1 PUSH1 0x1 PUSH1 0x40 SHL SUB DUP2 GT ISZERO PUSH2 0x79CA JUMPI PUSH1 0x0 DUP1 REVERT JUMPDEST PUSH2 0x79D6 DUP7 DUP3 DUP8 ADD PUSH2 0x74DC JUMP JUMPDEST SWAP3 POP POP PUSH1 0x40 DUP5 ADD CALLDATALOAD SWAP1 POP SWAP3 POP SWAP3 POP SWAP3 JUMP JUMPDEST PUSH1 0x0 DUP1 PUSH1 0x40 DUP4 DUP6 SUB SLT ISZERO PUSH2 0x79FA JUMPI PUSH1 0x0 DUP1 REVERT JUMPDEST PUSH2 0x7A03 DUP4 PUSH2 0x719E JUMP JUMPDEST SWAP2 POP PUSH2 0x7A11 PUSH1 0x20 DUP5 ADD PUSH2 0x719E JUMP JUMPDEST SWAP1 POP SWAP3 POP SWAP3 SWAP1 POP JUMP JUMPDEST PUSH1 0x0 PUSH1 0x20 DUP3 DUP5 SUB SLT ISZERO PUSH2 0x7A2C JUMPI PUSH1 0x0 DUP1 REVERT JUMPDEST DUP2 CALLDATALOAD PUSH1 0x1 PUSH1 0x1 PUSH1 0x40 SHL SUB DUP2 GT ISZERO PUSH2 0x7A42 JUMPI PUSH1 0x0 DUP1 REVERT JUMPDEST PUSH2 0x552F DUP5 DUP3 DUP6 ADD PUSH2 0x74DC JUMP JUMPDEST PUSH1 0x0 DUP1 PUSH1 0x40 DUP4 DUP6 SUB SLT ISZERO PUSH2 0x7A61 JUMPI PUSH1 0x0 DUP1 REVERT JUMPDEST DUP3 CALLDATALOAD PUSH2 0x7A6C DUP2 PUSH2 0x736A JUMP JUMPDEST SWAP2 POP PUSH1 0x20 DUP4 ADD CALLDATALOAD PUSH2 0x7A7C DUP2 PUSH2 0x7532 JUMP JUMPDEST DUP1 SWAP2 POP POP SWAP3 POP SWAP3 SWAP1 POP JUMP JUMPDEST PUSH1 0x0 DUP1 PUSH1 0x0 PUSH1 0x60 DUP5 DUP7 SUB SLT ISZERO PUSH2 0x7A9C JUMPI PUSH1 0x0 DUP1 REVERT JUMPDEST DUP4 CALLDATALOAD SWAP3 POP PUSH1 0x20 DUP5 ADD CALLDATALOAD SWAP2 POP PUSH1 0x40 DUP5 ADD CALLDATALOAD PUSH2 0x7AB5 DUP2 PUSH2 0x736A JUMP JUMPDEST DUP1 SWAP2 POP POP SWAP3 POP SWAP3 POP SWAP3 JUMP JUMPDEST PUSH1 0x0 PUSH1 0x1 PUSH1 0x1 PUSH1 0x40 SHL SUB DUP3 GT ISZERO PUSH2 0x7AD9 JUMPI PUSH2 0x7AD9 PUSH2 0x746F JUMP JUMPDEST POP PUSH1 0x5 SHL PUSH1 0x20 ADD SWAP1 JUMP JUMPDEST PUSH1 0x0 DUP3 PUSH1 0x1F DUP4 ADD SLT PUSH2 0x7AF4 JUMPI PUSH1 0x0 DUP1 REVERT JUMPDEST DUP2 CALLDATALOAD PUSH1 0x20 PUSH2 0x7B04 PUSH2 0x74FB DUP4 PUSH2 0x7AC0 JUMP JUMPDEST DUP3 DUP2 MSTORE PUSH1 0x5 SWAP3 SWAP1 SWAP3 SHL DUP5 ADD DUP2 ADD SWAP2 DUP2 DUP2 ADD SWAP1 DUP7 DUP5 GT ISZERO PUSH2 0x7B23 JUMPI PUSH1 0x0 DUP1 REVERT JUMPDEST DUP3 DUP7 ADD JUMPDEST DUP5 DUP2 LT ISZERO PUSH2 0x7B3E JUMPI DUP1 CALLDATALOAD DUP4 MSTORE SWAP2 DUP4 ADD SWAP2 DUP4 ADD PUSH2 0x7B27 JUMP JUMPDEST POP SWAP7 SWAP6 POP POP POP POP POP POP JUMP JUMPDEST PUSH1 0x0 DUP1 PUSH1 0x0 DUP1 PUSH1 0x0 DUP1 PUSH1 0x0 PUSH1 0xE0 DUP9 DUP11 SUB SLT ISZERO PUSH2 0x7B64 JUMPI PUSH1 0x0 DUP1 REVERT JUMPDEST DUP8 CALLDATALOAD PUSH2 0x7B6F DUP2 PUSH2 0x736A JUMP JUMPDEST SWAP7 POP PUSH2 0x7B7D PUSH1 0x20 DUP10 ADD PUSH2 0x719E JUMP JUMPDEST SWAP6 POP PUSH1 0x40 DUP9 ADD CALLDATALOAD PUSH1 0x1 PUSH1 0x1 PUSH1 0x40 SHL SUB DUP1 DUP3 GT ISZERO PUSH2 0x7B99 JUMPI PUSH1 0x0 DUP1 REVERT JUMPDEST PUSH2 0x7BA5 DUP12 DUP4 DUP13 ADD PUSH2 0x74DC JUMP JUMPDEST SWAP7 POP PUSH1 0x60 DUP11 ADD CALLDATALOAD SWAP2 POP DUP1 DUP3 GT ISZERO PUSH2 0x7BBB JUMPI PUSH1 0x0 DUP1 REVERT JUMPDEST PUSH2 0x7BC7 DUP12 DUP4 DUP13 ADD PUSH2 0x7AE3 JUMP JUMPDEST SWAP6 POP PUSH1 0x80 DUP11 ADD CALLDATALOAD SWAP2 POP PUSH2 0x7BD9 DUP3 PUSH2 0x736A JUMP JUMPDEST DUP2 SWAP5 POP PUSH2 0x7BE8 PUSH1 0xA0 DUP12 ADD PUSH2 0x737F JUMP JUMPDEST SWAP4 POP PUSH1 0xC0 DUP11 ADD CALLDATALOAD SWAP2 POP DUP1 DUP3 GT ISZERO PUSH2 0x772D JUMPI PUSH1 0x0 DUP1 REVERT JUMPDEST PUSH1 0x0 DUP1 PUSH1 0x0 DUP1 PUSH1 0x80 DUP6 DUP8 SUB SLT ISZERO PUSH2 0x7C14 JUMPI PUSH1 0x0 DUP1 REVERT JUMPDEST DUP5 CALLDATALOAD PUSH2 0x7C1F DUP2 PUSH2 0x736A JUMP JUMPDEST SWAP4 POP PUSH1 0x20 DUP6 ADD CALLDATALOAD PUSH2 0x7C2F DUP2 PUSH2 0x736A JUMP JUMPDEST SWAP3 POP PUSH1 0x40 DUP6 ADD CALLDATALOAD SWAP2 POP PUSH1 0x60 DUP6 ADD CALLDATALOAD PUSH1 0x1 PUSH1 0x1 PUSH1 0x40 SHL SUB DUP2 GT ISZERO PUSH2 0x7C51 JUMPI PUSH1 0x0 DUP1 REVERT JUMPDEST PUSH2 0x7C5D DUP8 DUP3 DUP9 ADD PUSH2 0x74DC JUMP JUMPDEST SWAP2 POP POP SWAP3 SWAP6 SWAP2 SWAP5 POP SWAP3 POP JUMP JUMPDEST PUSH1 0x0 DUP1 PUSH1 0x0 DUP1 PUSH1 0x0 PUSH1 0x80 DUP7 DUP9 SUB SLT ISZERO PUSH2 0x7C81 JUMPI PUSH1 0x0 DUP1 REVERT JUMPDEST PUSH2 0x7C8A DUP7 PUSH2 0x719E JUMP JUMPDEST SWAP5 POP PUSH2 0x7C98 PUSH1 0x20 DUP8 ADD PUSH2 0x719E JUMP JUMPDEST SWAP4 POP PUSH1 0x40 DUP7 ADD CALLDATALOAD SWAP3 POP PUSH1 0x60 DUP7 ADD CALLDATALOAD PUSH1 0x1 PUSH1 0x1 PUSH1 0x40 SHL SUB DUP2 GT ISZERO PUSH2 0x7CBA JUMPI PUSH1 0x0 DUP1 REVERT JUMPDEST PUSH2 0x7CC6 DUP9 DUP3 DUP10 ADD PUSH2 0x71B5 JUMP JUMPDEST SWAP7 SWAP10 SWAP6 SWAP9 POP SWAP4 SWAP7 POP SWAP3 SWAP5 SWAP4 SWAP3 POP POP POP JUMP JUMPDEST PUSH1 0x40 DUP2 MSTORE PUSH1 0x0 PUSH2 0x7CEA PUSH1 0x40 DUP4 ADD DUP6 PUSH2 0x7310 JUMP JUMPDEST DUP3 DUP2 SUB PUSH1 0x20 DUP5 ADD MSTORE PUSH2 0x7CFC DUP2 DUP6 PUSH2 0x7310 JUMP JUMPDEST SWAP6 SWAP5 POP POP POP POP POP JUMP JUMPDEST PUSH1 0x0 DUP1 PUSH1 0x0 DUP1 PUSH1 0x80 DUP6 DUP8 SUB SLT ISZERO PUSH2 0x7D1B JUMPI PUSH1 0x0 DUP1 REVERT JUMPDEST DUP5 CALLDATALOAD SWAP4 POP PUSH1 0x20 DUP6 ADD CALLDATALOAD PUSH2 0x7D2D DUP2 PUSH2 0x736A JUMP JUMPDEST SWAP3 POP PUSH1 0x40 DUP6 ADD CALLDATALOAD SWAP2 POP PUSH1 0x60 DUP6 ADD CALLDATALOAD PUSH2 0x7633 DUP2 PUSH2 0x736A JUMP JUMPDEST PUSH1 0x0 DUP1 PUSH1 0x40 DUP4 DUP6 SUB SLT ISZERO PUSH2 0x7D57 JUMPI PUSH1 0x0 DUP1 REVERT JUMPDEST DUP3 CALLDATALOAD PUSH2 0x7D62 DUP2 PUSH2 0x736A JUMP JUMPDEST SWAP2 POP PUSH1 0x20 DUP4 ADD CALLDATALOAD PUSH1 0x1 PUSH1 0x1 PUSH1 0x40 SHL SUB DUP2 GT ISZERO PUSH2 0x7D7D JUMPI PUSH1 0x0 DUP1 REVERT JUMPDEST PUSH2 0x7D89 DUP6 DUP3 DUP7 ADD PUSH2 0x74DC JUMP JUMPDEST SWAP2 POP POP SWAP3 POP SWAP3 SWAP1 POP JUMP JUMPDEST PUSH1 0x0 DUP1 PUSH1 0x0 PUSH1 0x60 DUP5 DUP7 SUB SLT ISZERO PUSH2 0x7DA8 JUMPI PUSH1 0x0 DUP1 REVERT JUMPDEST PUSH2 0x7DB1 DUP5 PUSH2 0x719E JUMP JUMPDEST SWAP3 POP PUSH2 0x7DBF PUSH1 0x20 DUP6 ADD PUSH2 0x719E JUMP JUMPDEST SWAP2 POP PUSH1 0x40 DUP5 ADD CALLDATALOAD SWAP1 POP SWAP3 POP SWAP3 POP SWAP3 JUMP JUMPDEST PUSH1 0x0 DUP1 PUSH1 0x40 DUP4 DUP6 SUB SLT ISZERO PUSH2 0x7DE2 JUMPI PUSH1 0x0 DUP1 REVERT JUMPDEST DUP3 CALLDATALOAD PUSH2 0x7DED DUP2 PUSH2 0x736A JUMP JUMPDEST SWAP2 POP PUSH1 0x20 DUP4 ADD CALLDATALOAD PUSH2 0x7A7C DUP2 PUSH2 0x736A JUMP JUMPDEST PUSH1 0x0 DUP1 PUSH1 0x0 DUP1 PUSH1 0x0 PUSH1 0xA0 DUP7 DUP9 SUB SLT ISZERO PUSH2 0x7E15 JUMPI PUSH1 0x0 DUP1 REVERT JUMPDEST PUSH2 0x7E1E DUP7 PUSH2 0x719E JUMP JUMPDEST SWAP5 POP PUSH1 0x20 DUP7 ADD CALLDATALOAD PUSH1 0x1 PUSH1 0x1 PUSH1 0x40 SHL SUB DUP1 DUP3 GT ISZERO PUSH2 0x7E3A JUMPI PUSH1 0x0 DUP1 REVERT JUMPDEST PUSH2 0x7E46 DUP10 DUP4 DUP11 ADD PUSH2 0x74DC JUMP JUMPDEST SWAP6 POP PUSH1 0x40 DUP9 ADD CALLDATALOAD SWAP2 POP DUP1 DUP3 GT ISZERO PUSH2 0x7E5C JUMPI PUSH1 0x0 DUP1 REVERT JUMPDEST PUSH2 0x7E68 DUP10 DUP4 DUP11 ADD PUSH2 0x7AE3 JUMP JUMPDEST SWAP5 POP PUSH1 0x60 DUP9 ADD CALLDATALOAD SWAP2 POP PUSH2 0x75A2 DUP3 PUSH2 0x7532 JUMP JUMPDEST PUSH1 0x0 DUP1 PUSH1 0x0 DUP1 PUSH1 0x80 DUP6 DUP8 SUB SLT ISZERO PUSH2 0x7E90 JUMPI PUSH1 0x0 DUP1 REVERT JUMPDEST PUSH2 0x7E99 DUP6 PUSH2 0x719E JUMP JUMPDEST SWAP4 POP PUSH2 0x7EA7 PUSH1 0x20 DUP7 ADD PUSH2 0x719E JUMP JUMPDEST SWAP3 POP PUSH1 0x40 DUP6 ADD CALLDATALOAD PUSH2 0x7401 DUP2 PUSH2 0x736A JUMP JUMPDEST PUSH1 0x1 DUP2 DUP2 SHR SWAP1 DUP3 AND DUP1 PUSH2 0x7ECB JUMPI PUSH1 0x7F DUP3 AND SWAP2 POP JUMPDEST PUSH1 0x20 DUP3 LT DUP2 SUB PUSH2 0x7EEB JUMPI PUSH4 0x4E487B71 PUSH1 0xE0 SHL PUSH1 0x0 MSTORE PUSH1 0x22 PUSH1 0x4 MSTORE PUSH1 0x24 PUSH1 0x0 REVERT JUMPDEST POP SWAP2 SWAP1 POP JUMP JUMPDEST DUP2 DUP4 DUP3 CALLDATACOPY PUSH1 0x0 SWAP2 ADD SWAP1 DUP2 MSTORE SWAP2 SWAP1 POP JUMP JUMPDEST PUSH1 0x20 DUP1 DUP3 MSTORE PUSH1 0x24 SWAP1 DUP3 ADD MSTORE PUSH32 0x6D696E476173546F5472616E73666572416E6453746F7265206D757374206265 PUSH1 0x40 DUP3 ADD MSTORE PUSH4 0x203E203 PUSH1 0xE4 SHL PUSH1 0x60 DUP3 ADD MSTORE PUSH1 0x80 ADD SWAP1 JUMP JUMPDEST PUSH4 0x4E487B71 PUSH1 0xE0 SHL PUSH1 0x0 MSTORE PUSH1 0x32 PUSH1 0x4 MSTORE PUSH1 0x24 PUSH1 0x0 REVERT JUMPDEST PUSH4 0x4E487B71 PUSH1 0xE0 SHL PUSH1 0x0 MSTORE PUSH1 0x11 PUSH1 0x4 MSTORE PUSH1 0x24 PUSH1 0x0 REVERT JUMPDEST PUSH1 0x0 PUSH1 0x1 DUP3 ADD PUSH2 0x7F83 JUMPI PUSH2 0x7F83 PUSH2 0x7F5B JUMP JUMPDEST POP PUSH1 0x1 ADD SWAP1 JUMP JUMPDEST PUSH1 0x20 DUP1 DUP3 MSTORE PUSH1 0x15 SWAP1 DUP3 ADD MSTORE PUSH21 0x1858D8D95CDCC818DBDB9D1C9BDB0819195B9A5959 PUSH1 0x5A SHL PUSH1 0x40 DUP3 ADD MSTORE PUSH1 0x60 ADD SWAP1 JUMP JUMPDEST PUSH1 0x20 DUP1 DUP3 MSTORE PUSH1 0x6 SWAP1 DUP3 ADD MSTORE PUSH6 0x1B9BC818985B PUSH1 0xD2 SHL PUSH1 0x40 DUP3 ADD MSTORE PUSH1 0x60 ADD SWAP1 JUMP JUMPDEST DUP1 DUP3 ADD DUP1 DUP3 GT ISZERO PUSH2 0x159B JUMPI PUSH2 0x159B PUSH2 0x7F5B JUMP JUMPDEST DUP2 DUP2 SUB DUP2 DUP2 GT ISZERO PUSH2 0x159B JUMPI PUSH2 0x159B PUSH2 0x7F5B JUMP JUMPDEST DUP1 DUP3 MUL DUP2 ISZERO DUP3 DUP3 DIV DUP5 EQ OR PUSH2 0x159B JUMPI PUSH2 0x159B PUSH2 0x7F5B JUMP JUMPDEST PUSH1 0x20 DUP1 DUP3 MSTORE PUSH1 0x2D SWAP1 DUP3 ADD MSTORE PUSH32 0x4552433732313A2063616C6C6572206973206E6F7420746F6B656E206F776E65 PUSH1 0x40 DUP3 ADD MSTORE PUSH13 0x1C881BDC88185C1C1C9BDD9959 PUSH1 0x9A SHL PUSH1 0x60 DUP3 ADD MSTORE PUSH1 0x80 ADD SWAP1 JUMP JUMPDEST PUSH1 0x20 DUP1 DUP3 MSTORE PUSH1 0x10 SWAP1 DUP3 ADD MSTORE PUSH16 0x3737BA1037BBB732B91037B31034B21 PUSH1 0x85 SHL PUSH1 0x40 DUP3 ADD MSTORE PUSH1 0x60 ADD SWAP1 JUMP JUMPDEST PUSH1 0x0 PUSH1 0x20 DUP3 DUP5 SUB SLT ISZERO PUSH2 0x809F JUMPI PUSH1 0x0 DUP1 REVERT JUMPDEST POP MLOAD SWAP2 SWAP1 POP JUMP JUMPDEST PUSH1 0x0 PUSH1 0x20 DUP3 DUP5 SUB SLT ISZERO PUSH2 0x80B8 JUMPI PUSH1 0x0 DUP1 REVERT JUMPDEST DUP2 MLOAD PUSH2 0x3F2F DUP2 PUSH2 0x7532 JUMP JUMPDEST PUSH1 0x20 DUP1 DUP3 MSTORE PUSH1 0x21 SWAP1 DUP3 ADD MSTORE PUSH32 0x6E6F2061636365737320746F20736C6F74206F722064656C6574656420736C6F PUSH1 0x40 DUP3 ADD MSTORE PUSH1 0x1D PUSH1 0xFA SHL PUSH1 0x60 DUP3 ADD MSTORE PUSH1 0x80 ADD SWAP1 JUMP JUMPDEST DUP2 DUP4 MSTORE DUP2 DUP2 PUSH1 0x20 DUP6 ADD CALLDATACOPY POP PUSH1 0x0 DUP3 DUP3 ADD PUSH1 0x20 SWAP1 DUP2 ADD SWAP2 SWAP1 SWAP2 MSTORE PUSH1 0x1F SWAP1 SWAP2 ADD PUSH1 0x1F NOT AND SWAP1 SWAP2 ADD ADD SWAP1 JUMP JUMPDEST PUSH2 0xFFFF DUP5 AND DUP2 MSTORE PUSH1 0x40 PUSH1 0x20 DUP3 ADD MSTORE PUSH1 0x0 PUSH2 0x552C PUSH1 0x40 DUP4 ADD DUP5 DUP7 PUSH2 0x8104 JUMP JUMPDEST PUSH1 0x1F DUP3 GT ISZERO PUSH2 0x17D8 JUMPI PUSH1 0x0 DUP2 DUP2 MSTORE PUSH1 0x20 DUP2 KECCAK256 PUSH1 0x1F DUP6 ADD PUSH1 0x5 SHR DUP2 ADD PUSH1 0x20 DUP7 LT ISZERO PUSH2 0x8172 JUMPI POP DUP1 JUMPDEST PUSH1 0x1F DUP6 ADD PUSH1 0x5 SHR DUP3 ADD SWAP2 POP JUMPDEST DUP2 DUP2 LT ISZERO PUSH2 0x29BE JUMPI DUP3 DUP2 SSTORE PUSH1 0x1 ADD PUSH2 0x817E JUMP JUMPDEST DUP2 MLOAD PUSH1 0x1 PUSH1 0x1 PUSH1 0x40 SHL SUB DUP2 GT ISZERO PUSH2 0x81AA JUMPI PUSH2 0x81AA PUSH2 0x746F JUMP JUMPDEST PUSH2 0x81BE DUP2 PUSH2 0x81B8 DUP5 SLOAD PUSH2 0x7EB7 JUMP JUMPDEST DUP5 PUSH2 0x814B JUMP JUMPDEST PUSH1 0x20 DUP1 PUSH1 0x1F DUP4 GT PUSH1 0x1 DUP2 EQ PUSH2 0x81F3 JUMPI PUSH1 0x0 DUP5 ISZERO PUSH2 0x81DB JUMPI POP DUP6 DUP4 ADD MLOAD JUMPDEST PUSH1 0x0 NOT PUSH1 0x3 DUP7 SWAP1 SHL SHR NOT AND PUSH1 0x1 DUP6 SWAP1 SHL OR DUP6 SSTORE PUSH2 0x29BE JUMP JUMPDEST PUSH1 0x0 DUP6 DUP2 MSTORE PUSH1 0x20 DUP2 KECCAK256 PUSH1 0x1F NOT DUP7 AND SWAP2 JUMPDEST DUP3 DUP2 LT ISZERO PUSH2 0x8222 JUMPI DUP9 DUP7 ADD MLOAD DUP3 SSTORE SWAP5 DUP5 ADD SWAP5 PUSH1 0x1 SWAP1 SWAP2 ADD SWAP1 DUP5 ADD PUSH2 0x8203 JUMP JUMPDEST POP DUP6 DUP3 LT ISZERO PUSH2 0x8240 JUMPI DUP8 DUP6 ADD MLOAD PUSH1 0x0 NOT PUSH1 0x3 DUP9 SWAP1 SHL PUSH1 0xF8 AND SHR NOT AND DUP2 SSTORE JUMPDEST POP POP POP POP POP PUSH1 0x1 SWAP1 DUP2 SHL ADD SWAP1 SSTORE POP JUMP JUMPDEST PUSH1 0x20 DUP1 DUP3 MSTORE PUSH1 0xF SWAP1 DUP3 ADD MSTORE PUSH15 0x1B9BDB88195E1A5CDD195B9D081A59 PUSH1 0x8A SHL PUSH1 0x40 DUP3 ADD MSTORE PUSH1 0x60 ADD SWAP1 JUMP JUMPDEST PUSH1 0x0 DUP3 PUSH2 0x8296 JUMPI PUSH4 0x4E487B71 PUSH1 0xE0 SHL PUSH1 0x0 MSTORE PUSH1 0x12 PUSH1 0x4 MSTORE PUSH1 0x24 PUSH1 0x0 REVERT JUMPDEST POP DIV SWAP1 JUMP JUMPDEST PUSH1 0x0 DUP3 PUSH1 0x1F DUP4 ADD SLT PUSH2 0x82AC JUMPI PUSH1 0x0 DUP1 REVERT JUMPDEST DUP2 MLOAD PUSH2 0x82BA PUSH2 0x74FB DUP3 PUSH2 0x74B5 JUMP JUMPDEST DUP2 DUP2 MSTORE DUP5 PUSH1 0x20 DUP4 DUP7 ADD ADD GT ISZERO PUSH2 0x82CF JUMPI PUSH1 0x0 DUP1 REVERT JUMPDEST PUSH2 0x552F DUP3 PUSH1 0x20 DUP4 ADD PUSH1 0x20 DUP8 ADD PUSH2 0x72EC JUMP JUMPDEST PUSH1 0x0 DUP1 PUSH1 0x40 DUP4 DUP6 SUB SLT ISZERO PUSH2 0x82F3 JUMPI PUSH1 0x0 DUP1 REVERT JUMPDEST DUP3 MLOAD PUSH1 0x1 PUSH1 0x1 PUSH1 0x40 SHL SUB DUP1 DUP3 GT ISZERO PUSH2 0x830A JUMPI PUSH1 0x0 DUP1 REVERT JUMPDEST PUSH2 0x8316 DUP7 DUP4 DUP8 ADD PUSH2 0x829B JUMP JUMPDEST SWAP4 POP PUSH1 0x20 SWAP2 POP DUP2 DUP6 ADD MLOAD DUP2 DUP2 GT ISZERO PUSH2 0x832D JUMPI PUSH1 0x0 DUP1 REVERT JUMPDEST DUP6 ADD SWAP1 POP PUSH1 0x1F DUP2 ADD DUP7 SGT PUSH2 0x8340 JUMPI PUSH1 0x0 DUP1 REVERT JUMPDEST DUP1 MLOAD PUSH2 0x834E PUSH2 0x74FB DUP3 PUSH2 0x7AC0 JUMP JUMPDEST DUP2 DUP2 MSTORE PUSH1 0x5 SWAP2 SWAP1 SWAP2 SHL DUP3 ADD DUP4 ADD SWAP1 DUP4 DUP2 ADD SWAP1 DUP9 DUP4 GT ISZERO PUSH2 0x836D JUMPI PUSH1 0x0 DUP1 REVERT JUMPDEST SWAP3 DUP5 ADD SWAP3 JUMPDEST DUP3 DUP5 LT ISZERO PUSH2 0x838B JUMPI DUP4 MLOAD DUP3 MSTORE SWAP3 DUP5 ADD SWAP3 SWAP1 DUP5 ADD SWAP1 PUSH2 0x8372 JUMP JUMPDEST DUP1 SWAP6 POP POP POP POP POP POP SWAP3 POP SWAP3 SWAP1 POP JUMP JUMPDEST DUP3 DUP5 DUP3 CALLDATACOPY PUSH1 0x60 SWAP2 SWAP1 SWAP2 SHL PUSH12 0xFFFFFFFFFFFFFFFFFFFFFFFF NOT AND SWAP2 ADD SWAP1 DUP2 MSTORE PUSH1 0x14 ADD SWAP2 SWAP1 POP JUMP JUMPDEST PUSH1 0x0 PUSH2 0xFFFF DUP1 DUP9 AND DUP4 MSTORE DUP1 DUP8 AND PUSH1 0x20 DUP5 ADD MSTORE POP DUP5 PUSH1 0x40 DUP4 ADD MSTORE PUSH1 0x80 PUSH1 0x60 DUP4 ADD MSTORE PUSH2 0x83EE PUSH1 0x80 DUP4 ADD DUP5 DUP7 PUSH2 0x8104 JUMP JUMPDEST SWAP8 SWAP7 POP POP POP POP POP POP POP JUMP JUMPDEST PUSH2 0xFFFF DUP7 AND DUP2 MSTORE PUSH1 0x80 PUSH1 0x20 DUP3 ADD MSTORE PUSH1 0x0 PUSH2 0x8417 PUSH1 0x80 DUP4 ADD DUP7 DUP9 PUSH2 0x8104 JUMP JUMPDEST PUSH1 0x1 PUSH1 0x1 PUSH1 0x40 SHL SUB SWAP5 SWAP1 SWAP5 AND PUSH1 0x40 DUP4 ADD MSTORE POP PUSH1 0x60 ADD MSTORE SWAP4 SWAP3 POP POP POP JUMP JUMPDEST PUSH1 0x1 PUSH1 0x1 PUSH1 0x40 SHL SUB DUP4 GT ISZERO PUSH2 0x844B JUMPI PUSH2 0x844B PUSH2 0x746F JUMP JUMPDEST PUSH2 0x845F DUP4 PUSH2 0x8459 DUP4 SLOAD PUSH2 0x7EB7 JUMP JUMPDEST DUP4 PUSH2 0x814B JUMP JUMPDEST PUSH1 0x0 PUSH1 0x1F DUP5 GT PUSH1 0x1 DUP2 EQ PUSH2 0x8493 JUMPI PUSH1 0x0 DUP6 ISZERO PUSH2 0x847B JUMPI POP DUP4 DUP3 ADD CALLDATALOAD JUMPDEST PUSH1 0x0 NOT PUSH1 0x3 DUP8 SWAP1 SHL SHR NOT AND PUSH1 0x1 DUP7 SWAP1 SHL OR DUP4 SSTORE PUSH2 0x169A JUMP JUMPDEST PUSH1 0x0 DUP4 DUP2 MSTORE PUSH1 0x20 SWAP1 KECCAK256 PUSH1 0x1F NOT DUP7 AND SWAP1 DUP4 JUMPDEST DUP3 DUP2 LT ISZERO PUSH2 0x84C4 JUMPI DUP7 DUP6 ADD CALLDATALOAD DUP3 SSTORE PUSH1 0x20 SWAP5 DUP6 ADD SWAP5 PUSH1 0x1 SWAP1 SWAP3 ADD SWAP2 ADD PUSH2 0x84A4 JUMP JUMPDEST POP DUP7 DUP3 LT ISZERO PUSH2 0x84E1 JUMPI PUSH1 0x0 NOT PUSH1 0xF8 DUP9 PUSH1 0x3 SHL AND SHR NOT DUP5 DUP8 ADD CALLDATALOAD AND DUP2 SSTORE JUMPDEST POP POP PUSH1 0x1 DUP6 PUSH1 0x1 SHL ADD DUP4 SSTORE POP POP POP POP POP JUMP JUMPDEST PUSH1 0x0 DUP2 MLOAD DUP1 DUP5 MSTORE PUSH1 0x20 DUP1 DUP6 ADD SWAP5 POP DUP1 DUP5 ADD PUSH1 0x0 JUMPDEST DUP4 DUP2 LT ISZERO PUSH2 0x8523 JUMPI DUP2 MLOAD DUP8 MSTORE SWAP6 DUP3 ADD SWAP6 SWAP1 DUP3 ADD SWAP1 PUSH1 0x1 ADD PUSH2 0x8507 JUMP JUMPDEST POP SWAP5 SWAP6 SWAP5 POP POP POP POP POP JUMP JUMPDEST PUSH1 0x40 DUP2 MSTORE PUSH1 0x0 PUSH2 0x8541 PUSH1 0x40 DUP4 ADD DUP6 PUSH2 0x7310 JUMP JUMPDEST DUP3 DUP2 SUB PUSH1 0x20 DUP5 ADD MSTORE PUSH2 0x7CFC DUP2 DUP6 PUSH2 0x84F3 JUMP JUMPDEST PUSH2 0xFFFF DUP7 AND DUP2 MSTORE PUSH1 0x1 PUSH1 0x1 PUSH1 0xA0 SHL SUB DUP6 AND PUSH1 0x20 DUP3 ADD MSTORE PUSH1 0xA0 PUSH1 0x40 DUP3 ADD DUP2 SWAP1 MSTORE PUSH1 0x0 SWAP1 PUSH2 0x8581 SWAP1 DUP4 ADD DUP7 PUSH2 0x7310 JUMP JUMPDEST DUP5 ISZERO ISZERO PUSH1 0x60 DUP5 ADD MSTORE DUP3 DUP2 SUB PUSH1 0x80 DUP5 ADD MSTORE PUSH2 0x859B DUP2 DUP6 PUSH2 0x7310 JUMP JUMPDEST SWAP9 SWAP8 POP POP POP POP POP POP POP POP JUMP JUMPDEST PUSH1 0x0 DUP1 PUSH1 0x40 DUP4 DUP6 SUB SLT ISZERO PUSH2 0x85BA JUMPI PUSH1 0x0 DUP1 REVERT JUMPDEST POP POP DUP1 MLOAD PUSH1 0x20 SWAP1 SWAP2 ADD MLOAD SWAP1 SWAP3 SWAP1 SWAP2 POP JUMP JUMPDEST PUSH1 0x0 PUSH1 0x20 DUP3 DUP5 SUB SLT ISZERO PUSH2 0x85DD JUMPI PUSH1 0x0 DUP1 REVERT JUMPDEST DUP2 MLOAD PUSH1 0x1 PUSH1 0x1 PUSH1 0x40 SHL SUB DUP2 GT ISZERO PUSH2 0x85F3 JUMPI PUSH1 0x0 DUP1 REVERT JUMPDEST PUSH2 0x552F DUP5 DUP3 DUP6 ADD PUSH2 0x829B JUMP JUMPDEST PUSH2 0xFFFF DUP6 AND DUP2 MSTORE PUSH1 0x80 PUSH1 0x20 DUP3 ADD MSTORE PUSH1 0x0 PUSH2 0x861C PUSH1 0x80 DUP4 ADD DUP7 PUSH2 0x7310 JUMP JUMPDEST PUSH1 0x1 PUSH1 0x1 PUSH1 0x40 SHL SUB DUP6 AND PUSH1 0x40 DUP5 ADD MSTORE DUP3 DUP2 SUB PUSH1 0x60 DUP5 ADD MSTORE PUSH2 0x83EE DUP2 DUP6 PUSH2 0x7310 JUMP JUMPDEST PUSH1 0x20 DUP1 DUP3 MSTORE PUSH1 0x25 SWAP1 DUP3 ADD MSTORE PUSH32 0x4552433732313A207472616E736665722066726F6D20696E636F727265637420 PUSH1 0x40 DUP3 ADD MSTORE PUSH5 0x37BBB732B9 PUSH1 0xD9 SHL PUSH1 0x60 DUP3 ADD MSTORE PUSH1 0x80 ADD SWAP1 JUMP JUMPDEST PUSH1 0x0 DUP3 MLOAD PUSH2 0x8694 DUP2 DUP5 PUSH1 0x20 DUP8 ADD PUSH2 0x72EC JUMP JUMPDEST SWAP2 SWAP1 SWAP2 ADD SWAP3 SWAP2 POP POP JUMP JUMPDEST PUSH1 0x20 DUP2 MSTORE PUSH1 0x0 PUSH2 0x3F2F PUSH1 0x20 DUP4 ADD DUP5 PUSH2 0x84F3 JUMP JUMPDEST DUP3 DUP2 MSTORE PUSH1 0x40 PUSH1 0x20 DUP3 ADD MSTORE PUSH1 0x0 PUSH2 0x552F PUSH1 0x40 DUP4 ADD DUP5 PUSH2 0x7310 JUMP JUMPDEST PUSH1 0x20 DUP1 DUP3 MSTORE PUSH1 0x2B SWAP1 DUP3 ADD MSTORE PUSH32 0x496E697469616C697A61626C653A20636F6E7472616374206973206E6F742069 PUSH1 0x40 DUP3 ADD MSTORE PUSH11 0x6E697469616C697A696E67 PUSH1 0xA8 SHL PUSH1 0x60 DUP3 ADD MSTORE PUSH1 0x80 ADD SWAP1 JUMP JUMPDEST PUSH1 0x20 DUP1 DUP3 MSTORE PUSH1 0x32 SWAP1 DUP3 ADD MSTORE PUSH32 0x4552433732313A207472616E7366657220746F206E6F6E204552433732315265 PUSH1 0x40 DUP3 ADD MSTORE PUSH18 0x31B2B4BB32B91034B6B83632B6B2B73A32B9 PUSH1 0x71 SHL PUSH1 0x60 DUP3 ADD MSTORE PUSH1 0x80 ADD SWAP1 JUMP JUMPDEST PUSH1 0x0 DUP4 MLOAD PUSH2 0x8779 DUP2 DUP5 PUSH1 0x20 DUP9 ADD PUSH2 0x72EC JUMP JUMPDEST DUP4 MLOAD SWAP1 DUP4 ADD SWAP1 PUSH2 0x878D DUP2 DUP4 PUSH1 0x20 DUP9 ADD PUSH2 0x72EC JUMP JUMPDEST ADD SWAP5 SWAP4 POP POP POP POP JUMP JUMPDEST PUSH2 0xFFFF DUP7 AND DUP2 MSTORE PUSH1 0xA0 PUSH1 0x20 DUP3 ADD MSTORE PUSH1 0x0 PUSH2 0x87B3 PUSH1 0xA0 DUP4 ADD DUP8 PUSH2 0x7310 JUMP JUMPDEST PUSH1 0x1 PUSH1 0x1 PUSH1 0x40 SHL SUB DUP7 AND PUSH1 0x40 DUP5 ADD MSTORE DUP3 DUP2 SUB PUSH1 0x60 DUP5 ADD MSTORE PUSH2 0x87D4 DUP2 DUP7 PUSH2 0x7310 JUMP JUMPDEST SWAP1 POP DUP3 DUP2 SUB PUSH1 0x80 DUP5 ADD MSTORE PUSH2 0x859B DUP2 DUP6 PUSH2 0x7310 JUMP JUMPDEST PUSH2 0xFFFF DUP8 AND DUP2 MSTORE PUSH1 0xC0 PUSH1 0x20 DUP3 ADD MSTORE PUSH1 0x0 PUSH2 0x8805 PUSH1 0xC0 DUP4 ADD DUP9 PUSH2 0x7310 JUMP JUMPDEST DUP3 DUP2 SUB PUSH1 0x40 DUP5 ADD MSTORE PUSH2 0x8817 DUP2 DUP9 PUSH2 0x7310 JUMP JUMPDEST PUSH1 0x1 PUSH1 0x1 PUSH1 0xA0 SHL SUB DUP8 DUP2 AND PUSH1 0x60 DUP7 ADD MSTORE DUP7 AND PUSH1 0x80 DUP6 ADD MSTORE DUP4 DUP2 SUB PUSH1 0xA0 DUP6 ADD MSTORE SWAP1 POP PUSH2 0x8842 DUP2 DUP6 PUSH2 0x7310 JUMP JUMPDEST SWAP10 SWAP9 POP POP POP POP POP POP POP POP POP JUMP JUMPDEST PUSH1 0x1 PUSH1 0x1 PUSH1 0xA0 SHL SUB DUP6 DUP2 AND DUP3 MSTORE DUP5 AND PUSH1 0x20 DUP3 ADD MSTORE PUSH1 0x40 DUP2 ADD DUP4 SWAP1 MSTORE PUSH1 0x80 PUSH1 0x60 DUP3 ADD DUP2 SWAP1 MSTORE PUSH1 0x0 SWAP1 PUSH2 0x8882 SWAP1 DUP4 ADD DUP5 PUSH2 0x7310 JUMP JUMPDEST SWAP7 SWAP6 POP POP POP POP POP POP JUMP JUMPDEST PUSH1 0x0 PUSH1 0x20 DUP3 DUP5 SUB SLT ISZERO PUSH2 0x889E JUMPI PUSH1 0x0 DUP1 REVERT JUMPDEST DUP2 MLOAD PUSH2 0x3F2F DUP2 PUSH2 0x72B9 JUMP JUMPDEST PUSH4 0x4E487B71 PUSH1 0xE0 SHL PUSH1 0x0 MSTORE PUSH1 0x31 PUSH1 0x4 MSTORE PUSH1 0x24 PUSH1 0x0 REVERT INVALID SWAP10 EXTCODEHASH 0xB9 BALANCE PUSH9 0x149DEEBABC6F7B8B2D 0xC5 0x22 JUMPI 0xEA 0xEE OR RETURN NUMBER SIGNEXTEND PUSH14 0x141EA1A8A29F7491A26469706673 PC 0x22 SLT KECCAK256 0xDD DUP13 SGT 0xC6 0xDF DUP13 BLOCKHASH 0xA8 0xBA 0xEE 0xF9 DUP10 0xAD 0xCF 0x1E OR PUSH11 0x9FBED9D0F31AC86756FCF2 0xC4 0xB2 SGT PUSH1 0x64 PUSH20 0x6F6C634300081100330000000000000000000000 "
		},
		"gasEstimates": {
			"creation": {
				"codeDepositCost": "7018600",
				"executionCost": "31089",
				"totalCost": "7049689"
			},
			"external": {
				"DEFAULT_PAYLOAD_SIZE_LIMIT()": "329",
				"FUNCTION_TYPE_SEND()": "381",
				"__fx()": "24435",
				"_feeToken()": "2449",
				"_zonepassmaps(uint256)": "17513",
				"addMinter(address)": "51077",
				"addToStorage(string,uint256,bytes,address)": "infinite",
				"approve(address,uint256)": "infinite",
				"balanceOf(address)": "2672",
				"boostPass(uint256,uint256)": "infinite",
				"burn(uint256)": "infinite",
				"changeDirectFee(uint256)": "24644",
				"clearCredits(bytes)": "infinite",
				"contractAccruedFee(address)": "2669",
				"decrementServices(uint256,uint256)": "infinite",
				"delFromStorage(uint256,uint256,address)": "infinite",
				"deposit(uint256,address,uint256,address)": "infinite",
				"depositMint(address,string,uint256)": "infinite",
				"disableDirect()": "26711",
				"dstChainIdToBatchLimit(uint16)": "2641",
				"dstChainIdToTransferGas(uint16)": "2639",
				"enableDirect()": "26637",
				"estimateSendBatchFee(uint16,bytes,uint256[],bool,bytes)": "infinite",
				"estimateSendFee(uint16,bytes,uint256,bool,bytes)": "infinite",
				"extendPassTime(uint256,uint256)": "infinite",
				"failedMessages(uint16,bytes,uint64)": "infinite",
				"forceResumeReceive(uint16,bytes)": "infinite",
				"getApproved(uint256)": "4940",
				"getBasicInfo(uint256)": "15436",
				"getConfig(uint16,uint16,address,uint256)": "infinite",
				"getDirect()": "2417",
				"getFeeToken()": "2509",
				"getIdBalance(address,uint256)": "2771",
				"getInitializer()": "2444",
				"getRecoveryFee()": "2544",
				"getStorage(uint256,uint256)": "infinite",
				"getStorage_(address,uint256,uint256)": "infinite",
				"getTrustedRemoteAddress(uint16)": "infinite",
				"getWeeklyFee()": "4536",
				"haveStorageAccess(address,uint256,uint256)": "infinite",
				"idToAddress(uint256,address,address,address,uint256)": "infinite",
				"idToId(uint256,uint256,address,uint256)": "infinite",
				"increaseSlots(uint256,uint256)": "infinite",
				"incrementServices(uint256,uint256)": "infinite",
				"incrementTotalServices(uint256)": "29005",
				"initialize(address,string,string,uint256,address)": "infinite",
				"isApprovedForAll(address,address)": "infinite",
				"isExpired(uint256)": "2561",
				"isTrustedRemote(uint16,bytes)": "infinite",
				"lzEndpoint()": "2405",
				"lzReceive(uint16,bytes,uint64,bytes)": "infinite",
				"minDstGasLookup(uint16,uint16)": "infinite",
				"minGasToTransferAndStore()": "2385",
				"mint(address,string)": "infinite",
				"name()": "infinite",
				"nonblockingLzReceive(uint16,bytes,uint64,bytes)": "infinite",
				"owner()": "2487",
				"ownerOf(uint256)": "2650",
				"payloadSizeLimitLookup(uint16)": "2642",
				"precrime()": "2405",
				"recoverData(uint256,uint256)": "infinite",
				"removeMinter(address)": "infinite",
				"removeShare(uint256,uint256,address)": "infinite",
				"renounceOwnership()": "infinite",
				"retryMessage(uint16,bytes,uint64,bytes)": "infinite",
				"safeTransferFrom(address,address,uint256)": "infinite",
				"safeTransferFrom(address,address,uint256,bytes)": "infinite",
				"sendBatchFrom(address,uint16,bytes,uint256[],address,address,bytes)": "infinite",
				"sendFrom(address,uint16,bytes,uint256,address,address,bytes)": "infinite",
				"setApprovalForAll(address,bool)": "infinite",
				"setConfig(uint16,uint16,uint256,bytes)": "infinite",
				"setDstChainIdToBatchLimit(uint16,uint256)": "26205",
				"setDstChainIdToTransferGas(uint16,uint256)": "26193",
				"setFeeToken(address)": "26798",
				"setMinDstGas(uint16,uint16,uint256)": "infinite",
				"setMinGasToTransferAndStore(uint256)": "25668",
				"setPayloadSizeLimit(uint16,uint256)": "24769",
				"setPrecrime(address)": "27906",
				"setReceiveVersion(uint16)": "infinite",
				"setSendVersion(uint16)": "infinite",
				"setTrustedRemote(uint16,bytes)": "infinite",
				"setTrustedRemoteAddress(uint16,bytes)": "infinite",
				"setWeeklyFee(uint256)": "24578",
				"shareStorage(uint256,uint256,address)": "infinite",
				"shareStorage_(uint256,uint256,address,address)": "infinite",
				"storageViewAccess(uint256)": "4734",
				"storedCredits(bytes32)": "6962",
				"supportsInterface(bytes4)": "infinite",
				"symbol()": "infinite",
				"tokenByIndex(uint256)": "6871",
				"tokenOfOwnerByIndex(address,uint256)": "5014",
				"tokenURI(uint256)": "infinite",
				"totalSupply()": "2383",
				"transferFrom(address,address,uint256)": "infinite",
				"transferOwnership(address)": "infinite",
				"trustedRemoteLookup(uint16)": "infinite",
				"withdraw(uint256,address,uint256,address,address)": "infinite",
				"withdrawContractFee(address,uint256)": "infinite"
			},
			"internal": {
				"_beforeTokenTransfer(address,address,uint256,uint256)": "infinite",
				"_burn(uint256)": "infinite",
				"_creditTo(uint16,address,uint256)": "infinite",
				"_debitFrom(address,uint16,bytes memory,uint256)": "infinite"
			}
		},
		"methodIdentifiers": {
			"DEFAULT_PAYLOAD_SIZE_LIMIT()": "c4461834",
			"FUNCTION_TYPE_SEND()": "af3fb21c",
			"__fx()": "53f0620e",
			"_feeToken()": "4828eccc",
			"_zonepassmaps(uint256)": "009c47a0",
			"addMinter(address)": "983b2d56",
			"addToStorage(string,uint256,bytes,address)": "5e34ae78",
			"approve(address,uint256)": "095ea7b3",
			"balanceOf(address)": "70a08231",
			"boostPass(uint256,uint256)": "999ebe55",
			"burn(uint256)": "42966c68",
			"changeDirectFee(uint256)": "3bf7e8f4",
			"clearCredits(bytes)": "8ffa1f2a",
			"contractAccruedFee(address)": "9e402dd6",
			"decrementServices(uint256,uint256)": "5557b279",
			"delFromStorage(uint256,uint256,address)": "ec49fda0",
			"deposit(uint256,address,uint256,address)": "cd88af6e",
			"depositMint(address,string,uint256)": "7a8042a6",
			"disableDirect()": "83a6717b",
			"dstChainIdToBatchLimit(uint16)": "4ac3f4ff",
			"dstChainIdToTransferGas(uint16)": "fa25f9b6",
			"enableDirect()": "de73c155",
			"estimateSendBatchFee(uint16,bytes,uint256[],bool,bytes)": "f2353641",
			"estimateSendFee(uint16,bytes,uint256,bool,bytes)": "2a205e3d",
			"extendPassTime(uint256,uint256)": "8b973040",
			"failedMessages(uint16,bytes,uint64)": "5b8c41e6",
			"forceResumeReceive(uint16,bytes)": "42d65a8d",
			"getApproved(uint256)": "081812fc",
			"getBasicInfo(uint256)": "5baa423e",
			"getConfig(uint16,uint16,address,uint256)": "f5ecbdbc",
			"getDirect()": "1dba087c",
			"getFeeToken()": "ca709a25",
			"getIdBalance(address,uint256)": "0f9e8bc0",
			"getInitializer()": "3e104a95",
			"getRecoveryFee()": "228d0fd9",
			"getStorage(uint256,uint256)": "f06122ae",
			"getStorage_(address,uint256,uint256)": "cc9a6584",
			"getTrustedRemoteAddress(uint16)": "9f38369a",
			"getWeeklyFee()": "3d654199",
			"haveStorageAccess(address,uint256,uint256)": "7907d11c",
			"idToAddress(uint256,address,address,address,uint256)": "73a3daad",
			"idToId(uint256,uint256,address,uint256)": "13579820",
			"increaseSlots(uint256,uint256)": "fd71ca47",
			"incrementServices(uint256,uint256)": "864018b7",
			"incrementTotalServices(uint256)": "8af6c670",
			"initialize(address,string,string,uint256,address)": "747b8a1c",
			"isApprovedForAll(address,address)": "e985e9c5",
			"isExpired(uint256)": "d9548e53",
			"isTrustedRemote(uint16,bytes)": "3d8b38f6",
			"lzEndpoint()": "b353aaa7",
			"lzReceive(uint16,bytes,uint64,bytes)": "001d3567",
			"minDstGasLookup(uint16,uint16)": "8cfd8f5c",
			"minGasToTransferAndStore()": "48288190",
			"mint(address,string)": "d0def521",
			"name()": "06fdde03",
			"nonblockingLzReceive(uint16,bytes,uint64,bytes)": "66ad5c8a",
			"owner()": "8da5cb5b",
			"ownerOf(uint256)": "6352211e",
			"payloadSizeLimitLookup(uint16)": "3f1f4fa4",
			"precrime()": "950c8a74",
			"recoverData(uint256,uint256)": "361c0f87",
			"removeMinter(address)": "3092afd5",
			"removeShare(uint256,uint256,address)": "db2c6dd9",
			"renounceOwnership()": "715018a6",
			"retryMessage(uint16,bytes,uint64,bytes)": "d1deba1f",
			"safeTransferFrom(address,address,uint256)": "42842e0e",
			"safeTransferFrom(address,address,uint256,bytes)": "b88d4fde",
			"sendBatchFrom(address,uint16,bytes,uint256[],address,address,bytes)": "ab3ffb93",
			"sendFrom(address,uint16,bytes,uint256,address,address,bytes)": "51905636",
			"setApprovalForAll(address,bool)": "a22cb465",
			"setConfig(uint16,uint16,uint256,bytes)": "cbed8b9c",
			"setDstChainIdToBatchLimit(uint16,uint256)": "9ea5d6b1",
			"setDstChainIdToTransferGas(uint16,uint256)": "d12473a5",
			"setFeeToken(address)": "15cce224",
			"setMinDstGas(uint16,uint16,uint256)": "df2a5b3b",
			"setMinGasToTransferAndStore(uint256)": "0b4cad4c",
			"setPayloadSizeLimit(uint16,uint256)": "0df37483",
			"setPrecrime(address)": "baf3292d",
			"setReceiveVersion(uint16)": "10ddb137",
			"setSendVersion(uint16)": "07e0db17",
			"setTrustedRemote(uint16,bytes)": "eb8d72b7",
			"setTrustedRemoteAddress(uint16,bytes)": "a6c3d165",
			"setWeeklyFee(uint256)": "60bd30dd",
			"shareStorage(uint256,uint256,address)": "a9d36f5b",
			"shareStorage_(uint256,uint256,address,address)": "3cdc1d53",
			"storageViewAccess(uint256)": "8318dea3",
			"storedCredits(bytes32)": "22a3ecf9",
			"supportsInterface(bytes4)": "01ffc9a7",
			"symbol()": "95d89b41",
			"tokenByIndex(uint256)": "4f6ccce7",
			"tokenOfOwnerByIndex(address,uint256)": "2f745c59",
			"tokenURI(uint256)": "c87b56dd",
			"totalSupply()": "18160ddd",
			"transferFrom(address,address,uint256)": "23b872dd",
			"transferOwnership(address)": "f2fde38b",
			"trustedRemoteLookup(uint16)": "7533d788",
			"withdraw(uint256,address,uint256,address,address)": "5fdd03a2",
			"withdrawContractFee(address,uint256)": "7bce1b34"
		}
	},
	"abi": [
		{
			"anonymous": false,
			"inputs": [
				{
					"indexed": true,
					"internalType": "address",
					"name": "owner",
					"type": "address"
				},
				{
					"indexed": true,
					"internalType": "address",
					"name": "approved",
					"type": "address"
				},
				{
					"indexed": true,
					"internalType": "uint256",
					"name": "tokenId",
					"type": "uint256"
				}
			],
			"name": "Approval",
			"type": "event"
		},
		{
			"anonymous": false,
			"inputs": [
				{
					"indexed": true,
					"internalType": "address",
					"name": "owner",
					"type": "address"
				},
				{
					"indexed": true,
					"internalType": "address",
					"name": "operator",
					"type": "address"
				},
				{
					"indexed": false,
					"internalType": "bool",
					"name": "approved",
					"type": "bool"
				}
			],
			"name": "ApprovalForAll",
			"type": "event"
		},
		{
			"anonymous": false,
			"inputs": [
				{
					"indexed": false,
					"internalType": "uint256",
					"name": "_fromTokenId",
					"type": "uint256"
				},
				{
					"indexed": false,
					"internalType": "uint256",
					"name": "_toTokenId",
					"type": "uint256"
				}
			],
			"name": "BatchMetadataUpdate",
			"type": "event"
		},
		{
			"anonymous": false,
			"inputs": [
				{
					"indexed": false,
					"internalType": "bytes32",
					"name": "_hashedPayload",
					"type": "bytes32"
				}
			],
			"name": "CreditCleared",
			"type": "event"
		},
		{
			"anonymous": false,
			"inputs": [
				{
					"indexed": false,
					"internalType": "bytes32",
					"name": "_hashedPayload",
					"type": "bytes32"
				},
				{
					"indexed": false,
					"internalType": "bytes",
					"name": "_payload",
					"type": "bytes"
				}
			],
			"name": "CreditStored",
			"type": "event"
		},
		{
			"anonymous": false,
			"inputs": [
				{
					"indexed": false,
					"internalType": "uint8",
					"name": "version",
					"type": "uint8"
				}
			],
			"name": "Initialized",
			"type": "event"
		},
		{
			"anonymous": false,
			"inputs": [
				{
					"indexed": false,
					"internalType": "uint16",
					"name": "_srcChainId",
					"type": "uint16"
				},
				{
					"indexed": false,
					"internalType": "bytes",
					"name": "_srcAddress",
					"type": "bytes"
				},
				{
					"indexed": false,
					"internalType": "uint64",
					"name": "_nonce",
					"type": "uint64"
				},
				{
					"indexed": false,
					"internalType": "bytes",
					"name": "_payload",
					"type": "bytes"
				},
				{
					"indexed": false,
					"internalType": "bytes",
					"name": "_reason",
					"type": "bytes"
				}
			],
			"name": "MessageFailed",
			"type": "event"
		},
		{
			"anonymous": false,
			"inputs": [
				{
					"indexed": false,
					"internalType": "uint256",
					"name": "_tokenId",
					"type": "uint256"
				}
			],
			"name": "MetadataUpdate",
			"type": "event"
		},
		{
			"anonymous": false,
			"inputs": [
				{
					"indexed": true,
					"internalType": "address",
					"name": "previousOwner",
					"type": "address"
				},
				{
					"indexed": true,
					"internalType": "address",
					"name": "newOwner",
					"type": "address"
				}
			],
			"name": "OwnershipTransferred",
			"type": "event"
		},
		{
			"anonymous": false,
			"inputs": [
				{
					"indexed": true,
					"internalType": "uint16",
					"name": "_srcChainId",
					"type": "uint16"
				},
				{
					"indexed": true,
					"internalType": "bytes",
					"name": "_srcAddress",
					"type": "bytes"
				},
				{
					"indexed": true,
					"internalType": "address",
					"name": "_toAddress",
					"type": "address"
				},
				{
					"indexed": false,
					"internalType": "uint256[]",
					"name": "_tokenIds",
					"type": "uint256[]"
				}
			],
			"name": "ReceiveFromChain",
			"type": "event"
		},
		{
			"anonymous": false,
			"inputs": [
				{
					"indexed": false,
					"internalType": "uint16",
					"name": "_srcChainId",
					"type": "uint16"
				},
				{
					"indexed": false,
					"internalType": "bytes",
					"name": "_srcAddress",
					"type": "bytes"
				},
				{
					"indexed": false,
					"internalType": "uint64",
					"name": "_nonce",
					"type": "uint64"
				},
				{
					"indexed": false,
					"internalType": "bytes32",
					"name": "_payloadHash",
					"type": "bytes32"
				}
			],
			"name": "RetryMessageSuccess",
			"type": "event"
		},
		{
			"anonymous": false,
			"inputs": [
				{
					"indexed": true,
					"internalType": "uint16",
					"name": "_dstChainId",
					"type": "uint16"
				},
				{
					"indexed": true,
					"internalType": "address",
					"name": "_from",
					"type": "address"
				},
				{
					"indexed": true,
					"internalType": "bytes",
					"name": "_toAddress",
					"type": "bytes"
				},
				{
					"indexed": false,
					"internalType": "uint256[]",
					"name": "_tokenIds",
					"type": "uint256[]"
				}
			],
			"name": "SendToChain",
			"type": "event"
		},
		{
			"anonymous": false,
			"inputs": [
				{
					"indexed": false,
					"internalType": "uint16",
					"name": "_dstChainId",
					"type": "uint16"
				},
				{
					"indexed": false,
					"internalType": "uint256",
					"name": "_dstChainIdToBatchLimit",
					"type": "uint256"
				}
			],
			"name": "SetDstChainIdToBatchLimit",
			"type": "event"
		},
		{
			"anonymous": false,
			"inputs": [
				{
					"indexed": false,
					"internalType": "uint16",
					"name": "_dstChainId",
					"type": "uint16"
				},
				{
					"indexed": false,
					"internalType": "uint256",
					"name": "_dstChainIdToTransferGas",
					"type": "uint256"
				}
			],
			"name": "SetDstChainIdToTransferGas",
			"type": "event"
		},
		{
			"anonymous": false,
			"inputs": [
				{
					"indexed": false,
					"internalType": "uint16",
					"name": "_dstChainId",
					"type": "uint16"
				},
				{
					"indexed": false,
					"internalType": "uint16",
					"name": "_type",
					"type": "uint16"
				},
				{
					"indexed": false,
					"internalType": "uint256",
					"name": "_minDstGas",
					"type": "uint256"
				}
			],
			"name": "SetMinDstGas",
			"type": "event"
		},
		{
			"anonymous": false,
			"inputs": [
				{
					"indexed": false,
					"internalType": "uint256",
					"name": "_minGasToTransferAndStore",
					"type": "uint256"
				}
			],
			"name": "SetMinGasToTransferAndStore",
			"type": "event"
		},
		{
			"anonymous": false,
			"inputs": [
				{
					"indexed": false,
					"internalType": "address",
					"name": "precrime",
					"type": "address"
				}
			],
			"name": "SetPrecrime",
			"type": "event"
		},
		{
			"anonymous": false,
			"inputs": [
				{
					"indexed": false,
					"internalType": "uint16",
					"name": "_remoteChainId",
					"type": "uint16"
				},
				{
					"indexed": false,
					"internalType": "bytes",
					"name": "_path",
					"type": "bytes"
				}
			],
			"name": "SetTrustedRemote",
			"type": "event"
		},
		{
			"anonymous": false,
			"inputs": [
				{
					"indexed": false,
					"internalType": "uint16",
					"name": "_remoteChainId",
					"type": "uint16"
				},
				{
					"indexed": false,
					"internalType": "bytes",
					"name": "_remoteAddress",
					"type": "bytes"
				}
			],
			"name": "SetTrustedRemoteAddress",
			"type": "event"
		},
		{
			"anonymous": false,
			"inputs": [
				{
					"indexed": true,
					"internalType": "address",
					"name": "from",
					"type": "address"
				},
				{
					"indexed": true,
					"internalType": "address",
					"name": "to",
					"type": "address"
				},
				{
					"indexed": true,
					"internalType": "uint256",
					"name": "tokenId",
					"type": "uint256"
				}
			],
			"name": "Transfer",
			"type": "event"
		},
		{
			"inputs": [],
			"name": "DEFAULT_PAYLOAD_SIZE_LIMIT",
			"outputs": [
				{
					"internalType": "uint256",
					"name": "",
					"type": "uint256"
				}
			],
			"stateMutability": "view",
			"type": "function"
		},
		{
			"inputs": [],
			"name": "FUNCTION_TYPE_SEND",
			"outputs": [
				{
					"internalType": "uint16",
					"name": "",
					"type": "uint16"
				}
			],
			"stateMutability": "view",
			"type": "function"
		},
		{
			"inputs": [],
			"name": "__fx",
			"outputs": [],
			"stateMutability": "nonpayable",
			"type": "function"
		},
		{
			"inputs": [],
			"name": "_feeToken",
			"outputs": [
				{
					"internalType": "address",
					"name": "",
					"type": "address"
				}
			],
			"stateMutability": "view",
			"type": "function"
		},
		{
			"inputs": [
				{
					"internalType": "uint256",
					"name": "",
					"type": "uint256"
				}
			],
			"name": "_zonepassmaps",
			"outputs": [
				{
					"internalType": "address",
					"name": "minter",
					"type": "address"
				},
				{
					"internalType": "address",
					"name": "holder",
					"type": "address"
				},
				{
					"internalType": "uint256",
					"name": "mintTime",
					"type": "uint256"
				},
				{
					"internalType": "uint256",
					"name": "lastRenewal",
					"type": "uint256"
				},
				{
					"internalType": "uint256",
					"name": "nextExpiry",
					"type": "uint256"
				},
				{
					"internalType": "uint256",
					"name": "usedSlots",
					"type": "uint256"
				},
				{
					"internalType": "uint256",
					"name": "allowedSlots",
					"type": "uint256"
				},
				{
					"internalType": "uint256",
					"name": "totalServiceUses",
					"type": "uint256"
				}
			],
			"stateMutability": "view",
			"type": "function"
		},
		{
			"inputs": [
				{
					"internalType": "address",
					"name": "minter_",
					"type": "address"
				}
			],
			"name": "addMinter",
			"outputs": [],
			"stateMutability": "nonpayable",
			"type": "function"
		},
		{
			"inputs": [
				{
					"internalType": "string",
					"name": "hash",
					"type": "string"
				},
				{
					"internalType": "uint256",
					"name": "id",
					"type": "uint256"
				},
				{
					"internalType": "bytes",
					"name": "extraData",
					"type": "bytes"
				},
				{
					"internalType": "address",
					"name": "by",
					"type": "address"
				}
			],
			"name": "addToStorage",
			"outputs": [],
			"stateMutability": "payable",
			"type": "function"
		},
		{
			"inputs": [
				{
					"internalType": "address",
					"name": "to",
					"type": "address"
				},
				{
					"internalType": "uint256",
					"name": "tokenId",
					"type": "uint256"
				}
			],
			"name": "approve",
			"outputs": [],
			"stateMutability": "nonpayable",
			"type": "function"
		},
		{
			"inputs": [
				{
					"internalType": "address",
					"name": "owner",
					"type": "address"
				}
			],
			"name": "balanceOf",
			"outputs": [
				{
					"internalType": "uint256",
					"name": "",
					"type": "uint256"
				}
			],
			"stateMutability": "view",
			"type": "function"
		},
		{
			"inputs": [
				{
					"internalType": "uint256",
					"name": "timeInWeeks",
					"type": "uint256"
				},
				{
					"internalType": "uint256",
					"name": "id",
					"type": "uint256"
				}
			],
			"name": "boostPass",
			"outputs": [],
			"stateMutability": "payable",
			"type": "function"
		},
		{
			"inputs": [
				{
					"internalType": "uint256",
					"name": "tokenId",
					"type": "uint256"
				}
			],
			"name": "burn",
			"outputs": [],
			"stateMutability": "nonpayable",
			"type": "function"
		},
		{
			"inputs": [
				{
					"internalType": "uint256",
					"name": "newAmt",
					"type": "uint256"
				}
			],
			"name": "changeDirectFee",
			"outputs": [],
			"stateMutability": "nonpayable",
			"type": "function"
		},
		{
			"inputs": [
				{
					"internalType": "bytes",
					"name": "_payload",
					"type": "bytes"
				}
			],
			"name": "clearCredits",
			"outputs": [],
			"stateMutability": "nonpayable",
			"type": "function"
		},
		{
			"inputs": [
				{
					"internalType": "address",
					"name": "",
					"type": "address"
				}
			],
			"name": "contractAccruedFee",
			"outputs": [
				{
					"internalType": "uint256",
					"name": "",
					"type": "uint256"
				}
			],
			"stateMutability": "view",
			"type": "function"
		},
		{
			"inputs": [
				{
					"internalType": "uint256",
					"name": "id",
					"type": "uint256"
				},
				{
					"internalType": "uint256",
					"name": "num",
					"type": "uint256"
				}
			],
			"name": "decrementServices",
			"outputs": [],
			"stateMutability": "nonpayable",
			"type": "function"
		},
		{
			"inputs": [
				{
					"internalType": "uint256",
					"name": "id",
					"type": "uint256"
				},
				{
					"internalType": "uint256",
					"name": "slot",
					"type": "uint256"
				},
				{
					"internalType": "address",
					"name": "storer",
					"type": "address"
				}
			],
			"name": "delFromStorage",
			"outputs": [],
			"stateMutability": "payable",
			"type": "function"
		},
		{
			"inputs": [
				{
					"internalType": "uint256",
					"name": "id",
					"type": "uint256"
				},
				{
					"internalType": "address",
					"name": "token",
					"type": "address"
				},
				{
					"internalType": "uint256",
					"name": "amt",
					"type": "uint256"
				},
				{
					"internalType": "address",
					"name": "from",
					"type": "address"
				}
			],
			"name": "deposit",
			"outputs": [],
			"stateMutability": "payable",
			"type": "function"
		},
		{
			"inputs": [
				{
					"internalType": "address",
					"name": "to",
					"type": "address"
				},
				{
					"internalType": "string",
					"name": "uri",
					"type": "string"
				},
				{
					"internalType": "uint256",
					"name": "amt",
					"type": "uint256"
				}
			],
			"name": "depositMint",
			"outputs": [],
			"stateMutability": "payable",
			"type": "function"
		},
		{
			"inputs": [],
			"name": "disableDirect",
			"outputs": [],
			"stateMutability": "nonpayable",
			"type": "function"
		},
		{
			"inputs": [
				{
					"internalType": "uint16",
					"name": "",
					"type": "uint16"
				}
			],
			"name": "dstChainIdToBatchLimit",
			"outputs": [
				{
					"internalType": "uint256",
					"name": "",
					"type": "uint256"
				}
			],
			"stateMutability": "view",
			"type": "function"
		},
		{
			"inputs": [
				{
					"internalType": "uint16",
					"name": "",
					"type": "uint16"
				}
			],
			"name": "dstChainIdToTransferGas",
			"outputs": [
				{
					"internalType": "uint256",
					"name": "",
					"type": "uint256"
				}
			],
			"stateMutability": "view",
			"type": "function"
		},
		{
			"inputs": [],
			"name": "enableDirect",
			"outputs": [],
			"stateMutability": "nonpayable",
			"type": "function"
		},
		{
			"inputs": [
				{
					"internalType": "uint16",
					"name": "_dstChainId",
					"type": "uint16"
				},
				{
					"internalType": "bytes",
					"name": "_toAddress",
					"type": "bytes"
				},
				{
					"internalType": "uint256[]",
					"name": "_tokenIds",
					"type": "uint256[]"
				},
				{
					"internalType": "bool",
					"name": "_useZro",
					"type": "bool"
				},
				{
					"internalType": "bytes",
					"name": "_adapterParams",
					"type": "bytes"
				}
			],
			"name": "estimateSendBatchFee",
			"outputs": [
				{
					"internalType": "uint256",
					"name": "nativeFee",
					"type": "uint256"
				},
				{
					"internalType": "uint256",
					"name": "zroFee",
					"type": "uint256"
				}
			],
			"stateMutability": "view",
			"type": "function"
		},
		{
			"inputs": [
				{
					"internalType": "uint16",
					"name": "_dstChainId",
					"type": "uint16"
				},
				{
					"internalType": "bytes",
					"name": "_toAddress",
					"type": "bytes"
				},
				{
					"internalType": "uint256",
					"name": "_tokenId",
					"type": "uint256"
				},
				{
					"internalType": "bool",
					"name": "_useZro",
					"type": "bool"
				},
				{
					"internalType": "bytes",
					"name": "_adapterParams",
					"type": "bytes"
				}
			],
			"name": "estimateSendFee",
			"outputs": [
				{
					"internalType": "uint256",
					"name": "nativeFee",
					"type": "uint256"
				},
				{
					"internalType": "uint256",
					"name": "zroFee",
					"type": "uint256"
				}
			],
			"stateMutability": "view",
			"type": "function"
		},
		{
			"inputs": [
				{
					"internalType": "uint256",
					"name": "id",
					"type": "uint256"
				},
				{
					"internalType": "uint256",
					"name": "time",
					"type": "uint256"
				}
			],
			"name": "extendPassTime",
			"outputs": [],
			"stateMutability": "payable",
			"type": "function"
		},
		{
			"inputs": [
				{
					"internalType": "uint16",
					"name": "",
					"type": "uint16"
				},
				{
					"internalType": "bytes",
					"name": "",
					"type": "bytes"
				},
				{
					"internalType": "uint64",
					"name": "",
					"type": "uint64"
				}
			],
			"name": "failedMessages",
			"outputs": [
				{
					"internalType": "bytes32",
					"name": "",
					"type": "bytes32"
				}
			],
			"stateMutability": "view",
			"type": "function"
		},
		{
			"inputs": [
				{
					"internalType": "uint16",
					"name": "_srcChainId",
					"type": "uint16"
				},
				{
					"internalType": "bytes",
					"name": "_srcAddress",
					"type": "bytes"
				}
			],
			"name": "forceResumeReceive",
			"outputs": [],
			"stateMutability": "nonpayable",
			"type": "function"
		},
		{
			"inputs": [
				{
					"internalType": "uint256",
					"name": "tokenId",
					"type": "uint256"
				}
			],
			"name": "getApproved",
			"outputs": [
				{
					"internalType": "address",
					"name": "",
					"type": "address"
				}
			],
			"stateMutability": "view",
			"type": "function"
		},
		{
			"inputs": [
				{
					"internalType": "uint256",
					"name": "id",
					"type": "uint256"
				}
			],
			"name": "getBasicInfo",
			"outputs": [
				{
					"internalType": "address",
					"name": "",
					"type": "address"
				},
				{
					"internalType": "address",
					"name": "",
					"type": "address"
				},
				{
					"internalType": "uint256",
					"name": "",
					"type": "uint256"
				},
				{
					"internalType": "uint256",
					"name": "",
					"type": "uint256"
				},
				{
					"internalType": "uint256",
					"name": "",
					"type": "uint256"
				},
				{
					"internalType": "uint256",
					"name": "",
					"type": "uint256"
				},
				{
					"internalType": "uint256",
					"name": "",
					"type": "uint256"
				}
			],
			"stateMutability": "view",
			"type": "function"
		},
		{
			"inputs": [
				{
					"internalType": "uint16",
					"name": "_version",
					"type": "uint16"
				},
				{
					"internalType": "uint16",
					"name": "_chainId",
					"type": "uint16"
				},
				{
					"internalType": "address",
					"name": "",
					"type": "address"
				},
				{
					"internalType": "uint256",
					"name": "_configType",
					"type": "uint256"
				}
			],
			"name": "getConfig",
			"outputs": [
				{
					"internalType": "bytes",
					"name": "",
					"type": "bytes"
				}
			],
			"stateMutability": "view",
			"type": "function"
		},
		{
			"inputs": [],
			"name": "getDirect",
			"outputs": [
				{
					"internalType": "bool",
					"name": "",
					"type": "bool"
				}
			],
			"stateMutability": "view",
			"type": "function"
		},
		{
			"inputs": [],
			"name": "getFeeToken",
			"outputs": [
				{
					"internalType": "address",
					"name": "",
					"type": "address"
				}
			],
			"stateMutability": "view",
			"type": "function"
		},
		{
			"inputs": [
				{
					"internalType": "address",
					"name": "token",
					"type": "address"
				},
				{
					"internalType": "uint256",
					"name": "id",
					"type": "uint256"
				}
			],
			"name": "getIdBalance",
			"outputs": [
				{
					"internalType": "uint256",
					"name": "",
					"type": "uint256"
				}
			],
			"stateMutability": "view",
			"type": "function"
		},
		{
			"inputs": [],
			"name": "getInitializer",
			"outputs": [
				{
					"internalType": "address",
					"name": "",
					"type": "address"
				}
			],
			"stateMutability": "view",
			"type": "function"
		},
		{
			"inputs": [],
			"name": "getRecoveryFee",
			"outputs": [
				{
					"internalType": "uint256",
					"name": "",
					"type": "uint256"
				}
			],
			"stateMutability": "view",
			"type": "function"
		},
		{
			"inputs": [
				{
					"internalType": "uint256",
					"name": "id",
					"type": "uint256"
				},
				{
					"internalType": "uint256",
					"name": "slot",
					"type": "uint256"
				}
			],
			"name": "getStorage",
			"outputs": [
				{
					"internalType": "string",
					"name": "",
					"type": "string"
				},
				{
					"internalType": "bytes",
					"name": "",
					"type": "bytes"
				}
			],
			"stateMutability": "view",
			"type": "function"
		},
		{
			"inputs": [
				{
					"internalType": "address",
					"name": "by",
					"type": "address"
				},
				{
					"internalType": "uint256",
					"name": "id",
					"type": "uint256"
				},
				{
					"internalType": "uint256",
					"name": "slot",
					"type": "uint256"
				}
			],
			"name": "getStorage_",
			"outputs": [
				{
					"internalType": "string",
					"name": "",
					"type": "string"
				},
				{
					"internalType": "bytes",
					"name": "",
					"type": "bytes"
				}
			],
			"stateMutability": "view",
			"type": "function"
		},
		{
			"inputs": [
				{
					"internalType": "uint16",
					"name": "_remoteChainId",
					"type": "uint16"
				}
			],
			"name": "getTrustedRemoteAddress",
			"outputs": [
				{
					"internalType": "bytes",
					"name": "",
					"type": "bytes"
				}
			],
			"stateMutability": "view",
			"type": "function"
		},
		{
			"inputs": [],
			"name": "getWeeklyFee",
			"outputs": [
				{
					"internalType": "address",
					"name": "token",
					"type": "address"
				},
				{
					"internalType": "uint256",
					"name": "amount",
					"type": "uint256"
				}
			],
			"stateMutability": "view",
			"type": "function"
		},
		{
			"inputs": [
				{
					"internalType": "address",
					"name": "user",
					"type": "address"
				},
				{
					"internalType": "uint256",
					"name": "id",
					"type": "uint256"
				},
				{
					"internalType": "uint256",
					"name": "slot",
					"type": "uint256"
				}
			],
			"name": "haveStorageAccess",
			"outputs": [
				{
					"internalType": "bool",
					"name": "",
					"type": "bool"
				}
			],
			"stateMutability": "view",
			"type": "function"
		},
		{
			"inputs": [
				{
					"internalType": "uint256",
					"name": "fromId",
					"type": "uint256"
				},
				{
					"internalType": "address",
					"name": "toAddress",
					"type": "address"
				},
				{
					"internalType": "address",
					"name": "from",
					"type": "address"
				},
				{
					"internalType": "address",
					"name": "token",
					"type": "address"
				},
				{
					"internalType": "uint256",
					"name": "amt",
					"type": "uint256"
				}
			],
			"name": "idToAddress",
			"outputs": [],
			"stateMutability": "payable",
			"type": "function"
		},
		{
			"inputs": [
				{
					"internalType": "uint256",
					"name": "fromId",
					"type": "uint256"
				},
				{
					"internalType": "uint256",
					"name": "toId",
					"type": "uint256"
				},
				{
					"internalType": "address",
					"name": "token",
					"type": "address"
				},
				{
					"internalType": "uint256",
					"name": "amount",
					"type": "uint256"
				}
			],
			"name": "idToId",
			"outputs": [],
			"stateMutability": "payable",
			"type": "function"
		},
		{
			"inputs": [
				{
					"internalType": "uint256",
					"name": "slots",
					"type": "uint256"
				},
				{
					"internalType": "uint256",
					"name": "id",
					"type": "uint256"
				}
			],
			"name": "increaseSlots",
			"outputs": [],
			"stateMutability": "nonpayable",
			"type": "function"
		},
		{
			"inputs": [
				{
					"internalType": "uint256",
					"name": "id",
					"type": "uint256"
				},
				{
					"internalType": "uint256",
					"name": "num",
					"type": "uint256"
				}
			],
			"name": "incrementServices",
			"outputs": [],
			"stateMutability": "nonpayable",
			"type": "function"
		},
		{
			"inputs": [
				{
					"internalType": "uint256",
					"name": "id",
					"type": "uint256"
				}
			],
			"name": "incrementTotalServices",
			"outputs": [],
			"stateMutability": "nonpayable",
			"type": "function"
		},
		{
			"inputs": [
				{
					"internalType": "address",
					"name": "weth",
					"type": "address"
				},
				{
					"internalType": "string",
					"name": "name",
					"type": "string"
				},
				{
					"internalType": "string",
					"name": "symbol",
					"type": "string"
				},
				{
					"internalType": "uint256",
					"name": "_minGasToTransfer",
					"type": "uint256"
				},
				{
					"internalType": "address",
					"name": "_lzEndpoint",
					"type": "address"
				}
			],
			"name": "initialize",
			"outputs": [],
			"stateMutability": "nonpayable",
			"type": "function"
		},
		{
			"inputs": [
				{
					"internalType": "address",
					"name": "owner",
					"type": "address"
				},
				{
					"internalType": "address",
					"name": "operator",
					"type": "address"
				}
			],
			"name": "isApprovedForAll",
			"outputs": [
				{
					"internalType": "bool",
					"name": "",
					"type": "bool"
				}
			],
			"stateMutability": "view",
			"type": "function"
		},
		{
			"inputs": [
				{
					"internalType": "uint256",
					"name": "id",
					"type": "uint256"
				}
			],
			"name": "isExpired",
			"outputs": [
				{
					"internalType": "bool",
					"name": "",
					"type": "bool"
				}
			],
			"stateMutability": "view",
			"type": "function"
		},
		{
			"inputs": [
				{
					"internalType": "uint16",
					"name": "_srcChainId",
					"type": "uint16"
				},
				{
					"internalType": "bytes",
					"name": "_srcAddress",
					"type": "bytes"
				}
			],
			"name": "isTrustedRemote",
			"outputs": [
				{
					"internalType": "bool",
					"name": "",
					"type": "bool"
				}
			],
			"stateMutability": "view",
			"type": "function"
		},
		{
			"inputs": [],
			"name": "lzEndpoint",
			"outputs": [
				{
					"internalType": "contract ILayerZeroEndpoint",
					"name": "",
					"type": "address"
				}
			],
			"stateMutability": "view",
			"type": "function"
		},
		{
			"inputs": [
				{
					"internalType": "uint16",
					"name": "_srcChainId",
					"type": "uint16"
				},
				{
					"internalType": "bytes",
					"name": "_srcAddress",
					"type": "bytes"
				},
				{
					"internalType": "uint64",
					"name": "_nonce",
					"type": "uint64"
				},
				{
					"internalType": "bytes",
					"name": "_payload",
					"type": "bytes"
				}
			],
			"name": "lzReceive",
			"outputs": [],
			"stateMutability": "nonpayable",
			"type": "function"
		},
		{
			"inputs": [
				{
					"internalType": "uint16",
					"name": "",
					"type": "uint16"
				},
				{
					"internalType": "uint16",
					"name": "",
					"type": "uint16"
				}
			],
			"name": "minDstGasLookup",
			"outputs": [
				{
					"internalType": "uint256",
					"name": "",
					"type": "uint256"
				}
			],
			"stateMutability": "view",
			"type": "function"
		},
		{
			"inputs": [],
			"name": "minGasToTransferAndStore",
			"outputs": [
				{
					"internalType": "uint256",
					"name": "",
					"type": "uint256"
				}
			],
			"stateMutability": "view",
			"type": "function"
		},
		{
			"inputs": [
				{
					"internalType": "address",
					"name": "to",
					"type": "address"
				},
				{
					"internalType": "string",
					"name": "uri",
					"type": "string"
				}
			],
			"name": "mint",
			"outputs": [],
			"stateMutability": "payable",
			"type": "function"
		},
		{
			"inputs": [],
			"name": "name",
			"outputs": [
				{
					"internalType": "string",
					"name": "",
					"type": "string"
				}
			],
			"stateMutability": "view",
			"type": "function"
		},
		{
			"inputs": [
				{
					"internalType": "uint16",
					"name": "_srcChainId",
					"type": "uint16"
				},
				{
					"internalType": "bytes",
					"name": "_srcAddress",
					"type": "bytes"
				},
				{
					"internalType": "uint64",
					"name": "_nonce",
					"type": "uint64"
				},
				{
					"internalType": "bytes",
					"name": "_payload",
					"type": "bytes"
				}
			],
			"name": "nonblockingLzReceive",
			"outputs": [],
			"stateMutability": "nonpayable",
			"type": "function"
		},
		{
			"inputs": [],
			"name": "owner",
			"outputs": [
				{
					"internalType": "address",
					"name": "",
					"type": "address"
				}
			],
			"stateMutability": "view",
			"type": "function"
		},
		{
			"inputs": [
				{
					"internalType": "uint256",
					"name": "tokenId",
					"type": "uint256"
				}
			],
			"name": "ownerOf",
			"outputs": [
				{
					"internalType": "address",
					"name": "",
					"type": "address"
				}
			],
			"stateMutability": "view",
			"type": "function"
		},
		{
			"inputs": [
				{
					"internalType": "uint16",
					"name": "",
					"type": "uint16"
				}
			],
			"name": "payloadSizeLimitLookup",
			"outputs": [
				{
					"internalType": "uint256",
					"name": "",
					"type": "uint256"
				}
			],
			"stateMutability": "view",
			"type": "function"
		},
		{
			"inputs": [],
			"name": "precrime",
			"outputs": [
				{
					"internalType": "address",
					"name": "",
					"type": "address"
				}
			],
			"stateMutability": "view",
			"type": "function"
		},
		{
			"inputs": [
				{
					"internalType": "uint256",
					"name": "id",
					"type": "uint256"
				},
				{
					"internalType": "uint256",
					"name": "slot",
					"type": "uint256"
				}
			],
			"name": "recoverData",
			"outputs": [],
			"stateMutability": "payable",
			"type": "function"
		},
		{
			"inputs": [
				{
					"internalType": "address",
					"name": "minter_",
					"type": "address"
				}
			],
			"name": "removeMinter",
			"outputs": [],
			"stateMutability": "nonpayable",
			"type": "function"
		},
		{
			"inputs": [
				{
					"internalType": "uint256",
					"name": "id",
					"type": "uint256"
				},
				{
					"internalType": "uint256",
					"name": "slot",
					"type": "uint256"
				},
				{
					"internalType": "address",
					"name": "to",
					"type": "address"
				}
			],
			"name": "removeShare",
			"outputs": [],
			"stateMutability": "nonpayable",
			"type": "function"
		},
		{
			"inputs": [],
			"name": "renounceOwnership",
			"outputs": [],
			"stateMutability": "nonpayable",
			"type": "function"
		},
		{
			"inputs": [
				{
					"internalType": "uint16",
					"name": "_srcChainId",
					"type": "uint16"
				},
				{
					"internalType": "bytes",
					"name": "_srcAddress",
					"type": "bytes"
				},
				{
					"internalType": "uint64",
					"name": "_nonce",
					"type": "uint64"
				},
				{
					"internalType": "bytes",
					"name": "_payload",
					"type": "bytes"
				}
			],
			"name": "retryMessage",
			"outputs": [],
			"stateMutability": "payable",
			"type": "function"
		},
		{
			"inputs": [
				{
					"internalType": "address",
					"name": "from",
					"type": "address"
				},
				{
					"internalType": "address",
					"name": "to",
					"type": "address"
				},
				{
					"internalType": "uint256",
					"name": "tokenId",
					"type": "uint256"
				}
			],
			"name": "safeTransferFrom",
			"outputs": [],
			"stateMutability": "nonpayable",
			"type": "function"
		},
		{
			"inputs": [
				{
					"internalType": "address",
					"name": "from",
					"type": "address"
				},
				{
					"internalType": "address",
					"name": "to",
					"type": "address"
				},
				{
					"internalType": "uint256",
					"name": "tokenId",
					"type": "uint256"
				},
				{
					"internalType": "bytes",
					"name": "data",
					"type": "bytes"
				}
			],
			"name": "safeTransferFrom",
			"outputs": [],
			"stateMutability": "nonpayable",
			"type": "function"
		},
		{
			"inputs": [
				{
					"internalType": "address",
					"name": "_from",
					"type": "address"
				},
				{
					"internalType": "uint16",
					"name": "_dstChainId",
					"type": "uint16"
				},
				{
					"internalType": "bytes",
					"name": "_toAddress",
					"type": "bytes"
				},
				{
					"internalType": "uint256[]",
					"name": "_tokenIds",
					"type": "uint256[]"
				},
				{
					"internalType": "address payable",
					"name": "_refundAddress",
					"type": "address"
				},
				{
					"internalType": "address",
					"name": "_zroPaymentAddress",
					"type": "address"
				},
				{
					"internalType": "bytes",
					"name": "_adapterParams",
					"type": "bytes"
				}
			],
			"name": "sendBatchFrom",
			"outputs": [],
			"stateMutability": "payable",
			"type": "function"
		},
		{
			"inputs": [
				{
					"internalType": "address",
					"name": "_from",
					"type": "address"
				},
				{
					"internalType": "uint16",
					"name": "_dstChainId",
					"type": "uint16"
				},
				{
					"internalType": "bytes",
					"name": "_toAddress",
					"type": "bytes"
				},
				{
					"internalType": "uint256",
					"name": "_tokenId",
					"type": "uint256"
				},
				{
					"internalType": "address payable",
					"name": "_refundAddress",
					"type": "address"
				},
				{
					"internalType": "address",
					"name": "_zroPaymentAddress",
					"type": "address"
				},
				{
					"internalType": "bytes",
					"name": "_adapterParams",
					"type": "bytes"
				}
			],
			"name": "sendFrom",
			"outputs": [],
			"stateMutability": "payable",
			"type": "function"
		},
		{
			"inputs": [
				{
					"internalType": "address",
					"name": "operator",
					"type": "address"
				},
				{
					"internalType": "bool",
					"name": "approved",
					"type": "bool"
				}
			],
			"name": "setApprovalForAll",
			"outputs": [],
			"stateMutability": "nonpayable",
			"type": "function"
		},
		{
			"inputs": [
				{
					"internalType": "uint16",
					"name": "_version",
					"type": "uint16"
				},
				{
					"internalType": "uint16",
					"name": "_chainId",
					"type": "uint16"
				},
				{
					"internalType": "uint256",
					"name": "_configType",
					"type": "uint256"
				},
				{
					"internalType": "bytes",
					"name": "_config",
					"type": "bytes"
				}
			],
			"name": "setConfig",
			"outputs": [],
			"stateMutability": "nonpayable",
			"type": "function"
		},
		{
			"inputs": [
				{
					"internalType": "uint16",
					"name": "_dstChainId",
					"type": "uint16"
				},
				{
					"internalType": "uint256",
					"name": "_dstChainIdToBatchLimit",
					"type": "uint256"
				}
			],
			"name": "setDstChainIdToBatchLimit",
			"outputs": [],
			"stateMutability": "nonpayable",
			"type": "function"
		},
		{
			"inputs": [
				{
					"internalType": "uint16",
					"name": "_dstChainId",
					"type": "uint16"
				},
				{
					"internalType": "uint256",
					"name": "_dstChainIdToTransferGas",
					"type": "uint256"
				}
			],
			"name": "setDstChainIdToTransferGas",
			"outputs": [],
			"stateMutability": "nonpayable",
			"type": "function"
		},
		{
			"inputs": [
				{
					"internalType": "address",
					"name": "token",
					"type": "address"
				}
			],
			"name": "setFeeToken",
			"outputs": [],
			"stateMutability": "nonpayable",
			"type": "function"
		},
		{
			"inputs": [
				{
					"internalType": "uint16",
					"name": "_dstChainId",
					"type": "uint16"
				},
				{
					"internalType": "uint16",
					"name": "_packetType",
					"type": "uint16"
				},
				{
					"internalType": "uint256",
					"name": "_minGas",
					"type": "uint256"
				}
			],
			"name": "setMinDstGas",
			"outputs": [],
			"stateMutability": "nonpayable",
			"type": "function"
		},
		{
			"inputs": [
				{
					"internalType": "uint256",
					"name": "_minGasToTransferAndStore",
					"type": "uint256"
				}
			],
			"name": "setMinGasToTransferAndStore",
			"outputs": [],
			"stateMutability": "nonpayable",
			"type": "function"
		},
		{
			"inputs": [
				{
					"internalType": "uint16",
					"name": "_dstChainId",
					"type": "uint16"
				},
				{
					"internalType": "uint256",
					"name": "_size",
					"type": "uint256"
				}
			],
			"name": "setPayloadSizeLimit",
			"outputs": [],
			"stateMutability": "nonpayable",
			"type": "function"
		},
		{
			"inputs": [
				{
					"internalType": "address",
					"name": "_precrime",
					"type": "address"
				}
			],
			"name": "setPrecrime",
			"outputs": [],
			"stateMutability": "nonpayable",
			"type": "function"
		},
		{
			"inputs": [
				{
					"internalType": "uint16",
					"name": "_version",
					"type": "uint16"
				}
			],
			"name": "setReceiveVersion",
			"outputs": [],
			"stateMutability": "nonpayable",
			"type": "function"
		},
		{
			"inputs": [
				{
					"internalType": "uint16",
					"name": "_version",
					"type": "uint16"
				}
			],
			"name": "setSendVersion",
			"outputs": [],
			"stateMutability": "nonpayable",
			"type": "function"
		},
		{
			"inputs": [
				{
					"internalType": "uint16",
					"name": "_remoteChainId",
					"type": "uint16"
				},
				{
					"internalType": "bytes",
					"name": "_path",
					"type": "bytes"
				}
			],
			"name": "setTrustedRemote",
			"outputs": [],
			"stateMutability": "nonpayable",
			"type": "function"
		},
		{
			"inputs": [
				{
					"internalType": "uint16",
					"name": "_remoteChainId",
					"type": "uint16"
				},
				{
					"internalType": "bytes",
					"name": "_remoteAddress",
					"type": "bytes"
				}
			],
			"name": "setTrustedRemoteAddress",
			"outputs": [],
			"stateMutability": "nonpayable",
			"type": "function"
		},
		{
			"inputs": [
				{
					"internalType": "uint256",
					"name": "amount",
					"type": "uint256"
				}
			],
			"name": "setWeeklyFee",
			"outputs": [],
			"stateMutability": "nonpayable",
			"type": "function"
		},
		{
			"inputs": [
				{
					"internalType": "uint256",
					"name": "id",
					"type": "uint256"
				},
				{
					"internalType": "uint256",
					"name": "slot",
					"type": "uint256"
				},
				{
					"internalType": "address",
					"name": "to",
					"type": "address"
				}
			],
			"name": "shareStorage",
			"outputs": [],
			"stateMutability": "nonpayable",
			"type": "function"
		},
		{
			"inputs": [
				{
					"internalType": "uint256",
					"name": "id",
					"type": "uint256"
				},
				{
					"internalType": "uint256",
					"name": "slot",
					"type": "uint256"
				},
				{
					"internalType": "address",
					"name": "to",
					"type": "address"
				},
				{
					"internalType": "address",
					"name": "from",
					"type": "address"
				}
			],
			"name": "shareStorage_",
			"outputs": [],
			"stateMutability": "nonpayable",
			"type": "function"
		},
		{
			"inputs": [
				{
					"internalType": "uint256",
					"name": "",
					"type": "uint256"
				}
			],
			"name": "storageViewAccess",
			"outputs": [
				{
					"internalType": "uint256",
					"name": "slot",
					"type": "uint256"
				},
				{
					"internalType": "uint256",
					"name": "accesees",
					"type": "uint256"
				}
			],
			"stateMutability": "view",
			"type": "function"
		},
		{
			"inputs": [
				{
					"internalType": "bytes32",
					"name": "",
					"type": "bytes32"
				}
			],
			"name": "storedCredits",
			"outputs": [
				{
					"internalType": "uint16",
					"name": "srcChainId",
					"type": "uint16"
				},
				{
					"internalType": "address",
					"name": "toAddress",
					"type": "address"
				},
				{
					"internalType": "uint256",
					"name": "index",
					"type": "uint256"
				},
				{
					"internalType": "bool",
					"name": "creditsRemain",
					"type": "bool"
				}
			],
			"stateMutability": "view",
			"type": "function"
		},
		{
			"inputs": [
				{
					"internalType": "bytes4",
					"name": "interfaceId",
					"type": "bytes4"
				}
			],
			"name": "supportsInterface",
			"outputs": [
				{
					"internalType": "bool",
					"name": "",
					"type": "bool"
				}
			],
			"stateMutability": "view",
			"type": "function"
		},
		{
			"inputs": [],
			"name": "symbol",
			"outputs": [
				{
					"internalType": "string",
					"name": "",
					"type": "string"
				}
			],
			"stateMutability": "view",
			"type": "function"
		},
		{
			"inputs": [
				{
					"internalType": "uint256",
					"name": "index",
					"type": "uint256"
				}
			],
			"name": "tokenByIndex",
			"outputs": [
				{
					"internalType": "uint256",
					"name": "",
					"type": "uint256"
				}
			],
			"stateMutability": "view",
			"type": "function"
		},
		{
			"inputs": [
				{
					"internalType": "address",
					"name": "owner",
					"type": "address"
				},
				{
					"internalType": "uint256",
					"name": "index",
					"type": "uint256"
				}
			],
			"name": "tokenOfOwnerByIndex",
			"outputs": [
				{
					"internalType": "uint256",
					"name": "",
					"type": "uint256"
				}
			],
			"stateMutability": "view",
			"type": "function"
		},
		{
			"inputs": [
				{
					"internalType": "uint256",
					"name": "tokenId",
					"type": "uint256"
				}
			],
			"name": "tokenURI",
			"outputs": [
				{
					"internalType": "string",
					"name": "",
					"type": "string"
				}
			],
			"stateMutability": "view",
			"type": "function"
		},
		{
			"inputs": [],
			"name": "totalSupply",
			"outputs": [
				{
					"internalType": "uint256",
					"name": "",
					"type": "uint256"
				}
			],
			"stateMutability": "view",
			"type": "function"
		},
		{
			"inputs": [
				{
					"internalType": "address",
					"name": "from",
					"type": "address"
				},
				{
					"internalType": "address",
					"name": "to",
					"type": "address"
				},
				{
					"internalType": "uint256",
					"name": "tokenId",
					"type": "uint256"
				}
			],
			"name": "transferFrom",
			"outputs": [],
			"stateMutability": "nonpayable",
			"type": "function"
		},
		{
			"inputs": [
				{
					"internalType": "address",
					"name": "newOwner",
					"type": "address"
				}
			],
			"name": "transferOwnership",
			"outputs": [],
			"stateMutability": "nonpayable",
			"type": "function"
		},
		{
			"inputs": [
				{
					"internalType": "uint16",
					"name": "",
					"type": "uint16"
				}
			],
			"name": "trustedRemoteLookup",
			"outputs": [
				{
					"internalType": "bytes",
					"name": "",
					"type": "bytes"
				}
			],
			"stateMutability": "view",
			"type": "function"
		},
		{
			"inputs": [
				{
					"internalType": "uint256",
					"name": "id",
					"type": "uint256"
				},
				{
					"internalType": "address",
					"name": "token",
					"type": "address"
				},
				{
					"internalType": "uint256",
					"name": "amt",
					"type": "uint256"
				},
				{
					"internalType": "address",
					"name": "to",
					"type": "address"
				},
				{
					"internalType": "address",
					"name": "from",
					"type": "address"
				}
			],
			"name": "withdraw",
			"outputs": [],
			"stateMutability": "payable",
			"type": "function"
		},
		{
			"inputs": [
				{
					"internalType": "address",
					"name": "token",
					"type": "address"
				},
				{
					"internalType": "uint256",
					"name": "amount",
					"type": "uint256"
				}
			],
			"name": "withdrawContractFee",
			"outputs": [],
			"stateMutability": "nonpayable",
			"type": "function"
		}
	]
}